{
  "_format": "hh-sol-artifact-1",
  "contractName": "LastMinuteJob",
  "sourceName": "contracts/LastMinuteJob.sol",
  "abi": [
    {
      "anonymous": false,
      "inputs": [
        {
          "indexed": false,
          "internalType": "uint256",
          "name": "",
          "type": "uint256"
        }
      ],
      "name": "ev_CloseJob",
      "type": "event"
    },
    {
      "anonymous": false,
      "inputs": [
        {
          "indexed": false,
          "internalType": "uint256",
          "name": "",
          "type": "uint256"
        },
        {
          "indexed": false,
          "internalType": "uint256",
          "name": "",
          "type": "uint256"
        }
      ],
      "name": "ev_CloseRequest",
      "type": "event"
    },
    {
      "anonymous": false,
      "inputs": [
        {
          "indexed": false,
          "internalType": "uint256",
          "name": "",
          "type": "uint256"
        }
      ],
      "name": "ev_ClosedSearch",
      "type": "event"
    },
    {
      "anonymous": false,
      "inputs": [
        {
          "indexed": false,
          "internalType": "address",
          "name": "",
          "type": "address"
        },
        {
          "indexed": false,
          "internalType": "uint256",
          "name": "",
          "type": "uint256"
        }
      ],
      "name": "ev_CreateJob",
      "type": "event"
    },
    {
      "anonymous": false,
      "inputs": [
        {
          "indexed": false,
          "internalType": "address",
          "name": "",
          "type": "address"
        },
        {
          "indexed": false,
          "internalType": "address",
          "name": "",
          "type": "address"
        }
      ],
      "name": "ev_CreateRequest",
      "type": "event"
    },
    {
      "anonymous": false,
      "inputs": [
        {
          "indexed": false,
          "internalType": "uint256",
          "name": "",
          "type": "uint256"
        },
        {
          "indexed": false,
          "internalType": "address",
          "name": "",
          "type": "address"
        }
      ],
      "name": "ev_Hired",
      "type": "event"
    },
    {
      "anonymous": false,
      "inputs": [
        {
          "indexed": false,
          "internalType": "address",
          "name": "",
          "type": "address"
        },
        {
          "indexed": false,
          "internalType": "uint256",
          "name": "",
          "type": "uint256"
        }
      ],
      "name": "ev_Pay",
      "type": "event"
    },
    {
      "anonymous": false,
      "inputs": [
        {
          "indexed": false,
          "internalType": "string",
          "name": "",
          "type": "string"
        },
        {
          "indexed": false,
          "internalType": "address",
          "name": "",
          "type": "address"
        }
      ],
      "name": "ev_RegisterAsCompany",
      "type": "event"
    },
    {
      "anonymous": false,
      "inputs": [
        {
          "indexed": false,
          "internalType": "string",
          "name": "",
          "type": "string"
        },
        {
          "indexed": false,
          "internalType": "string",
          "name": "",
          "type": "string"
        },
        {
          "indexed": false,
          "internalType": "address",
          "name": "",
          "type": "address"
        }
      ],
      "name": "ev_RegisterAsPerson",
      "type": "event"
    },
    {
      "anonymous": false,
      "inputs": [
        {
          "indexed": false,
          "internalType": "address",
          "name": "",
          "type": "address"
        },
        {
          "indexed": false,
          "internalType": "address",
          "name": "",
          "type": "address"
        }
      ],
      "name": "ev_SendMessage",
      "type": "event"
    },
    {
      "inputs": [
        {
          "internalType": "uint256",
          "name": "_nrJob",
          "type": "uint256"
        }
      ],
      "name": "AcceptJob",
      "outputs": [],
      "stateMutability": "nonpayable",
      "type": "function"
    },
    {
      "inputs": [],
      "name": "CheckIsCompany",
      "outputs": [
        {
          "internalType": "bool",
          "name": "",
          "type": "bool"
        }
      ],
      "stateMutability": "view",
      "type": "function"
    },
    {
      "inputs": [],
      "name": "CheckIsPerson",
      "outputs": [
        {
          "internalType": "bool",
          "name": "",
          "type": "bool"
        }
      ],
      "stateMutability": "view",
      "type": "function"
    },
    {
      "inputs": [
        {
          "internalType": "uint256",
          "name": "_nrJob",
          "type": "uint256"
        }
      ],
      "name": "CheckPersonApplied",
      "outputs": [
        {
          "internalType": "bool",
          "name": "",
          "type": "bool"
        }
      ],
      "stateMutability": "view",
      "type": "function"
    },
    {
      "inputs": [
        {
          "internalType": "uint256",
          "name": "_nrJob",
          "type": "uint256"
        }
      ],
      "name": "CheckPersonHired",
      "outputs": [
        {
          "internalType": "bool",
          "name": "",
          "type": "bool"
        }
      ],
      "stateMutability": "view",
      "type": "function"
    },
    {
      "inputs": [
        {
          "internalType": "uint256",
          "name": "_nrJob",
          "type": "uint256"
        }
      ],
      "name": "CloseAndPay",
      "outputs": [],
      "stateMutability": "nonpayable",
      "type": "function"
    },
    {
      "inputs": [
        {
          "internalType": "uint256",
          "name": "_nRequest",
          "type": "uint256"
        }
      ],
      "name": "CloseRequest",
      "outputs": [],
      "stateMutability": "nonpayable",
      "type": "function"
    },
    {
      "inputs": [
        {
          "internalType": "uint256",
          "name": "_nrJob",
          "type": "uint256"
        }
      ],
      "name": "CloseSearching",
      "outputs": [],
      "stateMutability": "nonpayable",
      "type": "function"
    },
    {
      "inputs": [
        {
          "internalType": "string",
          "name": "_title",
          "type": "string"
        },
        {
          "internalType": "string",
          "name": "_description",
          "type": "string"
        },
        {
          "internalType": "string",
          "name": "_workingAddress",
          "type": "string"
        },
        {
          "internalType": "string",
          "name": "_searchingPosition",
          "type": "string"
        },
        {
          "internalType": "uint256",
          "name": "_hourInit",
          "type": "uint256"
        },
        {
          "internalType": "uint256",
          "name": "_hourFinish",
          "type": "uint256"
        },
        {
          "internalType": "uint256",
          "name": "_peopleToHire",
          "type": "uint256"
        },
        {
          "internalType": "uint256",
          "name": "_dateFrom",
          "type": "uint256"
        },
        {
          "internalType": "uint256",
          "name": "_dateTo",
          "type": "uint256"
        }
      ],
      "name": "CreateJob",
      "outputs": [],
      "stateMutability": "payable",
      "type": "function"
    },
    {
      "inputs": [
        {
          "internalType": "address",
          "name": "_destination",
          "type": "address"
        },
        {
          "internalType": "uint256",
          "name": "_dateFrom",
          "type": "uint256"
        },
        {
          "internalType": "uint256",
          "name": "_dateTo",
          "type": "uint256"
        },
        {
          "internalType": "uint256",
          "name": "_hourStart",
          "type": "uint256"
        },
        {
          "internalType": "uint256",
          "name": "_hourFinish",
          "type": "uint256"
        },
        {
          "internalType": "string",
          "name": "_message",
          "type": "string"
        }
      ],
      "name": "CreateRequest",
      "outputs": [],
      "stateMutability": "payable",
      "type": "function"
    },
    {
      "inputs": [],
      "name": "GetCompaniesCounter",
      "outputs": [
        {
          "internalType": "uint256",
          "name": "",
          "type": "uint256"
        }
      ],
      "stateMutability": "view",
      "type": "function"
    },
    {
      "inputs": [],
      "name": "GetPersonsCounter",
      "outputs": [
        {
          "internalType": "uint256",
          "name": "",
          "type": "uint256"
        }
      ],
      "stateMutability": "view",
      "type": "function"
    },
    {
      "inputs": [
        {
          "internalType": "string",
          "name": "_name",
          "type": "string"
        },
        {
          "internalType": "string",
          "name": "_description",
          "type": "string"
        },
        {
          "internalType": "string",
          "name": "_address",
          "type": "string"
        }
      ],
      "name": "RegisterAsCompany",
      "outputs": [],
      "stateMutability": "nonpayable",
      "type": "function"
    },
    {
      "inputs": [
        {
          "internalType": "string",
          "name": "_name",
          "type": "string"
        },
        {
          "internalType": "string",
          "name": "_surname",
          "type": "string"
        },
        {
          "internalType": "uint256",
          "name": "_age",
          "type": "uint256"
        },
        {
          "internalType": "string",
          "name": "_mobilePhone",
          "type": "string"
        },
        {
          "internalType": "string",
          "name": "_CV",
          "type": "string"
        },
        {
          "internalType": "string",
          "name": "_coverLetter",
          "type": "string"
        }
      ],
      "name": "RegisterAsPerson",
      "outputs": [],
      "stateMutability": "nonpayable",
      "type": "function"
    },
    {
      "inputs": [
        {
          "internalType": "uint256",
          "name": "_nrCompanyJob",
          "type": "uint256"
        },
        {
          "internalType": "uint256",
          "name": "_nrCandidate",
          "type": "uint256"
        }
      ],
      "name": "RequestHire",
      "outputs": [],
      "stateMutability": "nonpayable",
      "type": "function"
    },
    {
      "inputs": [
        {
          "internalType": "uint256",
          "name": "_nRequest",
          "type": "uint256"
        },
        {
          "internalType": "string",
          "name": "_message",
          "type": "string"
        }
      ],
      "name": "SendMessage",
      "outputs": [],
      "stateMutability": "nonpayable",
      "type": "function"
    },
    {
      "inputs": [
        {
          "internalType": "uint256",
          "name": "_nrJob",
          "type": "uint256"
        },
        {
          "internalType": "uint256",
          "name": "_nrCandidate",
          "type": "uint256"
        },
        {
          "internalType": "uint256",
          "name": "_absentHours",
          "type": "uint256"
        }
      ],
      "name": "SetAbsentHours",
      "outputs": [],
      "stateMutability": "nonpayable",
      "type": "function"
    },
    {
      "inputs": [
        {
          "internalType": "uint256",
          "name": "_nRequest",
          "type": "uint256"
        },
        {
          "internalType": "uint8",
          "name": "_status",
          "type": "uint8"
        }
      ],
      "name": "SetAnswer",
      "outputs": [],
      "stateMutability": "nonpayable",
      "type": "function"
    },
    {
      "inputs": [
        {
          "internalType": "uint256",
          "name": "_nrJob",
          "type": "uint256"
        },
        {
          "internalType": "uint256",
          "name": "_nrCandidate",
          "type": "uint256"
        }
      ],
      "name": "ShowAbsentHoursCandidate",
      "outputs": [
        {
          "internalType": "uint256",
          "name": "",
          "type": "uint256"
        }
      ],
      "stateMutability": "view",
      "type": "function"
    },
    {
      "inputs": [
        {
          "internalType": "uint256",
          "name": "_nrJob",
          "type": "uint256"
        }
      ],
      "name": "ShowCloseJob",
      "outputs": [
        {
          "internalType": "bool",
          "name": "",
          "type": "bool"
        }
      ],
      "stateMutability": "view",
      "type": "function"
    },
    {
      "inputs": [
        {
          "internalType": "uint256",
          "name": "_nrJob",
          "type": "uint256"
        }
      ],
      "name": "ShowCompanyJobID",
      "outputs": [
        {
          "internalType": "uint256",
          "name": "",
          "type": "uint256"
        }
      ],
      "stateMutability": "view",
      "type": "function"
    },
    {
      "inputs": [],
      "name": "ShowCompanyJobsCounter",
      "outputs": [
        {
          "internalType": "uint256",
          "name": "",
          "type": "uint256"
        }
      ],
      "stateMutability": "view",
      "type": "function"
    },
    {
      "inputs": [],
      "name": "ShowCounterRequests",
      "outputs": [
        {
          "internalType": "uint256",
          "name": "",
          "type": "uint256"
        }
      ],
      "stateMutability": "view",
      "type": "function"
    },
    {
      "inputs": [],
      "name": "ShowCounterRequestsCompany",
      "outputs": [
        {
          "internalType": "uint256",
          "name": "",
          "type": "uint256"
        }
      ],
      "stateMutability": "view",
      "type": "function"
    },
    {
      "inputs": [],
      "name": "ShowCounterRequestsPerson",
      "outputs": [
        {
          "internalType": "uint256",
          "name": "",
          "type": "uint256"
        }
      ],
      "stateMutability": "view",
      "type": "function"
    },
    {
      "inputs": [
        {
          "internalType": "uint256",
          "name": "_nrJob",
          "type": "uint256"
        }
      ],
      "name": "ShowHired",
      "outputs": [
        {
          "internalType": "uint256",
          "name": "",
          "type": "uint256"
        }
      ],
      "stateMutability": "view",
      "type": "function"
    },
    {
      "inputs": [
        {
          "internalType": "uint256",
          "name": "_jobApplied",
          "type": "uint256"
        }
      ],
      "name": "ShowIfHireQuestion",
      "outputs": [
        {
          "internalType": "bool",
          "name": "",
          "type": "bool"
        }
      ],
      "stateMutability": "view",
      "type": "function"
    },
    {
      "inputs": [
        {
          "internalType": "uint256",
          "name": "_jobApplied",
          "type": "uint256"
        }
      ],
      "name": "ShowIfHired",
      "outputs": [
        {
          "internalType": "bool",
          "name": "",
          "type": "bool"
        }
      ],
      "stateMutability": "view",
      "type": "function"
    },
    {
      "inputs": [
        {
          "internalType": "uint256",
          "name": "_nrJob",
          "type": "uint256"
        },
        {
          "internalType": "uint256",
          "name": "_nrCandidate",
          "type": "uint256"
        }
      ],
      "name": "ShowJobCandidate",
      "outputs": [
        {
          "internalType": "string",
          "name": "",
          "type": "string"
        },
        {
          "internalType": "string",
          "name": "",
          "type": "string"
        },
        {
          "internalType": "string",
          "name": "",
          "type": "string"
        },
        {
          "internalType": "uint256",
          "name": "",
          "type": "uint256"
        },
        {
          "internalType": "string",
          "name": "",
          "type": "string"
        },
        {
          "internalType": "string",
          "name": "",
          "type": "string"
        },
        {
          "internalType": "bool",
          "name": "",
          "type": "bool"
        },
        {
          "internalType": "bool",
          "name": "",
          "type": "bool"
        }
      ],
      "stateMutability": "view",
      "type": "function"
    },
    {
      "inputs": [
        {
          "internalType": "uint256",
          "name": "_nrJob",
          "type": "uint256"
        }
      ],
      "name": "ShowJobCandidatesCounter",
      "outputs": [
        {
          "internalType": "uint256",
          "name": "",
          "type": "uint256"
        }
      ],
      "stateMutability": "view",
      "type": "function"
    },
    {
      "inputs": [
        {
          "internalType": "uint256",
          "name": "_nrJob",
          "type": "uint256"
        }
      ],
      "name": "ShowJobSummary",
      "outputs": [
        {
          "internalType": "address",
          "name": "",
          "type": "address"
        },
        {
          "internalType": "uint256",
          "name": "",
          "type": "uint256"
        },
        {
          "internalType": "string",
          "name": "",
          "type": "string"
        },
        {
          "internalType": "string",
          "name": "",
          "type": "string"
        },
        {
          "internalType": "string",
          "name": "",
          "type": "string"
        },
        {
          "internalType": "string",
          "name": "",
          "type": "string"
        },
        {
          "internalType": "uint256",
          "name": "",
          "type": "uint256"
        },
        {
          "internalType": "uint256",
          "name": "",
          "type": "uint256"
        },
        {
          "internalType": "uint256",
          "name": "",
          "type": "uint256"
        },
        {
          "internalType": "bool",
          "name": "",
          "type": "bool"
        },
        {
          "internalType": "uint256",
          "name": "",
          "type": "uint256"
        }
      ],
      "stateMutability": "view",
      "type": "function"
    },
    {
      "inputs": [],
      "name": "ShowJobsCounter",
      "outputs": [
        {
          "internalType": "uint256",
          "name": "",
          "type": "uint256"
        }
      ],
      "stateMutability": "view",
      "type": "function"
    },
    {
      "inputs": [
        {
          "internalType": "uint256",
          "name": "_nRequest",
          "type": "uint256"
        }
      ],
      "name": "ShowMessages",
      "outputs": [
        {
          "components": [
            {
              "internalType": "address",
              "name": "owner",
              "type": "address"
            },
            {
              "internalType": "address",
              "name": "destination",
              "type": "address"
            },
            {
              "internalType": "string",
              "name": "message",
              "type": "string"
            },
            {
              "internalType": "uint256",
              "name": "datetime",
              "type": "uint256"
            }
          ],
          "internalType": "struct LastMinuteJob.Message[]",
          "name": "",
          "type": "tuple[]"
        }
      ],
      "stateMutability": "view",
      "type": "function"
    },
    {
      "inputs": [
        {
          "internalType": "uint256",
          "name": "_nrWorker",
          "type": "uint256"
        }
      ],
      "name": "ShowPerson",
      "outputs": [
        {
          "internalType": "string",
          "name": "",
          "type": "string"
        },
        {
          "internalType": "string",
          "name": "",
          "type": "string"
        },
        {
          "internalType": "uint256",
          "name": "",
          "type": "uint256"
        },
        {
          "internalType": "string",
          "name": "",
          "type": "string"
        },
        {
          "internalType": "string",
          "name": "",
          "type": "string"
        },
        {
          "internalType": "string",
          "name": "",
          "type": "string"
        },
        {
          "internalType": "address",
          "name": "",
          "type": "address"
        }
      ],
      "stateMutability": "view",
      "type": "function"
    },
    {
      "inputs": [
        {
          "internalType": "uint256",
          "name": "_nrRequest",
          "type": "uint256"
        }
      ],
      "name": "ShowRequest",
      "outputs": [
        {
          "internalType": "address",
          "name": "",
          "type": "address"
        },
        {
          "internalType": "address",
          "name": "",
          "type": "address"
        },
        {
          "internalType": "uint256",
          "name": "",
          "type": "uint256"
        },
        {
          "internalType": "uint256",
          "name": "",
          "type": "uint256"
        },
        {
          "internalType": "uint256",
          "name": "",
          "type": "uint256"
        },
        {
          "internalType": "uint256",
          "name": "",
          "type": "uint256"
        },
        {
          "internalType": "uint256",
          "name": "",
          "type": "uint256"
        },
        {
          "internalType": "uint8",
          "name": "",
          "type": "uint8"
        },
        {
          "internalType": "bool",
          "name": "",
          "type": "bool"
        }
      ],
      "stateMutability": "view",
      "type": "function"
    },
    {
      "inputs": [],
      "name": "appliedJobsCounter",
      "outputs": [
        {
          "internalType": "uint256",
          "name": "",
          "type": "uint256"
        }
      ],
      "stateMutability": "view",
      "type": "function"
    },
    {
      "inputs": [
        {
          "internalType": "uint256",
          "name": "_nrJob",
          "type": "uint256"
        }
      ],
      "name": "applyToJob",
      "outputs": [],
      "stateMutability": "nonpayable",
      "type": "function"
    },
    {
      "inputs": [
        {
          "internalType": "uint256",
          "name": "_nrAppliedJob",
          "type": "uint256"
        }
      ],
      "name": "showAppliedJob",
      "outputs": [
        {
          "internalType": "uint256",
          "name": "",
          "type": "uint256"
        }
      ],
      "stateMutability": "view",
      "type": "function"
    }
  ],
  "bytecode": "0x608060405234801561001057600080fd5b506001600055614548806100256000396000f3fe6080604052600436106102855760003560e01c80637c1a243311610153578063b524628f116100cb578063d83f6e701161007f578063ef79966111610064578063ef7996611461074b578063f2fd3e4a14610782578063f8a5ef0b146107a257600080fd5b8063d83f6e7014610716578063daf5223f1461073657600080fd5b8063c301a7a2116100b0578063c301a7a2146106be578063ccef46f3146106d1578063d53f9b9b146106f657600080fd5b8063b524628f14610689578063be077e7a1461069e57600080fd5b80638e1a32d011610122578063a0933fbc11610107578063a0933fbc14610620578063a8404e3f14610635578063ad2a79f81461065557600080fd5b80638e1a32d0146105e05780638e4ca94d1461060057600080fd5b80637c1a24331461056b5780637d2fa51214610598578063863f671f146105b85780638a0b6153146105cb57600080fd5b8063311de8f91161020157806365f36692116101b5578063748ff7ad1161019a578063748ff7ad146104b2578063783485fc146104d75780637a41bdc5146104f757600080fd5b806365f36692146104725780636c4d09841461049257600080fd5b80635386903f116101e65780635386903f1461041d5780635e0ced5c1461043d578063650efe001461045257600080fd5b8063311de8f9146103cc5780633b2aec48146103fd57600080fd5b806313017669116102585780631b1611151161023d5780631b161115146103775780631eca0d2e1461038c57806324c12f56146103ac57600080fd5b8063130176691461032457806316814b9d1461034457600080fd5b806305de6b481461028a5780630b216438146102bd5780630ca0ef74146102df578063117a81ea14610304575b600080fd5b34801561029657600080fd5b506102aa6102a5366004614071565b6107c2565b6040519081526020015b60405180910390f35b3480156102c957600080fd5b506102dd6102d8366004614071565b610836565b005b3480156102eb57600080fd5b50336000908152600160205260409020600701546102aa565b34801561031057600080fd5b506102dd61031f366004613e50565b61092f565b34801561033057600080fd5b506102dd61033f3660046140ce565b610a80565b34801561035057600080fd5b5061036461035f366004614071565b610b63565b6040516102b497969594939291906143bb565b34801561038357600080fd5b506003546102aa565b34801561039857600080fd5b506102aa6103a7366004614071565b610e9a565b3480156103b857600080fd5b506102dd6103c7366004614071565b610ef9565b3480156103d857600080fd5b503360009081526004602052604090205460ff165b60405190151581526020016102b4565b34801561040957600080fd5b506102aa6104183660046140ce565b61147c565b34801561042957600080fd5b506103ed610438366004614071565b6114e8565b34801561044957600080fd5b506102aa61154f565b34801561045e57600080fd5b506103ed61046d366004614071565b611582565b34801561047e57600080fd5b506102dd61048d3660046140ef565b61161f565b34801561049e57600080fd5b506102dd6104ad366004614071565b611899565b3480156104be57600080fd5b50336000908152600460205260409020600a01546102aa565b3480156104e357600080fd5b506102dd6104f2366004614089565b611fec565b34801561050357600080fd5b50610517610512366004614071565b6121a8565b604080516001600160a01b039a8b1681529990981660208a0152968801959095526060870193909352608086019190915260a085015260c084015260ff1660e08301521515610100820152610120016102b4565b34801561057757600080fd5b5061058b610586366004614071565b612338565b6040516102b49190614232565b3480156105a457600080fd5b506102dd6105b3366004613faa565b6124fa565b6102dd6105c6366004613dd2565b6126a7565b3480156105d757600080fd5b50600a546102aa565b3480156105ec57600080fd5b506102dd6105fb366004614071565b6129c1565b34801561060c57600080fd5b506102dd61061b366004614071565b612bd5565b34801561062c57600080fd5b506008546102aa565b34801561064157600080fd5b506102dd61065036600461411a565b612d8b565b34801561066157600080fd5b506106756106703660046140ce565b612e53565b6040516102b4989796959493929190614334565b34801561069557600080fd5b506102aa6132af565b3480156106aa57600080fd5b506102aa6106b9366004614071565b613314565b6102dd6106cc366004613ed4565b6133b3565b3480156106dd57600080fd5b503360009081526001602052604090205460ff166103ed565b34801561070257600080fd5b506103ed610711366004614071565b6136e9565b34801561072257600080fd5b506103ed610731366004614071565b613781565b34801561074257600080fd5b506006546102aa565b34801561075757600080fd5b5061076b610766366004614071565b613836565b6040516102b49b9a99989796959493929190614199565b34801561078e57600080fd5b506103ed61079d366004614071565b613b3b565b3480156107ae57600080fd5b506102aa6107bd366004614071565b613bd8565b600081600854811061080f5760405162461bcd60e51b8152602060048201526011602482015270151a19481a9bd8881b9bdd08195e1a5cdd607a1b60448201526064015b60405180910390fd5b33600090815260016020908152604080832086845260040190915290205491505b50919050565b80600854811061087c5760405162461bcd60e51b8152602060048201526011602482015270151a19481a9bd8881b9bdd08195e1a5cdd607a1b6044820152606401610806565b60008281526007602052604090205482906001600160a01b031633146108db5760405162461bcd60e51b81526020600482015260146024820152732cb7ba93b932903737ba103a34329037bbb732b960611b6044820152606401610806565b600083815260076020908152604091829020600c8101805460ff1916905591518581527f156d298e3230eef448bd5231631a15a00a31d76ee7cc580888b12e660d3c4519910160405180910390a150505050565b3360009081526001602052604090205460ff161561098f5760405162461bcd60e51b815260206004820152601960248201527f596f7527726520616c72656164792072656769737465726421000000000000006044820152606401610806565b336000908152600160208181526040909220805460ff19168217815585516109bf93919092019190860190613c37565b5033600090815260016020908152604090912083516109e692600290920191850190613c37565b503360009081526001602090815260409091208251610a0d92600390920191840190613c37565b5060038054600090815260026020526040812080546001600160a01b0319163317905581549190610a3d836144cb565b91905055507fc7ce3fb6fc45f140ade3c39c738b15b325a6682e6862a6f0cb720b08bfc922cc8333604051610a739291906142ca565b60405180910390a1505050565b33600090815260016020526040902060058101548310610ad25760405162461bcd60e51b815260206004820152600d60248201526c129bd8881b9bdd08199bdd5b99609a1b6044820152606401610806565b600083815260048201602090815260408083205483526007909152902060118101548310610b425760405162461bcd60e51b815260206004820152601360248201527f43616e646974617465206e6f7420666f756e64000000000000000000000000006044820152606401610806565b60009283526010016020525060409020600801805460ff1916600117905550565b6000818152600560208181526040808420546001600160a01b03168085526004808452918520868652928490526003830154600184018054606097889790968896879687968a9693959194600287019391929187019190870190600688019087908790610bcf90614496565b80601f0160208091040260200160405190810160405280929190818152602001828054610bfb90614496565b8015610c485780601f10610c1d57610100808354040283529160200191610c48565b820191906000526020600020905b815481529060010190602001808311610c2b57829003601f168201915b50505050509650858054610c5b90614496565b80601f0160208091040260200160405190810160405280929190818152602001828054610c8790614496565b8015610cd45780601f10610ca957610100808354040283529160200191610cd4565b820191906000526020600020905b815481529060010190602001808311610cb757829003601f168201915b50505050509550838054610ce790614496565b80601f0160208091040260200160405190810160405280929190818152602001828054610d1390614496565b8015610d605780601f10610d3557610100808354040283529160200191610d60565b820191906000526020600020905b815481529060010190602001808311610d4357829003601f168201915b50505050509350828054610d7390614496565b80601f0160208091040260200160405190810160405280929190818152602001828054610d9f90614496565b8015610dec5780601f10610dc157610100808354040283529160200191610dec565b820191906000526020600020905b815481529060010190602001808311610dcf57829003601f168201915b50505050509250818054610dff90614496565b80601f0160208091040260200160405190810160405280929190818152602001828054610e2b90614496565b8015610e785780601f10610e4d57610100808354040283529160200191610e78565b820191906000526020600020905b815481529060010190602001808311610e5b57829003601f168201915b5050505050915098509850985098509850985098505050919395979092949650565b6000816008548110610ee25760405162461bcd60e51b8152602060048201526011602482015270151a19481a9bd8881b9bdd08195e1a5cdd607a1b6044820152606401610806565b50506000908152600760205260409020600e015490565b80600a548110610f0857600080fd5b60026000541415610f5b5760405162461bcd60e51b815260206004820152601f60248201527f5265656e7472616e637947756172643a207265656e7472616e742063616c6c006044820152606401610806565b600260009081558281526009602052604090206008810154610100900460ff16610f8457600080fd5b80546001600160a01b03163314610f9a57600080fd5b600881015460ff1660021415611423576000603c82600501548360060154610fc2919061447f565b610fcc9190614440565b905060006018603c8085600201548660030154610fe9919061447f565b610ff39190614440565b610ffd9190614440565b6110079190614440565b905060008282856004015461101c9190614440565b6110269190614440565b6008805460009081526007602081815260408084208a5481546001600160a01b0319166001600160a01b039091161781556004808c01546001808401919091556005808e01546006808601919091558e0154968401969096558288018190556009830189905560028d0154600a84015560038d0154600b840155600c8301805461ffff191682179055600e83018790556011830187905533875284528286209654948701805487529087019093529084209290925580549495509093916110ec836144cb565b90915550506001808701546001600160a01b031660009081526004602090815260408083206011870154845260108701909252909120918101805491929182919061113690614496565b611141929190613cbb565b50816002018160010190805461115690614496565b611161929190613cbb565b5060018801546002820180546001600160a01b0319166001600160a01b0390921691909117905560048201805460038301919061119d90614496565b6111a8929190613cbb565b506003820154600482015560058083018054918301916111c790614496565b6111d2929190613cbb565b5081600601816006019080546111e790614496565b6111f2929190613cbb565b50600060078201819055601185015460018a01546001600160a01b03168252600f860160209081526040808420839055918352601087019052902081548291908190839061123f90614496565b61124a929190613cbb565b50600182018160010190805461125f90614496565b61126a929190613cbb565b5060028281015490820180546001600160a01b0319166001600160a01b0390921691909117905560038083018054918301916112a590614496565b6112b0929190613cbb565b506004820154816004015560058201816005019080546112cf90614496565b6112da929190613cbb565b5060068201816006019080546112ef90614496565b6112fa929190613cbb565b50600782810154908201556008918201805492909101805460ff938416151560ff19821681178355925461010090819004909416151590930261ff001990921661ffff199093169290921717905560118401805490600061135a836144cb565b90915550506002810154600e850180546000908152600d87016020526040812080546001600160a01b0319166001600160a01b039094169390931790925560088301805461ff0019166101001790558054916113b5836144cb565b909155505060088054908301805460009081526007850160205260408120929092558054916113e3836144cb565b9091555050600c8401805460ff1916905560088054906000611404836144cb565b90915550505060088701805461ff001916905550611431945050505050565b60088101805461ff00191690555b60088101546040805185815260ff90921660208301527f5b35f771d9f644c0f2050975bea8e2fbc8b54a867818d17d83983f4538dcaeb3910160405180910390a15050600160005550565b60008260085481106114c45760405162461bcd60e51b8152602060048201526011602482015270151a19481a9bd8881b9bdd08195e1a5cdd607a1b6044820152606401610806565b50506000918252600760208181526040808520938552601090930190529120015490565b60008160085481106115305760405162461bcd60e51b8152602060048201526011602482015270151a19481a9bd8881b9bdd08195e1a5cdd607a1b6044820152606401610806565b50506000908152600760205260409020600c0154610100900460ff1690565b3360009081526004602052604081205460ff1661156b57600080fd5b503360009081526004602052604090206008015490565b336000908152600460205260408120600881015483106115d45760405162461bcd60e51b815260206004820152600d60248201526c129bd8881b9bdd08199bdd5b99609a1b6044820152606401610806565b6008818101546000908152600792830160209081526040808320548352938152838220338352600f810182528483205483526010019052919091200154610100900460ff1692915050565b8260085481106116655760405162461bcd60e51b8152602060048201526011602482015270151a19481a9bd8881b9bdd08195e1a5cdd607a1b6044820152606401610806565b60008481526007602052604090205484906001600160a01b031633146116c45760405162461bcd60e51b81526020600482015260146024820152732cb7ba93b932903737ba103a34329037bbb732b960611b6044820152606401610806565b600083116116d157600080fd5b6000858152600760205260409020601181015485106117325760405162461bcd60e51b815260206004820152601360248201527f43616e646964617465206e6f7420666f756e64000000000000000000000000006044820152606401610806565b6000858152601082016020526040902060080154610100900460ff1661179a5760405162461bcd60e51b815260206004820152601560248201527f43616e6469646174652069736e277420686972656400000000000000000000006044820152606401610806565b6000603c826006015483600701546117b2919061447f565b6117bc9190614440565b905060006018603c8085600a015486600b01546117d9919061447f565b6117e39190614440565b6117ed9190614440565b6117f79190614440565b905060006118058284614460565b90508087111561187d5760405162461bcd60e51b815260206004820152602860248201527f596f752063616e277420616464206d6f726520686f757273207468616e20746860448201527f6520746f74616c210000000000000000000000000000000000000000000000006064820152608401610806565b5050506000948552601001602052505060409091206007015550565b8060085481106118df5760405162461bcd60e51b8152602060048201526011602482015270151a19481a9bd8881b9bdd08195e1a5cdd607a1b6044820152606401610806565b60008281526007602052604090205482906001600160a01b0316331461193e5760405162461bcd60e51b81526020600482015260146024820152732cb7ba93b932903737ba103a34329037bbb732b960611b6044820152606401610806565b6000838152600760205260409020600c0154839060ff16156119c85760405162461bcd60e51b815260206004820152603060248201527f546865206a6f6220697320736561726368696e672063616e646964617465732060448201527f796f752063616e277420636c6f736521000000000000000000000000000000006064820152608401610806565b6000848152600760205260409020600c01548490610100900460ff1615611a315760405162461bcd60e51b815260206004820152601860248201527f546865206a6f6220697320616c726561647920656e64656400000000000000006044820152606401610806565b60026000541415611a845760405162461bcd60e51b815260206004820152601f60248201527f5265656e7472616e637947756172643a207265656e7472616e742063616c6c006044820152606401610806565b600260009081558581526007602081905260408220600c8101805461ff001916610100179055600681015491810154909291603c91611ac3919061447f565b611acd9190614440565b905060006018603c8085600a015486600b0154611aea919061447f565b611af49190614440565b611afe9190614440565b611b089190614440565b905060005b83600e0154811015611f60576000818152600d850160209081526040808320546001600160a01b03168352600f87018252808320548084526010880190925280832081516101408101909252805492939282908290611b6b90614496565b80601f0160208091040260200160405190810160405280929190818152602001828054611b9790614496565b8015611be45780601f10611bb957610100808354040283529160200191611be4565b820191906000526020600020905b815481529060010190602001808311611bc757829003601f168201915b50505050508152602001600182018054611bfd90614496565b80601f0160208091040260200160405190810160405280929190818152602001828054611c2990614496565b8015611c765780601f10611c4b57610100808354040283529160200191611c76565b820191906000526020600020905b815481529060010190602001808311611c5957829003601f168201915b505050918352505060028201546001600160a01b03166020820152600382018054604090920191611ca690614496565b80601f0160208091040260200160405190810160405280929190818152602001828054611cd290614496565b8015611d1f5780601f10611cf457610100808354040283529160200191611d1f565b820191906000526020600020905b815481529060010190602001808311611d0257829003601f168201915b5050505050815260200160048201548152602001600582018054611d4290614496565b80601f0160208091040260200160405190810160405280929190818152602001828054611d6e90614496565b8015611dbb5780601f10611d9057610100808354040283529160200191611dbb565b820191906000526020600020905b815481529060010190602001808311611d9e57829003601f168201915b50505050508152602001600682018054611dd490614496565b80601f0160208091040260200160405190810160405280929190818152602001828054611e0090614496565b8015611e4d5780601f10611e2257610100808354040283529160200191611e4d565b820191906000526020600020905b815481529060010190602001808311611e3057829003601f168201915b50505091835250506007820154602082015260089091015460ff8082161515604084015261010090910416151560609091015260e0810151909150600090611e958688614460565b611e9f919061447f565b8760090154611eae9190614460565b905081604001516001600160a01b03166108fc829081150290604051600060405180830381858888f19350505050158015611eed573d6000803e3d6000fd5b50808760010154611efe919061447f565b600188015560408281015181516001600160a01b039091168152602081018390527fecf0692d4cedbdf4decc633271b8b1b4d257953fdca5cba30e444495ede0f31c910160405180910390a15050508080611f58906144cb565b915050611b0d565b50600183015415611faa57825460018401546040516001600160a01b039092169181156108fc0291906000818181858888f19350505050158015611fa8573d6000803e3d6000fd5b505b6040518881527fca41b15f743cd506e877a65737b7072363d1ea62b57636bb94622e337a4c2add9060200160405180910390a150506001600055505050505050565b60008281526009602052604090206008810154610100900460ff1661201057600080fd5b60018101546001600160a01b0316331480612034575080546001600160a01b031633145b6120915760405162461bcd60e51b815260206004820152602860248201527f596f75277265206e6f74207468652064657374696e6174696f6e206f7220746860448201526765206f776e65722160c01b6064820152608401610806565b60018101546000906001600160a01b03163314156120ba575080546001600160a01b03166120ca565b5060018101546001600160a01b03165b604080516080810182523381526001600160a01b03838116602080840191825293830187815242606085015260078701805460018181018355600092835291879020865160049092020180549186166001600160a01b0319928316178155935191840180549290951691161790925590518051929384936121519260028501920190613c37565b5060609190910151600390910155604080513381526001600160a01b03841660208201527fd8b299e59f769a419bee2384c79e5dc491a05f9533388b3376d9848981da81b691015b60405180910390a15050505050565b6000806000806000806000806000600a548a106122075760405162461bcd60e51b815260206004820152601960248201527f546865207265717565737420646f65736e2774206578697374000000000000006044820152606401610806565b60008a815260096020526040902080546001600160a01b0316331480612239575060018101546001600160a01b031633145b6122ab5760405162461bcd60e51b815260206004820152602660248201527f596f75277265206e6f7420616c6c6f77656420746f207265616420746865207260448201527f65717565737400000000000000000000000000000000000000000000000000006064820152608401610806565b8060000160009054906101000a90046001600160a01b03168160010160009054906101000a90046001600160a01b0316826002015483600301548460040154856005015486600601548760080160009054906101000a900460ff168860080160019054906101000a900460ff16995099509950995099509950995099509950509193959799909294969850565b606081600a54811061234957600080fd5b600083815260096020526040902060018101546001600160a01b031633148061237b575080546001600160a01b031633145b6123d85760405162461bcd60e51b815260206004820152602860248201527f596f75277265206e6f74207468652064657374696e6174696f6e206f7220746860448201526765206f776e65722160c01b6064820152608401610806565b80600701805480602002602001604051908101604052809291908181526020016000905b828210156124ed576000848152602090819020604080516080810182526004860290920180546001600160a01b039081168452600182015416938301939093526002830180549293929184019161245290614496565b80601f016020809104026020016040519081016040528092919081815260200182805461247e90614496565b80156124cb5780601f106124a0576101008083540402835291602001916124cb565b820191906000526020600020905b8154815290600101906020018083116124ae57829003601f168201915b50505050508152602001600382015481525050815260200190600101906123fc565b5050505092505050919050565b3360009081526004602052604090205460ff161561255a5760405162461bcd60e51b815260206004820152601960248201527f596f7527726520616c72656164792072656769737465726421000000000000006044820152606401610806565b336000908152600460209081526040909120805460ff191660019081178255885161258c939290910191890190613c37565b5033600090815260046020908152604090912086516125b392600290920191880190613c37565b503360009081526004602081815260409092206003810187905585516125e193919092019190860190613c37565b50336000908152600460209081526040909120835161260892600590920191850190613c37565b50336000908152600460209081526040909120825161262f92600690920191840190613c37565b5060068054600090815260056020526040812080546001600160a01b031916331790558154919061265f836144cb565b91905055507f0eeb057e74cdc4b0baf2f21550ca34bce6c87cbfd56af98a4e3b95940f145615868633604051612697939291906142f5565b60405180910390a1505050505050565b3360009081526001602052604090205460ff166126f55760405162461bcd60e51b815260206004820152600c60248201526b4e6f7420436f6d70616e792160a01b6044820152606401610806565b6000341161276a5760405162461bcd60e51b8152602060048201526024808201527f596f75206d75737420637265617465206120726571756573742077697468207660448201527f616c7565000000000000000000000000000000000000000000000000000000006064820152608401610806565b60008311801561277957508282115b80156127855750600085115b801561279057508484115b6127dc5760405162461bcd60e51b815260206004820152601960248201527f54686520696e707574732061726520696e636f727265637473000000000000006044820152606401610806565b600a54600090815260096020908152604080832080546001600160a01b0319908116339081178355600180840180546001600160a01b038f8116918616821790925560028087018f9055600387018e905534600480890191909155600588018e9055600688018d905560088801805461ffff19166101001790558851608081018a52958652858a019283529785018b81524260608701526007880180548087018255908c529a8a902086519b90990290980180549a84169a87169a909a178a5590519289018054939092169290941691909117905592518051929593946128c99392850192910190613c37565b50606091909101516003909101556001600160a01b0387166000908152600460209081526040808320600a80549082018054865260098301909452918420919091558154909290919061291b836144cb565b9091555050336000908152600160209081526040808320600a54600782018054865260068301909452918420919091558154909290919061295b836144cb565b9091555050600a8054906000612970836144cb565b9091555050604080513381526001600160a01b038b1660208201527fe574516642c19610bea5fc1607d78a7cd18f285d643c3f76da84f4bf50daff10910160405180910390a1505050505050505050565b806008548110612a075760405162461bcd60e51b8152602060048201526011602482015270151a19481a9bd8881b9bdd08195e1a5cdd607a1b6044820152606401610806565b3360009081526004602052604090205460ff16612a2357600080fd5b60008281526007602090815260408083203384526004909252909120612a4884613781565b15612a955760405162461bcd60e51b815260206004820152601360248201527f416c7265616479205265676973746572656421000000000000000000000000006044820152606401610806565b601182015460009081526010830160205260409020600182018054829190612abc90614496565b612ac7929190613cbb565b508160020181600101908054612adc90614496565b612ae7929190613cbb565b506002810180546001600160a01b03191633179055600482018054600383019190612b1190614496565b612b1c929190613cbb565b50600382015460048201556005808301805491830191612b3b90614496565b612b46929190613cbb565b508160060181600601908054612b5b90614496565b612b66929190613cbb565b5060006007820181905560088201805461ffff19169055601184018054338352600f86016020526040832081905591612b9e836144cb565b90915550506008820180546000908152600784016020526040812087905581549190612bc9836144cb565b91905055505050505050565b806008548110612c1b5760405162461bcd60e51b8152602060048201526011602482015270151a19481a9bd8881b9bdd08195e1a5cdd607a1b6044820152606401610806565b600082815260076020908152604080832033808552600f82018452828520548086526010830190945291909320600281015490916001600160a01b0390911614612ca75760405162461bcd60e51b815260206004820152601860248201527f596f75277265206e6f74207468652063616e64696461746500000000000000006044820152606401610806565b600881015460ff16612cfb5760405162461bcd60e51b815260206004820152601760248201527f486972652070726f706f73616c206e6f7420666f756e640000000000000000006044820152606401610806565b6002810154600e840180546000908152600d86016020526040812080546001600160a01b0319166001600160a01b039094169390931790925560088301805461ffff1916610100179055805491612d51836144cb565b9091555050604080518681523360208201527fd5ca6cfd1918e76c3d26f5e6de2dc17b8c36ee5288009156a52bab0d193583ca9101612199565b81600a548110612d9a57600080fd5b60008381526009602052604090206008810154610100900460ff16612e015760405162461bcd60e51b815260206004820152601a60248201527f5468652072657175657374206973206e6f7420616374697665210000000000006044820152606401610806565b60018101546001600160a01b03163314612e1a57600080fd5b60008360ff16118015612e30575060038360ff16105b612e3957600080fd5b600801805460ff191660ff93909316929092179091555050565b60608080600081808280896008548110612ea35760405162461bcd60e51b8152602060048201526011602482015270151a19481a9bd8881b9bdd08195e1a5cdd607a1b6044820152606401610806565b60008b8152600760205260409020548b906001600160a01b03163314612f025760405162461bcd60e51b81526020600482015260146024820152732cb7ba93b932903737ba103a34329037bbb732b960611b6044820152606401610806565b60008c81526007602090815260408083208e845260100190915280822081516101408101909252805482908290612f3890614496565b80601f0160208091040260200160405190810160405280929190818152602001828054612f6490614496565b8015612fb15780601f10612f8657610100808354040283529160200191612fb1565b820191906000526020600020905b815481529060010190602001808311612f9457829003601f168201915b50505050508152602001600182018054612fca90614496565b80601f0160208091040260200160405190810160405280929190818152602001828054612ff690614496565b80156130435780601f1061301857610100808354040283529160200191613043565b820191906000526020600020905b81548152906001019060200180831161302657829003601f168201915b505050918352505060028201546001600160a01b0316602082015260038201805460409092019161307390614496565b80601f016020809104026020016040519081016040528092919081815260200182805461309f90614496565b80156130ec5780601f106130c1576101008083540402835291602001916130ec565b820191906000526020600020905b8154815290600101906020018083116130cf57829003601f168201915b505050505081526020016004820154815260200160058201805461310f90614496565b80601f016020809104026020016040519081016040528092919081815260200182805461313b90614496565b80156131885780601f1061315d57610100808354040283529160200191613188565b820191906000526020600020905b81548152906001019060200180831161316b57829003601f168201915b505050505081526020016006820180546131a190614496565b80601f01602080910402602001604051908101604052809291908181526020018280546131cd90614496565b801561321a5780601f106131ef5761010080835404028352916020019161321a565b820191906000526020600020905b8154815290600101906020018083116131fd57829003601f168201915b50505050508152602001600782015481526020016008820160009054906101000a900460ff161515151581526020016008820160019054906101000a900460ff161515151581525050905080600001518160200151826060015183608001518460a001518560c001518661010001518761012001519a509a509a509a509a509a509a509a505050509295985092959890939650565b3360009081526001602052604081205460ff166132fd5760405162461bcd60e51b815260206004820152600c60248201526b4e6f7420436f6d70616e792160a01b6044820152606401610806565b503360009081526001602052604090206005015490565b3360009081526004602052604081205460ff1661333057600080fd5b3360009081526004602052604090206008015482106133915760405162461bcd60e51b815260206004820152600f60248201527f4a6f6220646f6e277420666f756e6400000000000000000000000000000000006044820152606401610806565b5033600090815260046020908152604080832093835260079093019052205490565b3360009081526001602052604090205460ff166134015760405162461bcd60e51b815260206004820152600c60248201526b4e6f7420436f6d70616e792160a01b6044820152606401610806565b600034116134775760405162461bcd60e51b815260206004820152602560248201527f4e6565642073656e64696e67206d6f6e657920666f72206372656174696e672060448201527f61206a6f620000000000000000000000000000000000000000000000000000006064820152608401610806565b60008511801561348657508484115b80156134925750600082115b801561349d57508181115b80156134a95750600083115b6134f55760405162461bcd60e51b815260206004820152601960248201527f54686520696e707574732061726520696e636f727265637473000000000000006044820152606401610806565b6000603c613503878761447f565b61350d9190614440565b905060006018603c80613520878761447f565b61352a9190614440565b6135349190614440565b61353e9190614440565b90506000858361354e8434614440565b6135589190614440565b6135629190614440565b905060006007600060085481526020019081526020016000209050338160000160006101000a8154816001600160a01b0302191690836001600160a01b031602179055503481600101819055508c8160020190805190602001906135c7929190613c37565b508b516135dd90600383019060208f0190613c37565b508a516135f390600483019060208e0190613c37565b50895161360990600583019060208d0190613c37565b506006810189905560078101889055600880820188905560098201839055600a8201879055600b8201869055600c8201805461ffff191660019081179091556000600e8401819055601184018190553381526020918252604080822093546005850180548452600486019094529082205581549190613687836144cb565b90915550506008805490600061369c836144cb565b9091555050604080513381523460208201527f8989b75cccca0fb30da05814ad53f47c96062c68f02f70eef5673f84e1f905d8910160405180910390a15050505050505050505050505050565b3360009081526004602052604081206008810154831061373b5760405162461bcd60e51b815260206004820152600d60248201526c129bd8881b9bdd08199bdd5b99609a1b6044820152606401610806565b6008808201546000908152600792830160209081526040808320548352938152838220338352600f81018252848320548352601001905291909120015460ff1692915050565b60008160085481106137c95760405162461bcd60e51b8152602060048201526011602482015270151a19481a9bd8881b9bdd08195e1a5cdd607a1b6044820152606401610806565b3360009081526004602052604090205460ff166137e557600080fd5b600083815260076020908152604080832033808552600f82018452828520548552601082019093529220600201546001600160a01b0316141561382c576001925050610830565b6000925050610830565b600080606080808084808080808b60085481106138895760405162461bcd60e51b8152602060048201526011602482015270151a19481a9bd8881b9bdd08195e1a5cdd607a1b6044820152606401610806565b60008d8152600760205260409020805460018201546008830154600a840154600b850154600c86015460118701546002880180546001600160a01b0390981697909560038a019560048b019560058c019592949193909260ff16919089906138f090614496565b80601f016020809104026020016040519081016040528092919081815260200182805461391c90614496565b80156139695780601f1061393e57610100808354040283529160200191613969565b820191906000526020600020905b81548152906001019060200180831161394c57829003601f168201915b5050505050985087805461397c90614496565b80601f01602080910402602001604051908101604052809291908181526020018280546139a890614496565b80156139f55780601f106139ca576101008083540402835291602001916139f5565b820191906000526020600020905b8154815290600101906020018083116139d857829003601f168201915b50505050509750868054613a0890614496565b80601f0160208091040260200160405190810160405280929190818152602001828054613a3490614496565b8015613a815780601f10613a5657610100808354040283529160200191613a81565b820191906000526020600020905b815481529060010190602001808311613a6457829003601f168201915b50505050509650858054613a9490614496565b80601f0160208091040260200160405190810160405280929190818152602001828054613ac090614496565b8015613b0d5780601f10613ae257610100808354040283529160200191613b0d565b820191906000526020600020905b815481529060010190602001808311613af057829003601f168201915b505050505095509c509c509c509c509c509c509c509c509c509c509c50505091939597999b90929496989a50565b6000816008548110613b835760405162461bcd60e51b8152602060048201526011602482015270151a19481a9bd8881b9bdd08195e1a5cdd607a1b6044820152606401610806565b3360009081526004602052604090205460ff16613b9f57600080fd5b50506000908152600760209081526040808320338452600f81018352818420548452601001909152902060080154610100900460ff1690565b6000816008548110613c205760405162461bcd60e51b8152602060048201526011602482015270151a19481a9bd8881b9bdd08195e1a5cdd607a1b6044820152606401610806565b505060009081526007602052604090206011015490565b828054613c4390614496565b90600052602060002090601f016020900481019282613c655760008555613cab565b82601f10613c7e57805160ff1916838001178555613cab565b82800160010185558215613cab579182015b82811115613cab578251825591602001919060010190613c90565b50613cb7929150613d36565b5090565b828054613cc790614496565b90600052602060002090601f016020900481019282613ce95760008555613cab565b82601f10613cfa5780548555613cab565b82800160010185558215613cab57600052602060002091601f016020900482015b82811115613cab578254825591600101919060010190613d1b565b5b80821115613cb75760008155600101613d37565b600082601f830112613d5b578081fd5b813567ffffffffffffffff80821115613d7657613d766144fc565b604051601f8301601f19908116603f01168101908282118183101715613d9e57613d9e6144fc565b81604052838152866020858801011115613db6578485fd5b8360208701602083013792830160200193909352509392505050565b60008060008060008060c08789031215613dea578182fd5b86356001600160a01b0381168114613e00578283fd5b95506020870135945060408701359350606087013592506080870135915060a087013567ffffffffffffffff811115613e37578182fd5b613e4389828a01613d4b565b9150509295509295509295565b600080600060608486031215613e64578283fd5b833567ffffffffffffffff80821115613e7b578485fd5b613e8787838801613d4b565b94506020860135915080821115613e9c578384fd5b613ea887838801613d4b565b93506040860135915080821115613ebd578283fd5b50613eca86828701613d4b565b9150509250925092565b60008060008060008060008060006101208a8c031215613ef2578283fd5b893567ffffffffffffffff80821115613f09578485fd5b613f158d838e01613d4b565b9a5060208c0135915080821115613f2a578485fd5b613f368d838e01613d4b565b995060408c0135915080821115613f4b578485fd5b613f578d838e01613d4b565b985060608c0135915080821115613f6c578485fd5b50613f798c828d01613d4b565b999c989b50969960808101359860a0820135985060c0820135975060e0820135965061010090910135945092505050565b60008060008060008060c08789031215613fc2578182fd5b863567ffffffffffffffff80821115613fd9578384fd5b613fe58a838b01613d4b565b97506020890135915080821115613ffa578384fd5b6140068a838b01613d4b565b9650604089013595506060890135915080821115614022578384fd5b61402e8a838b01613d4b565b94506080890135915080821115614043578384fd5b61404f8a838b01613d4b565b935060a0890135915080821115614064578283fd5b50613e4389828a01613d4b565b600060208284031215614082578081fd5b5035919050565b6000806040838503121561409b578182fd5b82359150602083013567ffffffffffffffff8111156140b8578182fd5b6140c485828601613d4b565b9150509250929050565b600080604083850312156140e0578182fd5b50508035926020909101359150565b600080600060608486031215614103578283fd5b505081359360208301359350604090920135919050565b6000806040838503121561412c578182fd5b82359150602083013560ff81168114614143578182fd5b809150509250929050565b60008151808452815b8181101561417357602081850181015186830182015201614157565b818111156141845782602083870101525b50601f01601f19169290920160200192915050565b60006101606001600160a01b038e1683528c60208401528060408401526141c28184018d61414e565b905082810360608401526141d6818c61414e565b905082810360808401526141ea818b61414e565b905082810360a08401526141fe818a61414e565b60c0840198909852505060e08101949094526101008401929092521515610120830152610140909101529695505050505050565b60006020808301818452808551808352604092508286019150828160051b870101848801865b838110156142bc57603f19898403018552815160806001600160a01b03808351168652808a840151168a8701525087820151818987015261429b8287018261414e565b60609384015196909301959095525094870194925090860190600101614258565b509098975050505050505050565b6040815260006142dd604083018561414e565b90506001600160a01b03831660208301529392505050565b606081526000614308606083018661414e565b828103602084015261431a818661414e565b9150506001600160a01b0383166040830152949350505050565b60006101008083526143488184018c61414e565b9050828103602084015261435c818b61414e565b90508281036040840152614370818a61414e565b9050876060840152828103608084015261438a818861414e565b905082810360a084015261439e818761414e565b94151560c0840152505090151560e0909101529695505050505050565b60e0815260006143ce60e083018a61414e565b82810360208401526143e0818a61414e565b905087604084015282810360608401526143fa818861414e565b9050828103608084015261440e818761414e565b905082810360a0840152614422818661414e565b9150506001600160a01b03831660c083015298975050505050505050565b60008261445b57634e487b7160e01b81526012600452602481fd5b500490565b600081600019048311821515161561447a5761447a6144e6565b500290565b600082821015614491576144916144e6565b500390565b600181811c908216806144aa57607f821691505b6020821081141561083057634e487b7160e01b600052602260045260246000fd5b60006000198214156144df576144df6144e6565b5060010190565b634e487b7160e01b600052601160045260246000fd5b634e487b7160e01b600052604160045260246000fdfea2646970667358221220f169d5234473e237782763e37952fbbffbd0c1d67fc40c3e871773c55126917b64736f6c63430008040033",
  "linkReferences": {},
  "deployedLinkReferences": {}
}