{
  "_format": "hh-sol-artifact-1",
  "contractName": "LastMinuteJob",
  "sourceName": "contracts/LastMinuteJob.sol",
  "abi": [
    {
      "anonymous": false,
      "inputs": [
        {
          "indexed": false,
          "internalType": "uint256",
          "name": "",
          "type": "uint256"
        }
      ],
      "name": "ev_CloseJob",
      "type": "event"
    },
    {
      "anonymous": false,
      "inputs": [
        {
          "indexed": false,
          "internalType": "uint256",
          "name": "",
          "type": "uint256"
        },
        {
          "indexed": false,
          "internalType": "uint256",
          "name": "",
          "type": "uint256"
        }
      ],
      "name": "ev_CloseRequest",
      "type": "event"
    },
    {
      "anonymous": false,
      "inputs": [
        {
          "indexed": false,
          "internalType": "uint256",
          "name": "",
          "type": "uint256"
        }
      ],
      "name": "ev_ClosedSearch",
      "type": "event"
    },
    {
      "anonymous": false,
      "inputs": [
        {
          "indexed": false,
          "internalType": "address",
          "name": "",
          "type": "address"
        },
        {
          "indexed": false,
          "internalType": "uint256",
          "name": "",
          "type": "uint256"
        }
      ],
      "name": "ev_CreateJob",
      "type": "event"
    },
    {
      "anonymous": false,
      "inputs": [
        {
          "indexed": false,
          "internalType": "address",
          "name": "",
          "type": "address"
        },
        {
          "indexed": false,
          "internalType": "address",
          "name": "",
          "type": "address"
        }
      ],
      "name": "ev_CreateRequest",
      "type": "event"
    },
    {
      "anonymous": false,
      "inputs": [
        {
          "indexed": false,
          "internalType": "uint256",
          "name": "",
          "type": "uint256"
        },
        {
          "indexed": false,
          "internalType": "address",
          "name": "",
          "type": "address"
        }
      ],
      "name": "ev_Hired",
      "type": "event"
    },
    {
      "anonymous": false,
      "inputs": [
        {
          "indexed": false,
          "internalType": "address",
          "name": "",
          "type": "address"
        },
        {
          "indexed": false,
          "internalType": "uint256",
          "name": "",
          "type": "uint256"
        }
      ],
      "name": "ev_Pay",
      "type": "event"
    },
    {
      "anonymous": false,
      "inputs": [
        {
          "indexed": false,
          "internalType": "string",
          "name": "",
          "type": "string"
        },
        {
          "indexed": false,
          "internalType": "address",
          "name": "",
          "type": "address"
        }
      ],
      "name": "ev_RegisterAsCompany",
      "type": "event"
    },
    {
      "anonymous": false,
      "inputs": [
        {
          "indexed": false,
          "internalType": "string",
          "name": "",
          "type": "string"
        },
        {
          "indexed": false,
          "internalType": "string",
          "name": "",
          "type": "string"
        },
        {
          "indexed": false,
          "internalType": "address",
          "name": "",
          "type": "address"
        }
      ],
      "name": "ev_RegisterAsPerson",
      "type": "event"
    },
    {
      "anonymous": false,
      "inputs": [
        {
          "indexed": false,
          "internalType": "address",
          "name": "",
          "type": "address"
        },
        {
          "indexed": false,
          "internalType": "address",
          "name": "",
          "type": "address"
        }
      ],
      "name": "ev_SendMessage",
      "type": "event"
    },
    {
      "inputs": [
        {
          "internalType": "uint256",
          "name": "_nrJob",
          "type": "uint256"
        }
      ],
      "name": "AcceptJob",
      "outputs": [],
      "stateMutability": "nonpayable",
      "type": "function"
    },
    {
      "inputs": [],
      "name": "CheckIsCompany",
      "outputs": [
        {
          "internalType": "bool",
          "name": "",
          "type": "bool"
        }
      ],
      "stateMutability": "view",
      "type": "function"
    },
    {
      "inputs": [],
      "name": "CheckIsPerson",
      "outputs": [
        {
          "internalType": "bool",
          "name": "",
          "type": "bool"
        }
      ],
      "stateMutability": "view",
      "type": "function"
    },
    {
      "inputs": [
        {
          "internalType": "uint256",
          "name": "_nrJob",
          "type": "uint256"
        }
      ],
      "name": "CheckPersonApplied",
      "outputs": [
        {
          "internalType": "bool",
          "name": "",
          "type": "bool"
        }
      ],
      "stateMutability": "view",
      "type": "function"
    },
    {
      "inputs": [
        {
          "internalType": "uint256",
          "name": "_nrJob",
          "type": "uint256"
        }
      ],
      "name": "CheckPersonHired",
      "outputs": [
        {
          "internalType": "bool",
          "name": "",
          "type": "bool"
        }
      ],
      "stateMutability": "view",
      "type": "function"
    },
    {
      "inputs": [
        {
          "internalType": "uint256",
          "name": "_nrJob",
          "type": "uint256"
        }
      ],
      "name": "CloseAndPay",
      "outputs": [],
      "stateMutability": "nonpayable",
      "type": "function"
    },
    {
      "inputs": [
        {
          "internalType": "uint256",
          "name": "_nRequest",
          "type": "uint256"
        }
      ],
      "name": "CloseRequest",
      "outputs": [],
      "stateMutability": "nonpayable",
      "type": "function"
    },
    {
      "inputs": [
        {
          "internalType": "uint256",
          "name": "_nrJob",
          "type": "uint256"
        }
      ],
      "name": "CloseSearching",
      "outputs": [],
      "stateMutability": "nonpayable",
      "type": "function"
    },
    {
      "inputs": [
        {
          "internalType": "string",
          "name": "_title",
          "type": "string"
        },
        {
          "internalType": "string",
          "name": "_description",
          "type": "string"
        },
        {
          "internalType": "string",
          "name": "_workingAddress",
          "type": "string"
        },
        {
          "internalType": "string",
          "name": "_searchingPosition",
          "type": "string"
        },
        {
          "internalType": "uint256",
          "name": "_hourInit",
          "type": "uint256"
        },
        {
          "internalType": "uint256",
          "name": "_hourFinish",
          "type": "uint256"
        },
        {
          "internalType": "uint256",
          "name": "_peopleToHire",
          "type": "uint256"
        },
        {
          "internalType": "uint256",
          "name": "_dateFrom",
          "type": "uint256"
        },
        {
          "internalType": "uint256",
          "name": "_dateTo",
          "type": "uint256"
        }
      ],
      "name": "CreateJob",
      "outputs": [],
      "stateMutability": "payable",
      "type": "function"
    },
    {
      "inputs": [
        {
          "internalType": "address",
          "name": "_destination",
          "type": "address"
        },
        {
          "internalType": "uint256",
          "name": "_dateFrom",
          "type": "uint256"
        },
        {
          "internalType": "uint256",
          "name": "_dateTo",
          "type": "uint256"
        },
        {
          "internalType": "uint256",
          "name": "_hourStart",
          "type": "uint256"
        },
        {
          "internalType": "uint256",
          "name": "_hourFinish",
          "type": "uint256"
        },
        {
          "internalType": "string",
          "name": "_message",
          "type": "string"
        }
      ],
      "name": "CreateRequest",
      "outputs": [],
      "stateMutability": "payable",
      "type": "function"
    },
    {
      "inputs": [],
      "name": "GetCompaniesCounter",
      "outputs": [
        {
          "internalType": "uint256",
          "name": "",
          "type": "uint256"
        }
      ],
      "stateMutability": "view",
      "type": "function"
    },
    {
      "inputs": [],
      "name": "GetPersonsCounter",
      "outputs": [
        {
          "internalType": "uint256",
          "name": "",
          "type": "uint256"
        }
      ],
      "stateMutability": "view",
      "type": "function"
    },
    {
      "inputs": [
        {
          "internalType": "string",
          "name": "_name",
          "type": "string"
        },
        {
          "internalType": "string",
          "name": "_description",
          "type": "string"
        },
        {
          "internalType": "string",
          "name": "_address",
          "type": "string"
        }
      ],
      "name": "RegisterAsCompany",
      "outputs": [],
      "stateMutability": "nonpayable",
      "type": "function"
    },
    {
      "inputs": [
        {
          "internalType": "string",
          "name": "_name",
          "type": "string"
        },
        {
          "internalType": "string",
          "name": "_surname",
          "type": "string"
        },
        {
          "internalType": "uint256",
          "name": "_age",
          "type": "uint256"
        },
        {
          "internalType": "string",
          "name": "_mobilePhone",
          "type": "string"
        },
        {
          "internalType": "string",
          "name": "_CV",
          "type": "string"
        },
        {
          "internalType": "string",
          "name": "_coverLetter",
          "type": "string"
        }
      ],
      "name": "RegisterAsPerson",
      "outputs": [],
      "stateMutability": "nonpayable",
      "type": "function"
    },
    {
      "inputs": [
        {
          "internalType": "uint256",
          "name": "_nrCompanyJob",
          "type": "uint256"
        },
        {
          "internalType": "uint256",
          "name": "_nrCandidate",
          "type": "uint256"
        }
      ],
      "name": "RequestHire",
      "outputs": [],
      "stateMutability": "nonpayable",
      "type": "function"
    },
    {
      "inputs": [
        {
          "internalType": "uint256",
          "name": "_nRequest",
          "type": "uint256"
        },
        {
          "internalType": "string",
          "name": "_message",
          "type": "string"
        }
      ],
      "name": "SendMessage",
      "outputs": [],
      "stateMutability": "nonpayable",
      "type": "function"
    },
    {
      "inputs": [
        {
          "internalType": "uint256",
          "name": "_nrJob",
          "type": "uint256"
        },
        {
          "internalType": "uint256",
          "name": "_nrCandidate",
          "type": "uint256"
        },
        {
          "internalType": "uint256",
          "name": "_absentHours",
          "type": "uint256"
        }
      ],
      "name": "SetAbsentHours",
      "outputs": [],
      "stateMutability": "nonpayable",
      "type": "function"
    },
    {
      "inputs": [
        {
          "internalType": "uint256",
          "name": "_nRequest",
          "type": "uint256"
        },
        {
          "internalType": "uint8",
          "name": "_status",
          "type": "uint8"
        }
      ],
      "name": "SetAnswer",
      "outputs": [],
      "stateMutability": "nonpayable",
      "type": "function"
    },
    {
      "inputs": [
        {
          "internalType": "uint256",
          "name": "_nrJob",
          "type": "uint256"
        },
        {
          "internalType": "uint256",
          "name": "_nrCandidate",
          "type": "uint256"
        }
      ],
      "name": "ShowAbsentHoursCandidate",
      "outputs": [
        {
          "internalType": "uint256",
          "name": "",
          "type": "uint256"
        }
      ],
      "stateMutability": "view",
      "type": "function"
    },
    {
      "inputs": [
        {
          "internalType": "uint256",
          "name": "_nrJob",
          "type": "uint256"
        }
      ],
      "name": "ShowCloseJob",
      "outputs": [
        {
          "internalType": "bool",
          "name": "",
          "type": "bool"
        }
      ],
      "stateMutability": "view",
      "type": "function"
    },
    {
      "inputs": [
        {
          "internalType": "uint256",
          "name": "_nrJob",
          "type": "uint256"
        }
      ],
      "name": "ShowCompanyJobID",
      "outputs": [
        {
          "internalType": "uint256",
          "name": "",
          "type": "uint256"
        }
      ],
      "stateMutability": "view",
      "type": "function"
    },
    {
      "inputs": [],
      "name": "ShowCompanyJobsCounter",
      "outputs": [
        {
          "internalType": "uint256",
          "name": "",
          "type": "uint256"
        }
      ],
      "stateMutability": "view",
      "type": "function"
    },
    {
      "inputs": [],
      "name": "ShowCounterRequests",
      "outputs": [
        {
          "internalType": "uint256",
          "name": "",
          "type": "uint256"
        }
      ],
      "stateMutability": "view",
      "type": "function"
    },
    {
      "inputs": [],
      "name": "ShowCounterRequestsCompany",
      "outputs": [
        {
          "internalType": "uint256",
          "name": "",
          "type": "uint256"
        }
      ],
      "stateMutability": "view",
      "type": "function"
    },
    {
      "inputs": [],
      "name": "ShowCounterRequestsPerson",
      "outputs": [
        {
          "internalType": "uint256",
          "name": "",
          "type": "uint256"
        }
      ],
      "stateMutability": "view",
      "type": "function"
    },
    {
      "inputs": [
        {
          "internalType": "uint256",
          "name": "_nrJob",
          "type": "uint256"
        }
      ],
      "name": "ShowHired",
      "outputs": [
        {
          "internalType": "uint256",
          "name": "",
          "type": "uint256"
        }
      ],
      "stateMutability": "view",
      "type": "function"
    },
    {
      "inputs": [
        {
          "internalType": "uint256",
          "name": "_nrCompanyRequest",
          "type": "uint256"
        }
      ],
      "name": "ShowIDRequestCompany",
      "outputs": [
        {
          "internalType": "uint256",
          "name": "",
          "type": "uint256"
        }
      ],
      "stateMutability": "view",
      "type": "function"
    },
    {
      "inputs": [
        {
          "internalType": "uint256",
          "name": "_nrPersonRequest",
          "type": "uint256"
        }
      ],
      "name": "ShowIDRequestPerson",
      "outputs": [
        {
          "internalType": "uint256",
          "name": "",
          "type": "uint256"
        }
      ],
      "stateMutability": "view",
      "type": "function"
    },
    {
      "inputs": [
        {
          "internalType": "uint256",
          "name": "_jobApplied",
          "type": "uint256"
        }
      ],
      "name": "ShowIfHireQuestion",
      "outputs": [
        {
          "internalType": "bool",
          "name": "",
          "type": "bool"
        }
      ],
      "stateMutability": "view",
      "type": "function"
    },
    {
      "inputs": [
        {
          "internalType": "uint256",
          "name": "_jobApplied",
          "type": "uint256"
        }
      ],
      "name": "ShowIfHired",
      "outputs": [
        {
          "internalType": "bool",
          "name": "",
          "type": "bool"
        }
      ],
      "stateMutability": "view",
      "type": "function"
    },
    {
      "inputs": [
        {
          "internalType": "uint256",
          "name": "_nrJob",
          "type": "uint256"
        },
        {
          "internalType": "uint256",
          "name": "_nrCandidate",
          "type": "uint256"
        }
      ],
      "name": "ShowJobCandidate",
      "outputs": [
        {
          "internalType": "string",
          "name": "",
          "type": "string"
        },
        {
          "internalType": "string",
          "name": "",
          "type": "string"
        },
        {
          "internalType": "string",
          "name": "",
          "type": "string"
        },
        {
          "internalType": "uint256",
          "name": "",
          "type": "uint256"
        },
        {
          "internalType": "string",
          "name": "",
          "type": "string"
        },
        {
          "internalType": "string",
          "name": "",
          "type": "string"
        },
        {
          "internalType": "bool",
          "name": "",
          "type": "bool"
        },
        {
          "internalType": "bool",
          "name": "",
          "type": "bool"
        }
      ],
      "stateMutability": "view",
      "type": "function"
    },
    {
      "inputs": [
        {
          "internalType": "uint256",
          "name": "_nrJob",
          "type": "uint256"
        }
      ],
      "name": "ShowJobCandidatesCounter",
      "outputs": [
        {
          "internalType": "uint256",
          "name": "",
          "type": "uint256"
        }
      ],
      "stateMutability": "view",
      "type": "function"
    },
    {
      "inputs": [
        {
          "internalType": "uint256",
          "name": "_nrJob",
          "type": "uint256"
        }
      ],
      "name": "ShowJobSummary",
      "outputs": [
        {
          "internalType": "address",
          "name": "",
          "type": "address"
        },
        {
          "internalType": "uint256",
          "name": "",
          "type": "uint256"
        },
        {
          "internalType": "string",
          "name": "",
          "type": "string"
        },
        {
          "internalType": "string",
          "name": "",
          "type": "string"
        },
        {
          "internalType": "string",
          "name": "",
          "type": "string"
        },
        {
          "internalType": "string",
          "name": "",
          "type": "string"
        },
        {
          "internalType": "uint256",
          "name": "",
          "type": "uint256"
        },
        {
          "internalType": "uint256",
          "name": "",
          "type": "uint256"
        },
        {
          "internalType": "uint256",
          "name": "",
          "type": "uint256"
        },
        {
          "internalType": "bool",
          "name": "",
          "type": "bool"
        },
        {
          "internalType": "uint256",
          "name": "",
          "type": "uint256"
        }
      ],
      "stateMutability": "view",
      "type": "function"
    },
    {
      "inputs": [],
      "name": "ShowJobsCounter",
      "outputs": [
        {
          "internalType": "uint256",
          "name": "",
          "type": "uint256"
        }
      ],
      "stateMutability": "view",
      "type": "function"
    },
    {
      "inputs": [
        {
          "internalType": "uint256",
          "name": "_nRequest",
          "type": "uint256"
        }
      ],
      "name": "ShowMessages",
      "outputs": [
        {
          "components": [
            {
              "internalType": "address",
              "name": "owner",
              "type": "address"
            },
            {
              "internalType": "address",
              "name": "destination",
              "type": "address"
            },
            {
              "internalType": "string",
              "name": "message",
              "type": "string"
            },
            {
              "internalType": "uint256",
              "name": "datetime",
              "type": "uint256"
            }
          ],
          "internalType": "struct LastMinuteJob.Message[]",
          "name": "",
          "type": "tuple[]"
        }
      ],
      "stateMutability": "view",
      "type": "function"
    },
    {
      "inputs": [
        {
          "internalType": "uint256",
          "name": "_nrWorker",
          "type": "uint256"
        }
      ],
      "name": "ShowPerson",
      "outputs": [
        {
          "internalType": "string",
          "name": "",
          "type": "string"
        },
        {
          "internalType": "string",
          "name": "",
          "type": "string"
        },
        {
          "internalType": "uint256",
          "name": "",
          "type": "uint256"
        },
        {
          "internalType": "string",
          "name": "",
          "type": "string"
        },
        {
          "internalType": "string",
          "name": "",
          "type": "string"
        },
        {
          "internalType": "string",
          "name": "",
          "type": "string"
        },
        {
          "internalType": "address",
          "name": "",
          "type": "address"
        }
      ],
      "stateMutability": "view",
      "type": "function"
    },
    {
      "inputs": [
        {
          "internalType": "uint256",
          "name": "_nrRequest",
          "type": "uint256"
        }
      ],
      "name": "ShowRequest",
      "outputs": [
        {
          "internalType": "address",
          "name": "",
          "type": "address"
        },
        {
          "internalType": "address",
          "name": "",
          "type": "address"
        },
        {
          "internalType": "uint256",
          "name": "",
          "type": "uint256"
        },
        {
          "internalType": "uint256",
          "name": "",
          "type": "uint256"
        },
        {
          "internalType": "uint256",
          "name": "",
          "type": "uint256"
        },
        {
          "internalType": "uint256",
          "name": "",
          "type": "uint256"
        },
        {
          "internalType": "uint256",
          "name": "",
          "type": "uint256"
        },
        {
          "internalType": "uint8",
          "name": "",
          "type": "uint8"
        },
        {
          "internalType": "bool",
          "name": "",
          "type": "bool"
        }
      ],
      "stateMutability": "view",
      "type": "function"
    },
    {
      "inputs": [],
      "name": "appliedJobsCounter",
      "outputs": [
        {
          "internalType": "uint256",
          "name": "",
          "type": "uint256"
        }
      ],
      "stateMutability": "view",
      "type": "function"
    },
    {
      "inputs": [
        {
          "internalType": "uint256",
          "name": "_nrJob",
          "type": "uint256"
        }
      ],
      "name": "applyToJob",
      "outputs": [],
      "stateMutability": "nonpayable",
      "type": "function"
    },
    {
      "inputs": [
        {
          "internalType": "uint256",
          "name": "_nrAppliedJob",
          "type": "uint256"
        }
      ],
      "name": "showAppliedJob",
      "outputs": [
        {
          "internalType": "uint256",
          "name": "",
          "type": "uint256"
        }
      ],
      "stateMutability": "view",
      "type": "function"
    }
  ],
  "bytecode": "0x608060405234801561001057600080fd5b506001600055614710806100256000396000f3fe6080604052600436106102bb5760003560e01c80637c1a24331161016e578063bda3ce94116100cb578063d83f6e701161007f578063ef79966111610064578063ef799661146107c1578063f2fd3e4a146107f8578063f8a5ef0b1461081857600080fd5b8063d83f6e701461078c578063daf5223f146107ac57600080fd5b8063c301a7a2116100b0578063c301a7a214610734578063ccef46f314610747578063d53f9b9b1461076c57600080fd5b8063bda3ce94146106f4578063be077e7a1461071457600080fd5b80638e4ca94d11610122578063a8404e3f11610107578063a8404e3f1461068b578063ad2a79f8146106ab578063b524628f146106df57600080fd5b80638e4ca94d14610656578063a0933fbc1461067657600080fd5b8063863f671f11610153578063863f671f1461060e5780638a0b6153146106215780638e1a32d01461063657600080fd5b80637c1a2433146105c15780637d2fa512146105ee57600080fd5b80633b2aec481161021c5780636c4d0984116101d0578063748ff7ad116101b5578063748ff7ad14610508578063783485fc1461052d5780637a41bdc51461054d57600080fd5b80636c4d0984146104c857806372b6e521146104e857600080fd5b80635e0ced5c116102015780635e0ced5c14610473578063650efe001461048857806365f36692146104a857600080fd5b80633b2aec48146104335780635386903f1461045357600080fd5b806316814b9d116102735780631eca0d2e116102585780631eca0d2e146103c257806324c12f56146103e2578063311de8f91461040257600080fd5b806316814b9d1461037a5780631b161115146103ad57600080fd5b80630ca0ef74116102a45780630ca0ef7414610315578063117a81ea1461033a578063130176691461035a57600080fd5b806305de6b48146102c05780630b216438146102f3575b600080fd5b3480156102cc57600080fd5b506102e06102db366004614239565b610838565b6040519081526020015b60405180910390f35b3480156102ff57600080fd5b5061031361030e366004614239565b6108ac565b005b34801561032157600080fd5b50336000908152600160205260409020600701546102e0565b34801561034657600080fd5b50610313610355366004614018565b6109a5565b34801561036657600080fd5b50610313610375366004614296565b610af6565b34801561038657600080fd5b5061039a610395366004614239565b610bd9565b6040516102ea9796959493929190614583565b3480156103b957600080fd5b506003546102e0565b3480156103ce57600080fd5b506102e06103dd366004614239565b610f10565b3480156103ee57600080fd5b506103136103fd366004614239565b610f6f565b34801561040e57600080fd5b503360009081526004602052604090205460ff165b60405190151581526020016102ea565b34801561043f57600080fd5b506102e061044e366004614296565b6114f2565b34801561045f57600080fd5b5061042361046e366004614239565b61155e565b34801561047f57600080fd5b506102e06115c5565b34801561049457600080fd5b506104236104a3366004614239565b6115f8565b3480156104b457600080fd5b506103136104c33660046142b7565b611695565b3480156104d457600080fd5b506103136104e3366004614239565b61190f565b3480156104f457600080fd5b506102e0610503366004614239565b612062565b34801561051457600080fd5b50336000908152600460205260409020600a01546102e0565b34801561053957600080fd5b50610313610548366004614251565b61210b565b34801561055957600080fd5b5061056d610568366004614239565b6122c7565b604080516001600160a01b039a8b1681529990981660208a0152968801959095526060870193909352608086019190915260a085015260c084015260ff1660e08301521515610100820152610120016102ea565b3480156105cd57600080fd5b506105e16105dc366004614239565b612457565b6040516102ea91906143fa565b3480156105fa57600080fd5b50610313610609366004614172565b612619565b61031361061c366004613f9a565b6127c6565b34801561062d57600080fd5b50600a546102e0565b34801561064257600080fd5b50610313610651366004614239565b612ae0565b34801561066257600080fd5b50610313610671366004614239565b612cf4565b34801561068257600080fd5b506008546102e0565b34801561069757600080fd5b506103136106a63660046142e2565b612eaa565b3480156106b757600080fd5b506106cb6106c6366004614296565b612f72565b6040516102ea9897969594939291906144fc565b3480156106eb57600080fd5b506102e06133ce565b34801561070057600080fd5b506102e061070f366004614239565b613433565b34801561072057600080fd5b506102e061072f366004614239565b6134dc565b61031361074236600461409c565b61357b565b34801561075357600080fd5b503360009081526001602052604090205460ff16610423565b34801561077857600080fd5b50610423610787366004614239565b6138b1565b34801561079857600080fd5b506104236107a7366004614239565b613949565b3480156107b857600080fd5b506006546102e0565b3480156107cd57600080fd5b506107e16107dc366004614239565b6139fe565b6040516102ea9b9a99989796959493929190614361565b34801561080457600080fd5b50610423610813366004614239565b613d03565b34801561082457600080fd5b506102e0610833366004614239565b613da0565b60008160085481106108855760405162461bcd60e51b8152602060048201526011602482015270151a19481a9bd8881b9bdd08195e1a5cdd607a1b60448201526064015b60405180910390fd5b33600090815260016020908152604080832086845260040190915290205491505b50919050565b8060085481106108f25760405162461bcd60e51b8152602060048201526011602482015270151a19481a9bd8881b9bdd08195e1a5cdd607a1b604482015260640161087c565b60008281526007602052604090205482906001600160a01b031633146109515760405162461bcd60e51b81526020600482015260146024820152732cb7ba93b932903737ba103a34329037bbb732b960611b604482015260640161087c565b600083815260076020908152604091829020600c8101805460ff1916905591518581527f156d298e3230eef448bd5231631a15a00a31d76ee7cc580888b12e660d3c4519910160405180910390a150505050565b3360009081526001602052604090205460ff1615610a055760405162461bcd60e51b815260206004820152601960248201527f596f7527726520616c7265616479207265676973746572642100000000000000604482015260640161087c565b336000908152600160208181526040909220805460ff1916821781558551610a3593919092019190860190613dff565b503360009081526001602090815260409091208351610a5c92600290920191850190613dff565b503360009081526001602090815260409091208251610a8392600390920191840190613dff565b5060038054600090815260026020526040812080546001600160a01b0319163317905581549190610ab383614693565b91905055507fc7ce3fb6fc45f140ade3c39c738b15b325a6682e6862a6f0cb720b08bfc922cc8333604051610ae9929190614492565b60405180910390a1505050565b33600090815260016020526040902060058101548310610b485760405162461bcd60e51b815260206004820152600d60248201526c129bd8881b9bdd08199bdd5b99609a1b604482015260640161087c565b600083815260048201602090815260408083205483526007909152902060118101548310610bb85760405162461bcd60e51b815260206004820152601360248201527f43616e646974617465206e6f7420666f756e6400000000000000000000000000604482015260640161087c565b60009283526010016020525060409020600801805460ff1916600117905550565b6000818152600560208181526040808420546001600160a01b03168085526004808452918520868652928490526003830154600184018054606097889790968896879687968a9693959194600287019391929187019190870190600688019087908790610c459061465e565b80601f0160208091040260200160405190810160405280929190818152602001828054610c719061465e565b8015610cbe5780601f10610c9357610100808354040283529160200191610cbe565b820191906000526020600020905b815481529060010190602001808311610ca157829003601f168201915b50505050509650858054610cd19061465e565b80601f0160208091040260200160405190810160405280929190818152602001828054610cfd9061465e565b8015610d4a5780601f10610d1f57610100808354040283529160200191610d4a565b820191906000526020600020905b815481529060010190602001808311610d2d57829003601f168201915b50505050509550838054610d5d9061465e565b80601f0160208091040260200160405190810160405280929190818152602001828054610d899061465e565b8015610dd65780601f10610dab57610100808354040283529160200191610dd6565b820191906000526020600020905b815481529060010190602001808311610db957829003601f168201915b50505050509350828054610de99061465e565b80601f0160208091040260200160405190810160405280929190818152602001828054610e159061465e565b8015610e625780601f10610e3757610100808354040283529160200191610e62565b820191906000526020600020905b815481529060010190602001808311610e4557829003601f168201915b50505050509250818054610e759061465e565b80601f0160208091040260200160405190810160405280929190818152602001828054610ea19061465e565b8015610eee5780601f10610ec357610100808354040283529160200191610eee565b820191906000526020600020905b815481529060010190602001808311610ed157829003601f168201915b5050505050915098509850985098509850985098505050919395979092949650565b6000816008548110610f585760405162461bcd60e51b8152602060048201526011602482015270151a19481a9bd8881b9bdd08195e1a5cdd607a1b604482015260640161087c565b50506000908152600760205260409020600e015490565b80600a548110610f7e57600080fd5b60026000541415610fd15760405162461bcd60e51b815260206004820152601f60248201527f5265656e7472616e637947756172643a207265656e7472616e742063616c6c00604482015260640161087c565b600260009081558281526009602052604090206008810154610100900460ff16610ffa57600080fd5b80546001600160a01b0316331461101057600080fd5b600881015460ff1660021415611499576000603c826005015483600601546110389190614647565b6110429190614608565b905060006018603c808560020154866003015461105f9190614647565b6110699190614608565b6110739190614608565b61107d9190614608565b90506000828285600401546110929190614608565b61109c9190614608565b6008805460009081526007602081815260408084208a5481546001600160a01b0319166001600160a01b039091161781556004808c01546001808401919091556005808e01546006808601919091558e0154968401969096558288018190556009830189905560028d0154600a84015560038d0154600b840155600c8301805461ffff191682179055600e830187905560118301879055338752845282862096549487018054875290870190935290842092909255805494955090939161116283614693565b90915550506001808701546001600160a01b03166000908152600460209081526040808320601187015484526010870190925290912091810180549192918291906111ac9061465e565b6111b7929190613e83565b5081600201816001019080546111cc9061465e565b6111d7929190613e83565b5060018801546002820180546001600160a01b0319166001600160a01b039092169190911790556004820180546003830191906112139061465e565b61121e929190613e83565b5060038201546004820155600580830180549183019161123d9061465e565b611248929190613e83565b50816006018160060190805461125d9061465e565b611268929190613e83565b50600060078201819055601185015460018a01546001600160a01b03168252600f86016020908152604080842083905591835260108701905290208154829190819083906112b59061465e565b6112c0929190613e83565b5060018201816001019080546112d59061465e565b6112e0929190613e83565b5060028281015490820180546001600160a01b0319166001600160a01b03909216919091179055600380830180549183019161131b9061465e565b611326929190613e83565b506004820154816004015560058201816005019080546113459061465e565b611350929190613e83565b5060068201816006019080546113659061465e565b611370929190613e83565b50600782810154908201556008918201805492909101805460ff938416151560ff19821681178355925461010090819004909416151590930261ff001990921661ffff19909316929092171790556011840180549060006113d083614693565b90915550506002810154600e850180546000908152600d87016020526040812080546001600160a01b0319166001600160a01b039094169390931790925560088301805461ff00191661010017905580549161142b83614693565b9091555050600880549083018054600090815260078501602052604081209290925580549161145983614693565b9091555050600c8401805460ff191690556008805490600061147a83614693565b90915550505060088701805461ff0019169055506114a7945050505050565b60088101805461ff00191690555b60088101546040805185815260ff90921660208301527f5b35f771d9f644c0f2050975bea8e2fbc8b54a867818d17d83983f4538dcaeb3910160405180910390a15050600160005550565b600082600854811061153a5760405162461bcd60e51b8152602060048201526011602482015270151a19481a9bd8881b9bdd08195e1a5cdd607a1b604482015260640161087c565b50506000918252600760208181526040808520938552601090930190529120015490565b60008160085481106115a65760405162461bcd60e51b8152602060048201526011602482015270151a19481a9bd8881b9bdd08195e1a5cdd607a1b604482015260640161087c565b50506000908152600760205260409020600c0154610100900460ff1690565b3360009081526004602052604081205460ff166115e157600080fd5b503360009081526004602052604090206008015490565b3360009081526004602052604081206008810154831061164a5760405162461bcd60e51b815260206004820152600d60248201526c129bd8881b9bdd08199bdd5b99609a1b604482015260640161087c565b6008818101546000908152600792830160209081526040808320548352938152838220338352600f810182528483205483526010019052919091200154610100900460ff1692915050565b8260085481106116db5760405162461bcd60e51b8152602060048201526011602482015270151a19481a9bd8881b9bdd08195e1a5cdd607a1b604482015260640161087c565b60008481526007602052604090205484906001600160a01b0316331461173a5760405162461bcd60e51b81526020600482015260146024820152732cb7ba93b932903737ba103a34329037bbb732b960611b604482015260640161087c565b6000831161174757600080fd5b6000858152600760205260409020601181015485106117a85760405162461bcd60e51b815260206004820152601360248201527f43616e646964617465206e6f7420666f756e6400000000000000000000000000604482015260640161087c565b6000858152601082016020526040902060080154610100900460ff166118105760405162461bcd60e51b815260206004820152601560248201527f43616e6469646174652069736e27742068697265640000000000000000000000604482015260640161087c565b6000603c826006015483600701546118289190614647565b6118329190614608565b905060006018603c8085600a015486600b015461184f9190614647565b6118599190614608565b6118639190614608565b61186d9190614608565b9050600061187b8284614628565b9050808711156118f35760405162461bcd60e51b815260206004820152602860248201527f596f752063616e277420616464206d6f726520686f757273207468616e20746860448201527f6520746f74616c21000000000000000000000000000000000000000000000000606482015260840161087c565b5050506000948552601001602052505060409091206007015550565b8060085481106119555760405162461bcd60e51b8152602060048201526011602482015270151a19481a9bd8881b9bdd08195e1a5cdd607a1b604482015260640161087c565b60008281526007602052604090205482906001600160a01b031633146119b45760405162461bcd60e51b81526020600482015260146024820152732cb7ba93b932903737ba103a34329037bbb732b960611b604482015260640161087c565b6000838152600760205260409020600c0154839060ff1615611a3e5760405162461bcd60e51b815260206004820152603060248201527f546865206a6f6220697320736561726368696e672063616e646964617465732060448201527f796f752063616e277420636c6f73652100000000000000000000000000000000606482015260840161087c565b6000848152600760205260409020600c01548490610100900460ff1615611aa75760405162461bcd60e51b815260206004820152601860248201527f546865206a6f6220697320616c726561647920656e6465640000000000000000604482015260640161087c565b60026000541415611afa5760405162461bcd60e51b815260206004820152601f60248201527f5265656e7472616e637947756172643a207265656e7472616e742063616c6c00604482015260640161087c565b600260009081558581526007602081905260408220600c8101805461ff001916610100179055600681015491810154909291603c91611b399190614647565b611b439190614608565b905060006018603c8085600a015486600b0154611b609190614647565b611b6a9190614608565b611b749190614608565b611b7e9190614608565b905060005b83600e0154811015611fd6576000818152600d850160209081526040808320546001600160a01b03168352600f87018252808320548084526010880190925280832081516101408101909252805492939282908290611be19061465e565b80601f0160208091040260200160405190810160405280929190818152602001828054611c0d9061465e565b8015611c5a5780601f10611c2f57610100808354040283529160200191611c5a565b820191906000526020600020905b815481529060010190602001808311611c3d57829003601f168201915b50505050508152602001600182018054611c739061465e565b80601f0160208091040260200160405190810160405280929190818152602001828054611c9f9061465e565b8015611cec5780601f10611cc157610100808354040283529160200191611cec565b820191906000526020600020905b815481529060010190602001808311611ccf57829003601f168201915b505050918352505060028201546001600160a01b03166020820152600382018054604090920191611d1c9061465e565b80601f0160208091040260200160405190810160405280929190818152602001828054611d489061465e565b8015611d955780601f10611d6a57610100808354040283529160200191611d95565b820191906000526020600020905b815481529060010190602001808311611d7857829003601f168201915b5050505050815260200160048201548152602001600582018054611db89061465e565b80601f0160208091040260200160405190810160405280929190818152602001828054611de49061465e565b8015611e315780601f10611e0657610100808354040283529160200191611e31565b820191906000526020600020905b815481529060010190602001808311611e1457829003601f168201915b50505050508152602001600682018054611e4a9061465e565b80601f0160208091040260200160405190810160405280929190818152602001828054611e769061465e565b8015611ec35780601f10611e9857610100808354040283529160200191611ec3565b820191906000526020600020905b815481529060010190602001808311611ea657829003601f168201915b50505091835250506007820154602082015260089091015460ff8082161515604084015261010090910416151560609091015260e0810151909150600090611f0b8688614628565b611f159190614647565b8760090154611f249190614628565b905081604001516001600160a01b03166108fc829081150290604051600060405180830381858888f19350505050158015611f63573d6000803e3d6000fd5b50808760010154611f749190614647565b600188015560408281015181516001600160a01b039091168152602081018390527fecf0692d4cedbdf4decc633271b8b1b4d257953fdca5cba30e444495ede0f31c910160405180910390a15050508080611fce90614693565b915050611b83565b5060018301541561202057825460018401546040516001600160a01b039092169181156108fc0291906000818181858888f1935050505015801561201e573d6000803e3d6000fd5b505b6040518881527fca41b15f743cd506e877a65737b7072363d1ea62b57636bb94622e337a4c2add9060200160405180910390a150506001600055505050505050565b336000908152600460205260408120600a015482106120e95760405162461bcd60e51b815260206004820152602260248201527f54686520696e636f6d696e67207265717565737420646f65736e27742065786960448201527f7374000000000000000000000000000000000000000000000000000000000000606482015260840161087c565b5033600090815260046020908152604080832093835260099093019052205490565b60008281526009602052604090206008810154610100900460ff1661212f57600080fd5b60018101546001600160a01b0316331480612153575080546001600160a01b031633145b6121b05760405162461bcd60e51b815260206004820152602860248201527f596f75277265206e6f74207468652064657374696e6174696f6e206f7220746860448201526765206f776e65722160c01b606482015260840161087c565b60018101546000906001600160a01b03163314156121d9575080546001600160a01b03166121e9565b5060018101546001600160a01b03165b604080516080810182523381526001600160a01b03838116602080840191825293830187815242606085015260078701805460018181018355600092835291879020865160049092020180549186166001600160a01b0319928316178155935191840180549290951691161790925590518051929384936122709260028501920190613dff565b5060609190910151600390910155604080513381526001600160a01b03841660208201527fd8b299e59f769a419bee2384c79e5dc491a05f9533388b3376d9848981da81b691015b60405180910390a15050505050565b6000806000806000806000806000600a548a106123265760405162461bcd60e51b815260206004820152601960248201527f546865207265717565737420646f65736e277420657869737400000000000000604482015260640161087c565b60008a815260096020526040902080546001600160a01b0316331480612358575060018101546001600160a01b031633145b6123ca5760405162461bcd60e51b815260206004820152602660248201527f596f75277265206e6f7420616c6c6f77656420746f207265616420746865207260448201527f6571756573740000000000000000000000000000000000000000000000000000606482015260840161087c565b8060000160009054906101000a90046001600160a01b03168160010160009054906101000a90046001600160a01b0316826002015483600301548460040154856005015486600601548760080160009054906101000a900460ff168860080160019054906101000a900460ff16995099509950995099509950995099509950509193959799909294969850565b606081600a54811061246857600080fd5b600083815260096020526040902060018101546001600160a01b031633148061249a575080546001600160a01b031633145b6124f75760405162461bcd60e51b815260206004820152602860248201527f596f75277265206e6f74207468652064657374696e6174696f6e206f7220746860448201526765206f776e65722160c01b606482015260840161087c565b80600701805480602002602001604051908101604052809291908181526020016000905b8282101561260c576000848152602090819020604080516080810182526004860290920180546001600160a01b03908116845260018201541693830193909352600283018054929392918401916125719061465e565b80601f016020809104026020016040519081016040528092919081815260200182805461259d9061465e565b80156125ea5780601f106125bf576101008083540402835291602001916125ea565b820191906000526020600020905b8154815290600101906020018083116125cd57829003601f168201915b505050505081526020016003820154815250508152602001906001019061251b565b5050505092505050919050565b3360009081526004602052604090205460ff16156126795760405162461bcd60e51b815260206004820152601960248201527f596f7527726520616c7265616479207265676973746572642100000000000000604482015260640161087c565b336000908152600460209081526040909120805460ff19166001908117825588516126ab939290910191890190613dff565b5033600090815260046020908152604090912086516126d292600290920191880190613dff565b5033600090815260046020818152604090922060038101879055855161270093919092019190860190613dff565b50336000908152600460209081526040909120835161272792600590920191850190613dff565b50336000908152600460209081526040909120825161274e92600690920191840190613dff565b5060068054600090815260056020526040812080546001600160a01b031916331790558154919061277e83614693565b91905055507f0eeb057e74cdc4b0baf2f21550ca34bce6c87cbfd56af98a4e3b95940f1456158686336040516127b6939291906144bd565b60405180910390a1505050505050565b3360009081526001602052604090205460ff166128145760405162461bcd60e51b815260206004820152600c60248201526b4e6f7420436f6d70616e792160a01b604482015260640161087c565b600034116128895760405162461bcd60e51b8152602060048201526024808201527f596f75206d75737420637265617465206120726571756573742077697468207660448201527f616c756500000000000000000000000000000000000000000000000000000000606482015260840161087c565b60008311801561289857508282115b80156128a45750600085115b80156128af57508484115b6128fb5760405162461bcd60e51b815260206004820152601960248201527f54686520696e707574732061726520696e636f72726563747300000000000000604482015260640161087c565b600a54600090815260096020908152604080832080546001600160a01b0319908116339081178355600180840180546001600160a01b038f8116918616821790925560028087018f9055600387018e905534600480890191909155600588018e9055600688018d905560088801805461ffff19166101001790558851608081018a52958652858a019283529785018b81524260608701526007880180548087018255908c529a8a902086519b90990290980180549a84169a87169a909a178a5590519289018054939092169290941691909117905592518051929593946129e89392850192910190613dff565b50606091909101516003909101556001600160a01b0387166000908152600460209081526040808320600a805490820180548652600983019094529184209190915581549092909190612a3a83614693565b9091555050336000908152600160209081526040808320600a546007820180548652600683019094529184209190915581549092909190612a7a83614693565b9091555050600a8054906000612a8f83614693565b9091555050604080513381526001600160a01b038b1660208201527fe574516642c19610bea5fc1607d78a7cd18f285d643c3f76da84f4bf50daff10910160405180910390a1505050505050505050565b806008548110612b265760405162461bcd60e51b8152602060048201526011602482015270151a19481a9bd8881b9bdd08195e1a5cdd607a1b604482015260640161087c565b3360009081526004602052604090205460ff16612b4257600080fd5b60008281526007602090815260408083203384526004909252909120612b6784613949565b15612bb45760405162461bcd60e51b815260206004820152601360248201527f416c726561647920526567697374657265642100000000000000000000000000604482015260640161087c565b601182015460009081526010830160205260409020600182018054829190612bdb9061465e565b612be6929190613e83565b508160020181600101908054612bfb9061465e565b612c06929190613e83565b506002810180546001600160a01b03191633179055600482018054600383019190612c309061465e565b612c3b929190613e83565b50600382015460048201556005808301805491830191612c5a9061465e565b612c65929190613e83565b508160060181600601908054612c7a9061465e565b612c85929190613e83565b5060006007820181905560088201805461ffff19169055601184018054338352600f86016020526040832081905591612cbd83614693565b90915550506008820180546000908152600784016020526040812087905581549190612ce883614693565b91905055505050505050565b806008548110612d3a5760405162461bcd60e51b8152602060048201526011602482015270151a19481a9bd8881b9bdd08195e1a5cdd607a1b604482015260640161087c565b600082815260076020908152604080832033808552600f82018452828520548086526010830190945291909320600281015490916001600160a01b0390911614612dc65760405162461bcd60e51b815260206004820152601860248201527f596f75277265206e6f74207468652063616e6469646174650000000000000000604482015260640161087c565b600881015460ff16612e1a5760405162461bcd60e51b815260206004820152601760248201527f486972652070726f706f73616c206e6f7420666f756e64000000000000000000604482015260640161087c565b6002810154600e840180546000908152600d86016020526040812080546001600160a01b0319166001600160a01b039094169390931790925560088301805461ffff1916610100179055805491612e7083614693565b9091555050604080518681523360208201527fd5ca6cfd1918e76c3d26f5e6de2dc17b8c36ee5288009156a52bab0d193583ca91016122b8565b81600a548110612eb957600080fd5b60008381526009602052604090206008810154610100900460ff16612f205760405162461bcd60e51b815260206004820152601a60248201527f5468652072657175657374206973206e6f742061637469766521000000000000604482015260640161087c565b60018101546001600160a01b03163314612f3957600080fd5b60008360ff16118015612f4f575060038360ff16105b612f5857600080fd5b600801805460ff191660ff93909316929092179091555050565b60608080600081808280896008548110612fc25760405162461bcd60e51b8152602060048201526011602482015270151a19481a9bd8881b9bdd08195e1a5cdd607a1b604482015260640161087c565b60008b8152600760205260409020548b906001600160a01b031633146130215760405162461bcd60e51b81526020600482015260146024820152732cb7ba93b932903737ba103a34329037bbb732b960611b604482015260640161087c565b60008c81526007602090815260408083208e8452601001909152808220815161014081019092528054829082906130579061465e565b80601f01602080910402602001604051908101604052809291908181526020018280546130839061465e565b80156130d05780601f106130a5576101008083540402835291602001916130d0565b820191906000526020600020905b8154815290600101906020018083116130b357829003601f168201915b505050505081526020016001820180546130e99061465e565b80601f01602080910402602001604051908101604052809291908181526020018280546131159061465e565b80156131625780601f1061313757610100808354040283529160200191613162565b820191906000526020600020905b81548152906001019060200180831161314557829003601f168201915b505050918352505060028201546001600160a01b031660208201526003820180546040909201916131929061465e565b80601f01602080910402602001604051908101604052809291908181526020018280546131be9061465e565b801561320b5780601f106131e05761010080835404028352916020019161320b565b820191906000526020600020905b8154815290600101906020018083116131ee57829003601f168201915b505050505081526020016004820154815260200160058201805461322e9061465e565b80601f016020809104026020016040519081016040528092919081815260200182805461325a9061465e565b80156132a75780601f1061327c576101008083540402835291602001916132a7565b820191906000526020600020905b81548152906001019060200180831161328a57829003601f168201915b505050505081526020016006820180546132c09061465e565b80601f01602080910402602001604051908101604052809291908181526020018280546132ec9061465e565b80156133395780601f1061330e57610100808354040283529160200191613339565b820191906000526020600020905b81548152906001019060200180831161331c57829003601f168201915b50505050508152602001600782015481526020016008820160009054906101000a900460ff161515151581526020016008820160019054906101000a900460ff161515151581525050905080600001518160200151826060015183608001518460a001518560c001518661010001518761012001519a509a509a509a509a509a509a509a505050509295985092959890939650565b3360009081526001602052604081205460ff1661341c5760405162461bcd60e51b815260206004820152600c60248201526b4e6f7420436f6d70616e792160a01b604482015260640161087c565b503360009081526001602052604090206005015490565b3360009081526001602052604081206007015482106134ba5760405162461bcd60e51b815260206004820152602160248201527f5468652073656e64656420726571756573742020646f65736e2774206578697360448201527f7400000000000000000000000000000000000000000000000000000000000000606482015260840161087c565b5033600090815260016020908152604080832093835260069093019052205490565b3360009081526004602052604081205460ff166134f857600080fd5b3360009081526004602052604090206008015482106135595760405162461bcd60e51b815260206004820152600f60248201527f4a6f6220646f6e277420666f756e640000000000000000000000000000000000604482015260640161087c565b5033600090815260046020908152604080832093835260079093019052205490565b3360009081526001602052604090205460ff166135c95760405162461bcd60e51b815260206004820152600c60248201526b4e6f7420436f6d70616e792160a01b604482015260640161087c565b6000341161363f5760405162461bcd60e51b815260206004820152602560248201527f4e6565642073656e64696e67206d6f6e657920666f72206372656174696e672060448201527f61206a6f62000000000000000000000000000000000000000000000000000000606482015260840161087c565b60008511801561364e57508484115b801561365a5750600082115b801561366557508181115b80156136715750600083115b6136bd5760405162461bcd60e51b815260206004820152601960248201527f54686520696e707574732061726520696e636f72726563747300000000000000604482015260640161087c565b6000603c6136cb8787614647565b6136d59190614608565b905060006018603c806136e88787614647565b6136f29190614608565b6136fc9190614608565b6137069190614608565b9050600085836137168434614608565b6137209190614608565b61372a9190614608565b905060006007600060085481526020019081526020016000209050338160000160006101000a8154816001600160a01b0302191690836001600160a01b031602179055503481600101819055508c81600201908051906020019061378f929190613dff565b508b516137a590600383019060208f0190613dff565b508a516137bb90600483019060208e0190613dff565b5089516137d190600583019060208d0190613dff565b506006810189905560078101889055600880820188905560098201839055600a8201879055600b8201869055600c8201805461ffff191660019081179091556000600e840181905560118401819055338152602091825260408082209354600585018054845260048601909452908220558154919061384f83614693565b90915550506008805490600061386483614693565b9091555050604080513381523460208201527f8989b75cccca0fb30da05814ad53f47c96062c68f02f70eef5673f84e1f905d8910160405180910390a15050505050505050505050505050565b336000908152600460205260408120600881015483106139035760405162461bcd60e51b815260206004820152600d60248201526c129bd8881b9bdd08199bdd5b99609a1b604482015260640161087c565b6008808201546000908152600792830160209081526040808320548352938152838220338352600f81018252848320548352601001905291909120015460ff1692915050565b60008160085481106139915760405162461bcd60e51b8152602060048201526011602482015270151a19481a9bd8881b9bdd08195e1a5cdd607a1b604482015260640161087c565b3360009081526004602052604090205460ff166139ad57600080fd5b600083815260076020908152604080832033808552600f82018452828520548552601082019093529220600201546001600160a01b031614156139f45760019250506108a6565b60009250506108a6565b600080606080808084808080808b6008548110613a515760405162461bcd60e51b8152602060048201526011602482015270151a19481a9bd8881b9bdd08195e1a5cdd607a1b604482015260640161087c565b60008d8152600760205260409020805460018201546008830154600a840154600b850154600c86015460118701546002880180546001600160a01b0390981697909560038a019560048b019560058c019592949193909260ff1691908990613ab89061465e565b80601f0160208091040260200160405190810160405280929190818152602001828054613ae49061465e565b8015613b315780601f10613b0657610100808354040283529160200191613b31565b820191906000526020600020905b815481529060010190602001808311613b1457829003601f168201915b50505050509850878054613b449061465e565b80601f0160208091040260200160405190810160405280929190818152602001828054613b709061465e565b8015613bbd5780601f10613b9257610100808354040283529160200191613bbd565b820191906000526020600020905b815481529060010190602001808311613ba057829003601f168201915b50505050509750868054613bd09061465e565b80601f0160208091040260200160405190810160405280929190818152602001828054613bfc9061465e565b8015613c495780601f10613c1e57610100808354040283529160200191613c49565b820191906000526020600020905b815481529060010190602001808311613c2c57829003601f168201915b50505050509650858054613c5c9061465e565b80601f0160208091040260200160405190810160405280929190818152602001828054613c889061465e565b8015613cd55780601f10613caa57610100808354040283529160200191613cd5565b820191906000526020600020905b815481529060010190602001808311613cb857829003601f168201915b505050505095509c509c509c509c509c509c509c509c509c509c509c50505091939597999b90929496989a50565b6000816008548110613d4b5760405162461bcd60e51b8152602060048201526011602482015270151a19481a9bd8881b9bdd08195e1a5cdd607a1b604482015260640161087c565b3360009081526004602052604090205460ff16613d6757600080fd5b50506000908152600760209081526040808320338452600f81018352818420548452601001909152902060080154610100900460ff1690565b6000816008548110613de85760405162461bcd60e51b8152602060048201526011602482015270151a19481a9bd8881b9bdd08195e1a5cdd607a1b604482015260640161087c565b505060009081526007602052604090206011015490565b828054613e0b9061465e565b90600052602060002090601f016020900481019282613e2d5760008555613e73565b82601f10613e4657805160ff1916838001178555613e73565b82800160010185558215613e73579182015b82811115613e73578251825591602001919060010190613e58565b50613e7f929150613efe565b5090565b828054613e8f9061465e565b90600052602060002090601f016020900481019282613eb15760008555613e73565b82601f10613ec25780548555613e73565b82800160010185558215613e7357600052602060002091601f016020900482015b82811115613e73578254825591600101919060010190613ee3565b5b80821115613e7f5760008155600101613eff565b600082601f830112613f23578081fd5b813567ffffffffffffffff80821115613f3e57613f3e6146c4565b604051601f8301601f19908116603f01168101908282118183101715613f6657613f666146c4565b81604052838152866020858801011115613f7e578485fd5b8360208701602083013792830160200193909352509392505050565b60008060008060008060c08789031215613fb2578182fd5b86356001600160a01b0381168114613fc8578283fd5b95506020870135945060408701359350606087013592506080870135915060a087013567ffffffffffffffff811115613fff578182fd5b61400b89828a01613f13565b9150509295509295509295565b60008060006060848603121561402c578283fd5b833567ffffffffffffffff80821115614043578485fd5b61404f87838801613f13565b94506020860135915080821115614064578384fd5b61407087838801613f13565b93506040860135915080821115614085578283fd5b5061409286828701613f13565b9150509250925092565b60008060008060008060008060006101208a8c0312156140ba578283fd5b893567ffffffffffffffff808211156140d1578485fd5b6140dd8d838e01613f13565b9a5060208c01359150808211156140f2578485fd5b6140fe8d838e01613f13565b995060408c0135915080821115614113578485fd5b61411f8d838e01613f13565b985060608c0135915080821115614134578485fd5b506141418c828d01613f13565b999c989b50969960808101359860a0820135985060c0820135975060e0820135965061010090910135945092505050565b60008060008060008060c0878903121561418a578182fd5b863567ffffffffffffffff808211156141a1578384fd5b6141ad8a838b01613f13565b975060208901359150808211156141c2578384fd5b6141ce8a838b01613f13565b96506040890135955060608901359150808211156141ea578384fd5b6141f68a838b01613f13565b9450608089013591508082111561420b578384fd5b6142178a838b01613f13565b935060a089013591508082111561422c578283fd5b5061400b89828a01613f13565b60006020828403121561424a578081fd5b5035919050565b60008060408385031215614263578182fd5b82359150602083013567ffffffffffffffff811115614280578182fd5b61428c85828601613f13565b9150509250929050565b600080604083850312156142a8578182fd5b50508035926020909101359150565b6000806000606084860312156142cb578283fd5b505081359360208301359350604090920135919050565b600080604083850312156142f4578182fd5b82359150602083013560ff8116811461430b578182fd5b809150509250929050565b60008151808452815b8181101561433b5760208185018101518683018201520161431f565b8181111561434c5782602083870101525b50601f01601f19169290920160200192915050565b60006101606001600160a01b038e1683528c602084015280604084015261438a8184018d614316565b9050828103606084015261439e818c614316565b905082810360808401526143b2818b614316565b905082810360a08401526143c6818a614316565b60c0840198909852505060e08101949094526101008401929092521515610120830152610140909101529695505050505050565b60006020808301818452808551808352604092508286019150828160051b870101848801865b8381101561448457603f19898403018552815160806001600160a01b03808351168652808a840151168a8701525087820151818987015261446382870182614316565b60609384015196909301959095525094870194925090860190600101614420565b509098975050505050505050565b6040815260006144a56040830185614316565b90506001600160a01b03831660208301529392505050565b6060815260006144d06060830186614316565b82810360208401526144e28186614316565b9150506001600160a01b0383166040830152949350505050565b60006101008083526145108184018c614316565b90508281036020840152614524818b614316565b90508281036040840152614538818a614316565b905087606084015282810360808401526145528188614316565b905082810360a08401526145668187614316565b94151560c0840152505090151560e0909101529695505050505050565b60e08152600061459660e083018a614316565b82810360208401526145a8818a614316565b905087604084015282810360608401526145c28188614316565b905082810360808401526145d68187614316565b905082810360a08401526145ea8186614316565b9150506001600160a01b03831660c083015298975050505050505050565b60008261462357634e487b7160e01b81526012600452602481fd5b500490565b6000816000190483118215151615614642576146426146ae565b500290565b600082821015614659576146596146ae565b500390565b600181811c9082168061467257607f821691505b602082108114156108a657634e487b7160e01b600052602260045260246000fd5b60006000198214156146a7576146a76146ae565b5060010190565b634e487b7160e01b600052601160045260246000fd5b634e487b7160e01b600052604160045260246000fdfea2646970667358221220bd630ac9ce9a4cd387af16ddc2391fc70ee17451b507c571005b6783fce1be6d64736f6c63430008040033",
  "linkReferences": {},
  "deployedLinkReferences": {}
}