{
  "contracts/LastMinuteJob.sol": {
    "LastMinuteJob": {
      "abi": [
        {
          "anonymous": false,
          "inputs": [
            {
              "indexed": false,
              "internalType": "uint256",
              "name": "",
              "type": "uint256"
            }
          ],
          "name": "ev_CloseJob",
          "type": "event"
        },
        {
          "anonymous": false,
          "inputs": [
            {
              "indexed": false,
              "internalType": "uint256",
              "name": "",
              "type": "uint256"
            },
            {
              "indexed": false,
              "internalType": "uint256",
              "name": "",
              "type": "uint256"
            }
          ],
          "name": "ev_CloseRequest",
          "type": "event"
        },
        {
          "anonymous": false,
          "inputs": [
            {
              "indexed": false,
              "internalType": "uint256",
              "name": "",
              "type": "uint256"
            }
          ],
          "name": "ev_ClosedSearch",
          "type": "event"
        },
        {
          "anonymous": false,
          "inputs": [
            {
              "indexed": false,
              "internalType": "address",
              "name": "",
              "type": "address"
            },
            {
              "indexed": false,
              "internalType": "uint256",
              "name": "",
              "type": "uint256"
            }
          ],
          "name": "ev_CreateJob",
          "type": "event"
        },
        {
          "anonymous": false,
          "inputs": [
            {
              "indexed": false,
              "internalType": "address",
              "name": "",
              "type": "address"
            },
            {
              "indexed": false,
              "internalType": "address",
              "name": "",
              "type": "address"
            }
          ],
          "name": "ev_CreateRequest",
          "type": "event"
        },
        {
          "anonymous": false,
          "inputs": [
            {
              "indexed": false,
              "internalType": "uint256",
              "name": "",
              "type": "uint256"
            },
            {
              "indexed": false,
              "internalType": "address",
              "name": "",
              "type": "address"
            }
          ],
          "name": "ev_Hired",
          "type": "event"
        },
        {
          "anonymous": false,
          "inputs": [
            {
              "indexed": false,
              "internalType": "address",
              "name": "",
              "type": "address"
            },
            {
              "indexed": false,
              "internalType": "uint256",
              "name": "",
              "type": "uint256"
            }
          ],
          "name": "ev_Pay",
          "type": "event"
        },
        {
          "anonymous": false,
          "inputs": [
            {
              "indexed": false,
              "internalType": "string",
              "name": "",
              "type": "string"
            },
            {
              "indexed": false,
              "internalType": "address",
              "name": "",
              "type": "address"
            }
          ],
          "name": "ev_RegisterAsCompany",
          "type": "event"
        },
        {
          "anonymous": false,
          "inputs": [
            {
              "indexed": false,
              "internalType": "string",
              "name": "",
              "type": "string"
            },
            {
              "indexed": false,
              "internalType": "string",
              "name": "",
              "type": "string"
            },
            {
              "indexed": false,
              "internalType": "address",
              "name": "",
              "type": "address"
            }
          ],
          "name": "ev_RegisterAsPerson",
          "type": "event"
        },
        {
          "anonymous": false,
          "inputs": [
            {
              "indexed": false,
              "internalType": "address",
              "name": "",
              "type": "address"
            },
            {
              "indexed": false,
              "internalType": "address",
              "name": "",
              "type": "address"
            }
          ],
          "name": "ev_SendMessage",
          "type": "event"
        },
        {
          "inputs": [
            {
              "internalType": "uint256",
              "name": "_nrJob",
              "type": "uint256"
            }
          ],
          "name": "AcceptJob",
          "outputs": [],
          "stateMutability": "nonpayable",
          "type": "function"
        },
        {
          "inputs": [],
          "name": "CheckIsCompany",
          "outputs": [
            {
              "internalType": "bool",
              "name": "",
              "type": "bool"
            }
          ],
          "stateMutability": "view",
          "type": "function"
        },
        {
          "inputs": [],
          "name": "CheckIsPerson",
          "outputs": [
            {
              "internalType": "bool",
              "name": "",
              "type": "bool"
            }
          ],
          "stateMutability": "view",
          "type": "function"
        },
        {
          "inputs": [
            {
              "internalType": "uint256",
              "name": "_nrJob",
              "type": "uint256"
            }
          ],
          "name": "CheckPersonApplied",
          "outputs": [
            {
              "internalType": "bool",
              "name": "",
              "type": "bool"
            }
          ],
          "stateMutability": "view",
          "type": "function"
        },
        {
          "inputs": [
            {
              "internalType": "uint256",
              "name": "_nrJob",
              "type": "uint256"
            }
          ],
          "name": "CheckPersonHired",
          "outputs": [
            {
              "internalType": "bool",
              "name": "",
              "type": "bool"
            }
          ],
          "stateMutability": "view",
          "type": "function"
        },
        {
          "inputs": [
            {
              "internalType": "uint256",
              "name": "_nrJob",
              "type": "uint256"
            }
          ],
          "name": "CloseAndPay",
          "outputs": [],
          "stateMutability": "nonpayable",
          "type": "function"
        },
        {
          "inputs": [
            {
              "internalType": "uint256",
              "name": "_nRequest",
              "type": "uint256"
            }
          ],
          "name": "CloseRequest",
          "outputs": [],
          "stateMutability": "nonpayable",
          "type": "function"
        },
        {
          "inputs": [
            {
              "internalType": "uint256",
              "name": "_nrJob",
              "type": "uint256"
            }
          ],
          "name": "CloseSearching",
          "outputs": [],
          "stateMutability": "nonpayable",
          "type": "function"
        },
        {
          "inputs": [
            {
              "internalType": "string",
              "name": "_title",
              "type": "string"
            },
            {
              "internalType": "string",
              "name": "_description",
              "type": "string"
            },
            {
              "internalType": "string",
              "name": "_workingAddress",
              "type": "string"
            },
            {
              "internalType": "string",
              "name": "_searchingPosition",
              "type": "string"
            },
            {
              "internalType": "uint256",
              "name": "_hourInit",
              "type": "uint256"
            },
            {
              "internalType": "uint256",
              "name": "_hourFinish",
              "type": "uint256"
            },
            {
              "internalType": "uint256",
              "name": "_peopleToHire",
              "type": "uint256"
            },
            {
              "internalType": "uint256",
              "name": "_dateFrom",
              "type": "uint256"
            },
            {
              "internalType": "uint256",
              "name": "_dateTo",
              "type": "uint256"
            }
          ],
          "name": "CreateJob",
          "outputs": [],
          "stateMutability": "payable",
          "type": "function"
        },
        {
          "inputs": [
            {
              "internalType": "address",
              "name": "_destination",
              "type": "address"
            },
            {
              "internalType": "uint256",
              "name": "_dateFrom",
              "type": "uint256"
            },
            {
              "internalType": "uint256",
              "name": "_dateTo",
              "type": "uint256"
            },
            {
              "internalType": "uint256",
              "name": "_hourStart",
              "type": "uint256"
            },
            {
              "internalType": "uint256",
              "name": "_hourFinish",
              "type": "uint256"
            },
            {
              "internalType": "string",
              "name": "_message",
              "type": "string"
            }
          ],
          "name": "CreateRequest",
          "outputs": [],
          "stateMutability": "payable",
          "type": "function"
        },
        {
          "inputs": [],
          "name": "GetCompaniesCounter",
          "outputs": [
            {
              "internalType": "uint256",
              "name": "",
              "type": "uint256"
            }
          ],
          "stateMutability": "view",
          "type": "function"
        },
        {
          "inputs": [],
          "name": "GetPersonsCounter",
          "outputs": [
            {
              "internalType": "uint256",
              "name": "",
              "type": "uint256"
            }
          ],
          "stateMutability": "view",
          "type": "function"
        },
        {
          "inputs": [
            {
              "internalType": "string",
              "name": "_name",
              "type": "string"
            },
            {
              "internalType": "string",
              "name": "_description",
              "type": "string"
            },
            {
              "internalType": "string",
              "name": "_address",
              "type": "string"
            }
          ],
          "name": "RegisterAsCompany",
          "outputs": [],
          "stateMutability": "nonpayable",
          "type": "function"
        },
        {
          "inputs": [
            {
              "internalType": "string",
              "name": "_name",
              "type": "string"
            },
            {
              "internalType": "string",
              "name": "_surname",
              "type": "string"
            },
            {
              "internalType": "uint256",
              "name": "_age",
              "type": "uint256"
            },
            {
              "internalType": "string",
              "name": "_mobilePhone",
              "type": "string"
            },
            {
              "internalType": "string",
              "name": "_CV",
              "type": "string"
            },
            {
              "internalType": "string",
              "name": "_coverLetter",
              "type": "string"
            }
          ],
          "name": "RegisterAsPerson",
          "outputs": [],
          "stateMutability": "nonpayable",
          "type": "function"
        },
        {
          "inputs": [
            {
              "internalType": "uint256",
              "name": "_nrCompanyJob",
              "type": "uint256"
            },
            {
              "internalType": "uint256",
              "name": "_nrCandidate",
              "type": "uint256"
            }
          ],
          "name": "RequestHire",
          "outputs": [],
          "stateMutability": "nonpayable",
          "type": "function"
        },
        {
          "inputs": [
            {
              "internalType": "uint256",
              "name": "_nRequest",
              "type": "uint256"
            },
            {
              "internalType": "string",
              "name": "_message",
              "type": "string"
            }
          ],
          "name": "SendMessage",
          "outputs": [],
          "stateMutability": "nonpayable",
          "type": "function"
        },
        {
          "inputs": [
            {
              "internalType": "uint256",
              "name": "_nrJob",
              "type": "uint256"
            },
            {
              "internalType": "uint256",
              "name": "_nrCandidate",
              "type": "uint256"
            },
            {
              "internalType": "uint256",
              "name": "_absentHours",
              "type": "uint256"
            }
          ],
          "name": "SetAbsentHours",
          "outputs": [],
          "stateMutability": "nonpayable",
          "type": "function"
        },
        {
          "inputs": [
            {
              "internalType": "uint256",
              "name": "_nRequest",
              "type": "uint256"
            },
            {
              "internalType": "uint8",
              "name": "_status",
              "type": "uint8"
            }
          ],
          "name": "SetAnswer",
          "outputs": [],
          "stateMutability": "nonpayable",
          "type": "function"
        },
        {
          "inputs": [
            {
              "internalType": "uint256",
              "name": "_nrJob",
              "type": "uint256"
            },
            {
              "internalType": "uint256",
              "name": "_nrCandidate",
              "type": "uint256"
            }
          ],
          "name": "ShowAbsentHoursCandidate",
          "outputs": [
            {
              "internalType": "uint256",
              "name": "",
              "type": "uint256"
            }
          ],
          "stateMutability": "view",
          "type": "function"
        },
        {
          "inputs": [
            {
              "internalType": "uint256",
              "name": "_nrJob",
              "type": "uint256"
            }
          ],
          "name": "ShowCloseJob",
          "outputs": [
            {
              "internalType": "bool",
              "name": "",
              "type": "bool"
            }
          ],
          "stateMutability": "view",
          "type": "function"
        },
        {
          "inputs": [
            {
              "internalType": "uint256",
              "name": "_nrJob",
              "type": "uint256"
            }
          ],
          "name": "ShowCompanyJobID",
          "outputs": [
            {
              "internalType": "uint256",
              "name": "",
              "type": "uint256"
            }
          ],
          "stateMutability": "view",
          "type": "function"
        },
        {
          "inputs": [],
          "name": "ShowCompanyJobsCounter",
          "outputs": [
            {
              "internalType": "uint256",
              "name": "",
              "type": "uint256"
            }
          ],
          "stateMutability": "view",
          "type": "function"
        },
        {
          "inputs": [],
          "name": "ShowCounterRequests",
          "outputs": [
            {
              "internalType": "uint256",
              "name": "",
              "type": "uint256"
            }
          ],
          "stateMutability": "view",
          "type": "function"
        },
        {
          "inputs": [],
          "name": "ShowCounterRequestsCompany",
          "outputs": [
            {
              "internalType": "uint256",
              "name": "",
              "type": "uint256"
            }
          ],
          "stateMutability": "view",
          "type": "function"
        },
        {
          "inputs": [],
          "name": "ShowCounterRequestsPerson",
          "outputs": [
            {
              "internalType": "uint256",
              "name": "",
              "type": "uint256"
            }
          ],
          "stateMutability": "view",
          "type": "function"
        },
        {
          "inputs": [
            {
              "internalType": "uint256",
              "name": "_nrJob",
              "type": "uint256"
            }
          ],
          "name": "ShowHired",
          "outputs": [
            {
              "internalType": "uint256",
              "name": "",
              "type": "uint256"
            }
          ],
          "stateMutability": "view",
          "type": "function"
        },
        {
          "inputs": [
            {
              "internalType": "uint256",
              "name": "_nrCompanyRequest",
              "type": "uint256"
            }
          ],
          "name": "ShowIDRequestCompany",
          "outputs": [
            {
              "internalType": "uint256",
              "name": "",
              "type": "uint256"
            }
          ],
          "stateMutability": "view",
          "type": "function"
        },
        {
          "inputs": [
            {
              "internalType": "uint256",
              "name": "_nrPersonRequest",
              "type": "uint256"
            }
          ],
          "name": "ShowIDRequestPerson",
          "outputs": [
            {
              "internalType": "uint256",
              "name": "",
              "type": "uint256"
            }
          ],
          "stateMutability": "view",
          "type": "function"
        },
        {
          "inputs": [
            {
              "internalType": "uint256",
              "name": "_jobApplied",
              "type": "uint256"
            }
          ],
          "name": "ShowIfHireQuestion",
          "outputs": [
            {
              "internalType": "bool",
              "name": "",
              "type": "bool"
            }
          ],
          "stateMutability": "view",
          "type": "function"
        },
        {
          "inputs": [
            {
              "internalType": "uint256",
              "name": "_jobApplied",
              "type": "uint256"
            }
          ],
          "name": "ShowIfHired",
          "outputs": [
            {
              "internalType": "bool",
              "name": "",
              "type": "bool"
            }
          ],
          "stateMutability": "view",
          "type": "function"
        },
        {
          "inputs": [
            {
              "internalType": "uint256",
              "name": "_nrJob",
              "type": "uint256"
            },
            {
              "internalType": "uint256",
              "name": "_nrCandidate",
              "type": "uint256"
            }
          ],
          "name": "ShowJobCandidate",
          "outputs": [
            {
              "internalType": "string",
              "name": "",
              "type": "string"
            },
            {
              "internalType": "string",
              "name": "",
              "type": "string"
            },
            {
              "internalType": "string",
              "name": "",
              "type": "string"
            },
            {
              "internalType": "uint256",
              "name": "",
              "type": "uint256"
            },
            {
              "internalType": "string",
              "name": "",
              "type": "string"
            },
            {
              "internalType": "string",
              "name": "",
              "type": "string"
            },
            {
              "internalType": "bool",
              "name": "",
              "type": "bool"
            },
            {
              "internalType": "bool",
              "name": "",
              "type": "bool"
            }
          ],
          "stateMutability": "view",
          "type": "function"
        },
        {
          "inputs": [
            {
              "internalType": "uint256",
              "name": "_nrJob",
              "type": "uint256"
            }
          ],
          "name": "ShowJobCandidatesCounter",
          "outputs": [
            {
              "internalType": "uint256",
              "name": "",
              "type": "uint256"
            }
          ],
          "stateMutability": "view",
          "type": "function"
        },
        {
          "inputs": [
            {
              "internalType": "uint256",
              "name": "_nrJob",
              "type": "uint256"
            }
          ],
          "name": "ShowJobSummary",
          "outputs": [
            {
              "internalType": "address",
              "name": "",
              "type": "address"
            },
            {
              "internalType": "uint256",
              "name": "",
              "type": "uint256"
            },
            {
              "internalType": "string",
              "name": "",
              "type": "string"
            },
            {
              "internalType": "string",
              "name": "",
              "type": "string"
            },
            {
              "internalType": "string",
              "name": "",
              "type": "string"
            },
            {
              "internalType": "string",
              "name": "",
              "type": "string"
            },
            {
              "internalType": "uint256",
              "name": "",
              "type": "uint256"
            },
            {
              "internalType": "uint256",
              "name": "",
              "type": "uint256"
            },
            {
              "internalType": "uint256",
              "name": "",
              "type": "uint256"
            },
            {
              "internalType": "bool",
              "name": "",
              "type": "bool"
            },
            {
              "internalType": "uint256",
              "name": "",
              "type": "uint256"
            }
          ],
          "stateMutability": "view",
          "type": "function"
        },
        {
          "inputs": [],
          "name": "ShowJobsCounter",
          "outputs": [
            {
              "internalType": "uint256",
              "name": "",
              "type": "uint256"
            }
          ],
          "stateMutability": "view",
          "type": "function"
        },
        {
          "inputs": [
            {
              "internalType": "uint256",
              "name": "_nRequest",
              "type": "uint256"
            }
          ],
          "name": "ShowMessages",
          "outputs": [
            {
              "components": [
                {
                  "internalType": "address",
                  "name": "owner",
                  "type": "address"
                },
                {
                  "internalType": "address",
                  "name": "destination",
                  "type": "address"
                },
                {
                  "internalType": "string",
                  "name": "message",
                  "type": "string"
                },
                {
                  "internalType": "uint256",
                  "name": "datetime",
                  "type": "uint256"
                }
              ],
              "internalType": "struct LastMinuteJob.Message[]",
              "name": "",
              "type": "tuple[]"
            }
          ],
          "stateMutability": "view",
          "type": "function"
        },
        {
          "inputs": [
            {
              "internalType": "uint256",
              "name": "_nrWorker",
              "type": "uint256"
            }
          ],
          "name": "ShowPerson",
          "outputs": [
            {
              "internalType": "string",
              "name": "",
              "type": "string"
            },
            {
              "internalType": "string",
              "name": "",
              "type": "string"
            },
            {
              "internalType": "uint256",
              "name": "",
              "type": "uint256"
            },
            {
              "internalType": "string",
              "name": "",
              "type": "string"
            },
            {
              "internalType": "string",
              "name": "",
              "type": "string"
            },
            {
              "internalType": "string",
              "name": "",
              "type": "string"
            },
            {
              "internalType": "address",
              "name": "",
              "type": "address"
            }
          ],
          "stateMutability": "view",
          "type": "function"
        },
        {
          "inputs": [
            {
              "internalType": "uint256",
              "name": "_nrRequest",
              "type": "uint256"
            }
          ],
          "name": "ShowRequest",
          "outputs": [
            {
              "internalType": "address",
              "name": "",
              "type": "address"
            },
            {
              "internalType": "address",
              "name": "",
              "type": "address"
            },
            {
              "internalType": "uint256",
              "name": "",
              "type": "uint256"
            },
            {
              "internalType": "uint256",
              "name": "",
              "type": "uint256"
            },
            {
              "internalType": "uint256",
              "name": "",
              "type": "uint256"
            },
            {
              "internalType": "uint256",
              "name": "",
              "type": "uint256"
            },
            {
              "internalType": "uint256",
              "name": "",
              "type": "uint256"
            },
            {
              "internalType": "uint8",
              "name": "",
              "type": "uint8"
            },
            {
              "internalType": "bool",
              "name": "",
              "type": "bool"
            }
          ],
          "stateMutability": "view",
          "type": "function"
        },
        {
          "inputs": [],
          "name": "appliedJobsCounter",
          "outputs": [
            {
              "internalType": "uint256",
              "name": "",
              "type": "uint256"
            }
          ],
          "stateMutability": "view",
          "type": "function"
        },
        {
          "inputs": [
            {
              "internalType": "uint256",
              "name": "_nrJob",
              "type": "uint256"
            }
          ],
          "name": "applyToJob",
          "outputs": [],
          "stateMutability": "nonpayable",
          "type": "function"
        },
        {
          "inputs": [
            {
              "internalType": "uint256",
              "name": "_nrAppliedJob",
              "type": "uint256"
            }
          ],
          "name": "showAppliedJob",
          "outputs": [
            {
              "internalType": "uint256",
              "name": "",
              "type": "uint256"
            }
          ],
          "stateMutability": "view",
          "type": "function"
        }
      ],
      "evm": {
        "bytecode": {
          "linkReferences": {},
          "object": "608060405234801561001057600080fd5b50600160005561474e806100256000396000f3fe6080604052600436106102bb5760003560e01c80637c1a24331161016e578063bda3ce94116100cb578063d83f6e701161007f578063ef79966111610064578063ef799661146107c1578063f2fd3e4a146107f8578063f8a5ef0b1461081857600080fd5b8063d83f6e701461078c578063daf5223f146107ac57600080fd5b8063c301a7a2116100b0578063c301a7a214610734578063ccef46f314610747578063d53f9b9b1461076c57600080fd5b8063bda3ce94146106f4578063be077e7a1461071457600080fd5b80638e4ca94d11610122578063a8404e3f11610107578063a8404e3f1461068b578063ad2a79f8146106ab578063b524628f146106df57600080fd5b80638e4ca94d14610656578063a0933fbc1461067657600080fd5b8063863f671f11610153578063863f671f1461060e5780638a0b6153146106215780638e1a32d01461063657600080fd5b80637c1a2433146105c15780637d2fa512146105ee57600080fd5b80633b2aec481161021c5780636c4d0984116101d0578063748ff7ad116101b5578063748ff7ad14610508578063783485fc1461052d5780637a41bdc51461054d57600080fd5b80636c4d0984146104c857806372b6e521146104e857600080fd5b80635e0ced5c116102015780635e0ced5c14610473578063650efe001461048857806365f36692146104a857600080fd5b80633b2aec48146104335780635386903f1461045357600080fd5b806316814b9d116102735780631eca0d2e116102585780631eca0d2e146103c257806324c12f56146103e2578063311de8f91461040257600080fd5b806316814b9d1461037a5780631b161115146103ad57600080fd5b80630ca0ef74116102a45780630ca0ef7414610315578063117a81ea1461033a578063130176691461035a57600080fd5b806305de6b48146102c05780630b216438146102f3575b600080fd5b3480156102cc57600080fd5b506102e06102db366004614277565b610838565b6040519081526020015b60405180910390f35b3480156102ff57600080fd5b5061031361030e366004614277565b6108ac565b005b34801561032157600080fd5b50336000908152600160205260409020600701546102e0565b34801561034657600080fd5b50610313610355366004614056565b6109a5565b34801561036657600080fd5b506103136103753660046142d4565b610af6565b34801561038657600080fd5b5061039a610395366004614277565b610bd9565b6040516102ea97969594939291906145c1565b3480156103b957600080fd5b506003546102e0565b3480156103ce57600080fd5b506102e06103dd366004614277565b610f10565b3480156103ee57600080fd5b506103136103fd366004614277565b610f6f565b34801561040e57600080fd5b503360009081526004602052604090205460ff165b60405190151581526020016102ea565b34801561043f57600080fd5b506102e061044e3660046142d4565b611530565b34801561045f57600080fd5b5061042361046e366004614277565b61159c565b34801561047f57600080fd5b506102e0611603565b34801561049457600080fd5b506104236104a3366004614277565b611636565b3480156104b457600080fd5b506103136104c33660046142f5565b6116d3565b3480156104d457600080fd5b506103136104e3366004614277565b61194d565b3480156104f457600080fd5b506102e0610503366004614277565b6120a0565b34801561051457600080fd5b50336000908152600460205260409020600a01546102e0565b34801561053957600080fd5b5061031361054836600461428f565b612149565b34801561055957600080fd5b5061056d610568366004614277565b612305565b604080516001600160a01b039a8b1681529990981660208a0152968801959095526060870193909352608086019190915260a085015260c084015260ff1660e08301521515610100820152610120016102ea565b3480156105cd57600080fd5b506105e16105dc366004614277565b612495565b6040516102ea9190614438565b3480156105fa57600080fd5b506103136106093660046141b0565b612657565b61031361061c366004613fd8565b612804565b34801561062d57600080fd5b50600a546102e0565b34801561064257600080fd5b50610313610651366004614277565b612b1e565b34801561066257600080fd5b50610313610671366004614277565b612d32565b34801561068257600080fd5b506008546102e0565b34801561069757600080fd5b506103136106a6366004614320565b612ee8565b3480156106b757600080fd5b506106cb6106c63660046142d4565b612fb0565b6040516102ea98979695949392919061453a565b3480156106eb57600080fd5b506102e061340c565b34801561070057600080fd5b506102e061070f366004614277565b613471565b34801561072057600080fd5b506102e061072f366004614277565b61351a565b6103136107423660046140da565b6135b9565b34801561075357600080fd5b503360009081526001602052604090205460ff16610423565b34801561077857600080fd5b50610423610787366004614277565b6138ef565b34801561079857600080fd5b506104236107a7366004614277565b613987565b3480156107b857600080fd5b506006546102e0565b3480156107cd57600080fd5b506107e16107dc366004614277565b613a3c565b6040516102ea9b9a9998979695949392919061439f565b34801561080457600080fd5b50610423610813366004614277565b613d41565b34801561082457600080fd5b506102e0610833366004614277565b613dde565b60008160085481106108855760405162461bcd60e51b8152602060048201526011602482015270151a19481a9bd8881b9bdd08195e1a5cdd607a1b60448201526064015b60405180910390fd5b33600090815260016020908152604080832086845260040190915290205491505b50919050565b8060085481106108f25760405162461bcd60e51b8152602060048201526011602482015270151a19481a9bd8881b9bdd08195e1a5cdd607a1b604482015260640161087c565b60008281526007602052604090205482906001600160a01b031633146109515760405162461bcd60e51b81526020600482015260146024820152732cb7ba93b932903737ba103a34329037bbb732b960611b604482015260640161087c565b600083815260076020908152604091829020600c8101805460ff1916905591518581527f156d298e3230eef448bd5231631a15a00a31d76ee7cc580888b12e660d3c4519910160405180910390a150505050565b3360009081526001602052604090205460ff1615610a055760405162461bcd60e51b815260206004820152601960248201527f596f7527726520616c7265616479207265676973746572642100000000000000604482015260640161087c565b336000908152600160208181526040909220805460ff1916821781558551610a3593919092019190860190613e3d565b503360009081526001602090815260409091208351610a5c92600290920191850190613e3d565b503360009081526001602090815260409091208251610a8392600390920191840190613e3d565b5060038054600090815260026020526040812080546001600160a01b0319163317905581549190610ab3836146d1565b91905055507fc7ce3fb6fc45f140ade3c39c738b15b325a6682e6862a6f0cb720b08bfc922cc8333604051610ae99291906144d0565b60405180910390a1505050565b33600090815260016020526040902060058101548310610b485760405162461bcd60e51b815260206004820152600d60248201526c129bd8881b9bdd08199bdd5b99609a1b604482015260640161087c565b600083815260048201602090815260408083205483526007909152902060118101548310610bb85760405162461bcd60e51b815260206004820152601360248201527f43616e646974617465206e6f7420666f756e6400000000000000000000000000604482015260640161087c565b60009283526010016020525060409020600801805460ff1916600117905550565b6000818152600560208181526040808420546001600160a01b03168085526004808452918520868652928490526003830154600184018054606097889790968896879687968a9693959194600287019391929187019190870190600688019087908790610c459061469c565b80601f0160208091040260200160405190810160405280929190818152602001828054610c719061469c565b8015610cbe5780601f10610c9357610100808354040283529160200191610cbe565b820191906000526020600020905b815481529060010190602001808311610ca157829003601f168201915b50505050509650858054610cd19061469c565b80601f0160208091040260200160405190810160405280929190818152602001828054610cfd9061469c565b8015610d4a5780601f10610d1f57610100808354040283529160200191610d4a565b820191906000526020600020905b815481529060010190602001808311610d2d57829003601f168201915b50505050509550838054610d5d9061469c565b80601f0160208091040260200160405190810160405280929190818152602001828054610d899061469c565b8015610dd65780601f10610dab57610100808354040283529160200191610dd6565b820191906000526020600020905b815481529060010190602001808311610db957829003601f168201915b50505050509350828054610de99061469c565b80601f0160208091040260200160405190810160405280929190818152602001828054610e159061469c565b8015610e625780601f10610e3757610100808354040283529160200191610e62565b820191906000526020600020905b815481529060010190602001808311610e4557829003601f168201915b50505050509250818054610e759061469c565b80601f0160208091040260200160405190810160405280929190818152602001828054610ea19061469c565b8015610eee5780601f10610ec357610100808354040283529160200191610eee565b820191906000526020600020905b815481529060010190602001808311610ed157829003601f168201915b5050505050915098509850985098509850985098505050919395979092949650565b6000816008548110610f585760405162461bcd60e51b8152602060048201526011602482015270151a19481a9bd8881b9bdd08195e1a5cdd607a1b604482015260640161087c565b50506000908152600760205260409020600e015490565b80600a548110610f7e57600080fd5b60026000541415610fd15760405162461bcd60e51b815260206004820152601f60248201527f5265656e7472616e637947756172643a207265656e7472616e742063616c6c00604482015260640161087c565b600260009081558281526009602052604090206008810154610100900460ff16610ffa57600080fd5b80546001600160a01b0316331461101057600080fd5b600881015460ff1660021415611499576000603c826005015483600601546110389190614685565b6110429190614646565b905060006018603c808560020154866003015461105f9190614685565b6110699190614646565b6110739190614646565b61107d9190614646565b90506000828285600401546110929190614646565b61109c9190614646565b6008805460009081526007602081815260408084208a5481546001600160a01b0319166001600160a01b039091161781556004808c01546001808401919091556005808e01546006808601919091558e0154968401969096558288018190556009830189905560028d0154600a84015560038d0154600b840155600c8301805461ffff191682179055600e8301879055601183018790553387528452828620965494870180548752908701909352908420929092558054949550909391611162836146d1565b90915550506001808701546001600160a01b03166000908152600460209081526040808320601187015484526010870190925290912091810180549192918291906111ac9061469c565b6111b7929190613ec1565b5081600201816001019080546111cc9061469c565b6111d7929190613ec1565b5060018801546002820180546001600160a01b0319166001600160a01b039092169190911790556004820180546003830191906112139061469c565b61121e929190613ec1565b5060038201546004820155600580830180549183019161123d9061469c565b611248929190613ec1565b50816006018160060190805461125d9061469c565b611268929190613ec1565b50600060078201819055601185015460018a01546001600160a01b03168252600f86016020908152604080842083905591835260108701905290208154829190819083906112b59061469c565b6112c0929190613ec1565b5060018201816001019080546112d59061469c565b6112e0929190613ec1565b5060028281015490820180546001600160a01b0319166001600160a01b03909216919091179055600380830180549183019161131b9061469c565b611326929190613ec1565b506004820154816004015560058201816005019080546113459061469c565b611350929190613ec1565b5060068201816006019080546113659061469c565b611370929190613ec1565b50600782810154908201556008918201805492909101805460ff938416151560ff19821681178355925461010090819004909416151590930261ff001990921661ffff19909316929092171790556011840180549060006113d0836146d1565b90915550506002810154600e850180546000908152600d87016020526040812080546001600160a01b0319166001600160a01b039094169390931790925560088301805461ff00191661010017905580549161142b836146d1565b90915550506008805490830180546000908152600785016020526040812092909255805491611459836146d1565b9091555050600c8401805460ff191690556008805490600061147a836146d1565b90915550505060088701805461ff0019169055506114e5945050505050565b60088101805461ff0019169055805460048201546040516001600160a01b039092169181156108fc0291906000818181858888f193505050501580156114e3573d6000803e3d6000fd5b505b60088101546040805185815260ff90921660208301527f5b35f771d9f644c0f2050975bea8e2fbc8b54a867818d17d83983f4538dcaeb3910160405180910390a15050600160005550565b60008260085481106115785760405162461bcd60e51b8152602060048201526011602482015270151a19481a9bd8881b9bdd08195e1a5cdd607a1b604482015260640161087c565b50506000918252600760208181526040808520938552601090930190529120015490565b60008160085481106115e45760405162461bcd60e51b8152602060048201526011602482015270151a19481a9bd8881b9bdd08195e1a5cdd607a1b604482015260640161087c565b50506000908152600760205260409020600c0154610100900460ff1690565b3360009081526004602052604081205460ff1661161f57600080fd5b503360009081526004602052604090206008015490565b336000908152600460205260408120600881015483106116885760405162461bcd60e51b815260206004820152600d60248201526c129bd8881b9bdd08199bdd5b99609a1b604482015260640161087c565b6008818101546000908152600792830160209081526040808320548352938152838220338352600f810182528483205483526010019052919091200154610100900460ff1692915050565b8260085481106117195760405162461bcd60e51b8152602060048201526011602482015270151a19481a9bd8881b9bdd08195e1a5cdd607a1b604482015260640161087c565b60008481526007602052604090205484906001600160a01b031633146117785760405162461bcd60e51b81526020600482015260146024820152732cb7ba93b932903737ba103a34329037bbb732b960611b604482015260640161087c565b6000831161178557600080fd5b6000858152600760205260409020601181015485106117e65760405162461bcd60e51b815260206004820152601360248201527f43616e646964617465206e6f7420666f756e6400000000000000000000000000604482015260640161087c565b6000858152601082016020526040902060080154610100900460ff1661184e5760405162461bcd60e51b815260206004820152601560248201527f43616e6469646174652069736e27742068697265640000000000000000000000604482015260640161087c565b6000603c826006015483600701546118669190614685565b6118709190614646565b905060006018603c8085600a015486600b015461188d9190614685565b6118979190614646565b6118a19190614646565b6118ab9190614646565b905060006118b98284614666565b9050808711156119315760405162461bcd60e51b815260206004820152602860248201527f596f752063616e277420616464206d6f726520686f757273207468616e20746860448201527f6520746f74616c21000000000000000000000000000000000000000000000000606482015260840161087c565b5050506000948552601001602052505060409091206007015550565b8060085481106119935760405162461bcd60e51b8152602060048201526011602482015270151a19481a9bd8881b9bdd08195e1a5cdd607a1b604482015260640161087c565b60008281526007602052604090205482906001600160a01b031633146119f25760405162461bcd60e51b81526020600482015260146024820152732cb7ba93b932903737ba103a34329037bbb732b960611b604482015260640161087c565b6000838152600760205260409020600c0154839060ff1615611a7c5760405162461bcd60e51b815260206004820152603060248201527f546865206a6f6220697320736561726368696e672063616e646964617465732060448201527f796f752063616e277420636c6f73652100000000000000000000000000000000606482015260840161087c565b6000848152600760205260409020600c01548490610100900460ff1615611ae55760405162461bcd60e51b815260206004820152601860248201527f546865206a6f6220697320616c726561647920656e6465640000000000000000604482015260640161087c565b60026000541415611b385760405162461bcd60e51b815260206004820152601f60248201527f5265656e7472616e637947756172643a207265656e7472616e742063616c6c00604482015260640161087c565b600260009081558581526007602081905260408220600c8101805461ff001916610100179055600681015491810154909291603c91611b779190614685565b611b819190614646565b905060006018603c8085600a015486600b0154611b9e9190614685565b611ba89190614646565b611bb29190614646565b611bbc9190614646565b905060005b83600e0154811015612014576000818152600d850160209081526040808320546001600160a01b03168352600f87018252808320548084526010880190925280832081516101408101909252805492939282908290611c1f9061469c565b80601f0160208091040260200160405190810160405280929190818152602001828054611c4b9061469c565b8015611c985780601f10611c6d57610100808354040283529160200191611c98565b820191906000526020600020905b815481529060010190602001808311611c7b57829003601f168201915b50505050508152602001600182018054611cb19061469c565b80601f0160208091040260200160405190810160405280929190818152602001828054611cdd9061469c565b8015611d2a5780601f10611cff57610100808354040283529160200191611d2a565b820191906000526020600020905b815481529060010190602001808311611d0d57829003601f168201915b505050918352505060028201546001600160a01b03166020820152600382018054604090920191611d5a9061469c565b80601f0160208091040260200160405190810160405280929190818152602001828054611d869061469c565b8015611dd35780601f10611da857610100808354040283529160200191611dd3565b820191906000526020600020905b815481529060010190602001808311611db657829003601f168201915b5050505050815260200160048201548152602001600582018054611df69061469c565b80601f0160208091040260200160405190810160405280929190818152602001828054611e229061469c565b8015611e6f5780601f10611e4457610100808354040283529160200191611e6f565b820191906000526020600020905b815481529060010190602001808311611e5257829003601f168201915b50505050508152602001600682018054611e889061469c565b80601f0160208091040260200160405190810160405280929190818152602001828054611eb49061469c565b8015611f015780601f10611ed657610100808354040283529160200191611f01565b820191906000526020600020905b815481529060010190602001808311611ee457829003601f168201915b50505091835250506007820154602082015260089091015460ff8082161515604084015261010090910416151560609091015260e0810151909150600090611f498688614666565b611f539190614685565b8760090154611f629190614666565b905081604001516001600160a01b03166108fc829081150290604051600060405180830381858888f19350505050158015611fa1573d6000803e3d6000fd5b50808760010154611fb29190614685565b600188015560408281015181516001600160a01b039091168152602081018390527fecf0692d4cedbdf4decc633271b8b1b4d257953fdca5cba30e444495ede0f31c910160405180910390a1505050808061200c906146d1565b915050611bc1565b5060018301541561205e57825460018401546040516001600160a01b039092169181156108fc0291906000818181858888f1935050505015801561205c573d6000803e3d6000fd5b505b6040518881527fca41b15f743cd506e877a65737b7072363d1ea62b57636bb94622e337a4c2add9060200160405180910390a150506001600055505050505050565b336000908152600460205260408120600a015482106121275760405162461bcd60e51b815260206004820152602260248201527f54686520696e636f6d696e67207265717565737420646f65736e27742065786960448201527f7374000000000000000000000000000000000000000000000000000000000000606482015260840161087c565b5033600090815260046020908152604080832093835260099093019052205490565b60008281526009602052604090206008810154610100900460ff1661216d57600080fd5b60018101546001600160a01b0316331480612191575080546001600160a01b031633145b6121ee5760405162461bcd60e51b815260206004820152602860248201527f596f75277265206e6f74207468652064657374696e6174696f6e206f7220746860448201526765206f776e65722160c01b606482015260840161087c565b60018101546000906001600160a01b0316331415612217575080546001600160a01b0316612227565b5060018101546001600160a01b03165b604080516080810182523381526001600160a01b03838116602080840191825293830187815242606085015260078701805460018181018355600092835291879020865160049092020180549186166001600160a01b0319928316178155935191840180549290951691161790925590518051929384936122ae9260028501920190613e3d565b5060609190910151600390910155604080513381526001600160a01b03841660208201527fd8b299e59f769a419bee2384c79e5dc491a05f9533388b3376d9848981da81b691015b60405180910390a15050505050565b6000806000806000806000806000600a548a106123645760405162461bcd60e51b815260206004820152601960248201527f546865207265717565737420646f65736e277420657869737400000000000000604482015260640161087c565b60008a815260096020526040902080546001600160a01b0316331480612396575060018101546001600160a01b031633145b6124085760405162461bcd60e51b815260206004820152602660248201527f596f75277265206e6f7420616c6c6f77656420746f207265616420746865207260448201527f6571756573740000000000000000000000000000000000000000000000000000606482015260840161087c565b8060000160009054906101000a90046001600160a01b03168160010160009054906101000a90046001600160a01b0316826002015483600301548460040154856005015486600601548760080160009054906101000a900460ff168860080160019054906101000a900460ff16995099509950995099509950995099509950509193959799909294969850565b606081600a5481106124a657600080fd5b600083815260096020526040902060018101546001600160a01b03163314806124d8575080546001600160a01b031633145b6125355760405162461bcd60e51b815260206004820152602860248201527f596f75277265206e6f74207468652064657374696e6174696f6e206f7220746860448201526765206f776e65722160c01b606482015260840161087c565b80600701805480602002602001604051908101604052809291908181526020016000905b8282101561264a576000848152602090819020604080516080810182526004860290920180546001600160a01b03908116845260018201541693830193909352600283018054929392918401916125af9061469c565b80601f01602080910402602001604051908101604052809291908181526020018280546125db9061469c565b80156126285780601f106125fd57610100808354040283529160200191612628565b820191906000526020600020905b81548152906001019060200180831161260b57829003601f168201915b5050505050815260200160038201548152505081526020019060010190612559565b5050505092505050919050565b3360009081526004602052604090205460ff16156126b75760405162461bcd60e51b815260206004820152601960248201527f596f7527726520616c7265616479207265676973746572642100000000000000604482015260640161087c565b336000908152600460209081526040909120805460ff19166001908117825588516126e9939290910191890190613e3d565b50336000908152600460209081526040909120865161271092600290920191880190613e3d565b5033600090815260046020818152604090922060038101879055855161273e93919092019190860190613e3d565b50336000908152600460209081526040909120835161276592600590920191850190613e3d565b50336000908152600460209081526040909120825161278c92600690920191840190613e3d565b5060068054600090815260056020526040812080546001600160a01b03191633179055815491906127bc836146d1565b91905055507f0eeb057e74cdc4b0baf2f21550ca34bce6c87cbfd56af98a4e3b95940f1456158686336040516127f4939291906144fb565b60405180910390a1505050505050565b3360009081526001602052604090205460ff166128525760405162461bcd60e51b815260206004820152600c60248201526b4e6f7420436f6d70616e792160a01b604482015260640161087c565b600034116128c75760405162461bcd60e51b8152602060048201526024808201527f596f75206d75737420637265617465206120726571756573742077697468207660448201527f616c756500000000000000000000000000000000000000000000000000000000606482015260840161087c565b6000831180156128d657508282115b80156128e25750600085115b80156128ed57508484115b6129395760405162461bcd60e51b815260206004820152601960248201527f54686520696e707574732061726520696e636f72726563747300000000000000604482015260640161087c565b600a54600090815260096020908152604080832080546001600160a01b0319908116339081178355600180840180546001600160a01b038f8116918616821790925560028087018f9055600387018e905534600480890191909155600588018e9055600688018d905560088801805461ffff19166101001790558851608081018a52958652858a019283529785018b81524260608701526007880180548087018255908c529a8a902086519b90990290980180549a84169a87169a909a178a559051928901805493909216929094169190911790559251805192959394612a269392850192910190613e3d565b50606091909101516003909101556001600160a01b0387166000908152600460209081526040808320600a805490820180548652600983019094529184209190915581549092909190612a78836146d1565b9091555050336000908152600160209081526040808320600a546007820180548652600683019094529184209190915581549092909190612ab8836146d1565b9091555050600a8054906000612acd836146d1565b9091555050604080513381526001600160a01b038b1660208201527fe574516642c19610bea5fc1607d78a7cd18f285d643c3f76da84f4bf50daff10910160405180910390a1505050505050505050565b806008548110612b645760405162461bcd60e51b8152602060048201526011602482015270151a19481a9bd8881b9bdd08195e1a5cdd607a1b604482015260640161087c565b3360009081526004602052604090205460ff16612b8057600080fd5b60008281526007602090815260408083203384526004909252909120612ba584613987565b15612bf25760405162461bcd60e51b815260206004820152601360248201527f416c726561647920526567697374657265642100000000000000000000000000604482015260640161087c565b601182015460009081526010830160205260409020600182018054829190612c199061469c565b612c24929190613ec1565b508160020181600101908054612c399061469c565b612c44929190613ec1565b506002810180546001600160a01b03191633179055600482018054600383019190612c6e9061469c565b612c79929190613ec1565b50600382015460048201556005808301805491830191612c989061469c565b612ca3929190613ec1565b508160060181600601908054612cb89061469c565b612cc3929190613ec1565b5060006007820181905560088201805461ffff19169055601184018054338352600f86016020526040832081905591612cfb836146d1565b90915550506008820180546000908152600784016020526040812087905581549190612d26836146d1565b91905055505050505050565b806008548110612d785760405162461bcd60e51b8152602060048201526011602482015270151a19481a9bd8881b9bdd08195e1a5cdd607a1b604482015260640161087c565b600082815260076020908152604080832033808552600f82018452828520548086526010830190945291909320600281015490916001600160a01b0390911614612e045760405162461bcd60e51b815260206004820152601860248201527f596f75277265206e6f74207468652063616e6469646174650000000000000000604482015260640161087c565b600881015460ff16612e585760405162461bcd60e51b815260206004820152601760248201527f486972652070726f706f73616c206e6f7420666f756e64000000000000000000604482015260640161087c565b6002810154600e840180546000908152600d86016020526040812080546001600160a01b0319166001600160a01b039094169390931790925560088301805461ffff1916610100179055805491612eae836146d1565b9091555050604080518681523360208201527fd5ca6cfd1918e76c3d26f5e6de2dc17b8c36ee5288009156a52bab0d193583ca91016122f6565b81600a548110612ef757600080fd5b60008381526009602052604090206008810154610100900460ff16612f5e5760405162461bcd60e51b815260206004820152601a60248201527f5468652072657175657374206973206e6f742061637469766521000000000000604482015260640161087c565b60018101546001600160a01b03163314612f7757600080fd5b60008360ff16118015612f8d575060038360ff16105b612f9657600080fd5b600801805460ff191660ff93909316929092179091555050565b606080806000818082808960085481106130005760405162461bcd60e51b8152602060048201526011602482015270151a19481a9bd8881b9bdd08195e1a5cdd607a1b604482015260640161087c565b60008b8152600760205260409020548b906001600160a01b0316331461305f5760405162461bcd60e51b81526020600482015260146024820152732cb7ba93b932903737ba103a34329037bbb732b960611b604482015260640161087c565b60008c81526007602090815260408083208e8452601001909152808220815161014081019092528054829082906130959061469c565b80601f01602080910402602001604051908101604052809291908181526020018280546130c19061469c565b801561310e5780601f106130e35761010080835404028352916020019161310e565b820191906000526020600020905b8154815290600101906020018083116130f157829003601f168201915b505050505081526020016001820180546131279061469c565b80601f01602080910402602001604051908101604052809291908181526020018280546131539061469c565b80156131a05780601f10613175576101008083540402835291602001916131a0565b820191906000526020600020905b81548152906001019060200180831161318357829003601f168201915b505050918352505060028201546001600160a01b031660208201526003820180546040909201916131d09061469c565b80601f01602080910402602001604051908101604052809291908181526020018280546131fc9061469c565b80156132495780601f1061321e57610100808354040283529160200191613249565b820191906000526020600020905b81548152906001019060200180831161322c57829003601f168201915b505050505081526020016004820154815260200160058201805461326c9061469c565b80601f01602080910402602001604051908101604052809291908181526020018280546132989061469c565b80156132e55780601f106132ba576101008083540402835291602001916132e5565b820191906000526020600020905b8154815290600101906020018083116132c857829003601f168201915b505050505081526020016006820180546132fe9061469c565b80601f016020809104026020016040519081016040528092919081815260200182805461332a9061469c565b80156133775780601f1061334c57610100808354040283529160200191613377565b820191906000526020600020905b81548152906001019060200180831161335a57829003601f168201915b50505050508152602001600782015481526020016008820160009054906101000a900460ff161515151581526020016008820160019054906101000a900460ff161515151581525050905080600001518160200151826060015183608001518460a001518560c001518661010001518761012001519a509a509a509a509a509a509a509a505050509295985092959890939650565b3360009081526001602052604081205460ff1661345a5760405162461bcd60e51b815260206004820152600c60248201526b4e6f7420436f6d70616e792160a01b604482015260640161087c565b503360009081526001602052604090206005015490565b3360009081526001602052604081206007015482106134f85760405162461bcd60e51b815260206004820152602160248201527f5468652073656e64656420726571756573742020646f65736e2774206578697360448201527f7400000000000000000000000000000000000000000000000000000000000000606482015260840161087c565b5033600090815260016020908152604080832093835260069093019052205490565b3360009081526004602052604081205460ff1661353657600080fd5b3360009081526004602052604090206008015482106135975760405162461bcd60e51b815260206004820152600f60248201527f4a6f6220646f6e277420666f756e640000000000000000000000000000000000604482015260640161087c565b5033600090815260046020908152604080832093835260079093019052205490565b3360009081526001602052604090205460ff166136075760405162461bcd60e51b815260206004820152600c60248201526b4e6f7420436f6d70616e792160a01b604482015260640161087c565b6000341161367d5760405162461bcd60e51b815260206004820152602560248201527f4e6565642073656e64696e67206d6f6e657920666f72206372656174696e672060448201527f61206a6f62000000000000000000000000000000000000000000000000000000606482015260840161087c565b60008511801561368c57508484115b80156136985750600082115b80156136a357508181115b80156136af5750600083115b6136fb5760405162461bcd60e51b815260206004820152601960248201527f54686520696e707574732061726520696e636f72726563747300000000000000604482015260640161087c565b6000603c6137098787614685565b6137139190614646565b905060006018603c806137268787614685565b6137309190614646565b61373a9190614646565b6137449190614646565b9050600085836137548434614646565b61375e9190614646565b6137689190614646565b905060006007600060085481526020019081526020016000209050338160000160006101000a8154816001600160a01b0302191690836001600160a01b031602179055503481600101819055508c8160020190805190602001906137cd929190613e3d565b508b516137e390600383019060208f0190613e3d565b508a516137f990600483019060208e0190613e3d565b50895161380f90600583019060208d0190613e3d565b506006810189905560078101889055600880820188905560098201839055600a8201879055600b8201869055600c8201805461ffff191660019081179091556000600e840181905560118401819055338152602091825260408082209354600585018054845260048601909452908220558154919061388d836146d1565b9091555050600880549060006138a2836146d1565b9091555050604080513381523460208201527f8989b75cccca0fb30da05814ad53f47c96062c68f02f70eef5673f84e1f905d8910160405180910390a15050505050505050505050505050565b336000908152600460205260408120600881015483106139415760405162461bcd60e51b815260206004820152600d60248201526c129bd8881b9bdd08199bdd5b99609a1b604482015260640161087c565b6008808201546000908152600792830160209081526040808320548352938152838220338352600f81018252848320548352601001905291909120015460ff1692915050565b60008160085481106139cf5760405162461bcd60e51b8152602060048201526011602482015270151a19481a9bd8881b9bdd08195e1a5cdd607a1b604482015260640161087c565b3360009081526004602052604090205460ff166139eb57600080fd5b600083815260076020908152604080832033808552600f82018452828520548552601082019093529220600201546001600160a01b03161415613a325760019250506108a6565b60009250506108a6565b600080606080808084808080808b6008548110613a8f5760405162461bcd60e51b8152602060048201526011602482015270151a19481a9bd8881b9bdd08195e1a5cdd607a1b604482015260640161087c565b60008d8152600760205260409020805460018201546008830154600a840154600b850154600c86015460118701546002880180546001600160a01b0390981697909560038a019560048b019560058c019592949193909260ff1691908990613af69061469c565b80601f0160208091040260200160405190810160405280929190818152602001828054613b229061469c565b8015613b6f5780601f10613b4457610100808354040283529160200191613b6f565b820191906000526020600020905b815481529060010190602001808311613b5257829003601f168201915b50505050509850878054613b829061469c565b80601f0160208091040260200160405190810160405280929190818152602001828054613bae9061469c565b8015613bfb5780601f10613bd057610100808354040283529160200191613bfb565b820191906000526020600020905b815481529060010190602001808311613bde57829003601f168201915b50505050509750868054613c0e9061469c565b80601f0160208091040260200160405190810160405280929190818152602001828054613c3a9061469c565b8015613c875780601f10613c5c57610100808354040283529160200191613c87565b820191906000526020600020905b815481529060010190602001808311613c6a57829003601f168201915b50505050509650858054613c9a9061469c565b80601f0160208091040260200160405190810160405280929190818152602001828054613cc69061469c565b8015613d135780601f10613ce857610100808354040283529160200191613d13565b820191906000526020600020905b815481529060010190602001808311613cf657829003601f168201915b505050505095509c509c509c509c509c509c509c509c509c509c509c50505091939597999b90929496989a50565b6000816008548110613d895760405162461bcd60e51b8152602060048201526011602482015270151a19481a9bd8881b9bdd08195e1a5cdd607a1b604482015260640161087c565b3360009081526004602052604090205460ff16613da557600080fd5b50506000908152600760209081526040808320338452600f81018352818420548452601001909152902060080154610100900460ff1690565b6000816008548110613e265760405162461bcd60e51b8152602060048201526011602482015270151a19481a9bd8881b9bdd08195e1a5cdd607a1b604482015260640161087c565b505060009081526007602052604090206011015490565b828054613e499061469c565b90600052602060002090601f016020900481019282613e6b5760008555613eb1565b82601f10613e8457805160ff1916838001178555613eb1565b82800160010185558215613eb1579182015b82811115613eb1578251825591602001919060010190613e96565b50613ebd929150613f3c565b5090565b828054613ecd9061469c565b90600052602060002090601f016020900481019282613eef5760008555613eb1565b82601f10613f005780548555613eb1565b82800160010185558215613eb157600052602060002091601f016020900482015b82811115613eb1578254825591600101919060010190613f21565b5b80821115613ebd5760008155600101613f3d565b600082601f830112613f61578081fd5b813567ffffffffffffffff80821115613f7c57613f7c614702565b604051601f8301601f19908116603f01168101908282118183101715613fa457613fa4614702565b81604052838152866020858801011115613fbc578485fd5b8360208701602083013792830160200193909352509392505050565b60008060008060008060c08789031215613ff0578182fd5b86356001600160a01b0381168114614006578283fd5b95506020870135945060408701359350606087013592506080870135915060a087013567ffffffffffffffff81111561403d578182fd5b61404989828a01613f51565b9150509295509295509295565b60008060006060848603121561406a578283fd5b833567ffffffffffffffff80821115614081578485fd5b61408d87838801613f51565b945060208601359150808211156140a2578384fd5b6140ae87838801613f51565b935060408601359150808211156140c3578283fd5b506140d086828701613f51565b9150509250925092565b60008060008060008060008060006101208a8c0312156140f8578283fd5b893567ffffffffffffffff8082111561410f578485fd5b61411b8d838e01613f51565b9a5060208c0135915080821115614130578485fd5b61413c8d838e01613f51565b995060408c0135915080821115614151578485fd5b61415d8d838e01613f51565b985060608c0135915080821115614172578485fd5b5061417f8c828d01613f51565b999c989b50969960808101359860a0820135985060c0820135975060e0820135965061010090910135945092505050565b60008060008060008060c087890312156141c8578182fd5b863567ffffffffffffffff808211156141df578384fd5b6141eb8a838b01613f51565b97506020890135915080821115614200578384fd5b61420c8a838b01613f51565b9650604089013595506060890135915080821115614228578384fd5b6142348a838b01613f51565b94506080890135915080821115614249578384fd5b6142558a838b01613f51565b935060a089013591508082111561426a578283fd5b5061404989828a01613f51565b600060208284031215614288578081fd5b5035919050565b600080604083850312156142a1578182fd5b82359150602083013567ffffffffffffffff8111156142be578182fd5b6142ca85828601613f51565b9150509250929050565b600080604083850312156142e6578182fd5b50508035926020909101359150565b600080600060608486031215614309578283fd5b505081359360208301359350604090920135919050565b60008060408385031215614332578182fd5b82359150602083013560ff81168114614349578182fd5b809150509250929050565b60008151808452815b818110156143795760208185018101518683018201520161435d565b8181111561438a5782602083870101525b50601f01601f19169290920160200192915050565b60006101606001600160a01b038e1683528c60208401528060408401526143c88184018d614354565b905082810360608401526143dc818c614354565b905082810360808401526143f0818b614354565b905082810360a0840152614404818a614354565b60c0840198909852505060e08101949094526101008401929092521515610120830152610140909101529695505050505050565b60006020808301818452808551808352604092508286019150828160051b870101848801865b838110156144c257603f19898403018552815160806001600160a01b03808351168652808a840151168a870152508782015181898701526144a182870182614354565b6060938401519690930195909552509487019492509086019060010161445e565b509098975050505050505050565b6040815260006144e36040830185614354565b90506001600160a01b03831660208301529392505050565b60608152600061450e6060830186614354565b82810360208401526145208186614354565b9150506001600160a01b0383166040830152949350505050565b600061010080835261454e8184018c614354565b90508281036020840152614562818b614354565b90508281036040840152614576818a614354565b905087606084015282810360808401526145908188614354565b905082810360a08401526145a48187614354565b94151560c0840152505090151560e0909101529695505050505050565b60e0815260006145d460e083018a614354565b82810360208401526145e6818a614354565b905087604084015282810360608401526146008188614354565b905082810360808401526146148187614354565b905082810360a08401526146288186614354565b9150506001600160a01b03831660c083015298975050505050505050565b60008261466157634e487b7160e01b81526012600452602481fd5b500490565b6000816000190483118215151615614680576146806146ec565b500290565b600082821015614697576146976146ec565b500390565b600181811c908216806146b057607f821691505b602082108114156108a657634e487b7160e01b600052602260045260246000fd5b60006000198214156146e5576146e56146ec565b5060010190565b634e487b7160e01b600052601160045260246000fd5b634e487b7160e01b600052604160045260246000fdfea26469706673582212206bede0304b97408f7dbfb21254d7b3d92fb550b55832067c9e6254426fd7545b64736f6c63430008040033",
          "opcodes": "PUSH1 0x80 PUSH1 0x40 MSTORE CALLVALUE DUP1 ISZERO PUSH2 0x10 JUMPI PUSH1 0x0 DUP1 REVERT JUMPDEST POP PUSH1 0x1 PUSH1 0x0 SSTORE PUSH2 0x474E DUP1 PUSH2 0x25 PUSH1 0x0 CODECOPY PUSH1 0x0 RETURN INVALID PUSH1 0x80 PUSH1 0x40 MSTORE PUSH1 0x4 CALLDATASIZE LT PUSH2 0x2BB JUMPI PUSH1 0x0 CALLDATALOAD PUSH1 0xE0 SHR DUP1 PUSH4 0x7C1A2433 GT PUSH2 0x16E JUMPI DUP1 PUSH4 0xBDA3CE94 GT PUSH2 0xCB JUMPI DUP1 PUSH4 0xD83F6E70 GT PUSH2 0x7F JUMPI DUP1 PUSH4 0xEF799661 GT PUSH2 0x64 JUMPI DUP1 PUSH4 0xEF799661 EQ PUSH2 0x7C1 JUMPI DUP1 PUSH4 0xF2FD3E4A EQ PUSH2 0x7F8 JUMPI DUP1 PUSH4 0xF8A5EF0B EQ PUSH2 0x818 JUMPI PUSH1 0x0 DUP1 REVERT JUMPDEST DUP1 PUSH4 0xD83F6E70 EQ PUSH2 0x78C JUMPI DUP1 PUSH4 0xDAF5223F EQ PUSH2 0x7AC JUMPI PUSH1 0x0 DUP1 REVERT JUMPDEST DUP1 PUSH4 0xC301A7A2 GT PUSH2 0xB0 JUMPI DUP1 PUSH4 0xC301A7A2 EQ PUSH2 0x734 JUMPI DUP1 PUSH4 0xCCEF46F3 EQ PUSH2 0x747 JUMPI DUP1 PUSH4 0xD53F9B9B EQ PUSH2 0x76C JUMPI PUSH1 0x0 DUP1 REVERT JUMPDEST DUP1 PUSH4 0xBDA3CE94 EQ PUSH2 0x6F4 JUMPI DUP1 PUSH4 0xBE077E7A EQ PUSH2 0x714 JUMPI PUSH1 0x0 DUP1 REVERT JUMPDEST DUP1 PUSH4 0x8E4CA94D GT PUSH2 0x122 JUMPI DUP1 PUSH4 0xA8404E3F GT PUSH2 0x107 JUMPI DUP1 PUSH4 0xA8404E3F EQ PUSH2 0x68B JUMPI DUP1 PUSH4 0xAD2A79F8 EQ PUSH2 0x6AB JUMPI DUP1 PUSH4 0xB524628F EQ PUSH2 0x6DF JUMPI PUSH1 0x0 DUP1 REVERT JUMPDEST DUP1 PUSH4 0x8E4CA94D EQ PUSH2 0x656 JUMPI DUP1 PUSH4 0xA0933FBC EQ PUSH2 0x676 JUMPI PUSH1 0x0 DUP1 REVERT JUMPDEST DUP1 PUSH4 0x863F671F GT PUSH2 0x153 JUMPI DUP1 PUSH4 0x863F671F EQ PUSH2 0x60E JUMPI DUP1 PUSH4 0x8A0B6153 EQ PUSH2 0x621 JUMPI DUP1 PUSH4 0x8E1A32D0 EQ PUSH2 0x636 JUMPI PUSH1 0x0 DUP1 REVERT JUMPDEST DUP1 PUSH4 0x7C1A2433 EQ PUSH2 0x5C1 JUMPI DUP1 PUSH4 0x7D2FA512 EQ PUSH2 0x5EE JUMPI PUSH1 0x0 DUP1 REVERT JUMPDEST DUP1 PUSH4 0x3B2AEC48 GT PUSH2 0x21C JUMPI DUP1 PUSH4 0x6C4D0984 GT PUSH2 0x1D0 JUMPI DUP1 PUSH4 0x748FF7AD GT PUSH2 0x1B5 JUMPI DUP1 PUSH4 0x748FF7AD EQ PUSH2 0x508 JUMPI DUP1 PUSH4 0x783485FC EQ PUSH2 0x52D JUMPI DUP1 PUSH4 0x7A41BDC5 EQ PUSH2 0x54D JUMPI PUSH1 0x0 DUP1 REVERT JUMPDEST DUP1 PUSH4 0x6C4D0984 EQ PUSH2 0x4C8 JUMPI DUP1 PUSH4 0x72B6E521 EQ PUSH2 0x4E8 JUMPI PUSH1 0x0 DUP1 REVERT JUMPDEST DUP1 PUSH4 0x5E0CED5C GT PUSH2 0x201 JUMPI DUP1 PUSH4 0x5E0CED5C EQ PUSH2 0x473 JUMPI DUP1 PUSH4 0x650EFE00 EQ PUSH2 0x488 JUMPI DUP1 PUSH4 0x65F36692 EQ PUSH2 0x4A8 JUMPI PUSH1 0x0 DUP1 REVERT JUMPDEST DUP1 PUSH4 0x3B2AEC48 EQ PUSH2 0x433 JUMPI DUP1 PUSH4 0x5386903F EQ PUSH2 0x453 JUMPI PUSH1 0x0 DUP1 REVERT JUMPDEST DUP1 PUSH4 0x16814B9D GT PUSH2 0x273 JUMPI DUP1 PUSH4 0x1ECA0D2E GT PUSH2 0x258 JUMPI DUP1 PUSH4 0x1ECA0D2E EQ PUSH2 0x3C2 JUMPI DUP1 PUSH4 0x24C12F56 EQ PUSH2 0x3E2 JUMPI DUP1 PUSH4 0x311DE8F9 EQ PUSH2 0x402 JUMPI PUSH1 0x0 DUP1 REVERT JUMPDEST DUP1 PUSH4 0x16814B9D EQ PUSH2 0x37A JUMPI DUP1 PUSH4 0x1B161115 EQ PUSH2 0x3AD JUMPI PUSH1 0x0 DUP1 REVERT JUMPDEST DUP1 PUSH4 0xCA0EF74 GT PUSH2 0x2A4 JUMPI DUP1 PUSH4 0xCA0EF74 EQ PUSH2 0x315 JUMPI DUP1 PUSH4 0x117A81EA EQ PUSH2 0x33A JUMPI DUP1 PUSH4 0x13017669 EQ PUSH2 0x35A JUMPI PUSH1 0x0 DUP1 REVERT JUMPDEST DUP1 PUSH4 0x5DE6B48 EQ PUSH2 0x2C0 JUMPI DUP1 PUSH4 0xB216438 EQ PUSH2 0x2F3 JUMPI JUMPDEST PUSH1 0x0 DUP1 REVERT JUMPDEST CALLVALUE DUP1 ISZERO PUSH2 0x2CC JUMPI PUSH1 0x0 DUP1 REVERT JUMPDEST POP PUSH2 0x2E0 PUSH2 0x2DB CALLDATASIZE PUSH1 0x4 PUSH2 0x4277 JUMP JUMPDEST PUSH2 0x838 JUMP JUMPDEST PUSH1 0x40 MLOAD SWAP1 DUP2 MSTORE PUSH1 0x20 ADD JUMPDEST PUSH1 0x40 MLOAD DUP1 SWAP2 SUB SWAP1 RETURN JUMPDEST CALLVALUE DUP1 ISZERO PUSH2 0x2FF JUMPI PUSH1 0x0 DUP1 REVERT JUMPDEST POP PUSH2 0x313 PUSH2 0x30E CALLDATASIZE PUSH1 0x4 PUSH2 0x4277 JUMP JUMPDEST PUSH2 0x8AC JUMP JUMPDEST STOP JUMPDEST CALLVALUE DUP1 ISZERO PUSH2 0x321 JUMPI PUSH1 0x0 DUP1 REVERT JUMPDEST POP CALLER PUSH1 0x0 SWAP1 DUP2 MSTORE PUSH1 0x1 PUSH1 0x20 MSTORE PUSH1 0x40 SWAP1 KECCAK256 PUSH1 0x7 ADD SLOAD PUSH2 0x2E0 JUMP JUMPDEST CALLVALUE DUP1 ISZERO PUSH2 0x346 JUMPI PUSH1 0x0 DUP1 REVERT JUMPDEST POP PUSH2 0x313 PUSH2 0x355 CALLDATASIZE PUSH1 0x4 PUSH2 0x4056 JUMP JUMPDEST PUSH2 0x9A5 JUMP JUMPDEST CALLVALUE DUP1 ISZERO PUSH2 0x366 JUMPI PUSH1 0x0 DUP1 REVERT JUMPDEST POP PUSH2 0x313 PUSH2 0x375 CALLDATASIZE PUSH1 0x4 PUSH2 0x42D4 JUMP JUMPDEST PUSH2 0xAF6 JUMP JUMPDEST CALLVALUE DUP1 ISZERO PUSH2 0x386 JUMPI PUSH1 0x0 DUP1 REVERT JUMPDEST POP PUSH2 0x39A PUSH2 0x395 CALLDATASIZE PUSH1 0x4 PUSH2 0x4277 JUMP JUMPDEST PUSH2 0xBD9 JUMP JUMPDEST PUSH1 0x40 MLOAD PUSH2 0x2EA SWAP8 SWAP7 SWAP6 SWAP5 SWAP4 SWAP3 SWAP2 SWAP1 PUSH2 0x45C1 JUMP JUMPDEST CALLVALUE DUP1 ISZERO PUSH2 0x3B9 JUMPI PUSH1 0x0 DUP1 REVERT JUMPDEST POP PUSH1 0x3 SLOAD PUSH2 0x2E0 JUMP JUMPDEST CALLVALUE DUP1 ISZERO PUSH2 0x3CE JUMPI PUSH1 0x0 DUP1 REVERT JUMPDEST POP PUSH2 0x2E0 PUSH2 0x3DD CALLDATASIZE PUSH1 0x4 PUSH2 0x4277 JUMP JUMPDEST PUSH2 0xF10 JUMP JUMPDEST CALLVALUE DUP1 ISZERO PUSH2 0x3EE JUMPI PUSH1 0x0 DUP1 REVERT JUMPDEST POP PUSH2 0x313 PUSH2 0x3FD CALLDATASIZE PUSH1 0x4 PUSH2 0x4277 JUMP JUMPDEST PUSH2 0xF6F JUMP JUMPDEST CALLVALUE DUP1 ISZERO PUSH2 0x40E JUMPI PUSH1 0x0 DUP1 REVERT JUMPDEST POP CALLER PUSH1 0x0 SWAP1 DUP2 MSTORE PUSH1 0x4 PUSH1 0x20 MSTORE PUSH1 0x40 SWAP1 KECCAK256 SLOAD PUSH1 0xFF AND JUMPDEST PUSH1 0x40 MLOAD SWAP1 ISZERO ISZERO DUP2 MSTORE PUSH1 0x20 ADD PUSH2 0x2EA JUMP JUMPDEST CALLVALUE DUP1 ISZERO PUSH2 0x43F JUMPI PUSH1 0x0 DUP1 REVERT JUMPDEST POP PUSH2 0x2E0 PUSH2 0x44E CALLDATASIZE PUSH1 0x4 PUSH2 0x42D4 JUMP JUMPDEST PUSH2 0x1530 JUMP JUMPDEST CALLVALUE DUP1 ISZERO PUSH2 0x45F JUMPI PUSH1 0x0 DUP1 REVERT JUMPDEST POP PUSH2 0x423 PUSH2 0x46E CALLDATASIZE PUSH1 0x4 PUSH2 0x4277 JUMP JUMPDEST PUSH2 0x159C JUMP JUMPDEST CALLVALUE DUP1 ISZERO PUSH2 0x47F JUMPI PUSH1 0x0 DUP1 REVERT JUMPDEST POP PUSH2 0x2E0 PUSH2 0x1603 JUMP JUMPDEST CALLVALUE DUP1 ISZERO PUSH2 0x494 JUMPI PUSH1 0x0 DUP1 REVERT JUMPDEST POP PUSH2 0x423 PUSH2 0x4A3 CALLDATASIZE PUSH1 0x4 PUSH2 0x4277 JUMP JUMPDEST PUSH2 0x1636 JUMP JUMPDEST CALLVALUE DUP1 ISZERO PUSH2 0x4B4 JUMPI PUSH1 0x0 DUP1 REVERT JUMPDEST POP PUSH2 0x313 PUSH2 0x4C3 CALLDATASIZE PUSH1 0x4 PUSH2 0x42F5 JUMP JUMPDEST PUSH2 0x16D3 JUMP JUMPDEST CALLVALUE DUP1 ISZERO PUSH2 0x4D4 JUMPI PUSH1 0x0 DUP1 REVERT JUMPDEST POP PUSH2 0x313 PUSH2 0x4E3 CALLDATASIZE PUSH1 0x4 PUSH2 0x4277 JUMP JUMPDEST PUSH2 0x194D JUMP JUMPDEST CALLVALUE DUP1 ISZERO PUSH2 0x4F4 JUMPI PUSH1 0x0 DUP1 REVERT JUMPDEST POP PUSH2 0x2E0 PUSH2 0x503 CALLDATASIZE PUSH1 0x4 PUSH2 0x4277 JUMP JUMPDEST PUSH2 0x20A0 JUMP JUMPDEST CALLVALUE DUP1 ISZERO PUSH2 0x514 JUMPI PUSH1 0x0 DUP1 REVERT JUMPDEST POP CALLER PUSH1 0x0 SWAP1 DUP2 MSTORE PUSH1 0x4 PUSH1 0x20 MSTORE PUSH1 0x40 SWAP1 KECCAK256 PUSH1 0xA ADD SLOAD PUSH2 0x2E0 JUMP JUMPDEST CALLVALUE DUP1 ISZERO PUSH2 0x539 JUMPI PUSH1 0x0 DUP1 REVERT JUMPDEST POP PUSH2 0x313 PUSH2 0x548 CALLDATASIZE PUSH1 0x4 PUSH2 0x428F JUMP JUMPDEST PUSH2 0x2149 JUMP JUMPDEST CALLVALUE DUP1 ISZERO PUSH2 0x559 JUMPI PUSH1 0x0 DUP1 REVERT JUMPDEST POP PUSH2 0x56D PUSH2 0x568 CALLDATASIZE PUSH1 0x4 PUSH2 0x4277 JUMP JUMPDEST PUSH2 0x2305 JUMP JUMPDEST PUSH1 0x40 DUP1 MLOAD PUSH1 0x1 PUSH1 0x1 PUSH1 0xA0 SHL SUB SWAP11 DUP12 AND DUP2 MSTORE SWAP10 SWAP1 SWAP9 AND PUSH1 0x20 DUP11 ADD MSTORE SWAP7 DUP9 ADD SWAP6 SWAP1 SWAP6 MSTORE PUSH1 0x60 DUP8 ADD SWAP4 SWAP1 SWAP4 MSTORE PUSH1 0x80 DUP7 ADD SWAP2 SWAP1 SWAP2 MSTORE PUSH1 0xA0 DUP6 ADD MSTORE PUSH1 0xC0 DUP5 ADD MSTORE PUSH1 0xFF AND PUSH1 0xE0 DUP4 ADD MSTORE ISZERO ISZERO PUSH2 0x100 DUP3 ADD MSTORE PUSH2 0x120 ADD PUSH2 0x2EA JUMP JUMPDEST CALLVALUE DUP1 ISZERO PUSH2 0x5CD JUMPI PUSH1 0x0 DUP1 REVERT JUMPDEST POP PUSH2 0x5E1 PUSH2 0x5DC CALLDATASIZE PUSH1 0x4 PUSH2 0x4277 JUMP JUMPDEST PUSH2 0x2495 JUMP JUMPDEST PUSH1 0x40 MLOAD PUSH2 0x2EA SWAP2 SWAP1 PUSH2 0x4438 JUMP JUMPDEST CALLVALUE DUP1 ISZERO PUSH2 0x5FA JUMPI PUSH1 0x0 DUP1 REVERT JUMPDEST POP PUSH2 0x313 PUSH2 0x609 CALLDATASIZE PUSH1 0x4 PUSH2 0x41B0 JUMP JUMPDEST PUSH2 0x2657 JUMP JUMPDEST PUSH2 0x313 PUSH2 0x61C CALLDATASIZE PUSH1 0x4 PUSH2 0x3FD8 JUMP JUMPDEST PUSH2 0x2804 JUMP JUMPDEST CALLVALUE DUP1 ISZERO PUSH2 0x62D JUMPI PUSH1 0x0 DUP1 REVERT JUMPDEST POP PUSH1 0xA SLOAD PUSH2 0x2E0 JUMP JUMPDEST CALLVALUE DUP1 ISZERO PUSH2 0x642 JUMPI PUSH1 0x0 DUP1 REVERT JUMPDEST POP PUSH2 0x313 PUSH2 0x651 CALLDATASIZE PUSH1 0x4 PUSH2 0x4277 JUMP JUMPDEST PUSH2 0x2B1E JUMP JUMPDEST CALLVALUE DUP1 ISZERO PUSH2 0x662 JUMPI PUSH1 0x0 DUP1 REVERT JUMPDEST POP PUSH2 0x313 PUSH2 0x671 CALLDATASIZE PUSH1 0x4 PUSH2 0x4277 JUMP JUMPDEST PUSH2 0x2D32 JUMP JUMPDEST CALLVALUE DUP1 ISZERO PUSH2 0x682 JUMPI PUSH1 0x0 DUP1 REVERT JUMPDEST POP PUSH1 0x8 SLOAD PUSH2 0x2E0 JUMP JUMPDEST CALLVALUE DUP1 ISZERO PUSH2 0x697 JUMPI PUSH1 0x0 DUP1 REVERT JUMPDEST POP PUSH2 0x313 PUSH2 0x6A6 CALLDATASIZE PUSH1 0x4 PUSH2 0x4320 JUMP JUMPDEST PUSH2 0x2EE8 JUMP JUMPDEST CALLVALUE DUP1 ISZERO PUSH2 0x6B7 JUMPI PUSH1 0x0 DUP1 REVERT JUMPDEST POP PUSH2 0x6CB PUSH2 0x6C6 CALLDATASIZE PUSH1 0x4 PUSH2 0x42D4 JUMP JUMPDEST PUSH2 0x2FB0 JUMP JUMPDEST PUSH1 0x40 MLOAD PUSH2 0x2EA SWAP9 SWAP8 SWAP7 SWAP6 SWAP5 SWAP4 SWAP3 SWAP2 SWAP1 PUSH2 0x453A JUMP JUMPDEST CALLVALUE DUP1 ISZERO PUSH2 0x6EB JUMPI PUSH1 0x0 DUP1 REVERT JUMPDEST POP PUSH2 0x2E0 PUSH2 0x340C JUMP JUMPDEST CALLVALUE DUP1 ISZERO PUSH2 0x700 JUMPI PUSH1 0x0 DUP1 REVERT JUMPDEST POP PUSH2 0x2E0 PUSH2 0x70F CALLDATASIZE PUSH1 0x4 PUSH2 0x4277 JUMP JUMPDEST PUSH2 0x3471 JUMP JUMPDEST CALLVALUE DUP1 ISZERO PUSH2 0x720 JUMPI PUSH1 0x0 DUP1 REVERT JUMPDEST POP PUSH2 0x2E0 PUSH2 0x72F CALLDATASIZE PUSH1 0x4 PUSH2 0x4277 JUMP JUMPDEST PUSH2 0x351A JUMP JUMPDEST PUSH2 0x313 PUSH2 0x742 CALLDATASIZE PUSH1 0x4 PUSH2 0x40DA JUMP JUMPDEST PUSH2 0x35B9 JUMP JUMPDEST CALLVALUE DUP1 ISZERO PUSH2 0x753 JUMPI PUSH1 0x0 DUP1 REVERT JUMPDEST POP CALLER PUSH1 0x0 SWAP1 DUP2 MSTORE PUSH1 0x1 PUSH1 0x20 MSTORE PUSH1 0x40 SWAP1 KECCAK256 SLOAD PUSH1 0xFF AND PUSH2 0x423 JUMP JUMPDEST CALLVALUE DUP1 ISZERO PUSH2 0x778 JUMPI PUSH1 0x0 DUP1 REVERT JUMPDEST POP PUSH2 0x423 PUSH2 0x787 CALLDATASIZE PUSH1 0x4 PUSH2 0x4277 JUMP JUMPDEST PUSH2 0x38EF JUMP JUMPDEST CALLVALUE DUP1 ISZERO PUSH2 0x798 JUMPI PUSH1 0x0 DUP1 REVERT JUMPDEST POP PUSH2 0x423 PUSH2 0x7A7 CALLDATASIZE PUSH1 0x4 PUSH2 0x4277 JUMP JUMPDEST PUSH2 0x3987 JUMP JUMPDEST CALLVALUE DUP1 ISZERO PUSH2 0x7B8 JUMPI PUSH1 0x0 DUP1 REVERT JUMPDEST POP PUSH1 0x6 SLOAD PUSH2 0x2E0 JUMP JUMPDEST CALLVALUE DUP1 ISZERO PUSH2 0x7CD JUMPI PUSH1 0x0 DUP1 REVERT JUMPDEST POP PUSH2 0x7E1 PUSH2 0x7DC CALLDATASIZE PUSH1 0x4 PUSH2 0x4277 JUMP JUMPDEST PUSH2 0x3A3C JUMP JUMPDEST PUSH1 0x40 MLOAD PUSH2 0x2EA SWAP12 SWAP11 SWAP10 SWAP9 SWAP8 SWAP7 SWAP6 SWAP5 SWAP4 SWAP3 SWAP2 SWAP1 PUSH2 0x439F JUMP JUMPDEST CALLVALUE DUP1 ISZERO PUSH2 0x804 JUMPI PUSH1 0x0 DUP1 REVERT JUMPDEST POP PUSH2 0x423 PUSH2 0x813 CALLDATASIZE PUSH1 0x4 PUSH2 0x4277 JUMP JUMPDEST PUSH2 0x3D41 JUMP JUMPDEST CALLVALUE DUP1 ISZERO PUSH2 0x824 JUMPI PUSH1 0x0 DUP1 REVERT JUMPDEST POP PUSH2 0x2E0 PUSH2 0x833 CALLDATASIZE PUSH1 0x4 PUSH2 0x4277 JUMP JUMPDEST PUSH2 0x3DDE JUMP JUMPDEST PUSH1 0x0 DUP2 PUSH1 0x8 SLOAD DUP2 LT PUSH2 0x885 JUMPI PUSH1 0x40 MLOAD PUSH3 0x461BCD PUSH1 0xE5 SHL DUP2 MSTORE PUSH1 0x20 PUSH1 0x4 DUP3 ADD MSTORE PUSH1 0x11 PUSH1 0x24 DUP3 ADD MSTORE PUSH17 0x151A19481A9BD8881B9BDD08195E1A5CDD PUSH1 0x7A SHL PUSH1 0x44 DUP3 ADD MSTORE PUSH1 0x64 ADD JUMPDEST PUSH1 0x40 MLOAD DUP1 SWAP2 SUB SWAP1 REVERT JUMPDEST CALLER PUSH1 0x0 SWAP1 DUP2 MSTORE PUSH1 0x1 PUSH1 0x20 SWAP1 DUP2 MSTORE PUSH1 0x40 DUP1 DUP4 KECCAK256 DUP7 DUP5 MSTORE PUSH1 0x4 ADD SWAP1 SWAP2 MSTORE SWAP1 KECCAK256 SLOAD SWAP2 POP JUMPDEST POP SWAP2 SWAP1 POP JUMP JUMPDEST DUP1 PUSH1 0x8 SLOAD DUP2 LT PUSH2 0x8F2 JUMPI PUSH1 0x40 MLOAD PUSH3 0x461BCD PUSH1 0xE5 SHL DUP2 MSTORE PUSH1 0x20 PUSH1 0x4 DUP3 ADD MSTORE PUSH1 0x11 PUSH1 0x24 DUP3 ADD MSTORE PUSH17 0x151A19481A9BD8881B9BDD08195E1A5CDD PUSH1 0x7A SHL PUSH1 0x44 DUP3 ADD MSTORE PUSH1 0x64 ADD PUSH2 0x87C JUMP JUMPDEST PUSH1 0x0 DUP3 DUP2 MSTORE PUSH1 0x7 PUSH1 0x20 MSTORE PUSH1 0x40 SWAP1 KECCAK256 SLOAD DUP3 SWAP1 PUSH1 0x1 PUSH1 0x1 PUSH1 0xA0 SHL SUB AND CALLER EQ PUSH2 0x951 JUMPI PUSH1 0x40 MLOAD PUSH3 0x461BCD PUSH1 0xE5 SHL DUP2 MSTORE PUSH1 0x20 PUSH1 0x4 DUP3 ADD MSTORE PUSH1 0x14 PUSH1 0x24 DUP3 ADD MSTORE PUSH20 0x2CB7BA93B932903737BA103A34329037BBB732B9 PUSH1 0x61 SHL PUSH1 0x44 DUP3 ADD MSTORE PUSH1 0x64 ADD PUSH2 0x87C JUMP JUMPDEST PUSH1 0x0 DUP4 DUP2 MSTORE PUSH1 0x7 PUSH1 0x20 SWAP1 DUP2 MSTORE PUSH1 0x40 SWAP2 DUP3 SWAP1 KECCAK256 PUSH1 0xC DUP2 ADD DUP1 SLOAD PUSH1 0xFF NOT AND SWAP1 SSTORE SWAP2 MLOAD DUP6 DUP2 MSTORE PUSH32 0x156D298E3230EEF448BD5231631A15A00A31D76EE7CC580888B12E660D3C4519 SWAP2 ADD PUSH1 0x40 MLOAD DUP1 SWAP2 SUB SWAP1 LOG1 POP POP POP POP JUMP JUMPDEST CALLER PUSH1 0x0 SWAP1 DUP2 MSTORE PUSH1 0x1 PUSH1 0x20 MSTORE PUSH1 0x40 SWAP1 KECCAK256 SLOAD PUSH1 0xFF AND ISZERO PUSH2 0xA05 JUMPI PUSH1 0x40 MLOAD PUSH3 0x461BCD PUSH1 0xE5 SHL DUP2 MSTORE PUSH1 0x20 PUSH1 0x4 DUP3 ADD MSTORE PUSH1 0x19 PUSH1 0x24 DUP3 ADD MSTORE PUSH32 0x596F7527726520616C7265616479207265676973746572642100000000000000 PUSH1 0x44 DUP3 ADD MSTORE PUSH1 0x64 ADD PUSH2 0x87C JUMP JUMPDEST CALLER PUSH1 0x0 SWAP1 DUP2 MSTORE PUSH1 0x1 PUSH1 0x20 DUP2 DUP2 MSTORE PUSH1 0x40 SWAP1 SWAP3 KECCAK256 DUP1 SLOAD PUSH1 0xFF NOT AND DUP3 OR DUP2 SSTORE DUP6 MLOAD PUSH2 0xA35 SWAP4 SWAP2 SWAP1 SWAP3 ADD SWAP2 SWAP1 DUP7 ADD SWAP1 PUSH2 0x3E3D JUMP JUMPDEST POP CALLER PUSH1 0x0 SWAP1 DUP2 MSTORE PUSH1 0x1 PUSH1 0x20 SWAP1 DUP2 MSTORE PUSH1 0x40 SWAP1 SWAP2 KECCAK256 DUP4 MLOAD PUSH2 0xA5C SWAP3 PUSH1 0x2 SWAP1 SWAP3 ADD SWAP2 DUP6 ADD SWAP1 PUSH2 0x3E3D JUMP JUMPDEST POP CALLER PUSH1 0x0 SWAP1 DUP2 MSTORE PUSH1 0x1 PUSH1 0x20 SWAP1 DUP2 MSTORE PUSH1 0x40 SWAP1 SWAP2 KECCAK256 DUP3 MLOAD PUSH2 0xA83 SWAP3 PUSH1 0x3 SWAP1 SWAP3 ADD SWAP2 DUP5 ADD SWAP1 PUSH2 0x3E3D JUMP JUMPDEST POP PUSH1 0x3 DUP1 SLOAD PUSH1 0x0 SWAP1 DUP2 MSTORE PUSH1 0x2 PUSH1 0x20 MSTORE PUSH1 0x40 DUP2 KECCAK256 DUP1 SLOAD PUSH1 0x1 PUSH1 0x1 PUSH1 0xA0 SHL SUB NOT AND CALLER OR SWAP1 SSTORE DUP2 SLOAD SWAP2 SWAP1 PUSH2 0xAB3 DUP4 PUSH2 0x46D1 JUMP JUMPDEST SWAP2 SWAP1 POP SSTORE POP PUSH32 0xC7CE3FB6FC45F140ADE3C39C738B15B325A6682E6862A6F0CB720B08BFC922CC DUP4 CALLER PUSH1 0x40 MLOAD PUSH2 0xAE9 SWAP3 SWAP2 SWAP1 PUSH2 0x44D0 JUMP JUMPDEST PUSH1 0x40 MLOAD DUP1 SWAP2 SUB SWAP1 LOG1 POP POP POP JUMP JUMPDEST CALLER PUSH1 0x0 SWAP1 DUP2 MSTORE PUSH1 0x1 PUSH1 0x20 MSTORE PUSH1 0x40 SWAP1 KECCAK256 PUSH1 0x5 DUP2 ADD SLOAD DUP4 LT PUSH2 0xB48 JUMPI PUSH1 0x40 MLOAD PUSH3 0x461BCD PUSH1 0xE5 SHL DUP2 MSTORE PUSH1 0x20 PUSH1 0x4 DUP3 ADD MSTORE PUSH1 0xD PUSH1 0x24 DUP3 ADD MSTORE PUSH13 0x129BD8881B9BDD08199BDD5B99 PUSH1 0x9A SHL PUSH1 0x44 DUP3 ADD MSTORE PUSH1 0x64 ADD PUSH2 0x87C JUMP JUMPDEST PUSH1 0x0 DUP4 DUP2 MSTORE PUSH1 0x4 DUP3 ADD PUSH1 0x20 SWAP1 DUP2 MSTORE PUSH1 0x40 DUP1 DUP4 KECCAK256 SLOAD DUP4 MSTORE PUSH1 0x7 SWAP1 SWAP2 MSTORE SWAP1 KECCAK256 PUSH1 0x11 DUP2 ADD SLOAD DUP4 LT PUSH2 0xBB8 JUMPI PUSH1 0x40 MLOAD PUSH3 0x461BCD PUSH1 0xE5 SHL DUP2 MSTORE PUSH1 0x20 PUSH1 0x4 DUP3 ADD MSTORE PUSH1 0x13 PUSH1 0x24 DUP3 ADD MSTORE PUSH32 0x43616E646974617465206E6F7420666F756E6400000000000000000000000000 PUSH1 0x44 DUP3 ADD MSTORE PUSH1 0x64 ADD PUSH2 0x87C JUMP JUMPDEST PUSH1 0x0 SWAP3 DUP4 MSTORE PUSH1 0x10 ADD PUSH1 0x20 MSTORE POP PUSH1 0x40 SWAP1 KECCAK256 PUSH1 0x8 ADD DUP1 SLOAD PUSH1 0xFF NOT AND PUSH1 0x1 OR SWAP1 SSTORE POP JUMP JUMPDEST PUSH1 0x0 DUP2 DUP2 MSTORE PUSH1 0x5 PUSH1 0x20 DUP2 DUP2 MSTORE PUSH1 0x40 DUP1 DUP5 KECCAK256 SLOAD PUSH1 0x1 PUSH1 0x1 PUSH1 0xA0 SHL SUB AND DUP1 DUP6 MSTORE PUSH1 0x4 DUP1 DUP5 MSTORE SWAP2 DUP6 KECCAK256 DUP7 DUP7 MSTORE SWAP3 DUP5 SWAP1 MSTORE PUSH1 0x3 DUP4 ADD SLOAD PUSH1 0x1 DUP5 ADD DUP1 SLOAD PUSH1 0x60 SWAP8 DUP9 SWAP8 SWAP1 SWAP7 DUP9 SWAP7 DUP8 SWAP7 DUP8 SWAP7 DUP11 SWAP7 SWAP4 SWAP6 SWAP2 SWAP5 PUSH1 0x2 DUP8 ADD SWAP4 SWAP2 SWAP3 SWAP2 DUP8 ADD SWAP2 SWAP1 DUP8 ADD SWAP1 PUSH1 0x6 DUP9 ADD SWAP1 DUP8 SWAP1 DUP8 SWAP1 PUSH2 0xC45 SWAP1 PUSH2 0x469C JUMP JUMPDEST DUP1 PUSH1 0x1F ADD PUSH1 0x20 DUP1 SWAP2 DIV MUL PUSH1 0x20 ADD PUSH1 0x40 MLOAD SWAP1 DUP2 ADD PUSH1 0x40 MSTORE DUP1 SWAP3 SWAP2 SWAP1 DUP2 DUP2 MSTORE PUSH1 0x20 ADD DUP3 DUP1 SLOAD PUSH2 0xC71 SWAP1 PUSH2 0x469C JUMP JUMPDEST DUP1 ISZERO PUSH2 0xCBE JUMPI DUP1 PUSH1 0x1F LT PUSH2 0xC93 JUMPI PUSH2 0x100 DUP1 DUP4 SLOAD DIV MUL DUP4 MSTORE SWAP2 PUSH1 0x20 ADD SWAP2 PUSH2 0xCBE JUMP JUMPDEST DUP3 ADD SWAP2 SWAP1 PUSH1 0x0 MSTORE PUSH1 0x20 PUSH1 0x0 KECCAK256 SWAP1 JUMPDEST DUP2 SLOAD DUP2 MSTORE SWAP1 PUSH1 0x1 ADD SWAP1 PUSH1 0x20 ADD DUP1 DUP4 GT PUSH2 0xCA1 JUMPI DUP3 SWAP1 SUB PUSH1 0x1F AND DUP3 ADD SWAP2 JUMPDEST POP POP POP POP POP SWAP7 POP DUP6 DUP1 SLOAD PUSH2 0xCD1 SWAP1 PUSH2 0x469C JUMP JUMPDEST DUP1 PUSH1 0x1F ADD PUSH1 0x20 DUP1 SWAP2 DIV MUL PUSH1 0x20 ADD PUSH1 0x40 MLOAD SWAP1 DUP2 ADD PUSH1 0x40 MSTORE DUP1 SWAP3 SWAP2 SWAP1 DUP2 DUP2 MSTORE PUSH1 0x20 ADD DUP3 DUP1 SLOAD PUSH2 0xCFD SWAP1 PUSH2 0x469C JUMP JUMPDEST DUP1 ISZERO PUSH2 0xD4A JUMPI DUP1 PUSH1 0x1F LT PUSH2 0xD1F JUMPI PUSH2 0x100 DUP1 DUP4 SLOAD DIV MUL DUP4 MSTORE SWAP2 PUSH1 0x20 ADD SWAP2 PUSH2 0xD4A JUMP JUMPDEST DUP3 ADD SWAP2 SWAP1 PUSH1 0x0 MSTORE PUSH1 0x20 PUSH1 0x0 KECCAK256 SWAP1 JUMPDEST DUP2 SLOAD DUP2 MSTORE SWAP1 PUSH1 0x1 ADD SWAP1 PUSH1 0x20 ADD DUP1 DUP4 GT PUSH2 0xD2D JUMPI DUP3 SWAP1 SUB PUSH1 0x1F AND DUP3 ADD SWAP2 JUMPDEST POP POP POP POP POP SWAP6 POP DUP4 DUP1 SLOAD PUSH2 0xD5D SWAP1 PUSH2 0x469C JUMP JUMPDEST DUP1 PUSH1 0x1F ADD PUSH1 0x20 DUP1 SWAP2 DIV MUL PUSH1 0x20 ADD PUSH1 0x40 MLOAD SWAP1 DUP2 ADD PUSH1 0x40 MSTORE DUP1 SWAP3 SWAP2 SWAP1 DUP2 DUP2 MSTORE PUSH1 0x20 ADD DUP3 DUP1 SLOAD PUSH2 0xD89 SWAP1 PUSH2 0x469C JUMP JUMPDEST DUP1 ISZERO PUSH2 0xDD6 JUMPI DUP1 PUSH1 0x1F LT PUSH2 0xDAB JUMPI PUSH2 0x100 DUP1 DUP4 SLOAD DIV MUL DUP4 MSTORE SWAP2 PUSH1 0x20 ADD SWAP2 PUSH2 0xDD6 JUMP JUMPDEST DUP3 ADD SWAP2 SWAP1 PUSH1 0x0 MSTORE PUSH1 0x20 PUSH1 0x0 KECCAK256 SWAP1 JUMPDEST DUP2 SLOAD DUP2 MSTORE SWAP1 PUSH1 0x1 ADD SWAP1 PUSH1 0x20 ADD DUP1 DUP4 GT PUSH2 0xDB9 JUMPI DUP3 SWAP1 SUB PUSH1 0x1F AND DUP3 ADD SWAP2 JUMPDEST POP POP POP POP POP SWAP4 POP DUP3 DUP1 SLOAD PUSH2 0xDE9 SWAP1 PUSH2 0x469C JUMP JUMPDEST DUP1 PUSH1 0x1F ADD PUSH1 0x20 DUP1 SWAP2 DIV MUL PUSH1 0x20 ADD PUSH1 0x40 MLOAD SWAP1 DUP2 ADD PUSH1 0x40 MSTORE DUP1 SWAP3 SWAP2 SWAP1 DUP2 DUP2 MSTORE PUSH1 0x20 ADD DUP3 DUP1 SLOAD PUSH2 0xE15 SWAP1 PUSH2 0x469C JUMP JUMPDEST DUP1 ISZERO PUSH2 0xE62 JUMPI DUP1 PUSH1 0x1F LT PUSH2 0xE37 JUMPI PUSH2 0x100 DUP1 DUP4 SLOAD DIV MUL DUP4 MSTORE SWAP2 PUSH1 0x20 ADD SWAP2 PUSH2 0xE62 JUMP JUMPDEST DUP3 ADD SWAP2 SWAP1 PUSH1 0x0 MSTORE PUSH1 0x20 PUSH1 0x0 KECCAK256 SWAP1 JUMPDEST DUP2 SLOAD DUP2 MSTORE SWAP1 PUSH1 0x1 ADD SWAP1 PUSH1 0x20 ADD DUP1 DUP4 GT PUSH2 0xE45 JUMPI DUP3 SWAP1 SUB PUSH1 0x1F AND DUP3 ADD SWAP2 JUMPDEST POP POP POP POP POP SWAP3 POP DUP2 DUP1 SLOAD PUSH2 0xE75 SWAP1 PUSH2 0x469C JUMP JUMPDEST DUP1 PUSH1 0x1F ADD PUSH1 0x20 DUP1 SWAP2 DIV MUL PUSH1 0x20 ADD PUSH1 0x40 MLOAD SWAP1 DUP2 ADD PUSH1 0x40 MSTORE DUP1 SWAP3 SWAP2 SWAP1 DUP2 DUP2 MSTORE PUSH1 0x20 ADD DUP3 DUP1 SLOAD PUSH2 0xEA1 SWAP1 PUSH2 0x469C JUMP JUMPDEST DUP1 ISZERO PUSH2 0xEEE JUMPI DUP1 PUSH1 0x1F LT PUSH2 0xEC3 JUMPI PUSH2 0x100 DUP1 DUP4 SLOAD DIV MUL DUP4 MSTORE SWAP2 PUSH1 0x20 ADD SWAP2 PUSH2 0xEEE JUMP JUMPDEST DUP3 ADD SWAP2 SWAP1 PUSH1 0x0 MSTORE PUSH1 0x20 PUSH1 0x0 KECCAK256 SWAP1 JUMPDEST DUP2 SLOAD DUP2 MSTORE SWAP1 PUSH1 0x1 ADD SWAP1 PUSH1 0x20 ADD DUP1 DUP4 GT PUSH2 0xED1 JUMPI DUP3 SWAP1 SUB PUSH1 0x1F AND DUP3 ADD SWAP2 JUMPDEST POP POP POP POP POP SWAP2 POP SWAP9 POP SWAP9 POP SWAP9 POP SWAP9 POP SWAP9 POP SWAP9 POP SWAP9 POP POP POP SWAP2 SWAP4 SWAP6 SWAP8 SWAP1 SWAP3 SWAP5 SWAP7 POP JUMP JUMPDEST PUSH1 0x0 DUP2 PUSH1 0x8 SLOAD DUP2 LT PUSH2 0xF58 JUMPI PUSH1 0x40 MLOAD PUSH3 0x461BCD PUSH1 0xE5 SHL DUP2 MSTORE PUSH1 0x20 PUSH1 0x4 DUP3 ADD MSTORE PUSH1 0x11 PUSH1 0x24 DUP3 ADD MSTORE PUSH17 0x151A19481A9BD8881B9BDD08195E1A5CDD PUSH1 0x7A SHL PUSH1 0x44 DUP3 ADD MSTORE PUSH1 0x64 ADD PUSH2 0x87C JUMP JUMPDEST POP POP PUSH1 0x0 SWAP1 DUP2 MSTORE PUSH1 0x7 PUSH1 0x20 MSTORE PUSH1 0x40 SWAP1 KECCAK256 PUSH1 0xE ADD SLOAD SWAP1 JUMP JUMPDEST DUP1 PUSH1 0xA SLOAD DUP2 LT PUSH2 0xF7E JUMPI PUSH1 0x0 DUP1 REVERT JUMPDEST PUSH1 0x2 PUSH1 0x0 SLOAD EQ ISZERO PUSH2 0xFD1 JUMPI PUSH1 0x40 MLOAD PUSH3 0x461BCD PUSH1 0xE5 SHL DUP2 MSTORE PUSH1 0x20 PUSH1 0x4 DUP3 ADD MSTORE PUSH1 0x1F PUSH1 0x24 DUP3 ADD MSTORE PUSH32 0x5265656E7472616E637947756172643A207265656E7472616E742063616C6C00 PUSH1 0x44 DUP3 ADD MSTORE PUSH1 0x64 ADD PUSH2 0x87C JUMP JUMPDEST PUSH1 0x2 PUSH1 0x0 SWAP1 DUP2 SSTORE DUP3 DUP2 MSTORE PUSH1 0x9 PUSH1 0x20 MSTORE PUSH1 0x40 SWAP1 KECCAK256 PUSH1 0x8 DUP2 ADD SLOAD PUSH2 0x100 SWAP1 DIV PUSH1 0xFF AND PUSH2 0xFFA JUMPI PUSH1 0x0 DUP1 REVERT JUMPDEST DUP1 SLOAD PUSH1 0x1 PUSH1 0x1 PUSH1 0xA0 SHL SUB AND CALLER EQ PUSH2 0x1010 JUMPI PUSH1 0x0 DUP1 REVERT JUMPDEST PUSH1 0x8 DUP2 ADD SLOAD PUSH1 0xFF AND PUSH1 0x2 EQ ISZERO PUSH2 0x1499 JUMPI PUSH1 0x0 PUSH1 0x3C DUP3 PUSH1 0x5 ADD SLOAD DUP4 PUSH1 0x6 ADD SLOAD PUSH2 0x1038 SWAP2 SWAP1 PUSH2 0x4685 JUMP JUMPDEST PUSH2 0x1042 SWAP2 SWAP1 PUSH2 0x4646 JUMP JUMPDEST SWAP1 POP PUSH1 0x0 PUSH1 0x18 PUSH1 0x3C DUP1 DUP6 PUSH1 0x2 ADD SLOAD DUP7 PUSH1 0x3 ADD SLOAD PUSH2 0x105F SWAP2 SWAP1 PUSH2 0x4685 JUMP JUMPDEST PUSH2 0x1069 SWAP2 SWAP1 PUSH2 0x4646 JUMP JUMPDEST PUSH2 0x1073 SWAP2 SWAP1 PUSH2 0x4646 JUMP JUMPDEST PUSH2 0x107D SWAP2 SWAP1 PUSH2 0x4646 JUMP JUMPDEST SWAP1 POP PUSH1 0x0 DUP3 DUP3 DUP6 PUSH1 0x4 ADD SLOAD PUSH2 0x1092 SWAP2 SWAP1 PUSH2 0x4646 JUMP JUMPDEST PUSH2 0x109C SWAP2 SWAP1 PUSH2 0x4646 JUMP JUMPDEST PUSH1 0x8 DUP1 SLOAD PUSH1 0x0 SWAP1 DUP2 MSTORE PUSH1 0x7 PUSH1 0x20 DUP2 DUP2 MSTORE PUSH1 0x40 DUP1 DUP5 KECCAK256 DUP11 SLOAD DUP2 SLOAD PUSH1 0x1 PUSH1 0x1 PUSH1 0xA0 SHL SUB NOT AND PUSH1 0x1 PUSH1 0x1 PUSH1 0xA0 SHL SUB SWAP1 SWAP2 AND OR DUP2 SSTORE PUSH1 0x4 DUP1 DUP13 ADD SLOAD PUSH1 0x1 DUP1 DUP5 ADD SWAP2 SWAP1 SWAP2 SSTORE PUSH1 0x5 DUP1 DUP15 ADD SLOAD PUSH1 0x6 DUP1 DUP7 ADD SWAP2 SWAP1 SWAP2 SSTORE DUP15 ADD SLOAD SWAP7 DUP5 ADD SWAP7 SWAP1 SWAP7 SSTORE DUP3 DUP9 ADD DUP2 SWAP1 SSTORE PUSH1 0x9 DUP4 ADD DUP10 SWAP1 SSTORE PUSH1 0x2 DUP14 ADD SLOAD PUSH1 0xA DUP5 ADD SSTORE PUSH1 0x3 DUP14 ADD SLOAD PUSH1 0xB DUP5 ADD SSTORE PUSH1 0xC DUP4 ADD DUP1 SLOAD PUSH2 0xFFFF NOT AND DUP3 OR SWAP1 SSTORE PUSH1 0xE DUP4 ADD DUP8 SWAP1 SSTORE PUSH1 0x11 DUP4 ADD DUP8 SWAP1 SSTORE CALLER DUP8 MSTORE DUP5 MSTORE DUP3 DUP7 KECCAK256 SWAP7 SLOAD SWAP5 DUP8 ADD DUP1 SLOAD DUP8 MSTORE SWAP1 DUP8 ADD SWAP1 SWAP4 MSTORE SWAP1 DUP5 KECCAK256 SWAP3 SWAP1 SWAP3 SSTORE DUP1 SLOAD SWAP5 SWAP6 POP SWAP1 SWAP4 SWAP2 PUSH2 0x1162 DUP4 PUSH2 0x46D1 JUMP JUMPDEST SWAP1 SWAP2 SSTORE POP POP PUSH1 0x1 DUP1 DUP8 ADD SLOAD PUSH1 0x1 PUSH1 0x1 PUSH1 0xA0 SHL SUB AND PUSH1 0x0 SWAP1 DUP2 MSTORE PUSH1 0x4 PUSH1 0x20 SWAP1 DUP2 MSTORE PUSH1 0x40 DUP1 DUP4 KECCAK256 PUSH1 0x11 DUP8 ADD SLOAD DUP5 MSTORE PUSH1 0x10 DUP8 ADD SWAP1 SWAP3 MSTORE SWAP1 SWAP2 KECCAK256 SWAP2 DUP2 ADD DUP1 SLOAD SWAP2 SWAP3 SWAP2 DUP3 SWAP2 SWAP1 PUSH2 0x11AC SWAP1 PUSH2 0x469C JUMP JUMPDEST PUSH2 0x11B7 SWAP3 SWAP2 SWAP1 PUSH2 0x3EC1 JUMP JUMPDEST POP DUP2 PUSH1 0x2 ADD DUP2 PUSH1 0x1 ADD SWAP1 DUP1 SLOAD PUSH2 0x11CC SWAP1 PUSH2 0x469C JUMP JUMPDEST PUSH2 0x11D7 SWAP3 SWAP2 SWAP1 PUSH2 0x3EC1 JUMP JUMPDEST POP PUSH1 0x1 DUP9 ADD SLOAD PUSH1 0x2 DUP3 ADD DUP1 SLOAD PUSH1 0x1 PUSH1 0x1 PUSH1 0xA0 SHL SUB NOT AND PUSH1 0x1 PUSH1 0x1 PUSH1 0xA0 SHL SUB SWAP1 SWAP3 AND SWAP2 SWAP1 SWAP2 OR SWAP1 SSTORE PUSH1 0x4 DUP3 ADD DUP1 SLOAD PUSH1 0x3 DUP4 ADD SWAP2 SWAP1 PUSH2 0x1213 SWAP1 PUSH2 0x469C JUMP JUMPDEST PUSH2 0x121E SWAP3 SWAP2 SWAP1 PUSH2 0x3EC1 JUMP JUMPDEST POP PUSH1 0x3 DUP3 ADD SLOAD PUSH1 0x4 DUP3 ADD SSTORE PUSH1 0x5 DUP1 DUP4 ADD DUP1 SLOAD SWAP2 DUP4 ADD SWAP2 PUSH2 0x123D SWAP1 PUSH2 0x469C JUMP JUMPDEST PUSH2 0x1248 SWAP3 SWAP2 SWAP1 PUSH2 0x3EC1 JUMP JUMPDEST POP DUP2 PUSH1 0x6 ADD DUP2 PUSH1 0x6 ADD SWAP1 DUP1 SLOAD PUSH2 0x125D SWAP1 PUSH2 0x469C JUMP JUMPDEST PUSH2 0x1268 SWAP3 SWAP2 SWAP1 PUSH2 0x3EC1 JUMP JUMPDEST POP PUSH1 0x0 PUSH1 0x7 DUP3 ADD DUP2 SWAP1 SSTORE PUSH1 0x11 DUP6 ADD SLOAD PUSH1 0x1 DUP11 ADD SLOAD PUSH1 0x1 PUSH1 0x1 PUSH1 0xA0 SHL SUB AND DUP3 MSTORE PUSH1 0xF DUP7 ADD PUSH1 0x20 SWAP1 DUP2 MSTORE PUSH1 0x40 DUP1 DUP5 KECCAK256 DUP4 SWAP1 SSTORE SWAP2 DUP4 MSTORE PUSH1 0x10 DUP8 ADD SWAP1 MSTORE SWAP1 KECCAK256 DUP2 SLOAD DUP3 SWAP2 SWAP1 DUP2 SWAP1 DUP4 SWAP1 PUSH2 0x12B5 SWAP1 PUSH2 0x469C JUMP JUMPDEST PUSH2 0x12C0 SWAP3 SWAP2 SWAP1 PUSH2 0x3EC1 JUMP JUMPDEST POP PUSH1 0x1 DUP3 ADD DUP2 PUSH1 0x1 ADD SWAP1 DUP1 SLOAD PUSH2 0x12D5 SWAP1 PUSH2 0x469C JUMP JUMPDEST PUSH2 0x12E0 SWAP3 SWAP2 SWAP1 PUSH2 0x3EC1 JUMP JUMPDEST POP PUSH1 0x2 DUP3 DUP2 ADD SLOAD SWAP1 DUP3 ADD DUP1 SLOAD PUSH1 0x1 PUSH1 0x1 PUSH1 0xA0 SHL SUB NOT AND PUSH1 0x1 PUSH1 0x1 PUSH1 0xA0 SHL SUB SWAP1 SWAP3 AND SWAP2 SWAP1 SWAP2 OR SWAP1 SSTORE PUSH1 0x3 DUP1 DUP4 ADD DUP1 SLOAD SWAP2 DUP4 ADD SWAP2 PUSH2 0x131B SWAP1 PUSH2 0x469C JUMP JUMPDEST PUSH2 0x1326 SWAP3 SWAP2 SWAP1 PUSH2 0x3EC1 JUMP JUMPDEST POP PUSH1 0x4 DUP3 ADD SLOAD DUP2 PUSH1 0x4 ADD SSTORE PUSH1 0x5 DUP3 ADD DUP2 PUSH1 0x5 ADD SWAP1 DUP1 SLOAD PUSH2 0x1345 SWAP1 PUSH2 0x469C JUMP JUMPDEST PUSH2 0x1350 SWAP3 SWAP2 SWAP1 PUSH2 0x3EC1 JUMP JUMPDEST POP PUSH1 0x6 DUP3 ADD DUP2 PUSH1 0x6 ADD SWAP1 DUP1 SLOAD PUSH2 0x1365 SWAP1 PUSH2 0x469C JUMP JUMPDEST PUSH2 0x1370 SWAP3 SWAP2 SWAP1 PUSH2 0x3EC1 JUMP JUMPDEST POP PUSH1 0x7 DUP3 DUP2 ADD SLOAD SWAP1 DUP3 ADD SSTORE PUSH1 0x8 SWAP2 DUP3 ADD DUP1 SLOAD SWAP3 SWAP1 SWAP2 ADD DUP1 SLOAD PUSH1 0xFF SWAP4 DUP5 AND ISZERO ISZERO PUSH1 0xFF NOT DUP3 AND DUP2 OR DUP4 SSTORE SWAP3 SLOAD PUSH2 0x100 SWAP1 DUP2 SWAP1 DIV SWAP1 SWAP5 AND ISZERO ISZERO SWAP1 SWAP4 MUL PUSH2 0xFF00 NOT SWAP1 SWAP3 AND PUSH2 0xFFFF NOT SWAP1 SWAP4 AND SWAP3 SWAP1 SWAP3 OR OR SWAP1 SSTORE PUSH1 0x11 DUP5 ADD DUP1 SLOAD SWAP1 PUSH1 0x0 PUSH2 0x13D0 DUP4 PUSH2 0x46D1 JUMP JUMPDEST SWAP1 SWAP2 SSTORE POP POP PUSH1 0x2 DUP2 ADD SLOAD PUSH1 0xE DUP6 ADD DUP1 SLOAD PUSH1 0x0 SWAP1 DUP2 MSTORE PUSH1 0xD DUP8 ADD PUSH1 0x20 MSTORE PUSH1 0x40 DUP2 KECCAK256 DUP1 SLOAD PUSH1 0x1 PUSH1 0x1 PUSH1 0xA0 SHL SUB NOT AND PUSH1 0x1 PUSH1 0x1 PUSH1 0xA0 SHL SUB SWAP1 SWAP5 AND SWAP4 SWAP1 SWAP4 OR SWAP1 SWAP3 SSTORE PUSH1 0x8 DUP4 ADD DUP1 SLOAD PUSH2 0xFF00 NOT AND PUSH2 0x100 OR SWAP1 SSTORE DUP1 SLOAD SWAP2 PUSH2 0x142B DUP4 PUSH2 0x46D1 JUMP JUMPDEST SWAP1 SWAP2 SSTORE POP POP PUSH1 0x8 DUP1 SLOAD SWAP1 DUP4 ADD DUP1 SLOAD PUSH1 0x0 SWAP1 DUP2 MSTORE PUSH1 0x7 DUP6 ADD PUSH1 0x20 MSTORE PUSH1 0x40 DUP2 KECCAK256 SWAP3 SWAP1 SWAP3 SSTORE DUP1 SLOAD SWAP2 PUSH2 0x1459 DUP4 PUSH2 0x46D1 JUMP JUMPDEST SWAP1 SWAP2 SSTORE POP POP PUSH1 0xC DUP5 ADD DUP1 SLOAD PUSH1 0xFF NOT AND SWAP1 SSTORE PUSH1 0x8 DUP1 SLOAD SWAP1 PUSH1 0x0 PUSH2 0x147A DUP4 PUSH2 0x46D1 JUMP JUMPDEST SWAP1 SWAP2 SSTORE POP POP POP PUSH1 0x8 DUP8 ADD DUP1 SLOAD PUSH2 0xFF00 NOT AND SWAP1 SSTORE POP PUSH2 0x14E5 SWAP5 POP POP POP POP POP JUMP JUMPDEST PUSH1 0x8 DUP2 ADD DUP1 SLOAD PUSH2 0xFF00 NOT AND SWAP1 SSTORE DUP1 SLOAD PUSH1 0x4 DUP3 ADD SLOAD PUSH1 0x40 MLOAD PUSH1 0x1 PUSH1 0x1 PUSH1 0xA0 SHL SUB SWAP1 SWAP3 AND SWAP2 DUP2 ISZERO PUSH2 0x8FC MUL SWAP2 SWAP1 PUSH1 0x0 DUP2 DUP2 DUP2 DUP6 DUP9 DUP9 CALL SWAP4 POP POP POP POP ISZERO DUP1 ISZERO PUSH2 0x14E3 JUMPI RETURNDATASIZE PUSH1 0x0 DUP1 RETURNDATACOPY RETURNDATASIZE PUSH1 0x0 REVERT JUMPDEST POP JUMPDEST PUSH1 0x8 DUP2 ADD SLOAD PUSH1 0x40 DUP1 MLOAD DUP6 DUP2 MSTORE PUSH1 0xFF SWAP1 SWAP3 AND PUSH1 0x20 DUP4 ADD MSTORE PUSH32 0x5B35F771D9F644C0F2050975BEA8E2FBC8B54A867818D17D83983F4538DCAEB3 SWAP2 ADD PUSH1 0x40 MLOAD DUP1 SWAP2 SUB SWAP1 LOG1 POP POP PUSH1 0x1 PUSH1 0x0 SSTORE POP JUMP JUMPDEST PUSH1 0x0 DUP3 PUSH1 0x8 SLOAD DUP2 LT PUSH2 0x1578 JUMPI PUSH1 0x40 MLOAD PUSH3 0x461BCD PUSH1 0xE5 SHL DUP2 MSTORE PUSH1 0x20 PUSH1 0x4 DUP3 ADD MSTORE PUSH1 0x11 PUSH1 0x24 DUP3 ADD MSTORE PUSH17 0x151A19481A9BD8881B9BDD08195E1A5CDD PUSH1 0x7A SHL PUSH1 0x44 DUP3 ADD MSTORE PUSH1 0x64 ADD PUSH2 0x87C JUMP JUMPDEST POP POP PUSH1 0x0 SWAP2 DUP3 MSTORE PUSH1 0x7 PUSH1 0x20 DUP2 DUP2 MSTORE PUSH1 0x40 DUP1 DUP6 KECCAK256 SWAP4 DUP6 MSTORE PUSH1 0x10 SWAP1 SWAP4 ADD SWAP1 MSTORE SWAP2 KECCAK256 ADD SLOAD SWAP1 JUMP JUMPDEST PUSH1 0x0 DUP2 PUSH1 0x8 SLOAD DUP2 LT PUSH2 0x15E4 JUMPI PUSH1 0x40 MLOAD PUSH3 0x461BCD PUSH1 0xE5 SHL DUP2 MSTORE PUSH1 0x20 PUSH1 0x4 DUP3 ADD MSTORE PUSH1 0x11 PUSH1 0x24 DUP3 ADD MSTORE PUSH17 0x151A19481A9BD8881B9BDD08195E1A5CDD PUSH1 0x7A SHL PUSH1 0x44 DUP3 ADD MSTORE PUSH1 0x64 ADD PUSH2 0x87C JUMP JUMPDEST POP POP PUSH1 0x0 SWAP1 DUP2 MSTORE PUSH1 0x7 PUSH1 0x20 MSTORE PUSH1 0x40 SWAP1 KECCAK256 PUSH1 0xC ADD SLOAD PUSH2 0x100 SWAP1 DIV PUSH1 0xFF AND SWAP1 JUMP JUMPDEST CALLER PUSH1 0x0 SWAP1 DUP2 MSTORE PUSH1 0x4 PUSH1 0x20 MSTORE PUSH1 0x40 DUP2 KECCAK256 SLOAD PUSH1 0xFF AND PUSH2 0x161F JUMPI PUSH1 0x0 DUP1 REVERT JUMPDEST POP CALLER PUSH1 0x0 SWAP1 DUP2 MSTORE PUSH1 0x4 PUSH1 0x20 MSTORE PUSH1 0x40 SWAP1 KECCAK256 PUSH1 0x8 ADD SLOAD SWAP1 JUMP JUMPDEST CALLER PUSH1 0x0 SWAP1 DUP2 MSTORE PUSH1 0x4 PUSH1 0x20 MSTORE PUSH1 0x40 DUP2 KECCAK256 PUSH1 0x8 DUP2 ADD SLOAD DUP4 LT PUSH2 0x1688 JUMPI PUSH1 0x40 MLOAD PUSH3 0x461BCD PUSH1 0xE5 SHL DUP2 MSTORE PUSH1 0x20 PUSH1 0x4 DUP3 ADD MSTORE PUSH1 0xD PUSH1 0x24 DUP3 ADD MSTORE PUSH13 0x129BD8881B9BDD08199BDD5B99 PUSH1 0x9A SHL PUSH1 0x44 DUP3 ADD MSTORE PUSH1 0x64 ADD PUSH2 0x87C JUMP JUMPDEST PUSH1 0x8 DUP2 DUP2 ADD SLOAD PUSH1 0x0 SWAP1 DUP2 MSTORE PUSH1 0x7 SWAP3 DUP4 ADD PUSH1 0x20 SWAP1 DUP2 MSTORE PUSH1 0x40 DUP1 DUP4 KECCAK256 SLOAD DUP4 MSTORE SWAP4 DUP2 MSTORE DUP4 DUP3 KECCAK256 CALLER DUP4 MSTORE PUSH1 0xF DUP2 ADD DUP3 MSTORE DUP5 DUP4 KECCAK256 SLOAD DUP4 MSTORE PUSH1 0x10 ADD SWAP1 MSTORE SWAP2 SWAP1 SWAP2 KECCAK256 ADD SLOAD PUSH2 0x100 SWAP1 DIV PUSH1 0xFF AND SWAP3 SWAP2 POP POP JUMP JUMPDEST DUP3 PUSH1 0x8 SLOAD DUP2 LT PUSH2 0x1719 JUMPI PUSH1 0x40 MLOAD PUSH3 0x461BCD PUSH1 0xE5 SHL DUP2 MSTORE PUSH1 0x20 PUSH1 0x4 DUP3 ADD MSTORE PUSH1 0x11 PUSH1 0x24 DUP3 ADD MSTORE PUSH17 0x151A19481A9BD8881B9BDD08195E1A5CDD PUSH1 0x7A SHL PUSH1 0x44 DUP3 ADD MSTORE PUSH1 0x64 ADD PUSH2 0x87C JUMP JUMPDEST PUSH1 0x0 DUP5 DUP2 MSTORE PUSH1 0x7 PUSH1 0x20 MSTORE PUSH1 0x40 SWAP1 KECCAK256 SLOAD DUP5 SWAP1 PUSH1 0x1 PUSH1 0x1 PUSH1 0xA0 SHL SUB AND CALLER EQ PUSH2 0x1778 JUMPI PUSH1 0x40 MLOAD PUSH3 0x461BCD PUSH1 0xE5 SHL DUP2 MSTORE PUSH1 0x20 PUSH1 0x4 DUP3 ADD MSTORE PUSH1 0x14 PUSH1 0x24 DUP3 ADD MSTORE PUSH20 0x2CB7BA93B932903737BA103A34329037BBB732B9 PUSH1 0x61 SHL PUSH1 0x44 DUP3 ADD MSTORE PUSH1 0x64 ADD PUSH2 0x87C JUMP JUMPDEST PUSH1 0x0 DUP4 GT PUSH2 0x1785 JUMPI PUSH1 0x0 DUP1 REVERT JUMPDEST PUSH1 0x0 DUP6 DUP2 MSTORE PUSH1 0x7 PUSH1 0x20 MSTORE PUSH1 0x40 SWAP1 KECCAK256 PUSH1 0x11 DUP2 ADD SLOAD DUP6 LT PUSH2 0x17E6 JUMPI PUSH1 0x40 MLOAD PUSH3 0x461BCD PUSH1 0xE5 SHL DUP2 MSTORE PUSH1 0x20 PUSH1 0x4 DUP3 ADD MSTORE PUSH1 0x13 PUSH1 0x24 DUP3 ADD MSTORE PUSH32 0x43616E646964617465206E6F7420666F756E6400000000000000000000000000 PUSH1 0x44 DUP3 ADD MSTORE PUSH1 0x64 ADD PUSH2 0x87C JUMP JUMPDEST PUSH1 0x0 DUP6 DUP2 MSTORE PUSH1 0x10 DUP3 ADD PUSH1 0x20 MSTORE PUSH1 0x40 SWAP1 KECCAK256 PUSH1 0x8 ADD SLOAD PUSH2 0x100 SWAP1 DIV PUSH1 0xFF AND PUSH2 0x184E JUMPI PUSH1 0x40 MLOAD PUSH3 0x461BCD PUSH1 0xE5 SHL DUP2 MSTORE PUSH1 0x20 PUSH1 0x4 DUP3 ADD MSTORE PUSH1 0x15 PUSH1 0x24 DUP3 ADD MSTORE PUSH32 0x43616E6469646174652069736E27742068697265640000000000000000000000 PUSH1 0x44 DUP3 ADD MSTORE PUSH1 0x64 ADD PUSH2 0x87C JUMP JUMPDEST PUSH1 0x0 PUSH1 0x3C DUP3 PUSH1 0x6 ADD SLOAD DUP4 PUSH1 0x7 ADD SLOAD PUSH2 0x1866 SWAP2 SWAP1 PUSH2 0x4685 JUMP JUMPDEST PUSH2 0x1870 SWAP2 SWAP1 PUSH2 0x4646 JUMP JUMPDEST SWAP1 POP PUSH1 0x0 PUSH1 0x18 PUSH1 0x3C DUP1 DUP6 PUSH1 0xA ADD SLOAD DUP7 PUSH1 0xB ADD SLOAD PUSH2 0x188D SWAP2 SWAP1 PUSH2 0x4685 JUMP JUMPDEST PUSH2 0x1897 SWAP2 SWAP1 PUSH2 0x4646 JUMP JUMPDEST PUSH2 0x18A1 SWAP2 SWAP1 PUSH2 0x4646 JUMP JUMPDEST PUSH2 0x18AB SWAP2 SWAP1 PUSH2 0x4646 JUMP JUMPDEST SWAP1 POP PUSH1 0x0 PUSH2 0x18B9 DUP3 DUP5 PUSH2 0x4666 JUMP JUMPDEST SWAP1 POP DUP1 DUP8 GT ISZERO PUSH2 0x1931 JUMPI PUSH1 0x40 MLOAD PUSH3 0x461BCD PUSH1 0xE5 SHL DUP2 MSTORE PUSH1 0x20 PUSH1 0x4 DUP3 ADD MSTORE PUSH1 0x28 PUSH1 0x24 DUP3 ADD MSTORE PUSH32 0x596F752063616E277420616464206D6F726520686F757273207468616E207468 PUSH1 0x44 DUP3 ADD MSTORE PUSH32 0x6520746F74616C21000000000000000000000000000000000000000000000000 PUSH1 0x64 DUP3 ADD MSTORE PUSH1 0x84 ADD PUSH2 0x87C JUMP JUMPDEST POP POP POP PUSH1 0x0 SWAP5 DUP6 MSTORE PUSH1 0x10 ADD PUSH1 0x20 MSTORE POP POP PUSH1 0x40 SWAP1 SWAP2 KECCAK256 PUSH1 0x7 ADD SSTORE POP JUMP JUMPDEST DUP1 PUSH1 0x8 SLOAD DUP2 LT PUSH2 0x1993 JUMPI PUSH1 0x40 MLOAD PUSH3 0x461BCD PUSH1 0xE5 SHL DUP2 MSTORE PUSH1 0x20 PUSH1 0x4 DUP3 ADD MSTORE PUSH1 0x11 PUSH1 0x24 DUP3 ADD MSTORE PUSH17 0x151A19481A9BD8881B9BDD08195E1A5CDD PUSH1 0x7A SHL PUSH1 0x44 DUP3 ADD MSTORE PUSH1 0x64 ADD PUSH2 0x87C JUMP JUMPDEST PUSH1 0x0 DUP3 DUP2 MSTORE PUSH1 0x7 PUSH1 0x20 MSTORE PUSH1 0x40 SWAP1 KECCAK256 SLOAD DUP3 SWAP1 PUSH1 0x1 PUSH1 0x1 PUSH1 0xA0 SHL SUB AND CALLER EQ PUSH2 0x19F2 JUMPI PUSH1 0x40 MLOAD PUSH3 0x461BCD PUSH1 0xE5 SHL DUP2 MSTORE PUSH1 0x20 PUSH1 0x4 DUP3 ADD MSTORE PUSH1 0x14 PUSH1 0x24 DUP3 ADD MSTORE PUSH20 0x2CB7BA93B932903737BA103A34329037BBB732B9 PUSH1 0x61 SHL PUSH1 0x44 DUP3 ADD MSTORE PUSH1 0x64 ADD PUSH2 0x87C JUMP JUMPDEST PUSH1 0x0 DUP4 DUP2 MSTORE PUSH1 0x7 PUSH1 0x20 MSTORE PUSH1 0x40 SWAP1 KECCAK256 PUSH1 0xC ADD SLOAD DUP4 SWAP1 PUSH1 0xFF AND ISZERO PUSH2 0x1A7C JUMPI PUSH1 0x40 MLOAD PUSH3 0x461BCD PUSH1 0xE5 SHL DUP2 MSTORE PUSH1 0x20 PUSH1 0x4 DUP3 ADD MSTORE PUSH1 0x30 PUSH1 0x24 DUP3 ADD MSTORE PUSH32 0x546865206A6F6220697320736561726368696E672063616E6469646174657320 PUSH1 0x44 DUP3 ADD MSTORE PUSH32 0x796F752063616E277420636C6F73652100000000000000000000000000000000 PUSH1 0x64 DUP3 ADD MSTORE PUSH1 0x84 ADD PUSH2 0x87C JUMP JUMPDEST PUSH1 0x0 DUP5 DUP2 MSTORE PUSH1 0x7 PUSH1 0x20 MSTORE PUSH1 0x40 SWAP1 KECCAK256 PUSH1 0xC ADD SLOAD DUP5 SWAP1 PUSH2 0x100 SWAP1 DIV PUSH1 0xFF AND ISZERO PUSH2 0x1AE5 JUMPI PUSH1 0x40 MLOAD PUSH3 0x461BCD PUSH1 0xE5 SHL DUP2 MSTORE PUSH1 0x20 PUSH1 0x4 DUP3 ADD MSTORE PUSH1 0x18 PUSH1 0x24 DUP3 ADD MSTORE PUSH32 0x546865206A6F6220697320616C726561647920656E6465640000000000000000 PUSH1 0x44 DUP3 ADD MSTORE PUSH1 0x64 ADD PUSH2 0x87C JUMP JUMPDEST PUSH1 0x2 PUSH1 0x0 SLOAD EQ ISZERO PUSH2 0x1B38 JUMPI PUSH1 0x40 MLOAD PUSH3 0x461BCD PUSH1 0xE5 SHL DUP2 MSTORE PUSH1 0x20 PUSH1 0x4 DUP3 ADD MSTORE PUSH1 0x1F PUSH1 0x24 DUP3 ADD MSTORE PUSH32 0x5265656E7472616E637947756172643A207265656E7472616E742063616C6C00 PUSH1 0x44 DUP3 ADD MSTORE PUSH1 0x64 ADD PUSH2 0x87C JUMP JUMPDEST PUSH1 0x2 PUSH1 0x0 SWAP1 DUP2 SSTORE DUP6 DUP2 MSTORE PUSH1 0x7 PUSH1 0x20 DUP2 SWAP1 MSTORE PUSH1 0x40 DUP3 KECCAK256 PUSH1 0xC DUP2 ADD DUP1 SLOAD PUSH2 0xFF00 NOT AND PUSH2 0x100 OR SWAP1 SSTORE PUSH1 0x6 DUP2 ADD SLOAD SWAP2 DUP2 ADD SLOAD SWAP1 SWAP3 SWAP2 PUSH1 0x3C SWAP2 PUSH2 0x1B77 SWAP2 SWAP1 PUSH2 0x4685 JUMP JUMPDEST PUSH2 0x1B81 SWAP2 SWAP1 PUSH2 0x4646 JUMP JUMPDEST SWAP1 POP PUSH1 0x0 PUSH1 0x18 PUSH1 0x3C DUP1 DUP6 PUSH1 0xA ADD SLOAD DUP7 PUSH1 0xB ADD SLOAD PUSH2 0x1B9E SWAP2 SWAP1 PUSH2 0x4685 JUMP JUMPDEST PUSH2 0x1BA8 SWAP2 SWAP1 PUSH2 0x4646 JUMP JUMPDEST PUSH2 0x1BB2 SWAP2 SWAP1 PUSH2 0x4646 JUMP JUMPDEST PUSH2 0x1BBC SWAP2 SWAP1 PUSH2 0x4646 JUMP JUMPDEST SWAP1 POP PUSH1 0x0 JUMPDEST DUP4 PUSH1 0xE ADD SLOAD DUP2 LT ISZERO PUSH2 0x2014 JUMPI PUSH1 0x0 DUP2 DUP2 MSTORE PUSH1 0xD DUP6 ADD PUSH1 0x20 SWAP1 DUP2 MSTORE PUSH1 0x40 DUP1 DUP4 KECCAK256 SLOAD PUSH1 0x1 PUSH1 0x1 PUSH1 0xA0 SHL SUB AND DUP4 MSTORE PUSH1 0xF DUP8 ADD DUP3 MSTORE DUP1 DUP4 KECCAK256 SLOAD DUP1 DUP5 MSTORE PUSH1 0x10 DUP9 ADD SWAP1 SWAP3 MSTORE DUP1 DUP4 KECCAK256 DUP2 MLOAD PUSH2 0x140 DUP2 ADD SWAP1 SWAP3 MSTORE DUP1 SLOAD SWAP3 SWAP4 SWAP3 DUP3 SWAP1 DUP3 SWAP1 PUSH2 0x1C1F SWAP1 PUSH2 0x469C JUMP JUMPDEST DUP1 PUSH1 0x1F ADD PUSH1 0x20 DUP1 SWAP2 DIV MUL PUSH1 0x20 ADD PUSH1 0x40 MLOAD SWAP1 DUP2 ADD PUSH1 0x40 MSTORE DUP1 SWAP3 SWAP2 SWAP1 DUP2 DUP2 MSTORE PUSH1 0x20 ADD DUP3 DUP1 SLOAD PUSH2 0x1C4B SWAP1 PUSH2 0x469C JUMP JUMPDEST DUP1 ISZERO PUSH2 0x1C98 JUMPI DUP1 PUSH1 0x1F LT PUSH2 0x1C6D JUMPI PUSH2 0x100 DUP1 DUP4 SLOAD DIV MUL DUP4 MSTORE SWAP2 PUSH1 0x20 ADD SWAP2 PUSH2 0x1C98 JUMP JUMPDEST DUP3 ADD SWAP2 SWAP1 PUSH1 0x0 MSTORE PUSH1 0x20 PUSH1 0x0 KECCAK256 SWAP1 JUMPDEST DUP2 SLOAD DUP2 MSTORE SWAP1 PUSH1 0x1 ADD SWAP1 PUSH1 0x20 ADD DUP1 DUP4 GT PUSH2 0x1C7B JUMPI DUP3 SWAP1 SUB PUSH1 0x1F AND DUP3 ADD SWAP2 JUMPDEST POP POP POP POP POP DUP2 MSTORE PUSH1 0x20 ADD PUSH1 0x1 DUP3 ADD DUP1 SLOAD PUSH2 0x1CB1 SWAP1 PUSH2 0x469C JUMP JUMPDEST DUP1 PUSH1 0x1F ADD PUSH1 0x20 DUP1 SWAP2 DIV MUL PUSH1 0x20 ADD PUSH1 0x40 MLOAD SWAP1 DUP2 ADD PUSH1 0x40 MSTORE DUP1 SWAP3 SWAP2 SWAP1 DUP2 DUP2 MSTORE PUSH1 0x20 ADD DUP3 DUP1 SLOAD PUSH2 0x1CDD SWAP1 PUSH2 0x469C JUMP JUMPDEST DUP1 ISZERO PUSH2 0x1D2A JUMPI DUP1 PUSH1 0x1F LT PUSH2 0x1CFF JUMPI PUSH2 0x100 DUP1 DUP4 SLOAD DIV MUL DUP4 MSTORE SWAP2 PUSH1 0x20 ADD SWAP2 PUSH2 0x1D2A JUMP JUMPDEST DUP3 ADD SWAP2 SWAP1 PUSH1 0x0 MSTORE PUSH1 0x20 PUSH1 0x0 KECCAK256 SWAP1 JUMPDEST DUP2 SLOAD DUP2 MSTORE SWAP1 PUSH1 0x1 ADD SWAP1 PUSH1 0x20 ADD DUP1 DUP4 GT PUSH2 0x1D0D JUMPI DUP3 SWAP1 SUB PUSH1 0x1F AND DUP3 ADD SWAP2 JUMPDEST POP POP POP SWAP2 DUP4 MSTORE POP POP PUSH1 0x2 DUP3 ADD SLOAD PUSH1 0x1 PUSH1 0x1 PUSH1 0xA0 SHL SUB AND PUSH1 0x20 DUP3 ADD MSTORE PUSH1 0x3 DUP3 ADD DUP1 SLOAD PUSH1 0x40 SWAP1 SWAP3 ADD SWAP2 PUSH2 0x1D5A SWAP1 PUSH2 0x469C JUMP JUMPDEST DUP1 PUSH1 0x1F ADD PUSH1 0x20 DUP1 SWAP2 DIV MUL PUSH1 0x20 ADD PUSH1 0x40 MLOAD SWAP1 DUP2 ADD PUSH1 0x40 MSTORE DUP1 SWAP3 SWAP2 SWAP1 DUP2 DUP2 MSTORE PUSH1 0x20 ADD DUP3 DUP1 SLOAD PUSH2 0x1D86 SWAP1 PUSH2 0x469C JUMP JUMPDEST DUP1 ISZERO PUSH2 0x1DD3 JUMPI DUP1 PUSH1 0x1F LT PUSH2 0x1DA8 JUMPI PUSH2 0x100 DUP1 DUP4 SLOAD DIV MUL DUP4 MSTORE SWAP2 PUSH1 0x20 ADD SWAP2 PUSH2 0x1DD3 JUMP JUMPDEST DUP3 ADD SWAP2 SWAP1 PUSH1 0x0 MSTORE PUSH1 0x20 PUSH1 0x0 KECCAK256 SWAP1 JUMPDEST DUP2 SLOAD DUP2 MSTORE SWAP1 PUSH1 0x1 ADD SWAP1 PUSH1 0x20 ADD DUP1 DUP4 GT PUSH2 0x1DB6 JUMPI DUP3 SWAP1 SUB PUSH1 0x1F AND DUP3 ADD SWAP2 JUMPDEST POP POP POP POP POP DUP2 MSTORE PUSH1 0x20 ADD PUSH1 0x4 DUP3 ADD SLOAD DUP2 MSTORE PUSH1 0x20 ADD PUSH1 0x5 DUP3 ADD DUP1 SLOAD PUSH2 0x1DF6 SWAP1 PUSH2 0x469C JUMP JUMPDEST DUP1 PUSH1 0x1F ADD PUSH1 0x20 DUP1 SWAP2 DIV MUL PUSH1 0x20 ADD PUSH1 0x40 MLOAD SWAP1 DUP2 ADD PUSH1 0x40 MSTORE DUP1 SWAP3 SWAP2 SWAP1 DUP2 DUP2 MSTORE PUSH1 0x20 ADD DUP3 DUP1 SLOAD PUSH2 0x1E22 SWAP1 PUSH2 0x469C JUMP JUMPDEST DUP1 ISZERO PUSH2 0x1E6F JUMPI DUP1 PUSH1 0x1F LT PUSH2 0x1E44 JUMPI PUSH2 0x100 DUP1 DUP4 SLOAD DIV MUL DUP4 MSTORE SWAP2 PUSH1 0x20 ADD SWAP2 PUSH2 0x1E6F JUMP JUMPDEST DUP3 ADD SWAP2 SWAP1 PUSH1 0x0 MSTORE PUSH1 0x20 PUSH1 0x0 KECCAK256 SWAP1 JUMPDEST DUP2 SLOAD DUP2 MSTORE SWAP1 PUSH1 0x1 ADD SWAP1 PUSH1 0x20 ADD DUP1 DUP4 GT PUSH2 0x1E52 JUMPI DUP3 SWAP1 SUB PUSH1 0x1F AND DUP3 ADD SWAP2 JUMPDEST POP POP POP POP POP DUP2 MSTORE PUSH1 0x20 ADD PUSH1 0x6 DUP3 ADD DUP1 SLOAD PUSH2 0x1E88 SWAP1 PUSH2 0x469C JUMP JUMPDEST DUP1 PUSH1 0x1F ADD PUSH1 0x20 DUP1 SWAP2 DIV MUL PUSH1 0x20 ADD PUSH1 0x40 MLOAD SWAP1 DUP2 ADD PUSH1 0x40 MSTORE DUP1 SWAP3 SWAP2 SWAP1 DUP2 DUP2 MSTORE PUSH1 0x20 ADD DUP3 DUP1 SLOAD PUSH2 0x1EB4 SWAP1 PUSH2 0x469C JUMP JUMPDEST DUP1 ISZERO PUSH2 0x1F01 JUMPI DUP1 PUSH1 0x1F LT PUSH2 0x1ED6 JUMPI PUSH2 0x100 DUP1 DUP4 SLOAD DIV MUL DUP4 MSTORE SWAP2 PUSH1 0x20 ADD SWAP2 PUSH2 0x1F01 JUMP JUMPDEST DUP3 ADD SWAP2 SWAP1 PUSH1 0x0 MSTORE PUSH1 0x20 PUSH1 0x0 KECCAK256 SWAP1 JUMPDEST DUP2 SLOAD DUP2 MSTORE SWAP1 PUSH1 0x1 ADD SWAP1 PUSH1 0x20 ADD DUP1 DUP4 GT PUSH2 0x1EE4 JUMPI DUP3 SWAP1 SUB PUSH1 0x1F AND DUP3 ADD SWAP2 JUMPDEST POP POP POP SWAP2 DUP4 MSTORE POP POP PUSH1 0x7 DUP3 ADD SLOAD PUSH1 0x20 DUP3 ADD MSTORE PUSH1 0x8 SWAP1 SWAP2 ADD SLOAD PUSH1 0xFF DUP1 DUP3 AND ISZERO ISZERO PUSH1 0x40 DUP5 ADD MSTORE PUSH2 0x100 SWAP1 SWAP2 DIV AND ISZERO ISZERO PUSH1 0x60 SWAP1 SWAP2 ADD MSTORE PUSH1 0xE0 DUP2 ADD MLOAD SWAP1 SWAP2 POP PUSH1 0x0 SWAP1 PUSH2 0x1F49 DUP7 DUP9 PUSH2 0x4666 JUMP JUMPDEST PUSH2 0x1F53 SWAP2 SWAP1 PUSH2 0x4685 JUMP JUMPDEST DUP8 PUSH1 0x9 ADD SLOAD PUSH2 0x1F62 SWAP2 SWAP1 PUSH2 0x4666 JUMP JUMPDEST SWAP1 POP DUP2 PUSH1 0x40 ADD MLOAD PUSH1 0x1 PUSH1 0x1 PUSH1 0xA0 SHL SUB AND PUSH2 0x8FC DUP3 SWAP1 DUP2 ISZERO MUL SWAP1 PUSH1 0x40 MLOAD PUSH1 0x0 PUSH1 0x40 MLOAD DUP1 DUP4 SUB DUP2 DUP6 DUP9 DUP9 CALL SWAP4 POP POP POP POP ISZERO DUP1 ISZERO PUSH2 0x1FA1 JUMPI RETURNDATASIZE PUSH1 0x0 DUP1 RETURNDATACOPY RETURNDATASIZE PUSH1 0x0 REVERT JUMPDEST POP DUP1 DUP8 PUSH1 0x1 ADD SLOAD PUSH2 0x1FB2 SWAP2 SWAP1 PUSH2 0x4685 JUMP JUMPDEST PUSH1 0x1 DUP9 ADD SSTORE PUSH1 0x40 DUP3 DUP2 ADD MLOAD DUP2 MLOAD PUSH1 0x1 PUSH1 0x1 PUSH1 0xA0 SHL SUB SWAP1 SWAP2 AND DUP2 MSTORE PUSH1 0x20 DUP2 ADD DUP4 SWAP1 MSTORE PUSH32 0xECF0692D4CEDBDF4DECC633271B8B1B4D257953FDCA5CBA30E444495EDE0F31C SWAP2 ADD PUSH1 0x40 MLOAD DUP1 SWAP2 SUB SWAP1 LOG1 POP POP POP DUP1 DUP1 PUSH2 0x200C SWAP1 PUSH2 0x46D1 JUMP JUMPDEST SWAP2 POP POP PUSH2 0x1BC1 JUMP JUMPDEST POP PUSH1 0x1 DUP4 ADD SLOAD ISZERO PUSH2 0x205E JUMPI DUP3 SLOAD PUSH1 0x1 DUP5 ADD SLOAD PUSH1 0x40 MLOAD PUSH1 0x1 PUSH1 0x1 PUSH1 0xA0 SHL SUB SWAP1 SWAP3 AND SWAP2 DUP2 ISZERO PUSH2 0x8FC MUL SWAP2 SWAP1 PUSH1 0x0 DUP2 DUP2 DUP2 DUP6 DUP9 DUP9 CALL SWAP4 POP POP POP POP ISZERO DUP1 ISZERO PUSH2 0x205C JUMPI RETURNDATASIZE PUSH1 0x0 DUP1 RETURNDATACOPY RETURNDATASIZE PUSH1 0x0 REVERT JUMPDEST POP JUMPDEST PUSH1 0x40 MLOAD DUP9 DUP2 MSTORE PUSH32 0xCA41B15F743CD506E877A65737B7072363D1EA62B57636BB94622E337A4C2ADD SWAP1 PUSH1 0x20 ADD PUSH1 0x40 MLOAD DUP1 SWAP2 SUB SWAP1 LOG1 POP POP PUSH1 0x1 PUSH1 0x0 SSTORE POP POP POP POP POP POP JUMP JUMPDEST CALLER PUSH1 0x0 SWAP1 DUP2 MSTORE PUSH1 0x4 PUSH1 0x20 MSTORE PUSH1 0x40 DUP2 KECCAK256 PUSH1 0xA ADD SLOAD DUP3 LT PUSH2 0x2127 JUMPI PUSH1 0x40 MLOAD PUSH3 0x461BCD PUSH1 0xE5 SHL DUP2 MSTORE PUSH1 0x20 PUSH1 0x4 DUP3 ADD MSTORE PUSH1 0x22 PUSH1 0x24 DUP3 ADD MSTORE PUSH32 0x54686520696E636F6D696E67207265717565737420646F65736E277420657869 PUSH1 0x44 DUP3 ADD MSTORE PUSH32 0x7374000000000000000000000000000000000000000000000000000000000000 PUSH1 0x64 DUP3 ADD MSTORE PUSH1 0x84 ADD PUSH2 0x87C JUMP JUMPDEST POP CALLER PUSH1 0x0 SWAP1 DUP2 MSTORE PUSH1 0x4 PUSH1 0x20 SWAP1 DUP2 MSTORE PUSH1 0x40 DUP1 DUP4 KECCAK256 SWAP4 DUP4 MSTORE PUSH1 0x9 SWAP1 SWAP4 ADD SWAP1 MSTORE KECCAK256 SLOAD SWAP1 JUMP JUMPDEST PUSH1 0x0 DUP3 DUP2 MSTORE PUSH1 0x9 PUSH1 0x20 MSTORE PUSH1 0x40 SWAP1 KECCAK256 PUSH1 0x8 DUP2 ADD SLOAD PUSH2 0x100 SWAP1 DIV PUSH1 0xFF AND PUSH2 0x216D JUMPI PUSH1 0x0 DUP1 REVERT JUMPDEST PUSH1 0x1 DUP2 ADD SLOAD PUSH1 0x1 PUSH1 0x1 PUSH1 0xA0 SHL SUB AND CALLER EQ DUP1 PUSH2 0x2191 JUMPI POP DUP1 SLOAD PUSH1 0x1 PUSH1 0x1 PUSH1 0xA0 SHL SUB AND CALLER EQ JUMPDEST PUSH2 0x21EE JUMPI PUSH1 0x40 MLOAD PUSH3 0x461BCD PUSH1 0xE5 SHL DUP2 MSTORE PUSH1 0x20 PUSH1 0x4 DUP3 ADD MSTORE PUSH1 0x28 PUSH1 0x24 DUP3 ADD MSTORE PUSH32 0x596F75277265206E6F74207468652064657374696E6174696F6E206F72207468 PUSH1 0x44 DUP3 ADD MSTORE PUSH8 0x65206F776E657221 PUSH1 0xC0 SHL PUSH1 0x64 DUP3 ADD MSTORE PUSH1 0x84 ADD PUSH2 0x87C JUMP JUMPDEST PUSH1 0x1 DUP2 ADD SLOAD PUSH1 0x0 SWAP1 PUSH1 0x1 PUSH1 0x1 PUSH1 0xA0 SHL SUB AND CALLER EQ ISZERO PUSH2 0x2217 JUMPI POP DUP1 SLOAD PUSH1 0x1 PUSH1 0x1 PUSH1 0xA0 SHL SUB AND PUSH2 0x2227 JUMP JUMPDEST POP PUSH1 0x1 DUP2 ADD SLOAD PUSH1 0x1 PUSH1 0x1 PUSH1 0xA0 SHL SUB AND JUMPDEST PUSH1 0x40 DUP1 MLOAD PUSH1 0x80 DUP2 ADD DUP3 MSTORE CALLER DUP2 MSTORE PUSH1 0x1 PUSH1 0x1 PUSH1 0xA0 SHL SUB DUP4 DUP2 AND PUSH1 0x20 DUP1 DUP5 ADD SWAP2 DUP3 MSTORE SWAP4 DUP4 ADD DUP8 DUP2 MSTORE TIMESTAMP PUSH1 0x60 DUP6 ADD MSTORE PUSH1 0x7 DUP8 ADD DUP1 SLOAD PUSH1 0x1 DUP2 DUP2 ADD DUP4 SSTORE PUSH1 0x0 SWAP3 DUP4 MSTORE SWAP2 DUP8 SWAP1 KECCAK256 DUP7 MLOAD PUSH1 0x4 SWAP1 SWAP3 MUL ADD DUP1 SLOAD SWAP2 DUP7 AND PUSH1 0x1 PUSH1 0x1 PUSH1 0xA0 SHL SUB NOT SWAP3 DUP4 AND OR DUP2 SSTORE SWAP4 MLOAD SWAP2 DUP5 ADD DUP1 SLOAD SWAP3 SWAP1 SWAP6 AND SWAP2 AND OR SWAP1 SWAP3 SSTORE SWAP1 MLOAD DUP1 MLOAD SWAP3 SWAP4 DUP5 SWAP4 PUSH2 0x22AE SWAP3 PUSH1 0x2 DUP6 ADD SWAP3 ADD SWAP1 PUSH2 0x3E3D JUMP JUMPDEST POP PUSH1 0x60 SWAP2 SWAP1 SWAP2 ADD MLOAD PUSH1 0x3 SWAP1 SWAP2 ADD SSTORE PUSH1 0x40 DUP1 MLOAD CALLER DUP2 MSTORE PUSH1 0x1 PUSH1 0x1 PUSH1 0xA0 SHL SUB DUP5 AND PUSH1 0x20 DUP3 ADD MSTORE PUSH32 0xD8B299E59F769A419BEE2384C79E5DC491A05F9533388B3376D9848981DA81B6 SWAP2 ADD JUMPDEST PUSH1 0x40 MLOAD DUP1 SWAP2 SUB SWAP1 LOG1 POP POP POP POP POP JUMP JUMPDEST PUSH1 0x0 DUP1 PUSH1 0x0 DUP1 PUSH1 0x0 DUP1 PUSH1 0x0 DUP1 PUSH1 0x0 PUSH1 0xA SLOAD DUP11 LT PUSH2 0x2364 JUMPI PUSH1 0x40 MLOAD PUSH3 0x461BCD PUSH1 0xE5 SHL DUP2 MSTORE PUSH1 0x20 PUSH1 0x4 DUP3 ADD MSTORE PUSH1 0x19 PUSH1 0x24 DUP3 ADD MSTORE PUSH32 0x546865207265717565737420646F65736E277420657869737400000000000000 PUSH1 0x44 DUP3 ADD MSTORE PUSH1 0x64 ADD PUSH2 0x87C JUMP JUMPDEST PUSH1 0x0 DUP11 DUP2 MSTORE PUSH1 0x9 PUSH1 0x20 MSTORE PUSH1 0x40 SWAP1 KECCAK256 DUP1 SLOAD PUSH1 0x1 PUSH1 0x1 PUSH1 0xA0 SHL SUB AND CALLER EQ DUP1 PUSH2 0x2396 JUMPI POP PUSH1 0x1 DUP2 ADD SLOAD PUSH1 0x1 PUSH1 0x1 PUSH1 0xA0 SHL SUB AND CALLER EQ JUMPDEST PUSH2 0x2408 JUMPI PUSH1 0x40 MLOAD PUSH3 0x461BCD PUSH1 0xE5 SHL DUP2 MSTORE PUSH1 0x20 PUSH1 0x4 DUP3 ADD MSTORE PUSH1 0x26 PUSH1 0x24 DUP3 ADD MSTORE PUSH32 0x596F75277265206E6F7420616C6C6F77656420746F2072656164207468652072 PUSH1 0x44 DUP3 ADD MSTORE PUSH32 0x6571756573740000000000000000000000000000000000000000000000000000 PUSH1 0x64 DUP3 ADD MSTORE PUSH1 0x84 ADD PUSH2 0x87C JUMP JUMPDEST DUP1 PUSH1 0x0 ADD PUSH1 0x0 SWAP1 SLOAD SWAP1 PUSH2 0x100 EXP SWAP1 DIV PUSH1 0x1 PUSH1 0x1 PUSH1 0xA0 SHL SUB AND DUP2 PUSH1 0x1 ADD PUSH1 0x0 SWAP1 SLOAD SWAP1 PUSH2 0x100 EXP SWAP1 DIV PUSH1 0x1 PUSH1 0x1 PUSH1 0xA0 SHL SUB AND DUP3 PUSH1 0x2 ADD SLOAD DUP4 PUSH1 0x3 ADD SLOAD DUP5 PUSH1 0x4 ADD SLOAD DUP6 PUSH1 0x5 ADD SLOAD DUP7 PUSH1 0x6 ADD SLOAD DUP8 PUSH1 0x8 ADD PUSH1 0x0 SWAP1 SLOAD SWAP1 PUSH2 0x100 EXP SWAP1 DIV PUSH1 0xFF AND DUP9 PUSH1 0x8 ADD PUSH1 0x1 SWAP1 SLOAD SWAP1 PUSH2 0x100 EXP SWAP1 DIV PUSH1 0xFF AND SWAP10 POP SWAP10 POP SWAP10 POP SWAP10 POP SWAP10 POP SWAP10 POP SWAP10 POP SWAP10 POP SWAP10 POP POP SWAP2 SWAP4 SWAP6 SWAP8 SWAP10 SWAP1 SWAP3 SWAP5 SWAP7 SWAP9 POP JUMP JUMPDEST PUSH1 0x60 DUP2 PUSH1 0xA SLOAD DUP2 LT PUSH2 0x24A6 JUMPI PUSH1 0x0 DUP1 REVERT JUMPDEST PUSH1 0x0 DUP4 DUP2 MSTORE PUSH1 0x9 PUSH1 0x20 MSTORE PUSH1 0x40 SWAP1 KECCAK256 PUSH1 0x1 DUP2 ADD SLOAD PUSH1 0x1 PUSH1 0x1 PUSH1 0xA0 SHL SUB AND CALLER EQ DUP1 PUSH2 0x24D8 JUMPI POP DUP1 SLOAD PUSH1 0x1 PUSH1 0x1 PUSH1 0xA0 SHL SUB AND CALLER EQ JUMPDEST PUSH2 0x2535 JUMPI PUSH1 0x40 MLOAD PUSH3 0x461BCD PUSH1 0xE5 SHL DUP2 MSTORE PUSH1 0x20 PUSH1 0x4 DUP3 ADD MSTORE PUSH1 0x28 PUSH1 0x24 DUP3 ADD MSTORE PUSH32 0x596F75277265206E6F74207468652064657374696E6174696F6E206F72207468 PUSH1 0x44 DUP3 ADD MSTORE PUSH8 0x65206F776E657221 PUSH1 0xC0 SHL PUSH1 0x64 DUP3 ADD MSTORE PUSH1 0x84 ADD PUSH2 0x87C JUMP JUMPDEST DUP1 PUSH1 0x7 ADD DUP1 SLOAD DUP1 PUSH1 0x20 MUL PUSH1 0x20 ADD PUSH1 0x40 MLOAD SWAP1 DUP2 ADD PUSH1 0x40 MSTORE DUP1 SWAP3 SWAP2 SWAP1 DUP2 DUP2 MSTORE PUSH1 0x20 ADD PUSH1 0x0 SWAP1 JUMPDEST DUP3 DUP3 LT ISZERO PUSH2 0x264A JUMPI PUSH1 0x0 DUP5 DUP2 MSTORE PUSH1 0x20 SWAP1 DUP2 SWAP1 KECCAK256 PUSH1 0x40 DUP1 MLOAD PUSH1 0x80 DUP2 ADD DUP3 MSTORE PUSH1 0x4 DUP7 MUL SWAP1 SWAP3 ADD DUP1 SLOAD PUSH1 0x1 PUSH1 0x1 PUSH1 0xA0 SHL SUB SWAP1 DUP2 AND DUP5 MSTORE PUSH1 0x1 DUP3 ADD SLOAD AND SWAP4 DUP4 ADD SWAP4 SWAP1 SWAP4 MSTORE PUSH1 0x2 DUP4 ADD DUP1 SLOAD SWAP3 SWAP4 SWAP3 SWAP2 DUP5 ADD SWAP2 PUSH2 0x25AF SWAP1 PUSH2 0x469C JUMP JUMPDEST DUP1 PUSH1 0x1F ADD PUSH1 0x20 DUP1 SWAP2 DIV MUL PUSH1 0x20 ADD PUSH1 0x40 MLOAD SWAP1 DUP2 ADD PUSH1 0x40 MSTORE DUP1 SWAP3 SWAP2 SWAP1 DUP2 DUP2 MSTORE PUSH1 0x20 ADD DUP3 DUP1 SLOAD PUSH2 0x25DB SWAP1 PUSH2 0x469C JUMP JUMPDEST DUP1 ISZERO PUSH2 0x2628 JUMPI DUP1 PUSH1 0x1F LT PUSH2 0x25FD JUMPI PUSH2 0x100 DUP1 DUP4 SLOAD DIV MUL DUP4 MSTORE SWAP2 PUSH1 0x20 ADD SWAP2 PUSH2 0x2628 JUMP JUMPDEST DUP3 ADD SWAP2 SWAP1 PUSH1 0x0 MSTORE PUSH1 0x20 PUSH1 0x0 KECCAK256 SWAP1 JUMPDEST DUP2 SLOAD DUP2 MSTORE SWAP1 PUSH1 0x1 ADD SWAP1 PUSH1 0x20 ADD DUP1 DUP4 GT PUSH2 0x260B JUMPI DUP3 SWAP1 SUB PUSH1 0x1F AND DUP3 ADD SWAP2 JUMPDEST POP POP POP POP POP DUP2 MSTORE PUSH1 0x20 ADD PUSH1 0x3 DUP3 ADD SLOAD DUP2 MSTORE POP POP DUP2 MSTORE PUSH1 0x20 ADD SWAP1 PUSH1 0x1 ADD SWAP1 PUSH2 0x2559 JUMP JUMPDEST POP POP POP POP SWAP3 POP POP POP SWAP2 SWAP1 POP JUMP JUMPDEST CALLER PUSH1 0x0 SWAP1 DUP2 MSTORE PUSH1 0x4 PUSH1 0x20 MSTORE PUSH1 0x40 SWAP1 KECCAK256 SLOAD PUSH1 0xFF AND ISZERO PUSH2 0x26B7 JUMPI PUSH1 0x40 MLOAD PUSH3 0x461BCD PUSH1 0xE5 SHL DUP2 MSTORE PUSH1 0x20 PUSH1 0x4 DUP3 ADD MSTORE PUSH1 0x19 PUSH1 0x24 DUP3 ADD MSTORE PUSH32 0x596F7527726520616C7265616479207265676973746572642100000000000000 PUSH1 0x44 DUP3 ADD MSTORE PUSH1 0x64 ADD PUSH2 0x87C JUMP JUMPDEST CALLER PUSH1 0x0 SWAP1 DUP2 MSTORE PUSH1 0x4 PUSH1 0x20 SWAP1 DUP2 MSTORE PUSH1 0x40 SWAP1 SWAP2 KECCAK256 DUP1 SLOAD PUSH1 0xFF NOT AND PUSH1 0x1 SWAP1 DUP2 OR DUP3 SSTORE DUP9 MLOAD PUSH2 0x26E9 SWAP4 SWAP3 SWAP1 SWAP2 ADD SWAP2 DUP10 ADD SWAP1 PUSH2 0x3E3D JUMP JUMPDEST POP CALLER PUSH1 0x0 SWAP1 DUP2 MSTORE PUSH1 0x4 PUSH1 0x20 SWAP1 DUP2 MSTORE PUSH1 0x40 SWAP1 SWAP2 KECCAK256 DUP7 MLOAD PUSH2 0x2710 SWAP3 PUSH1 0x2 SWAP1 SWAP3 ADD SWAP2 DUP9 ADD SWAP1 PUSH2 0x3E3D JUMP JUMPDEST POP CALLER PUSH1 0x0 SWAP1 DUP2 MSTORE PUSH1 0x4 PUSH1 0x20 DUP2 DUP2 MSTORE PUSH1 0x40 SWAP1 SWAP3 KECCAK256 PUSH1 0x3 DUP2 ADD DUP8 SWAP1 SSTORE DUP6 MLOAD PUSH2 0x273E SWAP4 SWAP2 SWAP1 SWAP3 ADD SWAP2 SWAP1 DUP7 ADD SWAP1 PUSH2 0x3E3D JUMP JUMPDEST POP CALLER PUSH1 0x0 SWAP1 DUP2 MSTORE PUSH1 0x4 PUSH1 0x20 SWAP1 DUP2 MSTORE PUSH1 0x40 SWAP1 SWAP2 KECCAK256 DUP4 MLOAD PUSH2 0x2765 SWAP3 PUSH1 0x5 SWAP1 SWAP3 ADD SWAP2 DUP6 ADD SWAP1 PUSH2 0x3E3D JUMP JUMPDEST POP CALLER PUSH1 0x0 SWAP1 DUP2 MSTORE PUSH1 0x4 PUSH1 0x20 SWAP1 DUP2 MSTORE PUSH1 0x40 SWAP1 SWAP2 KECCAK256 DUP3 MLOAD PUSH2 0x278C SWAP3 PUSH1 0x6 SWAP1 SWAP3 ADD SWAP2 DUP5 ADD SWAP1 PUSH2 0x3E3D JUMP JUMPDEST POP PUSH1 0x6 DUP1 SLOAD PUSH1 0x0 SWAP1 DUP2 MSTORE PUSH1 0x5 PUSH1 0x20 MSTORE PUSH1 0x40 DUP2 KECCAK256 DUP1 SLOAD PUSH1 0x1 PUSH1 0x1 PUSH1 0xA0 SHL SUB NOT AND CALLER OR SWAP1 SSTORE DUP2 SLOAD SWAP2 SWAP1 PUSH2 0x27BC DUP4 PUSH2 0x46D1 JUMP JUMPDEST SWAP2 SWAP1 POP SSTORE POP PUSH32 0xEEB057E74CDC4B0BAF2F21550CA34BCE6C87CBFD56AF98A4E3B95940F145615 DUP7 DUP7 CALLER PUSH1 0x40 MLOAD PUSH2 0x27F4 SWAP4 SWAP3 SWAP2 SWAP1 PUSH2 0x44FB JUMP JUMPDEST PUSH1 0x40 MLOAD DUP1 SWAP2 SUB SWAP1 LOG1 POP POP POP POP POP POP JUMP JUMPDEST CALLER PUSH1 0x0 SWAP1 DUP2 MSTORE PUSH1 0x1 PUSH1 0x20 MSTORE PUSH1 0x40 SWAP1 KECCAK256 SLOAD PUSH1 0xFF AND PUSH2 0x2852 JUMPI PUSH1 0x40 MLOAD PUSH3 0x461BCD PUSH1 0xE5 SHL DUP2 MSTORE PUSH1 0x20 PUSH1 0x4 DUP3 ADD MSTORE PUSH1 0xC PUSH1 0x24 DUP3 ADD MSTORE PUSH12 0x4E6F7420436F6D70616E7921 PUSH1 0xA0 SHL PUSH1 0x44 DUP3 ADD MSTORE PUSH1 0x64 ADD PUSH2 0x87C JUMP JUMPDEST PUSH1 0x0 CALLVALUE GT PUSH2 0x28C7 JUMPI PUSH1 0x40 MLOAD PUSH3 0x461BCD PUSH1 0xE5 SHL DUP2 MSTORE PUSH1 0x20 PUSH1 0x4 DUP3 ADD MSTORE PUSH1 0x24 DUP1 DUP3 ADD MSTORE PUSH32 0x596F75206D757374206372656174652061207265717565737420776974682076 PUSH1 0x44 DUP3 ADD MSTORE PUSH32 0x616C756500000000000000000000000000000000000000000000000000000000 PUSH1 0x64 DUP3 ADD MSTORE PUSH1 0x84 ADD PUSH2 0x87C JUMP JUMPDEST PUSH1 0x0 DUP4 GT DUP1 ISZERO PUSH2 0x28D6 JUMPI POP DUP3 DUP3 GT JUMPDEST DUP1 ISZERO PUSH2 0x28E2 JUMPI POP PUSH1 0x0 DUP6 GT JUMPDEST DUP1 ISZERO PUSH2 0x28ED JUMPI POP DUP5 DUP5 GT JUMPDEST PUSH2 0x2939 JUMPI PUSH1 0x40 MLOAD PUSH3 0x461BCD PUSH1 0xE5 SHL DUP2 MSTORE PUSH1 0x20 PUSH1 0x4 DUP3 ADD MSTORE PUSH1 0x19 PUSH1 0x24 DUP3 ADD MSTORE PUSH32 0x54686520696E707574732061726520696E636F72726563747300000000000000 PUSH1 0x44 DUP3 ADD MSTORE PUSH1 0x64 ADD PUSH2 0x87C JUMP JUMPDEST PUSH1 0xA SLOAD PUSH1 0x0 SWAP1 DUP2 MSTORE PUSH1 0x9 PUSH1 0x20 SWAP1 DUP2 MSTORE PUSH1 0x40 DUP1 DUP4 KECCAK256 DUP1 SLOAD PUSH1 0x1 PUSH1 0x1 PUSH1 0xA0 SHL SUB NOT SWAP1 DUP2 AND CALLER SWAP1 DUP2 OR DUP4 SSTORE PUSH1 0x1 DUP1 DUP5 ADD DUP1 SLOAD PUSH1 0x1 PUSH1 0x1 PUSH1 0xA0 SHL SUB DUP16 DUP2 AND SWAP2 DUP7 AND DUP3 OR SWAP1 SWAP3 SSTORE PUSH1 0x2 DUP1 DUP8 ADD DUP16 SWAP1 SSTORE PUSH1 0x3 DUP8 ADD DUP15 SWAP1 SSTORE CALLVALUE PUSH1 0x4 DUP1 DUP10 ADD SWAP2 SWAP1 SWAP2 SSTORE PUSH1 0x5 DUP9 ADD DUP15 SWAP1 SSTORE PUSH1 0x6 DUP9 ADD DUP14 SWAP1 SSTORE PUSH1 0x8 DUP9 ADD DUP1 SLOAD PUSH2 0xFFFF NOT AND PUSH2 0x100 OR SWAP1 SSTORE DUP9 MLOAD PUSH1 0x80 DUP2 ADD DUP11 MSTORE SWAP6 DUP7 MSTORE DUP6 DUP11 ADD SWAP3 DUP4 MSTORE SWAP8 DUP6 ADD DUP12 DUP2 MSTORE TIMESTAMP PUSH1 0x60 DUP8 ADD MSTORE PUSH1 0x7 DUP9 ADD DUP1 SLOAD DUP1 DUP8 ADD DUP3 SSTORE SWAP1 DUP13 MSTORE SWAP11 DUP11 SWAP1 KECCAK256 DUP7 MLOAD SWAP12 SWAP1 SWAP10 MUL SWAP1 SWAP9 ADD DUP1 SLOAD SWAP11 DUP5 AND SWAP11 DUP8 AND SWAP11 SWAP1 SWAP11 OR DUP11 SSTORE SWAP1 MLOAD SWAP3 DUP10 ADD DUP1 SLOAD SWAP4 SWAP1 SWAP3 AND SWAP3 SWAP1 SWAP5 AND SWAP2 SWAP1 SWAP2 OR SWAP1 SSTORE SWAP3 MLOAD DUP1 MLOAD SWAP3 SWAP6 SWAP4 SWAP5 PUSH2 0x2A26 SWAP4 SWAP3 DUP6 ADD SWAP3 SWAP2 ADD SWAP1 PUSH2 0x3E3D JUMP JUMPDEST POP PUSH1 0x60 SWAP2 SWAP1 SWAP2 ADD MLOAD PUSH1 0x3 SWAP1 SWAP2 ADD SSTORE PUSH1 0x1 PUSH1 0x1 PUSH1 0xA0 SHL SUB DUP8 AND PUSH1 0x0 SWAP1 DUP2 MSTORE PUSH1 0x4 PUSH1 0x20 SWAP1 DUP2 MSTORE PUSH1 0x40 DUP1 DUP4 KECCAK256 PUSH1 0xA DUP1 SLOAD SWAP1 DUP3 ADD DUP1 SLOAD DUP7 MSTORE PUSH1 0x9 DUP4 ADD SWAP1 SWAP5 MSTORE SWAP2 DUP5 KECCAK256 SWAP2 SWAP1 SWAP2 SSTORE DUP2 SLOAD SWAP1 SWAP3 SWAP1 SWAP2 SWAP1 PUSH2 0x2A78 DUP4 PUSH2 0x46D1 JUMP JUMPDEST SWAP1 SWAP2 SSTORE POP POP CALLER PUSH1 0x0 SWAP1 DUP2 MSTORE PUSH1 0x1 PUSH1 0x20 SWAP1 DUP2 MSTORE PUSH1 0x40 DUP1 DUP4 KECCAK256 PUSH1 0xA SLOAD PUSH1 0x7 DUP3 ADD DUP1 SLOAD DUP7 MSTORE PUSH1 0x6 DUP4 ADD SWAP1 SWAP5 MSTORE SWAP2 DUP5 KECCAK256 SWAP2 SWAP1 SWAP2 SSTORE DUP2 SLOAD SWAP1 SWAP3 SWAP1 SWAP2 SWAP1 PUSH2 0x2AB8 DUP4 PUSH2 0x46D1 JUMP JUMPDEST SWAP1 SWAP2 SSTORE POP POP PUSH1 0xA DUP1 SLOAD SWAP1 PUSH1 0x0 PUSH2 0x2ACD DUP4 PUSH2 0x46D1 JUMP JUMPDEST SWAP1 SWAP2 SSTORE POP POP PUSH1 0x40 DUP1 MLOAD CALLER DUP2 MSTORE PUSH1 0x1 PUSH1 0x1 PUSH1 0xA0 SHL SUB DUP12 AND PUSH1 0x20 DUP3 ADD MSTORE PUSH32 0xE574516642C19610BEA5FC1607D78A7CD18F285D643C3F76DA84F4BF50DAFF10 SWAP2 ADD PUSH1 0x40 MLOAD DUP1 SWAP2 SUB SWAP1 LOG1 POP POP POP POP POP POP POP POP POP JUMP JUMPDEST DUP1 PUSH1 0x8 SLOAD DUP2 LT PUSH2 0x2B64 JUMPI PUSH1 0x40 MLOAD PUSH3 0x461BCD PUSH1 0xE5 SHL DUP2 MSTORE PUSH1 0x20 PUSH1 0x4 DUP3 ADD MSTORE PUSH1 0x11 PUSH1 0x24 DUP3 ADD MSTORE PUSH17 0x151A19481A9BD8881B9BDD08195E1A5CDD PUSH1 0x7A SHL PUSH1 0x44 DUP3 ADD MSTORE PUSH1 0x64 ADD PUSH2 0x87C JUMP JUMPDEST CALLER PUSH1 0x0 SWAP1 DUP2 MSTORE PUSH1 0x4 PUSH1 0x20 MSTORE PUSH1 0x40 SWAP1 KECCAK256 SLOAD PUSH1 0xFF AND PUSH2 0x2B80 JUMPI PUSH1 0x0 DUP1 REVERT JUMPDEST PUSH1 0x0 DUP3 DUP2 MSTORE PUSH1 0x7 PUSH1 0x20 SWAP1 DUP2 MSTORE PUSH1 0x40 DUP1 DUP4 KECCAK256 CALLER DUP5 MSTORE PUSH1 0x4 SWAP1 SWAP3 MSTORE SWAP1 SWAP2 KECCAK256 PUSH2 0x2BA5 DUP5 PUSH2 0x3987 JUMP JUMPDEST ISZERO PUSH2 0x2BF2 JUMPI PUSH1 0x40 MLOAD PUSH3 0x461BCD PUSH1 0xE5 SHL DUP2 MSTORE PUSH1 0x20 PUSH1 0x4 DUP3 ADD MSTORE PUSH1 0x13 PUSH1 0x24 DUP3 ADD MSTORE PUSH32 0x416C726561647920526567697374657265642100000000000000000000000000 PUSH1 0x44 DUP3 ADD MSTORE PUSH1 0x64 ADD PUSH2 0x87C JUMP JUMPDEST PUSH1 0x11 DUP3 ADD SLOAD PUSH1 0x0 SWAP1 DUP2 MSTORE PUSH1 0x10 DUP4 ADD PUSH1 0x20 MSTORE PUSH1 0x40 SWAP1 KECCAK256 PUSH1 0x1 DUP3 ADD DUP1 SLOAD DUP3 SWAP2 SWAP1 PUSH2 0x2C19 SWAP1 PUSH2 0x469C JUMP JUMPDEST PUSH2 0x2C24 SWAP3 SWAP2 SWAP1 PUSH2 0x3EC1 JUMP JUMPDEST POP DUP2 PUSH1 0x2 ADD DUP2 PUSH1 0x1 ADD SWAP1 DUP1 SLOAD PUSH2 0x2C39 SWAP1 PUSH2 0x469C JUMP JUMPDEST PUSH2 0x2C44 SWAP3 SWAP2 SWAP1 PUSH2 0x3EC1 JUMP JUMPDEST POP PUSH1 0x2 DUP2 ADD DUP1 SLOAD PUSH1 0x1 PUSH1 0x1 PUSH1 0xA0 SHL SUB NOT AND CALLER OR SWAP1 SSTORE PUSH1 0x4 DUP3 ADD DUP1 SLOAD PUSH1 0x3 DUP4 ADD SWAP2 SWAP1 PUSH2 0x2C6E SWAP1 PUSH2 0x469C JUMP JUMPDEST PUSH2 0x2C79 SWAP3 SWAP2 SWAP1 PUSH2 0x3EC1 JUMP JUMPDEST POP PUSH1 0x3 DUP3 ADD SLOAD PUSH1 0x4 DUP3 ADD SSTORE PUSH1 0x5 DUP1 DUP4 ADD DUP1 SLOAD SWAP2 DUP4 ADD SWAP2 PUSH2 0x2C98 SWAP1 PUSH2 0x469C JUMP JUMPDEST PUSH2 0x2CA3 SWAP3 SWAP2 SWAP1 PUSH2 0x3EC1 JUMP JUMPDEST POP DUP2 PUSH1 0x6 ADD DUP2 PUSH1 0x6 ADD SWAP1 DUP1 SLOAD PUSH2 0x2CB8 SWAP1 PUSH2 0x469C JUMP JUMPDEST PUSH2 0x2CC3 SWAP3 SWAP2 SWAP1 PUSH2 0x3EC1 JUMP JUMPDEST POP PUSH1 0x0 PUSH1 0x7 DUP3 ADD DUP2 SWAP1 SSTORE PUSH1 0x8 DUP3 ADD DUP1 SLOAD PUSH2 0xFFFF NOT AND SWAP1 SSTORE PUSH1 0x11 DUP5 ADD DUP1 SLOAD CALLER DUP4 MSTORE PUSH1 0xF DUP7 ADD PUSH1 0x20 MSTORE PUSH1 0x40 DUP4 KECCAK256 DUP2 SWAP1 SSTORE SWAP2 PUSH2 0x2CFB DUP4 PUSH2 0x46D1 JUMP JUMPDEST SWAP1 SWAP2 SSTORE POP POP PUSH1 0x8 DUP3 ADD DUP1 SLOAD PUSH1 0x0 SWAP1 DUP2 MSTORE PUSH1 0x7 DUP5 ADD PUSH1 0x20 MSTORE PUSH1 0x40 DUP2 KECCAK256 DUP8 SWAP1 SSTORE DUP2 SLOAD SWAP2 SWAP1 PUSH2 0x2D26 DUP4 PUSH2 0x46D1 JUMP JUMPDEST SWAP2 SWAP1 POP SSTORE POP POP POP POP POP POP JUMP JUMPDEST DUP1 PUSH1 0x8 SLOAD DUP2 LT PUSH2 0x2D78 JUMPI PUSH1 0x40 MLOAD PUSH3 0x461BCD PUSH1 0xE5 SHL DUP2 MSTORE PUSH1 0x20 PUSH1 0x4 DUP3 ADD MSTORE PUSH1 0x11 PUSH1 0x24 DUP3 ADD MSTORE PUSH17 0x151A19481A9BD8881B9BDD08195E1A5CDD PUSH1 0x7A SHL PUSH1 0x44 DUP3 ADD MSTORE PUSH1 0x64 ADD PUSH2 0x87C JUMP JUMPDEST PUSH1 0x0 DUP3 DUP2 MSTORE PUSH1 0x7 PUSH1 0x20 SWAP1 DUP2 MSTORE PUSH1 0x40 DUP1 DUP4 KECCAK256 CALLER DUP1 DUP6 MSTORE PUSH1 0xF DUP3 ADD DUP5 MSTORE DUP3 DUP6 KECCAK256 SLOAD DUP1 DUP7 MSTORE PUSH1 0x10 DUP4 ADD SWAP1 SWAP5 MSTORE SWAP2 SWAP1 SWAP4 KECCAK256 PUSH1 0x2 DUP2 ADD SLOAD SWAP1 SWAP2 PUSH1 0x1 PUSH1 0x1 PUSH1 0xA0 SHL SUB SWAP1 SWAP2 AND EQ PUSH2 0x2E04 JUMPI PUSH1 0x40 MLOAD PUSH3 0x461BCD PUSH1 0xE5 SHL DUP2 MSTORE PUSH1 0x20 PUSH1 0x4 DUP3 ADD MSTORE PUSH1 0x18 PUSH1 0x24 DUP3 ADD MSTORE PUSH32 0x596F75277265206E6F74207468652063616E6469646174650000000000000000 PUSH1 0x44 DUP3 ADD MSTORE PUSH1 0x64 ADD PUSH2 0x87C JUMP JUMPDEST PUSH1 0x8 DUP2 ADD SLOAD PUSH1 0xFF AND PUSH2 0x2E58 JUMPI PUSH1 0x40 MLOAD PUSH3 0x461BCD PUSH1 0xE5 SHL DUP2 MSTORE PUSH1 0x20 PUSH1 0x4 DUP3 ADD MSTORE PUSH1 0x17 PUSH1 0x24 DUP3 ADD MSTORE PUSH32 0x486972652070726F706F73616C206E6F7420666F756E64000000000000000000 PUSH1 0x44 DUP3 ADD MSTORE PUSH1 0x64 ADD PUSH2 0x87C JUMP JUMPDEST PUSH1 0x2 DUP2 ADD SLOAD PUSH1 0xE DUP5 ADD DUP1 SLOAD PUSH1 0x0 SWAP1 DUP2 MSTORE PUSH1 0xD DUP7 ADD PUSH1 0x20 MSTORE PUSH1 0x40 DUP2 KECCAK256 DUP1 SLOAD PUSH1 0x1 PUSH1 0x1 PUSH1 0xA0 SHL SUB NOT AND PUSH1 0x1 PUSH1 0x1 PUSH1 0xA0 SHL SUB SWAP1 SWAP5 AND SWAP4 SWAP1 SWAP4 OR SWAP1 SWAP3 SSTORE PUSH1 0x8 DUP4 ADD DUP1 SLOAD PUSH2 0xFFFF NOT AND PUSH2 0x100 OR SWAP1 SSTORE DUP1 SLOAD SWAP2 PUSH2 0x2EAE DUP4 PUSH2 0x46D1 JUMP JUMPDEST SWAP1 SWAP2 SSTORE POP POP PUSH1 0x40 DUP1 MLOAD DUP7 DUP2 MSTORE CALLER PUSH1 0x20 DUP3 ADD MSTORE PUSH32 0xD5CA6CFD1918E76C3D26F5E6DE2DC17B8C36EE5288009156A52BAB0D193583CA SWAP2 ADD PUSH2 0x22F6 JUMP JUMPDEST DUP2 PUSH1 0xA SLOAD DUP2 LT PUSH2 0x2EF7 JUMPI PUSH1 0x0 DUP1 REVERT JUMPDEST PUSH1 0x0 DUP4 DUP2 MSTORE PUSH1 0x9 PUSH1 0x20 MSTORE PUSH1 0x40 SWAP1 KECCAK256 PUSH1 0x8 DUP2 ADD SLOAD PUSH2 0x100 SWAP1 DIV PUSH1 0xFF AND PUSH2 0x2F5E JUMPI PUSH1 0x40 MLOAD PUSH3 0x461BCD PUSH1 0xE5 SHL DUP2 MSTORE PUSH1 0x20 PUSH1 0x4 DUP3 ADD MSTORE PUSH1 0x1A PUSH1 0x24 DUP3 ADD MSTORE PUSH32 0x5468652072657175657374206973206E6F742061637469766521000000000000 PUSH1 0x44 DUP3 ADD MSTORE PUSH1 0x64 ADD PUSH2 0x87C JUMP JUMPDEST PUSH1 0x1 DUP2 ADD SLOAD PUSH1 0x1 PUSH1 0x1 PUSH1 0xA0 SHL SUB AND CALLER EQ PUSH2 0x2F77 JUMPI PUSH1 0x0 DUP1 REVERT JUMPDEST PUSH1 0x0 DUP4 PUSH1 0xFF AND GT DUP1 ISZERO PUSH2 0x2F8D JUMPI POP PUSH1 0x3 DUP4 PUSH1 0xFF AND LT JUMPDEST PUSH2 0x2F96 JUMPI PUSH1 0x0 DUP1 REVERT JUMPDEST PUSH1 0x8 ADD DUP1 SLOAD PUSH1 0xFF NOT AND PUSH1 0xFF SWAP4 SWAP1 SWAP4 AND SWAP3 SWAP1 SWAP3 OR SWAP1 SWAP2 SSTORE POP POP JUMP JUMPDEST PUSH1 0x60 DUP1 DUP1 PUSH1 0x0 DUP2 DUP1 DUP3 DUP1 DUP10 PUSH1 0x8 SLOAD DUP2 LT PUSH2 0x3000 JUMPI PUSH1 0x40 MLOAD PUSH3 0x461BCD PUSH1 0xE5 SHL DUP2 MSTORE PUSH1 0x20 PUSH1 0x4 DUP3 ADD MSTORE PUSH1 0x11 PUSH1 0x24 DUP3 ADD MSTORE PUSH17 0x151A19481A9BD8881B9BDD08195E1A5CDD PUSH1 0x7A SHL PUSH1 0x44 DUP3 ADD MSTORE PUSH1 0x64 ADD PUSH2 0x87C JUMP JUMPDEST PUSH1 0x0 DUP12 DUP2 MSTORE PUSH1 0x7 PUSH1 0x20 MSTORE PUSH1 0x40 SWAP1 KECCAK256 SLOAD DUP12 SWAP1 PUSH1 0x1 PUSH1 0x1 PUSH1 0xA0 SHL SUB AND CALLER EQ PUSH2 0x305F JUMPI PUSH1 0x40 MLOAD PUSH3 0x461BCD PUSH1 0xE5 SHL DUP2 MSTORE PUSH1 0x20 PUSH1 0x4 DUP3 ADD MSTORE PUSH1 0x14 PUSH1 0x24 DUP3 ADD MSTORE PUSH20 0x2CB7BA93B932903737BA103A34329037BBB732B9 PUSH1 0x61 SHL PUSH1 0x44 DUP3 ADD MSTORE PUSH1 0x64 ADD PUSH2 0x87C JUMP JUMPDEST PUSH1 0x0 DUP13 DUP2 MSTORE PUSH1 0x7 PUSH1 0x20 SWAP1 DUP2 MSTORE PUSH1 0x40 DUP1 DUP4 KECCAK256 DUP15 DUP5 MSTORE PUSH1 0x10 ADD SWAP1 SWAP2 MSTORE DUP1 DUP3 KECCAK256 DUP2 MLOAD PUSH2 0x140 DUP2 ADD SWAP1 SWAP3 MSTORE DUP1 SLOAD DUP3 SWAP1 DUP3 SWAP1 PUSH2 0x3095 SWAP1 PUSH2 0x469C JUMP JUMPDEST DUP1 PUSH1 0x1F ADD PUSH1 0x20 DUP1 SWAP2 DIV MUL PUSH1 0x20 ADD PUSH1 0x40 MLOAD SWAP1 DUP2 ADD PUSH1 0x40 MSTORE DUP1 SWAP3 SWAP2 SWAP1 DUP2 DUP2 MSTORE PUSH1 0x20 ADD DUP3 DUP1 SLOAD PUSH2 0x30C1 SWAP1 PUSH2 0x469C JUMP JUMPDEST DUP1 ISZERO PUSH2 0x310E JUMPI DUP1 PUSH1 0x1F LT PUSH2 0x30E3 JUMPI PUSH2 0x100 DUP1 DUP4 SLOAD DIV MUL DUP4 MSTORE SWAP2 PUSH1 0x20 ADD SWAP2 PUSH2 0x310E JUMP JUMPDEST DUP3 ADD SWAP2 SWAP1 PUSH1 0x0 MSTORE PUSH1 0x20 PUSH1 0x0 KECCAK256 SWAP1 JUMPDEST DUP2 SLOAD DUP2 MSTORE SWAP1 PUSH1 0x1 ADD SWAP1 PUSH1 0x20 ADD DUP1 DUP4 GT PUSH2 0x30F1 JUMPI DUP3 SWAP1 SUB PUSH1 0x1F AND DUP3 ADD SWAP2 JUMPDEST POP POP POP POP POP DUP2 MSTORE PUSH1 0x20 ADD PUSH1 0x1 DUP3 ADD DUP1 SLOAD PUSH2 0x3127 SWAP1 PUSH2 0x469C JUMP JUMPDEST DUP1 PUSH1 0x1F ADD PUSH1 0x20 DUP1 SWAP2 DIV MUL PUSH1 0x20 ADD PUSH1 0x40 MLOAD SWAP1 DUP2 ADD PUSH1 0x40 MSTORE DUP1 SWAP3 SWAP2 SWAP1 DUP2 DUP2 MSTORE PUSH1 0x20 ADD DUP3 DUP1 SLOAD PUSH2 0x3153 SWAP1 PUSH2 0x469C JUMP JUMPDEST DUP1 ISZERO PUSH2 0x31A0 JUMPI DUP1 PUSH1 0x1F LT PUSH2 0x3175 JUMPI PUSH2 0x100 DUP1 DUP4 SLOAD DIV MUL DUP4 MSTORE SWAP2 PUSH1 0x20 ADD SWAP2 PUSH2 0x31A0 JUMP JUMPDEST DUP3 ADD SWAP2 SWAP1 PUSH1 0x0 MSTORE PUSH1 0x20 PUSH1 0x0 KECCAK256 SWAP1 JUMPDEST DUP2 SLOAD DUP2 MSTORE SWAP1 PUSH1 0x1 ADD SWAP1 PUSH1 0x20 ADD DUP1 DUP4 GT PUSH2 0x3183 JUMPI DUP3 SWAP1 SUB PUSH1 0x1F AND DUP3 ADD SWAP2 JUMPDEST POP POP POP SWAP2 DUP4 MSTORE POP POP PUSH1 0x2 DUP3 ADD SLOAD PUSH1 0x1 PUSH1 0x1 PUSH1 0xA0 SHL SUB AND PUSH1 0x20 DUP3 ADD MSTORE PUSH1 0x3 DUP3 ADD DUP1 SLOAD PUSH1 0x40 SWAP1 SWAP3 ADD SWAP2 PUSH2 0x31D0 SWAP1 PUSH2 0x469C JUMP JUMPDEST DUP1 PUSH1 0x1F ADD PUSH1 0x20 DUP1 SWAP2 DIV MUL PUSH1 0x20 ADD PUSH1 0x40 MLOAD SWAP1 DUP2 ADD PUSH1 0x40 MSTORE DUP1 SWAP3 SWAP2 SWAP1 DUP2 DUP2 MSTORE PUSH1 0x20 ADD DUP3 DUP1 SLOAD PUSH2 0x31FC SWAP1 PUSH2 0x469C JUMP JUMPDEST DUP1 ISZERO PUSH2 0x3249 JUMPI DUP1 PUSH1 0x1F LT PUSH2 0x321E JUMPI PUSH2 0x100 DUP1 DUP4 SLOAD DIV MUL DUP4 MSTORE SWAP2 PUSH1 0x20 ADD SWAP2 PUSH2 0x3249 JUMP JUMPDEST DUP3 ADD SWAP2 SWAP1 PUSH1 0x0 MSTORE PUSH1 0x20 PUSH1 0x0 KECCAK256 SWAP1 JUMPDEST DUP2 SLOAD DUP2 MSTORE SWAP1 PUSH1 0x1 ADD SWAP1 PUSH1 0x20 ADD DUP1 DUP4 GT PUSH2 0x322C JUMPI DUP3 SWAP1 SUB PUSH1 0x1F AND DUP3 ADD SWAP2 JUMPDEST POP POP POP POP POP DUP2 MSTORE PUSH1 0x20 ADD PUSH1 0x4 DUP3 ADD SLOAD DUP2 MSTORE PUSH1 0x20 ADD PUSH1 0x5 DUP3 ADD DUP1 SLOAD PUSH2 0x326C SWAP1 PUSH2 0x469C JUMP JUMPDEST DUP1 PUSH1 0x1F ADD PUSH1 0x20 DUP1 SWAP2 DIV MUL PUSH1 0x20 ADD PUSH1 0x40 MLOAD SWAP1 DUP2 ADD PUSH1 0x40 MSTORE DUP1 SWAP3 SWAP2 SWAP1 DUP2 DUP2 MSTORE PUSH1 0x20 ADD DUP3 DUP1 SLOAD PUSH2 0x3298 SWAP1 PUSH2 0x469C JUMP JUMPDEST DUP1 ISZERO PUSH2 0x32E5 JUMPI DUP1 PUSH1 0x1F LT PUSH2 0x32BA JUMPI PUSH2 0x100 DUP1 DUP4 SLOAD DIV MUL DUP4 MSTORE SWAP2 PUSH1 0x20 ADD SWAP2 PUSH2 0x32E5 JUMP JUMPDEST DUP3 ADD SWAP2 SWAP1 PUSH1 0x0 MSTORE PUSH1 0x20 PUSH1 0x0 KECCAK256 SWAP1 JUMPDEST DUP2 SLOAD DUP2 MSTORE SWAP1 PUSH1 0x1 ADD SWAP1 PUSH1 0x20 ADD DUP1 DUP4 GT PUSH2 0x32C8 JUMPI DUP3 SWAP1 SUB PUSH1 0x1F AND DUP3 ADD SWAP2 JUMPDEST POP POP POP POP POP DUP2 MSTORE PUSH1 0x20 ADD PUSH1 0x6 DUP3 ADD DUP1 SLOAD PUSH2 0x32FE SWAP1 PUSH2 0x469C JUMP JUMPDEST DUP1 PUSH1 0x1F ADD PUSH1 0x20 DUP1 SWAP2 DIV MUL PUSH1 0x20 ADD PUSH1 0x40 MLOAD SWAP1 DUP2 ADD PUSH1 0x40 MSTORE DUP1 SWAP3 SWAP2 SWAP1 DUP2 DUP2 MSTORE PUSH1 0x20 ADD DUP3 DUP1 SLOAD PUSH2 0x332A SWAP1 PUSH2 0x469C JUMP JUMPDEST DUP1 ISZERO PUSH2 0x3377 JUMPI DUP1 PUSH1 0x1F LT PUSH2 0x334C JUMPI PUSH2 0x100 DUP1 DUP4 SLOAD DIV MUL DUP4 MSTORE SWAP2 PUSH1 0x20 ADD SWAP2 PUSH2 0x3377 JUMP JUMPDEST DUP3 ADD SWAP2 SWAP1 PUSH1 0x0 MSTORE PUSH1 0x20 PUSH1 0x0 KECCAK256 SWAP1 JUMPDEST DUP2 SLOAD DUP2 MSTORE SWAP1 PUSH1 0x1 ADD SWAP1 PUSH1 0x20 ADD DUP1 DUP4 GT PUSH2 0x335A JUMPI DUP3 SWAP1 SUB PUSH1 0x1F AND DUP3 ADD SWAP2 JUMPDEST POP POP POP POP POP DUP2 MSTORE PUSH1 0x20 ADD PUSH1 0x7 DUP3 ADD SLOAD DUP2 MSTORE PUSH1 0x20 ADD PUSH1 0x8 DUP3 ADD PUSH1 0x0 SWAP1 SLOAD SWAP1 PUSH2 0x100 EXP SWAP1 DIV PUSH1 0xFF AND ISZERO ISZERO ISZERO ISZERO DUP2 MSTORE PUSH1 0x20 ADD PUSH1 0x8 DUP3 ADD PUSH1 0x1 SWAP1 SLOAD SWAP1 PUSH2 0x100 EXP SWAP1 DIV PUSH1 0xFF AND ISZERO ISZERO ISZERO ISZERO DUP2 MSTORE POP POP SWAP1 POP DUP1 PUSH1 0x0 ADD MLOAD DUP2 PUSH1 0x20 ADD MLOAD DUP3 PUSH1 0x60 ADD MLOAD DUP4 PUSH1 0x80 ADD MLOAD DUP5 PUSH1 0xA0 ADD MLOAD DUP6 PUSH1 0xC0 ADD MLOAD DUP7 PUSH2 0x100 ADD MLOAD DUP8 PUSH2 0x120 ADD MLOAD SWAP11 POP SWAP11 POP SWAP11 POP SWAP11 POP SWAP11 POP SWAP11 POP SWAP11 POP SWAP11 POP POP POP POP SWAP3 SWAP6 SWAP9 POP SWAP3 SWAP6 SWAP9 SWAP1 SWAP4 SWAP7 POP JUMP JUMPDEST CALLER PUSH1 0x0 SWAP1 DUP2 MSTORE PUSH1 0x1 PUSH1 0x20 MSTORE PUSH1 0x40 DUP2 KECCAK256 SLOAD PUSH1 0xFF AND PUSH2 0x345A JUMPI PUSH1 0x40 MLOAD PUSH3 0x461BCD PUSH1 0xE5 SHL DUP2 MSTORE PUSH1 0x20 PUSH1 0x4 DUP3 ADD MSTORE PUSH1 0xC PUSH1 0x24 DUP3 ADD MSTORE PUSH12 0x4E6F7420436F6D70616E7921 PUSH1 0xA0 SHL PUSH1 0x44 DUP3 ADD MSTORE PUSH1 0x64 ADD PUSH2 0x87C JUMP JUMPDEST POP CALLER PUSH1 0x0 SWAP1 DUP2 MSTORE PUSH1 0x1 PUSH1 0x20 MSTORE PUSH1 0x40 SWAP1 KECCAK256 PUSH1 0x5 ADD SLOAD SWAP1 JUMP JUMPDEST CALLER PUSH1 0x0 SWAP1 DUP2 MSTORE PUSH1 0x1 PUSH1 0x20 MSTORE PUSH1 0x40 DUP2 KECCAK256 PUSH1 0x7 ADD SLOAD DUP3 LT PUSH2 0x34F8 JUMPI PUSH1 0x40 MLOAD PUSH3 0x461BCD PUSH1 0xE5 SHL DUP2 MSTORE PUSH1 0x20 PUSH1 0x4 DUP3 ADD MSTORE PUSH1 0x21 PUSH1 0x24 DUP3 ADD MSTORE PUSH32 0x5468652073656E64656420726571756573742020646F65736E27742065786973 PUSH1 0x44 DUP3 ADD MSTORE PUSH32 0x7400000000000000000000000000000000000000000000000000000000000000 PUSH1 0x64 DUP3 ADD MSTORE PUSH1 0x84 ADD PUSH2 0x87C JUMP JUMPDEST POP CALLER PUSH1 0x0 SWAP1 DUP2 MSTORE PUSH1 0x1 PUSH1 0x20 SWAP1 DUP2 MSTORE PUSH1 0x40 DUP1 DUP4 KECCAK256 SWAP4 DUP4 MSTORE PUSH1 0x6 SWAP1 SWAP4 ADD SWAP1 MSTORE KECCAK256 SLOAD SWAP1 JUMP JUMPDEST CALLER PUSH1 0x0 SWAP1 DUP2 MSTORE PUSH1 0x4 PUSH1 0x20 MSTORE PUSH1 0x40 DUP2 KECCAK256 SLOAD PUSH1 0xFF AND PUSH2 0x3536 JUMPI PUSH1 0x0 DUP1 REVERT JUMPDEST CALLER PUSH1 0x0 SWAP1 DUP2 MSTORE PUSH1 0x4 PUSH1 0x20 MSTORE PUSH1 0x40 SWAP1 KECCAK256 PUSH1 0x8 ADD SLOAD DUP3 LT PUSH2 0x3597 JUMPI PUSH1 0x40 MLOAD PUSH3 0x461BCD PUSH1 0xE5 SHL DUP2 MSTORE PUSH1 0x20 PUSH1 0x4 DUP3 ADD MSTORE PUSH1 0xF PUSH1 0x24 DUP3 ADD MSTORE PUSH32 0x4A6F6220646F6E277420666F756E640000000000000000000000000000000000 PUSH1 0x44 DUP3 ADD MSTORE PUSH1 0x64 ADD PUSH2 0x87C JUMP JUMPDEST POP CALLER PUSH1 0x0 SWAP1 DUP2 MSTORE PUSH1 0x4 PUSH1 0x20 SWAP1 DUP2 MSTORE PUSH1 0x40 DUP1 DUP4 KECCAK256 SWAP4 DUP4 MSTORE PUSH1 0x7 SWAP1 SWAP4 ADD SWAP1 MSTORE KECCAK256 SLOAD SWAP1 JUMP JUMPDEST CALLER PUSH1 0x0 SWAP1 DUP2 MSTORE PUSH1 0x1 PUSH1 0x20 MSTORE PUSH1 0x40 SWAP1 KECCAK256 SLOAD PUSH1 0xFF AND PUSH2 0x3607 JUMPI PUSH1 0x40 MLOAD PUSH3 0x461BCD PUSH1 0xE5 SHL DUP2 MSTORE PUSH1 0x20 PUSH1 0x4 DUP3 ADD MSTORE PUSH1 0xC PUSH1 0x24 DUP3 ADD MSTORE PUSH12 0x4E6F7420436F6D70616E7921 PUSH1 0xA0 SHL PUSH1 0x44 DUP3 ADD MSTORE PUSH1 0x64 ADD PUSH2 0x87C JUMP JUMPDEST PUSH1 0x0 CALLVALUE GT PUSH2 0x367D JUMPI PUSH1 0x40 MLOAD PUSH3 0x461BCD PUSH1 0xE5 SHL DUP2 MSTORE PUSH1 0x20 PUSH1 0x4 DUP3 ADD MSTORE PUSH1 0x25 PUSH1 0x24 DUP3 ADD MSTORE PUSH32 0x4E6565642073656E64696E67206D6F6E657920666F72206372656174696E6720 PUSH1 0x44 DUP3 ADD MSTORE PUSH32 0x61206A6F62000000000000000000000000000000000000000000000000000000 PUSH1 0x64 DUP3 ADD MSTORE PUSH1 0x84 ADD PUSH2 0x87C JUMP JUMPDEST PUSH1 0x0 DUP6 GT DUP1 ISZERO PUSH2 0x368C JUMPI POP DUP5 DUP5 GT JUMPDEST DUP1 ISZERO PUSH2 0x3698 JUMPI POP PUSH1 0x0 DUP3 GT JUMPDEST DUP1 ISZERO PUSH2 0x36A3 JUMPI POP DUP2 DUP2 GT JUMPDEST DUP1 ISZERO PUSH2 0x36AF JUMPI POP PUSH1 0x0 DUP4 GT JUMPDEST PUSH2 0x36FB JUMPI PUSH1 0x40 MLOAD PUSH3 0x461BCD PUSH1 0xE5 SHL DUP2 MSTORE PUSH1 0x20 PUSH1 0x4 DUP3 ADD MSTORE PUSH1 0x19 PUSH1 0x24 DUP3 ADD MSTORE PUSH32 0x54686520696E707574732061726520696E636F72726563747300000000000000 PUSH1 0x44 DUP3 ADD MSTORE PUSH1 0x64 ADD PUSH2 0x87C JUMP JUMPDEST PUSH1 0x0 PUSH1 0x3C PUSH2 0x3709 DUP8 DUP8 PUSH2 0x4685 JUMP JUMPDEST PUSH2 0x3713 SWAP2 SWAP1 PUSH2 0x4646 JUMP JUMPDEST SWAP1 POP PUSH1 0x0 PUSH1 0x18 PUSH1 0x3C DUP1 PUSH2 0x3726 DUP8 DUP8 PUSH2 0x4685 JUMP JUMPDEST PUSH2 0x3730 SWAP2 SWAP1 PUSH2 0x4646 JUMP JUMPDEST PUSH2 0x373A SWAP2 SWAP1 PUSH2 0x4646 JUMP JUMPDEST PUSH2 0x3744 SWAP2 SWAP1 PUSH2 0x4646 JUMP JUMPDEST SWAP1 POP PUSH1 0x0 DUP6 DUP4 PUSH2 0x3754 DUP5 CALLVALUE PUSH2 0x4646 JUMP JUMPDEST PUSH2 0x375E SWAP2 SWAP1 PUSH2 0x4646 JUMP JUMPDEST PUSH2 0x3768 SWAP2 SWAP1 PUSH2 0x4646 JUMP JUMPDEST SWAP1 POP PUSH1 0x0 PUSH1 0x7 PUSH1 0x0 PUSH1 0x8 SLOAD DUP2 MSTORE PUSH1 0x20 ADD SWAP1 DUP2 MSTORE PUSH1 0x20 ADD PUSH1 0x0 KECCAK256 SWAP1 POP CALLER DUP2 PUSH1 0x0 ADD PUSH1 0x0 PUSH2 0x100 EXP DUP2 SLOAD DUP2 PUSH1 0x1 PUSH1 0x1 PUSH1 0xA0 SHL SUB MUL NOT AND SWAP1 DUP4 PUSH1 0x1 PUSH1 0x1 PUSH1 0xA0 SHL SUB AND MUL OR SWAP1 SSTORE POP CALLVALUE DUP2 PUSH1 0x1 ADD DUP2 SWAP1 SSTORE POP DUP13 DUP2 PUSH1 0x2 ADD SWAP1 DUP1 MLOAD SWAP1 PUSH1 0x20 ADD SWAP1 PUSH2 0x37CD SWAP3 SWAP2 SWAP1 PUSH2 0x3E3D JUMP JUMPDEST POP DUP12 MLOAD PUSH2 0x37E3 SWAP1 PUSH1 0x3 DUP4 ADD SWAP1 PUSH1 0x20 DUP16 ADD SWAP1 PUSH2 0x3E3D JUMP JUMPDEST POP DUP11 MLOAD PUSH2 0x37F9 SWAP1 PUSH1 0x4 DUP4 ADD SWAP1 PUSH1 0x20 DUP15 ADD SWAP1 PUSH2 0x3E3D JUMP JUMPDEST POP DUP10 MLOAD PUSH2 0x380F SWAP1 PUSH1 0x5 DUP4 ADD SWAP1 PUSH1 0x20 DUP14 ADD SWAP1 PUSH2 0x3E3D JUMP JUMPDEST POP PUSH1 0x6 DUP2 ADD DUP10 SWAP1 SSTORE PUSH1 0x7 DUP2 ADD DUP9 SWAP1 SSTORE PUSH1 0x8 DUP1 DUP3 ADD DUP9 SWAP1 SSTORE PUSH1 0x9 DUP3 ADD DUP4 SWAP1 SSTORE PUSH1 0xA DUP3 ADD DUP8 SWAP1 SSTORE PUSH1 0xB DUP3 ADD DUP7 SWAP1 SSTORE PUSH1 0xC DUP3 ADD DUP1 SLOAD PUSH2 0xFFFF NOT AND PUSH1 0x1 SWAP1 DUP2 OR SWAP1 SWAP2 SSTORE PUSH1 0x0 PUSH1 0xE DUP5 ADD DUP2 SWAP1 SSTORE PUSH1 0x11 DUP5 ADD DUP2 SWAP1 SSTORE CALLER DUP2 MSTORE PUSH1 0x20 SWAP2 DUP3 MSTORE PUSH1 0x40 DUP1 DUP3 KECCAK256 SWAP4 SLOAD PUSH1 0x5 DUP6 ADD DUP1 SLOAD DUP5 MSTORE PUSH1 0x4 DUP7 ADD SWAP1 SWAP5 MSTORE SWAP1 DUP3 KECCAK256 SSTORE DUP2 SLOAD SWAP2 SWAP1 PUSH2 0x388D DUP4 PUSH2 0x46D1 JUMP JUMPDEST SWAP1 SWAP2 SSTORE POP POP PUSH1 0x8 DUP1 SLOAD SWAP1 PUSH1 0x0 PUSH2 0x38A2 DUP4 PUSH2 0x46D1 JUMP JUMPDEST SWAP1 SWAP2 SSTORE POP POP PUSH1 0x40 DUP1 MLOAD CALLER DUP2 MSTORE CALLVALUE PUSH1 0x20 DUP3 ADD MSTORE PUSH32 0x8989B75CCCCA0FB30DA05814AD53F47C96062C68F02F70EEF5673F84E1F905D8 SWAP2 ADD PUSH1 0x40 MLOAD DUP1 SWAP2 SUB SWAP1 LOG1 POP POP POP POP POP POP POP POP POP POP POP POP POP POP JUMP JUMPDEST CALLER PUSH1 0x0 SWAP1 DUP2 MSTORE PUSH1 0x4 PUSH1 0x20 MSTORE PUSH1 0x40 DUP2 KECCAK256 PUSH1 0x8 DUP2 ADD SLOAD DUP4 LT PUSH2 0x3941 JUMPI PUSH1 0x40 MLOAD PUSH3 0x461BCD PUSH1 0xE5 SHL DUP2 MSTORE PUSH1 0x20 PUSH1 0x4 DUP3 ADD MSTORE PUSH1 0xD PUSH1 0x24 DUP3 ADD MSTORE PUSH13 0x129BD8881B9BDD08199BDD5B99 PUSH1 0x9A SHL PUSH1 0x44 DUP3 ADD MSTORE PUSH1 0x64 ADD PUSH2 0x87C JUMP JUMPDEST PUSH1 0x8 DUP1 DUP3 ADD SLOAD PUSH1 0x0 SWAP1 DUP2 MSTORE PUSH1 0x7 SWAP3 DUP4 ADD PUSH1 0x20 SWAP1 DUP2 MSTORE PUSH1 0x40 DUP1 DUP4 KECCAK256 SLOAD DUP4 MSTORE SWAP4 DUP2 MSTORE DUP4 DUP3 KECCAK256 CALLER DUP4 MSTORE PUSH1 0xF DUP2 ADD DUP3 MSTORE DUP5 DUP4 KECCAK256 SLOAD DUP4 MSTORE PUSH1 0x10 ADD SWAP1 MSTORE SWAP2 SWAP1 SWAP2 KECCAK256 ADD SLOAD PUSH1 0xFF AND SWAP3 SWAP2 POP POP JUMP JUMPDEST PUSH1 0x0 DUP2 PUSH1 0x8 SLOAD DUP2 LT PUSH2 0x39CF JUMPI PUSH1 0x40 MLOAD PUSH3 0x461BCD PUSH1 0xE5 SHL DUP2 MSTORE PUSH1 0x20 PUSH1 0x4 DUP3 ADD MSTORE PUSH1 0x11 PUSH1 0x24 DUP3 ADD MSTORE PUSH17 0x151A19481A9BD8881B9BDD08195E1A5CDD PUSH1 0x7A SHL PUSH1 0x44 DUP3 ADD MSTORE PUSH1 0x64 ADD PUSH2 0x87C JUMP JUMPDEST CALLER PUSH1 0x0 SWAP1 DUP2 MSTORE PUSH1 0x4 PUSH1 0x20 MSTORE PUSH1 0x40 SWAP1 KECCAK256 SLOAD PUSH1 0xFF AND PUSH2 0x39EB JUMPI PUSH1 0x0 DUP1 REVERT JUMPDEST PUSH1 0x0 DUP4 DUP2 MSTORE PUSH1 0x7 PUSH1 0x20 SWAP1 DUP2 MSTORE PUSH1 0x40 DUP1 DUP4 KECCAK256 CALLER DUP1 DUP6 MSTORE PUSH1 0xF DUP3 ADD DUP5 MSTORE DUP3 DUP6 KECCAK256 SLOAD DUP6 MSTORE PUSH1 0x10 DUP3 ADD SWAP1 SWAP4 MSTORE SWAP3 KECCAK256 PUSH1 0x2 ADD SLOAD PUSH1 0x1 PUSH1 0x1 PUSH1 0xA0 SHL SUB AND EQ ISZERO PUSH2 0x3A32 JUMPI PUSH1 0x1 SWAP3 POP POP PUSH2 0x8A6 JUMP JUMPDEST PUSH1 0x0 SWAP3 POP POP PUSH2 0x8A6 JUMP JUMPDEST PUSH1 0x0 DUP1 PUSH1 0x60 DUP1 DUP1 DUP1 DUP5 DUP1 DUP1 DUP1 DUP1 DUP12 PUSH1 0x8 SLOAD DUP2 LT PUSH2 0x3A8F JUMPI PUSH1 0x40 MLOAD PUSH3 0x461BCD PUSH1 0xE5 SHL DUP2 MSTORE PUSH1 0x20 PUSH1 0x4 DUP3 ADD MSTORE PUSH1 0x11 PUSH1 0x24 DUP3 ADD MSTORE PUSH17 0x151A19481A9BD8881B9BDD08195E1A5CDD PUSH1 0x7A SHL PUSH1 0x44 DUP3 ADD MSTORE PUSH1 0x64 ADD PUSH2 0x87C JUMP JUMPDEST PUSH1 0x0 DUP14 DUP2 MSTORE PUSH1 0x7 PUSH1 0x20 MSTORE PUSH1 0x40 SWAP1 KECCAK256 DUP1 SLOAD PUSH1 0x1 DUP3 ADD SLOAD PUSH1 0x8 DUP4 ADD SLOAD PUSH1 0xA DUP5 ADD SLOAD PUSH1 0xB DUP6 ADD SLOAD PUSH1 0xC DUP7 ADD SLOAD PUSH1 0x11 DUP8 ADD SLOAD PUSH1 0x2 DUP9 ADD DUP1 SLOAD PUSH1 0x1 PUSH1 0x1 PUSH1 0xA0 SHL SUB SWAP1 SWAP9 AND SWAP8 SWAP1 SWAP6 PUSH1 0x3 DUP11 ADD SWAP6 PUSH1 0x4 DUP12 ADD SWAP6 PUSH1 0x5 DUP13 ADD SWAP6 SWAP3 SWAP5 SWAP2 SWAP4 SWAP1 SWAP3 PUSH1 0xFF AND SWAP2 SWAP1 DUP10 SWAP1 PUSH2 0x3AF6 SWAP1 PUSH2 0x469C JUMP JUMPDEST DUP1 PUSH1 0x1F ADD PUSH1 0x20 DUP1 SWAP2 DIV MUL PUSH1 0x20 ADD PUSH1 0x40 MLOAD SWAP1 DUP2 ADD PUSH1 0x40 MSTORE DUP1 SWAP3 SWAP2 SWAP1 DUP2 DUP2 MSTORE PUSH1 0x20 ADD DUP3 DUP1 SLOAD PUSH2 0x3B22 SWAP1 PUSH2 0x469C JUMP JUMPDEST DUP1 ISZERO PUSH2 0x3B6F JUMPI DUP1 PUSH1 0x1F LT PUSH2 0x3B44 JUMPI PUSH2 0x100 DUP1 DUP4 SLOAD DIV MUL DUP4 MSTORE SWAP2 PUSH1 0x20 ADD SWAP2 PUSH2 0x3B6F JUMP JUMPDEST DUP3 ADD SWAP2 SWAP1 PUSH1 0x0 MSTORE PUSH1 0x20 PUSH1 0x0 KECCAK256 SWAP1 JUMPDEST DUP2 SLOAD DUP2 MSTORE SWAP1 PUSH1 0x1 ADD SWAP1 PUSH1 0x20 ADD DUP1 DUP4 GT PUSH2 0x3B52 JUMPI DUP3 SWAP1 SUB PUSH1 0x1F AND DUP3 ADD SWAP2 JUMPDEST POP POP POP POP POP SWAP9 POP DUP8 DUP1 SLOAD PUSH2 0x3B82 SWAP1 PUSH2 0x469C JUMP JUMPDEST DUP1 PUSH1 0x1F ADD PUSH1 0x20 DUP1 SWAP2 DIV MUL PUSH1 0x20 ADD PUSH1 0x40 MLOAD SWAP1 DUP2 ADD PUSH1 0x40 MSTORE DUP1 SWAP3 SWAP2 SWAP1 DUP2 DUP2 MSTORE PUSH1 0x20 ADD DUP3 DUP1 SLOAD PUSH2 0x3BAE SWAP1 PUSH2 0x469C JUMP JUMPDEST DUP1 ISZERO PUSH2 0x3BFB JUMPI DUP1 PUSH1 0x1F LT PUSH2 0x3BD0 JUMPI PUSH2 0x100 DUP1 DUP4 SLOAD DIV MUL DUP4 MSTORE SWAP2 PUSH1 0x20 ADD SWAP2 PUSH2 0x3BFB JUMP JUMPDEST DUP3 ADD SWAP2 SWAP1 PUSH1 0x0 MSTORE PUSH1 0x20 PUSH1 0x0 KECCAK256 SWAP1 JUMPDEST DUP2 SLOAD DUP2 MSTORE SWAP1 PUSH1 0x1 ADD SWAP1 PUSH1 0x20 ADD DUP1 DUP4 GT PUSH2 0x3BDE JUMPI DUP3 SWAP1 SUB PUSH1 0x1F AND DUP3 ADD SWAP2 JUMPDEST POP POP POP POP POP SWAP8 POP DUP7 DUP1 SLOAD PUSH2 0x3C0E SWAP1 PUSH2 0x469C JUMP JUMPDEST DUP1 PUSH1 0x1F ADD PUSH1 0x20 DUP1 SWAP2 DIV MUL PUSH1 0x20 ADD PUSH1 0x40 MLOAD SWAP1 DUP2 ADD PUSH1 0x40 MSTORE DUP1 SWAP3 SWAP2 SWAP1 DUP2 DUP2 MSTORE PUSH1 0x20 ADD DUP3 DUP1 SLOAD PUSH2 0x3C3A SWAP1 PUSH2 0x469C JUMP JUMPDEST DUP1 ISZERO PUSH2 0x3C87 JUMPI DUP1 PUSH1 0x1F LT PUSH2 0x3C5C JUMPI PUSH2 0x100 DUP1 DUP4 SLOAD DIV MUL DUP4 MSTORE SWAP2 PUSH1 0x20 ADD SWAP2 PUSH2 0x3C87 JUMP JUMPDEST DUP3 ADD SWAP2 SWAP1 PUSH1 0x0 MSTORE PUSH1 0x20 PUSH1 0x0 KECCAK256 SWAP1 JUMPDEST DUP2 SLOAD DUP2 MSTORE SWAP1 PUSH1 0x1 ADD SWAP1 PUSH1 0x20 ADD DUP1 DUP4 GT PUSH2 0x3C6A JUMPI DUP3 SWAP1 SUB PUSH1 0x1F AND DUP3 ADD SWAP2 JUMPDEST POP POP POP POP POP SWAP7 POP DUP6 DUP1 SLOAD PUSH2 0x3C9A SWAP1 PUSH2 0x469C JUMP JUMPDEST DUP1 PUSH1 0x1F ADD PUSH1 0x20 DUP1 SWAP2 DIV MUL PUSH1 0x20 ADD PUSH1 0x40 MLOAD SWAP1 DUP2 ADD PUSH1 0x40 MSTORE DUP1 SWAP3 SWAP2 SWAP1 DUP2 DUP2 MSTORE PUSH1 0x20 ADD DUP3 DUP1 SLOAD PUSH2 0x3CC6 SWAP1 PUSH2 0x469C JUMP JUMPDEST DUP1 ISZERO PUSH2 0x3D13 JUMPI DUP1 PUSH1 0x1F LT PUSH2 0x3CE8 JUMPI PUSH2 0x100 DUP1 DUP4 SLOAD DIV MUL DUP4 MSTORE SWAP2 PUSH1 0x20 ADD SWAP2 PUSH2 0x3D13 JUMP JUMPDEST DUP3 ADD SWAP2 SWAP1 PUSH1 0x0 MSTORE PUSH1 0x20 PUSH1 0x0 KECCAK256 SWAP1 JUMPDEST DUP2 SLOAD DUP2 MSTORE SWAP1 PUSH1 0x1 ADD SWAP1 PUSH1 0x20 ADD DUP1 DUP4 GT PUSH2 0x3CF6 JUMPI DUP3 SWAP1 SUB PUSH1 0x1F AND DUP3 ADD SWAP2 JUMPDEST POP POP POP POP POP SWAP6 POP SWAP13 POP SWAP13 POP SWAP13 POP SWAP13 POP SWAP13 POP SWAP13 POP SWAP13 POP SWAP13 POP SWAP13 POP SWAP13 POP SWAP13 POP POP POP SWAP2 SWAP4 SWAP6 SWAP8 SWAP10 SWAP12 SWAP1 SWAP3 SWAP5 SWAP7 SWAP9 SWAP11 POP JUMP JUMPDEST PUSH1 0x0 DUP2 PUSH1 0x8 SLOAD DUP2 LT PUSH2 0x3D89 JUMPI PUSH1 0x40 MLOAD PUSH3 0x461BCD PUSH1 0xE5 SHL DUP2 MSTORE PUSH1 0x20 PUSH1 0x4 DUP3 ADD MSTORE PUSH1 0x11 PUSH1 0x24 DUP3 ADD MSTORE PUSH17 0x151A19481A9BD8881B9BDD08195E1A5CDD PUSH1 0x7A SHL PUSH1 0x44 DUP3 ADD MSTORE PUSH1 0x64 ADD PUSH2 0x87C JUMP JUMPDEST CALLER PUSH1 0x0 SWAP1 DUP2 MSTORE PUSH1 0x4 PUSH1 0x20 MSTORE PUSH1 0x40 SWAP1 KECCAK256 SLOAD PUSH1 0xFF AND PUSH2 0x3DA5 JUMPI PUSH1 0x0 DUP1 REVERT JUMPDEST POP POP PUSH1 0x0 SWAP1 DUP2 MSTORE PUSH1 0x7 PUSH1 0x20 SWAP1 DUP2 MSTORE PUSH1 0x40 DUP1 DUP4 KECCAK256 CALLER DUP5 MSTORE PUSH1 0xF DUP2 ADD DUP4 MSTORE DUP2 DUP5 KECCAK256 SLOAD DUP5 MSTORE PUSH1 0x10 ADD SWAP1 SWAP2 MSTORE SWAP1 KECCAK256 PUSH1 0x8 ADD SLOAD PUSH2 0x100 SWAP1 DIV PUSH1 0xFF AND SWAP1 JUMP JUMPDEST PUSH1 0x0 DUP2 PUSH1 0x8 SLOAD DUP2 LT PUSH2 0x3E26 JUMPI PUSH1 0x40 MLOAD PUSH3 0x461BCD PUSH1 0xE5 SHL DUP2 MSTORE PUSH1 0x20 PUSH1 0x4 DUP3 ADD MSTORE PUSH1 0x11 PUSH1 0x24 DUP3 ADD MSTORE PUSH17 0x151A19481A9BD8881B9BDD08195E1A5CDD PUSH1 0x7A SHL PUSH1 0x44 DUP3 ADD MSTORE PUSH1 0x64 ADD PUSH2 0x87C JUMP JUMPDEST POP POP PUSH1 0x0 SWAP1 DUP2 MSTORE PUSH1 0x7 PUSH1 0x20 MSTORE PUSH1 0x40 SWAP1 KECCAK256 PUSH1 0x11 ADD SLOAD SWAP1 JUMP JUMPDEST DUP3 DUP1 SLOAD PUSH2 0x3E49 SWAP1 PUSH2 0x469C JUMP JUMPDEST SWAP1 PUSH1 0x0 MSTORE PUSH1 0x20 PUSH1 0x0 KECCAK256 SWAP1 PUSH1 0x1F ADD PUSH1 0x20 SWAP1 DIV DUP2 ADD SWAP3 DUP3 PUSH2 0x3E6B JUMPI PUSH1 0x0 DUP6 SSTORE PUSH2 0x3EB1 JUMP JUMPDEST DUP3 PUSH1 0x1F LT PUSH2 0x3E84 JUMPI DUP1 MLOAD PUSH1 0xFF NOT AND DUP4 DUP1 ADD OR DUP6 SSTORE PUSH2 0x3EB1 JUMP JUMPDEST DUP3 DUP1 ADD PUSH1 0x1 ADD DUP6 SSTORE DUP3 ISZERO PUSH2 0x3EB1 JUMPI SWAP2 DUP3 ADD JUMPDEST DUP3 DUP2 GT ISZERO PUSH2 0x3EB1 JUMPI DUP3 MLOAD DUP3 SSTORE SWAP2 PUSH1 0x20 ADD SWAP2 SWAP1 PUSH1 0x1 ADD SWAP1 PUSH2 0x3E96 JUMP JUMPDEST POP PUSH2 0x3EBD SWAP3 SWAP2 POP PUSH2 0x3F3C JUMP JUMPDEST POP SWAP1 JUMP JUMPDEST DUP3 DUP1 SLOAD PUSH2 0x3ECD SWAP1 PUSH2 0x469C JUMP JUMPDEST SWAP1 PUSH1 0x0 MSTORE PUSH1 0x20 PUSH1 0x0 KECCAK256 SWAP1 PUSH1 0x1F ADD PUSH1 0x20 SWAP1 DIV DUP2 ADD SWAP3 DUP3 PUSH2 0x3EEF JUMPI PUSH1 0x0 DUP6 SSTORE PUSH2 0x3EB1 JUMP JUMPDEST DUP3 PUSH1 0x1F LT PUSH2 0x3F00 JUMPI DUP1 SLOAD DUP6 SSTORE PUSH2 0x3EB1 JUMP JUMPDEST DUP3 DUP1 ADD PUSH1 0x1 ADD DUP6 SSTORE DUP3 ISZERO PUSH2 0x3EB1 JUMPI PUSH1 0x0 MSTORE PUSH1 0x20 PUSH1 0x0 KECCAK256 SWAP2 PUSH1 0x1F ADD PUSH1 0x20 SWAP1 DIV DUP3 ADD JUMPDEST DUP3 DUP2 GT ISZERO PUSH2 0x3EB1 JUMPI DUP3 SLOAD DUP3 SSTORE SWAP2 PUSH1 0x1 ADD SWAP2 SWAP1 PUSH1 0x1 ADD SWAP1 PUSH2 0x3F21 JUMP JUMPDEST JUMPDEST DUP1 DUP3 GT ISZERO PUSH2 0x3EBD JUMPI PUSH1 0x0 DUP2 SSTORE PUSH1 0x1 ADD PUSH2 0x3F3D JUMP JUMPDEST PUSH1 0x0 DUP3 PUSH1 0x1F DUP4 ADD SLT PUSH2 0x3F61 JUMPI DUP1 DUP2 REVERT JUMPDEST DUP2 CALLDATALOAD PUSH8 0xFFFFFFFFFFFFFFFF DUP1 DUP3 GT ISZERO PUSH2 0x3F7C JUMPI PUSH2 0x3F7C PUSH2 0x4702 JUMP JUMPDEST PUSH1 0x40 MLOAD PUSH1 0x1F DUP4 ADD PUSH1 0x1F NOT SWAP1 DUP2 AND PUSH1 0x3F ADD AND DUP2 ADD SWAP1 DUP3 DUP3 GT DUP2 DUP4 LT OR ISZERO PUSH2 0x3FA4 JUMPI PUSH2 0x3FA4 PUSH2 0x4702 JUMP JUMPDEST DUP2 PUSH1 0x40 MSTORE DUP4 DUP2 MSTORE DUP7 PUSH1 0x20 DUP6 DUP9 ADD ADD GT ISZERO PUSH2 0x3FBC JUMPI DUP5 DUP6 REVERT JUMPDEST DUP4 PUSH1 0x20 DUP8 ADD PUSH1 0x20 DUP4 ADD CALLDATACOPY SWAP3 DUP4 ADD PUSH1 0x20 ADD SWAP4 SWAP1 SWAP4 MSTORE POP SWAP4 SWAP3 POP POP POP JUMP JUMPDEST PUSH1 0x0 DUP1 PUSH1 0x0 DUP1 PUSH1 0x0 DUP1 PUSH1 0xC0 DUP8 DUP10 SUB SLT ISZERO PUSH2 0x3FF0 JUMPI DUP2 DUP3 REVERT JUMPDEST DUP7 CALLDATALOAD PUSH1 0x1 PUSH1 0x1 PUSH1 0xA0 SHL SUB DUP2 AND DUP2 EQ PUSH2 0x4006 JUMPI DUP3 DUP4 REVERT JUMPDEST SWAP6 POP PUSH1 0x20 DUP8 ADD CALLDATALOAD SWAP5 POP PUSH1 0x40 DUP8 ADD CALLDATALOAD SWAP4 POP PUSH1 0x60 DUP8 ADD CALLDATALOAD SWAP3 POP PUSH1 0x80 DUP8 ADD CALLDATALOAD SWAP2 POP PUSH1 0xA0 DUP8 ADD CALLDATALOAD PUSH8 0xFFFFFFFFFFFFFFFF DUP2 GT ISZERO PUSH2 0x403D JUMPI DUP2 DUP3 REVERT JUMPDEST PUSH2 0x4049 DUP10 DUP3 DUP11 ADD PUSH2 0x3F51 JUMP JUMPDEST SWAP2 POP POP SWAP3 SWAP6 POP SWAP3 SWAP6 POP SWAP3 SWAP6 JUMP JUMPDEST PUSH1 0x0 DUP1 PUSH1 0x0 PUSH1 0x60 DUP5 DUP7 SUB SLT ISZERO PUSH2 0x406A JUMPI DUP3 DUP4 REVERT JUMPDEST DUP4 CALLDATALOAD PUSH8 0xFFFFFFFFFFFFFFFF DUP1 DUP3 GT ISZERO PUSH2 0x4081 JUMPI DUP5 DUP6 REVERT JUMPDEST PUSH2 0x408D DUP8 DUP4 DUP9 ADD PUSH2 0x3F51 JUMP JUMPDEST SWAP5 POP PUSH1 0x20 DUP7 ADD CALLDATALOAD SWAP2 POP DUP1 DUP3 GT ISZERO PUSH2 0x40A2 JUMPI DUP4 DUP5 REVERT JUMPDEST PUSH2 0x40AE DUP8 DUP4 DUP9 ADD PUSH2 0x3F51 JUMP JUMPDEST SWAP4 POP PUSH1 0x40 DUP7 ADD CALLDATALOAD SWAP2 POP DUP1 DUP3 GT ISZERO PUSH2 0x40C3 JUMPI DUP3 DUP4 REVERT JUMPDEST POP PUSH2 0x40D0 DUP7 DUP3 DUP8 ADD PUSH2 0x3F51 JUMP JUMPDEST SWAP2 POP POP SWAP3 POP SWAP3 POP SWAP3 JUMP JUMPDEST PUSH1 0x0 DUP1 PUSH1 0x0 DUP1 PUSH1 0x0 DUP1 PUSH1 0x0 DUP1 PUSH1 0x0 PUSH2 0x120 DUP11 DUP13 SUB SLT ISZERO PUSH2 0x40F8 JUMPI DUP3 DUP4 REVERT JUMPDEST DUP10 CALLDATALOAD PUSH8 0xFFFFFFFFFFFFFFFF DUP1 DUP3 GT ISZERO PUSH2 0x410F JUMPI DUP5 DUP6 REVERT JUMPDEST PUSH2 0x411B DUP14 DUP4 DUP15 ADD PUSH2 0x3F51 JUMP JUMPDEST SWAP11 POP PUSH1 0x20 DUP13 ADD CALLDATALOAD SWAP2 POP DUP1 DUP3 GT ISZERO PUSH2 0x4130 JUMPI DUP5 DUP6 REVERT JUMPDEST PUSH2 0x413C DUP14 DUP4 DUP15 ADD PUSH2 0x3F51 JUMP JUMPDEST SWAP10 POP PUSH1 0x40 DUP13 ADD CALLDATALOAD SWAP2 POP DUP1 DUP3 GT ISZERO PUSH2 0x4151 JUMPI DUP5 DUP6 REVERT JUMPDEST PUSH2 0x415D DUP14 DUP4 DUP15 ADD PUSH2 0x3F51 JUMP JUMPDEST SWAP9 POP PUSH1 0x60 DUP13 ADD CALLDATALOAD SWAP2 POP DUP1 DUP3 GT ISZERO PUSH2 0x4172 JUMPI DUP5 DUP6 REVERT JUMPDEST POP PUSH2 0x417F DUP13 DUP3 DUP14 ADD PUSH2 0x3F51 JUMP JUMPDEST SWAP10 SWAP13 SWAP9 SWAP12 POP SWAP7 SWAP10 PUSH1 0x80 DUP2 ADD CALLDATALOAD SWAP9 PUSH1 0xA0 DUP3 ADD CALLDATALOAD SWAP9 POP PUSH1 0xC0 DUP3 ADD CALLDATALOAD SWAP8 POP PUSH1 0xE0 DUP3 ADD CALLDATALOAD SWAP7 POP PUSH2 0x100 SWAP1 SWAP2 ADD CALLDATALOAD SWAP5 POP SWAP3 POP POP POP JUMP JUMPDEST PUSH1 0x0 DUP1 PUSH1 0x0 DUP1 PUSH1 0x0 DUP1 PUSH1 0xC0 DUP8 DUP10 SUB SLT ISZERO PUSH2 0x41C8 JUMPI DUP2 DUP3 REVERT JUMPDEST DUP7 CALLDATALOAD PUSH8 0xFFFFFFFFFFFFFFFF DUP1 DUP3 GT ISZERO PUSH2 0x41DF JUMPI DUP4 DUP5 REVERT JUMPDEST PUSH2 0x41EB DUP11 DUP4 DUP12 ADD PUSH2 0x3F51 JUMP JUMPDEST SWAP8 POP PUSH1 0x20 DUP10 ADD CALLDATALOAD SWAP2 POP DUP1 DUP3 GT ISZERO PUSH2 0x4200 JUMPI DUP4 DUP5 REVERT JUMPDEST PUSH2 0x420C DUP11 DUP4 DUP12 ADD PUSH2 0x3F51 JUMP JUMPDEST SWAP7 POP PUSH1 0x40 DUP10 ADD CALLDATALOAD SWAP6 POP PUSH1 0x60 DUP10 ADD CALLDATALOAD SWAP2 POP DUP1 DUP3 GT ISZERO PUSH2 0x4228 JUMPI DUP4 DUP5 REVERT JUMPDEST PUSH2 0x4234 DUP11 DUP4 DUP12 ADD PUSH2 0x3F51 JUMP JUMPDEST SWAP5 POP PUSH1 0x80 DUP10 ADD CALLDATALOAD SWAP2 POP DUP1 DUP3 GT ISZERO PUSH2 0x4249 JUMPI DUP4 DUP5 REVERT JUMPDEST PUSH2 0x4255 DUP11 DUP4 DUP12 ADD PUSH2 0x3F51 JUMP JUMPDEST SWAP4 POP PUSH1 0xA0 DUP10 ADD CALLDATALOAD SWAP2 POP DUP1 DUP3 GT ISZERO PUSH2 0x426A JUMPI DUP3 DUP4 REVERT JUMPDEST POP PUSH2 0x4049 DUP10 DUP3 DUP11 ADD PUSH2 0x3F51 JUMP JUMPDEST PUSH1 0x0 PUSH1 0x20 DUP3 DUP5 SUB SLT ISZERO PUSH2 0x4288 JUMPI DUP1 DUP2 REVERT JUMPDEST POP CALLDATALOAD SWAP2 SWAP1 POP JUMP JUMPDEST PUSH1 0x0 DUP1 PUSH1 0x40 DUP4 DUP6 SUB SLT ISZERO PUSH2 0x42A1 JUMPI DUP2 DUP3 REVERT JUMPDEST DUP3 CALLDATALOAD SWAP2 POP PUSH1 0x20 DUP4 ADD CALLDATALOAD PUSH8 0xFFFFFFFFFFFFFFFF DUP2 GT ISZERO PUSH2 0x42BE JUMPI DUP2 DUP3 REVERT JUMPDEST PUSH2 0x42CA DUP6 DUP3 DUP7 ADD PUSH2 0x3F51 JUMP JUMPDEST SWAP2 POP POP SWAP3 POP SWAP3 SWAP1 POP JUMP JUMPDEST PUSH1 0x0 DUP1 PUSH1 0x40 DUP4 DUP6 SUB SLT ISZERO PUSH2 0x42E6 JUMPI DUP2 DUP3 REVERT JUMPDEST POP POP DUP1 CALLDATALOAD SWAP3 PUSH1 0x20 SWAP1 SWAP2 ADD CALLDATALOAD SWAP2 POP JUMP JUMPDEST PUSH1 0x0 DUP1 PUSH1 0x0 PUSH1 0x60 DUP5 DUP7 SUB SLT ISZERO PUSH2 0x4309 JUMPI DUP3 DUP4 REVERT JUMPDEST POP POP DUP2 CALLDATALOAD SWAP4 PUSH1 0x20 DUP4 ADD CALLDATALOAD SWAP4 POP PUSH1 0x40 SWAP1 SWAP3 ADD CALLDATALOAD SWAP2 SWAP1 POP JUMP JUMPDEST PUSH1 0x0 DUP1 PUSH1 0x40 DUP4 DUP6 SUB SLT ISZERO PUSH2 0x4332 JUMPI DUP2 DUP3 REVERT JUMPDEST DUP3 CALLDATALOAD SWAP2 POP PUSH1 0x20 DUP4 ADD CALLDATALOAD PUSH1 0xFF DUP2 AND DUP2 EQ PUSH2 0x4349 JUMPI DUP2 DUP3 REVERT JUMPDEST DUP1 SWAP2 POP POP SWAP3 POP SWAP3 SWAP1 POP JUMP JUMPDEST PUSH1 0x0 DUP2 MLOAD DUP1 DUP5 MSTORE DUP2 JUMPDEST DUP2 DUP2 LT ISZERO PUSH2 0x4379 JUMPI PUSH1 0x20 DUP2 DUP6 ADD DUP2 ADD MLOAD DUP7 DUP4 ADD DUP3 ADD MSTORE ADD PUSH2 0x435D JUMP JUMPDEST DUP2 DUP2 GT ISZERO PUSH2 0x438A JUMPI DUP3 PUSH1 0x20 DUP4 DUP8 ADD ADD MSTORE JUMPDEST POP PUSH1 0x1F ADD PUSH1 0x1F NOT AND SWAP3 SWAP1 SWAP3 ADD PUSH1 0x20 ADD SWAP3 SWAP2 POP POP JUMP JUMPDEST PUSH1 0x0 PUSH2 0x160 PUSH1 0x1 PUSH1 0x1 PUSH1 0xA0 SHL SUB DUP15 AND DUP4 MSTORE DUP13 PUSH1 0x20 DUP5 ADD MSTORE DUP1 PUSH1 0x40 DUP5 ADD MSTORE PUSH2 0x43C8 DUP2 DUP5 ADD DUP14 PUSH2 0x4354 JUMP JUMPDEST SWAP1 POP DUP3 DUP2 SUB PUSH1 0x60 DUP5 ADD MSTORE PUSH2 0x43DC DUP2 DUP13 PUSH2 0x4354 JUMP JUMPDEST SWAP1 POP DUP3 DUP2 SUB PUSH1 0x80 DUP5 ADD MSTORE PUSH2 0x43F0 DUP2 DUP12 PUSH2 0x4354 JUMP JUMPDEST SWAP1 POP DUP3 DUP2 SUB PUSH1 0xA0 DUP5 ADD MSTORE PUSH2 0x4404 DUP2 DUP11 PUSH2 0x4354 JUMP JUMPDEST PUSH1 0xC0 DUP5 ADD SWAP9 SWAP1 SWAP9 MSTORE POP POP PUSH1 0xE0 DUP2 ADD SWAP5 SWAP1 SWAP5 MSTORE PUSH2 0x100 DUP5 ADD SWAP3 SWAP1 SWAP3 MSTORE ISZERO ISZERO PUSH2 0x120 DUP4 ADD MSTORE PUSH2 0x140 SWAP1 SWAP2 ADD MSTORE SWAP7 SWAP6 POP POP POP POP POP POP JUMP JUMPDEST PUSH1 0x0 PUSH1 0x20 DUP1 DUP4 ADD DUP2 DUP5 MSTORE DUP1 DUP6 MLOAD DUP1 DUP4 MSTORE PUSH1 0x40 SWAP3 POP DUP3 DUP7 ADD SWAP2 POP DUP3 DUP2 PUSH1 0x5 SHL DUP8 ADD ADD DUP5 DUP9 ADD DUP7 JUMPDEST DUP4 DUP2 LT ISZERO PUSH2 0x44C2 JUMPI PUSH1 0x3F NOT DUP10 DUP5 SUB ADD DUP6 MSTORE DUP2 MLOAD PUSH1 0x80 PUSH1 0x1 PUSH1 0x1 PUSH1 0xA0 SHL SUB DUP1 DUP4 MLOAD AND DUP7 MSTORE DUP1 DUP11 DUP5 ADD MLOAD AND DUP11 DUP8 ADD MSTORE POP DUP8 DUP3 ADD MLOAD DUP2 DUP10 DUP8 ADD MSTORE PUSH2 0x44A1 DUP3 DUP8 ADD DUP3 PUSH2 0x4354 JUMP JUMPDEST PUSH1 0x60 SWAP4 DUP5 ADD MLOAD SWAP7 SWAP1 SWAP4 ADD SWAP6 SWAP1 SWAP6 MSTORE POP SWAP5 DUP8 ADD SWAP5 SWAP3 POP SWAP1 DUP7 ADD SWAP1 PUSH1 0x1 ADD PUSH2 0x445E JUMP JUMPDEST POP SWAP1 SWAP9 SWAP8 POP POP POP POP POP POP POP POP JUMP JUMPDEST PUSH1 0x40 DUP2 MSTORE PUSH1 0x0 PUSH2 0x44E3 PUSH1 0x40 DUP4 ADD DUP6 PUSH2 0x4354 JUMP JUMPDEST SWAP1 POP PUSH1 0x1 PUSH1 0x1 PUSH1 0xA0 SHL SUB DUP4 AND PUSH1 0x20 DUP4 ADD MSTORE SWAP4 SWAP3 POP POP POP JUMP JUMPDEST PUSH1 0x60 DUP2 MSTORE PUSH1 0x0 PUSH2 0x450E PUSH1 0x60 DUP4 ADD DUP7 PUSH2 0x4354 JUMP JUMPDEST DUP3 DUP2 SUB PUSH1 0x20 DUP5 ADD MSTORE PUSH2 0x4520 DUP2 DUP7 PUSH2 0x4354 JUMP JUMPDEST SWAP2 POP POP PUSH1 0x1 PUSH1 0x1 PUSH1 0xA0 SHL SUB DUP4 AND PUSH1 0x40 DUP4 ADD MSTORE SWAP5 SWAP4 POP POP POP POP JUMP JUMPDEST PUSH1 0x0 PUSH2 0x100 DUP1 DUP4 MSTORE PUSH2 0x454E DUP2 DUP5 ADD DUP13 PUSH2 0x4354 JUMP JUMPDEST SWAP1 POP DUP3 DUP2 SUB PUSH1 0x20 DUP5 ADD MSTORE PUSH2 0x4562 DUP2 DUP12 PUSH2 0x4354 JUMP JUMPDEST SWAP1 POP DUP3 DUP2 SUB PUSH1 0x40 DUP5 ADD MSTORE PUSH2 0x4576 DUP2 DUP11 PUSH2 0x4354 JUMP JUMPDEST SWAP1 POP DUP8 PUSH1 0x60 DUP5 ADD MSTORE DUP3 DUP2 SUB PUSH1 0x80 DUP5 ADD MSTORE PUSH2 0x4590 DUP2 DUP9 PUSH2 0x4354 JUMP JUMPDEST SWAP1 POP DUP3 DUP2 SUB PUSH1 0xA0 DUP5 ADD MSTORE PUSH2 0x45A4 DUP2 DUP8 PUSH2 0x4354 JUMP JUMPDEST SWAP5 ISZERO ISZERO PUSH1 0xC0 DUP5 ADD MSTORE POP POP SWAP1 ISZERO ISZERO PUSH1 0xE0 SWAP1 SWAP2 ADD MSTORE SWAP7 SWAP6 POP POP POP POP POP POP JUMP JUMPDEST PUSH1 0xE0 DUP2 MSTORE PUSH1 0x0 PUSH2 0x45D4 PUSH1 0xE0 DUP4 ADD DUP11 PUSH2 0x4354 JUMP JUMPDEST DUP3 DUP2 SUB PUSH1 0x20 DUP5 ADD MSTORE PUSH2 0x45E6 DUP2 DUP11 PUSH2 0x4354 JUMP JUMPDEST SWAP1 POP DUP8 PUSH1 0x40 DUP5 ADD MSTORE DUP3 DUP2 SUB PUSH1 0x60 DUP5 ADD MSTORE PUSH2 0x4600 DUP2 DUP9 PUSH2 0x4354 JUMP JUMPDEST SWAP1 POP DUP3 DUP2 SUB PUSH1 0x80 DUP5 ADD MSTORE PUSH2 0x4614 DUP2 DUP8 PUSH2 0x4354 JUMP JUMPDEST SWAP1 POP DUP3 DUP2 SUB PUSH1 0xA0 DUP5 ADD MSTORE PUSH2 0x4628 DUP2 DUP7 PUSH2 0x4354 JUMP JUMPDEST SWAP2 POP POP PUSH1 0x1 PUSH1 0x1 PUSH1 0xA0 SHL SUB DUP4 AND PUSH1 0xC0 DUP4 ADD MSTORE SWAP9 SWAP8 POP POP POP POP POP POP POP POP JUMP JUMPDEST PUSH1 0x0 DUP3 PUSH2 0x4661 JUMPI PUSH4 0x4E487B71 PUSH1 0xE0 SHL DUP2 MSTORE PUSH1 0x12 PUSH1 0x4 MSTORE PUSH1 0x24 DUP2 REVERT JUMPDEST POP DIV SWAP1 JUMP JUMPDEST PUSH1 0x0 DUP2 PUSH1 0x0 NOT DIV DUP4 GT DUP3 ISZERO ISZERO AND ISZERO PUSH2 0x4680 JUMPI PUSH2 0x4680 PUSH2 0x46EC JUMP JUMPDEST POP MUL SWAP1 JUMP JUMPDEST PUSH1 0x0 DUP3 DUP3 LT ISZERO PUSH2 0x4697 JUMPI PUSH2 0x4697 PUSH2 0x46EC JUMP JUMPDEST POP SUB SWAP1 JUMP JUMPDEST PUSH1 0x1 DUP2 DUP2 SHR SWAP1 DUP3 AND DUP1 PUSH2 0x46B0 JUMPI PUSH1 0x7F DUP3 AND SWAP2 POP JUMPDEST PUSH1 0x20 DUP3 LT DUP2 EQ ISZERO PUSH2 0x8A6 JUMPI PUSH4 0x4E487B71 PUSH1 0xE0 SHL PUSH1 0x0 MSTORE PUSH1 0x22 PUSH1 0x4 MSTORE PUSH1 0x24 PUSH1 0x0 REVERT JUMPDEST PUSH1 0x0 PUSH1 0x0 NOT DUP3 EQ ISZERO PUSH2 0x46E5 JUMPI PUSH2 0x46E5 PUSH2 0x46EC JUMP JUMPDEST POP PUSH1 0x1 ADD SWAP1 JUMP JUMPDEST PUSH4 0x4E487B71 PUSH1 0xE0 SHL PUSH1 0x0 MSTORE PUSH1 0x11 PUSH1 0x4 MSTORE PUSH1 0x24 PUSH1 0x0 REVERT JUMPDEST PUSH4 0x4E487B71 PUSH1 0xE0 SHL PUSH1 0x0 MSTORE PUSH1 0x41 PUSH1 0x4 MSTORE PUSH1 0x24 PUSH1 0x0 REVERT INVALID LOG2 PUSH5 0x6970667358 0x22 SLT KECCAK256 PUSH12 0xEDE0304B97408F7DBFB21254 0xD7 0xB3 0xD9 0x2F 0xB5 POP 0xB5 PC ORIGIN MOD PUSH29 0x9E6254426FD7545B64736F6C6343000804003300000000000000000000 "
        },
        "methodIdentifiers": {
          "AcceptJob(uint256)": "8e4ca94d",
          "CheckIsCompany()": "ccef46f3",
          "CheckIsPerson()": "311de8f9",
          "CheckPersonApplied(uint256)": "d83f6e70",
          "CheckPersonHired(uint256)": "f2fd3e4a",
          "CloseAndPay(uint256)": "6c4d0984",
          "CloseRequest(uint256)": "24c12f56",
          "CloseSearching(uint256)": "0b216438",
          "CreateJob(string,string,string,string,uint256,uint256,uint256,uint256,uint256)": "c301a7a2",
          "CreateRequest(address,uint256,uint256,uint256,uint256,string)": "863f671f",
          "GetCompaniesCounter()": "1b161115",
          "GetPersonsCounter()": "daf5223f",
          "RegisterAsCompany(string,string,string)": "117a81ea",
          "RegisterAsPerson(string,string,uint256,string,string,string)": "7d2fa512",
          "RequestHire(uint256,uint256)": "13017669",
          "SendMessage(uint256,string)": "783485fc",
          "SetAbsentHours(uint256,uint256,uint256)": "65f36692",
          "SetAnswer(uint256,uint8)": "a8404e3f",
          "ShowAbsentHoursCandidate(uint256,uint256)": "3b2aec48",
          "ShowCloseJob(uint256)": "5386903f",
          "ShowCompanyJobID(uint256)": "05de6b48",
          "ShowCompanyJobsCounter()": "b524628f",
          "ShowCounterRequests()": "8a0b6153",
          "ShowCounterRequestsCompany()": "0ca0ef74",
          "ShowCounterRequestsPerson()": "748ff7ad",
          "ShowHired(uint256)": "1eca0d2e",
          "ShowIDRequestCompany(uint256)": "bda3ce94",
          "ShowIDRequestPerson(uint256)": "72b6e521",
          "ShowIfHireQuestion(uint256)": "d53f9b9b",
          "ShowIfHired(uint256)": "650efe00",
          "ShowJobCandidate(uint256,uint256)": "ad2a79f8",
          "ShowJobCandidatesCounter(uint256)": "f8a5ef0b",
          "ShowJobSummary(uint256)": "ef799661",
          "ShowJobsCounter()": "a0933fbc",
          "ShowMessages(uint256)": "7c1a2433",
          "ShowPerson(uint256)": "16814b9d",
          "ShowRequest(uint256)": "7a41bdc5",
          "appliedJobsCounter()": "5e0ced5c",
          "applyToJob(uint256)": "8e1a32d0",
          "showAppliedJob(uint256)": "be077e7a"
        }
      }
    }
  }
}