{
  "_format": "hh-sol-artifact-1",
  "contractName": "LastMinuteJob",
  "sourceName": "contracts/LastMinuteJob.sol",
  "abi": [
    {
      "anonymous": false,
      "inputs": [
        {
          "indexed": false,
          "internalType": "uint256",
          "name": "",
          "type": "uint256"
        }
      ],
      "name": "ev_CloseJob",
      "type": "event"
    },
    {
      "anonymous": false,
      "inputs": [
        {
          "indexed": false,
          "internalType": "uint256",
          "name": "",
          "type": "uint256"
        },
        {
          "indexed": false,
          "internalType": "uint256",
          "name": "",
          "type": "uint256"
        }
      ],
      "name": "ev_CloseRequest",
      "type": "event"
    },
    {
      "anonymous": false,
      "inputs": [
        {
          "indexed": false,
          "internalType": "uint256",
          "name": "",
          "type": "uint256"
        }
      ],
      "name": "ev_ClosedSearch",
      "type": "event"
    },
    {
      "anonymous": false,
      "inputs": [
        {
          "indexed": false,
          "internalType": "address",
          "name": "",
          "type": "address"
        },
        {
          "indexed": false,
          "internalType": "uint256",
          "name": "",
          "type": "uint256"
        }
      ],
      "name": "ev_CreateJob",
      "type": "event"
    },
    {
      "anonymous": false,
      "inputs": [
        {
          "indexed": false,
          "internalType": "address",
          "name": "",
          "type": "address"
        },
        {
          "indexed": false,
          "internalType": "address",
          "name": "",
          "type": "address"
        }
      ],
      "name": "ev_CreateRequest",
      "type": "event"
    },
    {
      "anonymous": false,
      "inputs": [
        {
          "indexed": false,
          "internalType": "uint256",
          "name": "",
          "type": "uint256"
        },
        {
          "indexed": false,
          "internalType": "address",
          "name": "",
          "type": "address"
        }
      ],
      "name": "ev_Hired",
      "type": "event"
    },
    {
      "anonymous": false,
      "inputs": [
        {
          "indexed": false,
          "internalType": "address",
          "name": "",
          "type": "address"
        },
        {
          "indexed": false,
          "internalType": "uint256",
          "name": "",
          "type": "uint256"
        }
      ],
      "name": "ev_Pay",
      "type": "event"
    },
    {
      "anonymous": false,
      "inputs": [
        {
          "indexed": false,
          "internalType": "string",
          "name": "",
          "type": "string"
        },
        {
          "indexed": false,
          "internalType": "address",
          "name": "",
          "type": "address"
        }
      ],
      "name": "ev_RegisterAsCompany",
      "type": "event"
    },
    {
      "anonymous": false,
      "inputs": [
        {
          "indexed": false,
          "internalType": "string",
          "name": "",
          "type": "string"
        },
        {
          "indexed": false,
          "internalType": "string",
          "name": "",
          "type": "string"
        },
        {
          "indexed": false,
          "internalType": "address",
          "name": "",
          "type": "address"
        }
      ],
      "name": "ev_RegisterAsPerson",
      "type": "event"
    },
    {
      "anonymous": false,
      "inputs": [
        {
          "indexed": false,
          "internalType": "address",
          "name": "",
          "type": "address"
        },
        {
          "indexed": false,
          "internalType": "address",
          "name": "",
          "type": "address"
        }
      ],
      "name": "ev_SendMessage",
      "type": "event"
    },
    {
      "inputs": [
        {
          "internalType": "uint256",
          "name": "_nrJob",
          "type": "uint256"
        }
      ],
      "name": "AcceptJob",
      "outputs": [],
      "stateMutability": "nonpayable",
      "type": "function"
    },
    {
      "inputs": [],
      "name": "CheckIsCompany",
      "outputs": [
        {
          "internalType": "bool",
          "name": "",
          "type": "bool"
        }
      ],
      "stateMutability": "view",
      "type": "function"
    },
    {
      "inputs": [],
      "name": "CheckIsPerson",
      "outputs": [
        {
          "internalType": "bool",
          "name": "",
          "type": "bool"
        }
      ],
      "stateMutability": "view",
      "type": "function"
    },
    {
      "inputs": [
        {
          "internalType": "uint256",
          "name": "_nrJob",
          "type": "uint256"
        }
      ],
      "name": "CheckPersonApplied",
      "outputs": [
        {
          "internalType": "bool",
          "name": "",
          "type": "bool"
        }
      ],
      "stateMutability": "view",
      "type": "function"
    },
    {
      "inputs": [
        {
          "internalType": "uint256",
          "name": "_nrJob",
          "type": "uint256"
        }
      ],
      "name": "CheckPersonHired",
      "outputs": [
        {
          "internalType": "bool",
          "name": "",
          "type": "bool"
        }
      ],
      "stateMutability": "view",
      "type": "function"
    },
    {
      "inputs": [
        {
          "internalType": "uint256",
          "name": "_nrJob",
          "type": "uint256"
        }
      ],
      "name": "CloseAndPay",
      "outputs": [],
      "stateMutability": "nonpayable",
      "type": "function"
    },
    {
      "inputs": [
        {
          "internalType": "uint256",
          "name": "_nRequest",
          "type": "uint256"
        }
      ],
      "name": "CloseRequest",
      "outputs": [],
      "stateMutability": "nonpayable",
      "type": "function"
    },
    {
      "inputs": [
        {
          "internalType": "uint256",
          "name": "_nrJob",
          "type": "uint256"
        }
      ],
      "name": "CloseSearching",
      "outputs": [],
      "stateMutability": "nonpayable",
      "type": "function"
    },
    {
      "inputs": [
        {
          "internalType": "string",
          "name": "_title",
          "type": "string"
        },
        {
          "internalType": "string",
          "name": "_description",
          "type": "string"
        },
        {
          "internalType": "string",
          "name": "_workingAddress",
          "type": "string"
        },
        {
          "internalType": "string",
          "name": "_searchingPosition",
          "type": "string"
        },
        {
          "internalType": "uint256",
          "name": "_hourInit",
          "type": "uint256"
        },
        {
          "internalType": "uint256",
          "name": "_hourFinish",
          "type": "uint256"
        },
        {
          "internalType": "uint256",
          "name": "_peopleToHire",
          "type": "uint256"
        },
        {
          "internalType": "uint256",
          "name": "_dateFrom",
          "type": "uint256"
        },
        {
          "internalType": "uint256",
          "name": "_dateTo",
          "type": "uint256"
        }
      ],
      "name": "CreateJob",
      "outputs": [],
      "stateMutability": "payable",
      "type": "function"
    },
    {
      "inputs": [
        {
          "internalType": "address",
          "name": "_destination",
          "type": "address"
        },
        {
          "internalType": "uint256",
          "name": "_dateFrom",
          "type": "uint256"
        },
        {
          "internalType": "uint256",
          "name": "_dateTo",
          "type": "uint256"
        },
        {
          "internalType": "uint256",
          "name": "_hourStart",
          "type": "uint256"
        },
        {
          "internalType": "uint256",
          "name": "_hourFinish",
          "type": "uint256"
        },
        {
          "internalType": "string",
          "name": "_message",
          "type": "string"
        }
      ],
      "name": "CreateRequest",
      "outputs": [],
      "stateMutability": "payable",
      "type": "function"
    },
    {
      "inputs": [],
      "name": "GetCompaniesCounter",
      "outputs": [
        {
          "internalType": "uint256",
          "name": "",
          "type": "uint256"
        }
      ],
      "stateMutability": "view",
      "type": "function"
    },
    {
      "inputs": [],
      "name": "GetPersonsCounter",
      "outputs": [
        {
          "internalType": "uint256",
          "name": "",
          "type": "uint256"
        }
      ],
      "stateMutability": "view",
      "type": "function"
    },
    {
      "inputs": [
        {
          "internalType": "string",
          "name": "_name",
          "type": "string"
        },
        {
          "internalType": "string",
          "name": "_description",
          "type": "string"
        },
        {
          "internalType": "string",
          "name": "_address",
          "type": "string"
        }
      ],
      "name": "RegisterAsCompany",
      "outputs": [],
      "stateMutability": "nonpayable",
      "type": "function"
    },
    {
      "inputs": [
        {
          "internalType": "string",
          "name": "_name",
          "type": "string"
        },
        {
          "internalType": "string",
          "name": "_surname",
          "type": "string"
        },
        {
          "internalType": "uint256",
          "name": "_age",
          "type": "uint256"
        },
        {
          "internalType": "string",
          "name": "_mobilePhone",
          "type": "string"
        },
        {
          "internalType": "string",
          "name": "_CV",
          "type": "string"
        },
        {
          "internalType": "string",
          "name": "_coverLetter",
          "type": "string"
        }
      ],
      "name": "RegisterAsPerson",
      "outputs": [],
      "stateMutability": "nonpayable",
      "type": "function"
    },
    {
      "inputs": [
        {
          "internalType": "uint256",
          "name": "_nrCompanyJob",
          "type": "uint256"
        },
        {
          "internalType": "uint256",
          "name": "_nrCandidate",
          "type": "uint256"
        }
      ],
      "name": "RequestHire",
      "outputs": [],
      "stateMutability": "nonpayable",
      "type": "function"
    },
    {
      "inputs": [
        {
          "internalType": "uint256",
          "name": "_nRequest",
          "type": "uint256"
        },
        {
          "internalType": "string",
          "name": "_message",
          "type": "string"
        }
      ],
      "name": "SendMessage",
      "outputs": [],
      "stateMutability": "nonpayable",
      "type": "function"
    },
    {
      "inputs": [
        {
          "internalType": "uint256",
          "name": "_nrJob",
          "type": "uint256"
        },
        {
          "internalType": "uint256",
          "name": "_nrCandidate",
          "type": "uint256"
        },
        {
          "internalType": "uint256",
          "name": "_absentHours",
          "type": "uint256"
        }
      ],
      "name": "SetAbsentHours",
      "outputs": [],
      "stateMutability": "nonpayable",
      "type": "function"
    },
    {
      "inputs": [
        {
          "internalType": "uint256",
          "name": "_nRequest",
          "type": "uint256"
        },
        {
          "internalType": "uint8",
          "name": "_status",
          "type": "uint8"
        }
      ],
      "name": "SetAnswer",
      "outputs": [],
      "stateMutability": "nonpayable",
      "type": "function"
    },
    {
      "inputs": [
        {
          "internalType": "uint256",
          "name": "_nrJob",
          "type": "uint256"
        }
      ],
      "name": "ShowCloseJob",
      "outputs": [
        {
          "internalType": "bool",
          "name": "",
          "type": "bool"
        }
      ],
      "stateMutability": "view",
      "type": "function"
    },
    {
      "inputs": [
        {
          "internalType": "uint256",
          "name": "_nrJob",
          "type": "uint256"
        }
      ],
      "name": "ShowCompanyJobID",
      "outputs": [
        {
          "internalType": "uint256",
          "name": "",
          "type": "uint256"
        }
      ],
      "stateMutability": "view",
      "type": "function"
    },
    {
      "inputs": [],
      "name": "ShowCompanyJobsCounter",
      "outputs": [
        {
          "internalType": "uint256",
          "name": "",
          "type": "uint256"
        }
      ],
      "stateMutability": "view",
      "type": "function"
    },
    {
      "inputs": [],
      "name": "ShowCounterRequests",
      "outputs": [
        {
          "internalType": "uint256",
          "name": "",
          "type": "uint256"
        }
      ],
      "stateMutability": "view",
      "type": "function"
    },
    {
      "inputs": [],
      "name": "ShowCounterRequestsCompany",
      "outputs": [
        {
          "internalType": "uint256",
          "name": "",
          "type": "uint256"
        }
      ],
      "stateMutability": "view",
      "type": "function"
    },
    {
      "inputs": [],
      "name": "ShowCounterRequestsPerson",
      "outputs": [
        {
          "internalType": "uint256",
          "name": "",
          "type": "uint256"
        }
      ],
      "stateMutability": "view",
      "type": "function"
    },
    {
      "inputs": [
        {
          "internalType": "uint256",
          "name": "_nrJob",
          "type": "uint256"
        }
      ],
      "name": "ShowHired",
      "outputs": [
        {
          "internalType": "uint256",
          "name": "",
          "type": "uint256"
        }
      ],
      "stateMutability": "view",
      "type": "function"
    },
    {
      "inputs": [
        {
          "internalType": "uint256",
          "name": "_jobApplied",
          "type": "uint256"
        }
      ],
      "name": "ShowIfHireQuestion",
      "outputs": [
        {
          "internalType": "bool",
          "name": "",
          "type": "bool"
        }
      ],
      "stateMutability": "view",
      "type": "function"
    },
    {
      "inputs": [
        {
          "internalType": "uint256",
          "name": "_jobApplied",
          "type": "uint256"
        }
      ],
      "name": "ShowIfHired",
      "outputs": [
        {
          "internalType": "bool",
          "name": "",
          "type": "bool"
        }
      ],
      "stateMutability": "view",
      "type": "function"
    },
    {
      "inputs": [
        {
          "internalType": "uint256",
          "name": "_nrJob",
          "type": "uint256"
        },
        {
          "internalType": "uint256",
          "name": "_nrCandidate",
          "type": "uint256"
        }
      ],
      "name": "ShowJobCandidate",
      "outputs": [
        {
          "internalType": "string",
          "name": "",
          "type": "string"
        },
        {
          "internalType": "string",
          "name": "",
          "type": "string"
        },
        {
          "internalType": "string",
          "name": "",
          "type": "string"
        },
        {
          "internalType": "uint256",
          "name": "",
          "type": "uint256"
        },
        {
          "internalType": "string",
          "name": "",
          "type": "string"
        },
        {
          "internalType": "string",
          "name": "",
          "type": "string"
        },
        {
          "internalType": "bool",
          "name": "",
          "type": "bool"
        },
        {
          "internalType": "bool",
          "name": "",
          "type": "bool"
        }
      ],
      "stateMutability": "view",
      "type": "function"
    },
    {
      "inputs": [
        {
          "internalType": "uint256",
          "name": "_nrJob",
          "type": "uint256"
        }
      ],
      "name": "ShowJobCandidatesCounter",
      "outputs": [
        {
          "internalType": "uint256",
          "name": "",
          "type": "uint256"
        }
      ],
      "stateMutability": "view",
      "type": "function"
    },
    {
      "inputs": [
        {
          "internalType": "uint256",
          "name": "_nrJob",
          "type": "uint256"
        }
      ],
      "name": "ShowJobSummary",
      "outputs": [
        {
          "internalType": "address",
          "name": "",
          "type": "address"
        },
        {
          "internalType": "uint256",
          "name": "",
          "type": "uint256"
        },
        {
          "internalType": "string",
          "name": "",
          "type": "string"
        },
        {
          "internalType": "string",
          "name": "",
          "type": "string"
        },
        {
          "internalType": "string",
          "name": "",
          "type": "string"
        },
        {
          "internalType": "string",
          "name": "",
          "type": "string"
        },
        {
          "internalType": "uint256",
          "name": "",
          "type": "uint256"
        },
        {
          "internalType": "uint256",
          "name": "",
          "type": "uint256"
        },
        {
          "internalType": "uint256",
          "name": "",
          "type": "uint256"
        },
        {
          "internalType": "bool",
          "name": "",
          "type": "bool"
        },
        {
          "internalType": "uint256",
          "name": "",
          "type": "uint256"
        }
      ],
      "stateMutability": "view",
      "type": "function"
    },
    {
      "inputs": [],
      "name": "ShowJobsCounter",
      "outputs": [
        {
          "internalType": "uint256",
          "name": "",
          "type": "uint256"
        }
      ],
      "stateMutability": "view",
      "type": "function"
    },
    {
      "inputs": [
        {
          "internalType": "uint256",
          "name": "_nRequest",
          "type": "uint256"
        }
      ],
      "name": "ShowMessages",
      "outputs": [
        {
          "components": [
            {
              "internalType": "address",
              "name": "owner",
              "type": "address"
            },
            {
              "internalType": "address",
              "name": "destination",
              "type": "address"
            },
            {
              "internalType": "string",
              "name": "message",
              "type": "string"
            },
            {
              "internalType": "uint256",
              "name": "datetime",
              "type": "uint256"
            }
          ],
          "internalType": "struct LastMinuteJob.Message[]",
          "name": "",
          "type": "tuple[]"
        }
      ],
      "stateMutability": "view",
      "type": "function"
    },
    {
      "inputs": [
        {
          "internalType": "uint256",
          "name": "_nrRequest",
          "type": "uint256"
        }
      ],
      "name": "ShowRequest",
      "outputs": [
        {
          "internalType": "address",
          "name": "",
          "type": "address"
        },
        {
          "internalType": "address",
          "name": "",
          "type": "address"
        },
        {
          "internalType": "uint256",
          "name": "",
          "type": "uint256"
        },
        {
          "internalType": "uint256",
          "name": "",
          "type": "uint256"
        },
        {
          "internalType": "uint256",
          "name": "",
          "type": "uint256"
        },
        {
          "internalType": "uint256",
          "name": "",
          "type": "uint256"
        },
        {
          "internalType": "uint256",
          "name": "",
          "type": "uint256"
        },
        {
          "internalType": "uint8",
          "name": "",
          "type": "uint8"
        },
        {
          "internalType": "bool",
          "name": "",
          "type": "bool"
        }
      ],
      "stateMutability": "view",
      "type": "function"
    },
    {
      "inputs": [],
      "name": "appliedJobsCounter",
      "outputs": [
        {
          "internalType": "uint256",
          "name": "",
          "type": "uint256"
        }
      ],
      "stateMutability": "view",
      "type": "function"
    },
    {
      "inputs": [
        {
          "internalType": "uint256",
          "name": "_nrJob",
          "type": "uint256"
        }
      ],
      "name": "applyToJob",
      "outputs": [],
      "stateMutability": "nonpayable",
      "type": "function"
    },
    {
      "inputs": [
        {
          "internalType": "uint256",
          "name": "_nrAppliedJob",
          "type": "uint256"
        }
      ],
      "name": "showAppliedJob",
      "outputs": [
        {
          "internalType": "uint256",
          "name": "",
          "type": "uint256"
        }
      ],
      "stateMutability": "view",
      "type": "function"
    }
  ],
  "bytecode": "0x608060405234801561001057600080fd5b506001600055614097806100256000396000f3fe60806040526004361061024f5760003560e01c80637d2fa51211610138578063be077e7a116100b0578063d83f6e701161007f578063ef79966111610064578063ef799661146106c2578063f2fd3e4a146106f9578063f8a5ef0b1461071957600080fd5b8063d83f6e701461068d578063daf5223f146106ad57600080fd5b8063be077e7a14610615578063c301a7a214610635578063ccef46f314610648578063d53f9b9b1461066d57600080fd5b80638e4ca94d11610107578063a8404e3f116100ec578063a8404e3f146105ac578063ad2a79f8146105cc578063b524628f1461060057600080fd5b80638e4ca94d14610577578063a0933fbc1461059757600080fd5b80637d2fa5121461050f578063863f671f1461052f5780638a0b6153146105425780638e1a32d01461055757600080fd5b80635386903f116101cb5780636c4d09841161019a578063783485fc1161017f578063783485fc1461044e5780637a41bdc51461046e5780637c1a2433146104e257600080fd5b80636c4d098414610409578063748ff7ad1461042957600080fd5b80635386903f146103945780635e0ced5c146103b4578063650efe00146103c957806365f36692146103e957600080fd5b806313017669116102225780631eca0d2e116102075780631eca0d2e1461032357806324c12f5614610343578063311de8f91461036357600080fd5b806313017669146102ee5780631b1611151461030e57600080fd5b806305de6b48146102545780630b216438146102875780630ca0ef74146102a9578063117a81ea146102ce575b600080fd5b34801561026057600080fd5b5061027461026f366004613c45565b610739565b6040519081526020015b60405180910390f35b34801561029357600080fd5b506102a76102a2366004613c45565b6107ad565b005b3480156102b557600080fd5b5033600090815260016020526040902060070154610274565b3480156102da57600080fd5b506102a76102e9366004613a24565b6108a6565b3480156102fa57600080fd5b506102a7610309366004613ca2565b6109f7565b34801561031a57600080fd5b50600354610274565b34801561032f57600080fd5b5061027461033e366004613c45565b610ada565b34801561034f57600080fd5b506102a761035e366004613c45565b610b39565b34801561036f57600080fd5b503360009081526004602052604090205460ff165b604051901515815260200161027e565b3480156103a057600080fd5b506103846103af366004613c45565b6110bc565b3480156103c057600080fd5b50610274611123565b3480156103d557600080fd5b506103846103e4366004613c45565b611156565b3480156103f557600080fd5b506102a7610404366004613cc3565b6111f3565b34801561041557600080fd5b506102a7610424366004613c45565b61146d565b34801561043557600080fd5b50336000908152600460205260409020600a0154610274565b34801561045a57600080fd5b506102a7610469366004613c5d565b611bc0565b34801561047a57600080fd5b5061048e610489366004613c45565b611d7c565b604080516001600160a01b039a8b1681529990981660208a0152968801959095526060870193909352608086019190915260a085015260c084015260ff1660e083015215156101008201526101200161027e565b3480156104ee57600080fd5b506105026104fd366004613c45565b611f0c565b60405161027e9190613e06565b34801561051b57600080fd5b506102a761052a366004613b7e565b6120ce565b6102a761053d3660046139a6565b61227b565b34801561054e57600080fd5b50600a54610274565b34801561056357600080fd5b506102a7610572366004613c45565b612595565b34801561058357600080fd5b506102a7610592366004613c45565b6127a9565b3480156105a357600080fd5b50600854610274565b3480156105b857600080fd5b506102a76105c7366004613cee565b61295f565b3480156105d857600080fd5b506105ec6105e7366004613ca2565b612a27565b60405161027e989796959493929190613f08565b34801561060c57600080fd5b50610274612e83565b34801561062157600080fd5b50610274610630366004613c45565b612ee8565b6102a7610643366004613aa8565b612f87565b34801561065457600080fd5b503360009081526001602052604090205460ff16610384565b34801561067957600080fd5b50610384610688366004613c45565b6132bd565b34801561069957600080fd5b506103846106a8366004613c45565b613355565b3480156106b957600080fd5b50600654610274565b3480156106ce57600080fd5b506106e26106dd366004613c45565b61340a565b60405161027e9b9a99989796959493929190613d6d565b34801561070557600080fd5b50610384610714366004613c45565b61370f565b34801561072557600080fd5b50610274610734366004613c45565b6137ac565b60008160085481106107865760405162461bcd60e51b8152602060048201526011602482015270151a19481a9bd8881b9bdd08195e1a5cdd607a1b60448201526064015b60405180910390fd5b33600090815260016020908152604080832086845260040190915290205491505b50919050565b8060085481106107f35760405162461bcd60e51b8152602060048201526011602482015270151a19481a9bd8881b9bdd08195e1a5cdd607a1b604482015260640161077d565b60008281526007602052604090205482906001600160a01b031633146108525760405162461bcd60e51b81526020600482015260146024820152732cb7ba93b932903737ba103a34329037bbb732b960611b604482015260640161077d565b600083815260076020908152604091829020600c8101805460ff1916905591518581527f156d298e3230eef448bd5231631a15a00a31d76ee7cc580888b12e660d3c4519910160405180910390a150505050565b3360009081526001602052604090205460ff16156109065760405162461bcd60e51b815260206004820152601960248201527f596f7527726520616c7265616479207265676973746572642100000000000000604482015260640161077d565b336000908152600160208181526040909220805460ff19168217815585516109369391909201919086019061380b565b50336000908152600160209081526040909120835161095d9260029092019185019061380b565b5033600090815260016020908152604090912082516109849260039092019184019061380b565b5060038054600090815260026020526040812080546001600160a01b03191633179055815491906109b48361401a565b91905055507fc7ce3fb6fc45f140ade3c39c738b15b325a6682e6862a6f0cb720b08bfc922cc83336040516109ea929190613e9e565b60405180910390a1505050565b33600090815260016020526040902060058101548310610a495760405162461bcd60e51b815260206004820152600d60248201526c129bd8881b9bdd08199bdd5b99609a1b604482015260640161077d565b600083815260048201602090815260408083205483526007909152902060118101548310610ab95760405162461bcd60e51b815260206004820152601360248201527f43616e646974617465206e6f7420666f756e6400000000000000000000000000604482015260640161077d565b60009283526010016020525060409020600801805460ff1916600117905550565b6000816008548110610b225760405162461bcd60e51b8152602060048201526011602482015270151a19481a9bd8881b9bdd08195e1a5cdd607a1b604482015260640161077d565b50506000908152600760205260409020600e015490565b80600a548110610b4857600080fd5b60026000541415610b9b5760405162461bcd60e51b815260206004820152601f60248201527f5265656e7472616e637947756172643a207265656e7472616e742063616c6c00604482015260640161077d565b600260009081558281526009602052604090206008810154610100900460ff16610bc457600080fd5b80546001600160a01b03163314610bda57600080fd5b600881015460ff1660021415611063576000603c82600501548360060154610c029190613fce565b610c0c9190613f8f565b905060006018603c8085600201548660030154610c299190613fce565b610c339190613f8f565b610c3d9190613f8f565b610c479190613f8f565b9050600082828560040154610c5c9190613f8f565b610c669190613f8f565b6008805460009081526007602081815260408084208a5481546001600160a01b0319166001600160a01b039091161781556004808c01546001808401919091556005808e01546006808601919091558e0154968401969096558288018190556009830189905560028d0154600a84015560038d0154600b840155600c8301805461ffff191682179055600e8301879055601183018790553387528452828620965494870180548752908701909352908420929092558054949550909391610d2c8361401a565b90915550506001808701546001600160a01b0316600090815260046020908152604080832060118701548452601087019092529091209181018054919291829190610d7690613fe5565b610d8192919061388f565b508160020181600101908054610d9690613fe5565b610da192919061388f565b5060018801546002820180546001600160a01b0319166001600160a01b03909216919091179055600482018054600383019190610ddd90613fe5565b610de892919061388f565b50600382015460048201556005808301805491830191610e0790613fe5565b610e1292919061388f565b508160060181600601908054610e2790613fe5565b610e3292919061388f565b50600060078201819055601185015460018a01546001600160a01b03168252600f8601602090815260408084208390559183526010870190529020815482919081908390610e7f90613fe5565b610e8a92919061388f565b506001820181600101908054610e9f90613fe5565b610eaa92919061388f565b5060028281015490820180546001600160a01b0319166001600160a01b039092169190911790556003808301805491830191610ee590613fe5565b610ef092919061388f565b50600482015481600401556005820181600501908054610f0f90613fe5565b610f1a92919061388f565b506006820181600601908054610f2f90613fe5565b610f3a92919061388f565b50600782810154908201556008918201805492909101805460ff938416151560ff19821681178355925461010090819004909416151590930261ff001990921661ffff1990931692909217179055601184018054906000610f9a8361401a565b90915550506002810154600e850180546000908152600d87016020526040812080546001600160a01b0319166001600160a01b039094169390931790925560088301805461ff001916610100179055805491610ff58361401a565b909155505060088054908301805460009081526007850160205260408120929092558054916110238361401a565b9091555050600c8401805460ff19169055600880549060006110448361401a565b90915550505060088701805461ff001916905550611071945050505050565b60088101805461ff00191690555b60088101546040805185815260ff90921660208301527f5b35f771d9f644c0f2050975bea8e2fbc8b54a867818d17d83983f4538dcaeb3910160405180910390a15050600160005550565b60008160085481106111045760405162461bcd60e51b8152602060048201526011602482015270151a19481a9bd8881b9bdd08195e1a5cdd607a1b604482015260640161077d565b50506000908152600760205260409020600c0154610100900460ff1690565b3360009081526004602052604081205460ff1661113f57600080fd5b503360009081526004602052604090206008015490565b336000908152600460205260408120600881015483106111a85760405162461bcd60e51b815260206004820152600d60248201526c129bd8881b9bdd08199bdd5b99609a1b604482015260640161077d565b6008818101546000908152600792830160209081526040808320548352938152838220338352600f810182528483205483526010019052919091200154610100900460ff1692915050565b8260085481106112395760405162461bcd60e51b8152602060048201526011602482015270151a19481a9bd8881b9bdd08195e1a5cdd607a1b604482015260640161077d565b60008481526007602052604090205484906001600160a01b031633146112985760405162461bcd60e51b81526020600482015260146024820152732cb7ba93b932903737ba103a34329037bbb732b960611b604482015260640161077d565b600083116112a557600080fd5b6000858152600760205260409020601181015485106113065760405162461bcd60e51b815260206004820152601360248201527f43616e646964617465206e6f7420666f756e6400000000000000000000000000604482015260640161077d565b6000858152601082016020526040902060080154610100900460ff1661136e5760405162461bcd60e51b815260206004820152601560248201527f43616e6469646174652069736e27742068697265640000000000000000000000604482015260640161077d565b6000603c826006015483600701546113869190613fce565b6113909190613f8f565b905060006018603c8085600a015486600b01546113ad9190613fce565b6113b79190613f8f565b6113c19190613f8f565b6113cb9190613f8f565b905060006113d98284613faf565b9050808711156114515760405162461bcd60e51b815260206004820152602860248201527f596f752063616e277420616464206d6f726520686f757273207468616e20746860448201527f6520746f74616c21000000000000000000000000000000000000000000000000606482015260840161077d565b5050506000948552601001602052505060409091206007015550565b8060085481106114b35760405162461bcd60e51b8152602060048201526011602482015270151a19481a9bd8881b9bdd08195e1a5cdd607a1b604482015260640161077d565b60008281526007602052604090205482906001600160a01b031633146115125760405162461bcd60e51b81526020600482015260146024820152732cb7ba93b932903737ba103a34329037bbb732b960611b604482015260640161077d565b6000838152600760205260409020600c0154839060ff161561159c5760405162461bcd60e51b815260206004820152603060248201527f546865206a6f6220697320736561726368696e672063616e646964617465732060448201527f796f752063616e277420636c6f73652100000000000000000000000000000000606482015260840161077d565b6000848152600760205260409020600c01548490610100900460ff16156116055760405162461bcd60e51b815260206004820152601860248201527f546865206a6f6220697320616c726561647920656e6465640000000000000000604482015260640161077d565b600260005414156116585760405162461bcd60e51b815260206004820152601f60248201527f5265656e7472616e637947756172643a207265656e7472616e742063616c6c00604482015260640161077d565b600260009081558581526007602081905260408220600c8101805461ff001916610100179055600681015491810154909291603c916116979190613fce565b6116a19190613f8f565b905060006018603c8085600a015486600b01546116be9190613fce565b6116c89190613f8f565b6116d29190613f8f565b6116dc9190613f8f565b905060005b83600e0154811015611b34576000818152600d850160209081526040808320546001600160a01b03168352600f8701825280832054808452601088019092528083208151610140810190925280549293928290829061173f90613fe5565b80601f016020809104026020016040519081016040528092919081815260200182805461176b90613fe5565b80156117b85780601f1061178d576101008083540402835291602001916117b8565b820191906000526020600020905b81548152906001019060200180831161179b57829003601f168201915b505050505081526020016001820180546117d190613fe5565b80601f01602080910402602001604051908101604052809291908181526020018280546117fd90613fe5565b801561184a5780601f1061181f5761010080835404028352916020019161184a565b820191906000526020600020905b81548152906001019060200180831161182d57829003601f168201915b505050918352505060028201546001600160a01b0316602082015260038201805460409092019161187a90613fe5565b80601f01602080910402602001604051908101604052809291908181526020018280546118a690613fe5565b80156118f35780601f106118c8576101008083540402835291602001916118f3565b820191906000526020600020905b8154815290600101906020018083116118d657829003601f168201915b505050505081526020016004820154815260200160058201805461191690613fe5565b80601f016020809104026020016040519081016040528092919081815260200182805461194290613fe5565b801561198f5780601f106119645761010080835404028352916020019161198f565b820191906000526020600020905b81548152906001019060200180831161197257829003601f168201915b505050505081526020016006820180546119a890613fe5565b80601f01602080910402602001604051908101604052809291908181526020018280546119d490613fe5565b8015611a215780601f106119f657610100808354040283529160200191611a21565b820191906000526020600020905b815481529060010190602001808311611a0457829003601f168201915b50505091835250506007820154602082015260089091015460ff8082161515604084015261010090910416151560609091015260e0810151909150600090611a698688613faf565b611a739190613fce565b8760090154611a829190613faf565b905081604001516001600160a01b03166108fc829081150290604051600060405180830381858888f19350505050158015611ac1573d6000803e3d6000fd5b50808760010154611ad29190613fce565b600188015560408281015181516001600160a01b039091168152602081018390527fecf0692d4cedbdf4decc633271b8b1b4d257953fdca5cba30e444495ede0f31c910160405180910390a15050508080611b2c9061401a565b9150506116e1565b50600183015415611b7e57825460018401546040516001600160a01b039092169181156108fc0291906000818181858888f19350505050158015611b7c573d6000803e3d6000fd5b505b6040518881527fca41b15f743cd506e877a65737b7072363d1ea62b57636bb94622e337a4c2add9060200160405180910390a150506001600055505050505050565b60008281526009602052604090206008810154610100900460ff16611be457600080fd5b60018101546001600160a01b0316331480611c08575080546001600160a01b031633145b611c655760405162461bcd60e51b815260206004820152602860248201527f596f75277265206e6f74207468652064657374696e6174696f6e206f7220746860448201526765206f776e65722160c01b606482015260840161077d565b60018101546000906001600160a01b0316331415611c8e575080546001600160a01b0316611c9e565b5060018101546001600160a01b03165b604080516080810182523381526001600160a01b03838116602080840191825293830187815242606085015260078701805460018181018355600092835291879020865160049092020180549186166001600160a01b031992831617815593519184018054929095169116179092559051805192938493611d25926002850192019061380b565b5060609190910151600390910155604080513381526001600160a01b03841660208201527fd8b299e59f769a419bee2384c79e5dc491a05f9533388b3376d9848981da81b691015b60405180910390a15050505050565b6000806000806000806000806000600a548a10611ddb5760405162461bcd60e51b815260206004820152601960248201527f546865207265717565737420646f65736e277420657869737400000000000000604482015260640161077d565b60008a815260096020526040902080546001600160a01b0316331480611e0d575060018101546001600160a01b031633145b611e7f5760405162461bcd60e51b815260206004820152602660248201527f596f75277265206e6f7420616c6c6f77656420746f207265616420746865207260448201527f6571756573740000000000000000000000000000000000000000000000000000606482015260840161077d565b8060000160009054906101000a90046001600160a01b03168160010160009054906101000a90046001600160a01b0316826002015483600301548460040154856005015486600601548760080160009054906101000a900460ff168860080160019054906101000a900460ff16995099509950995099509950995099509950509193959799909294969850565b606081600a548110611f1d57600080fd5b600083815260096020526040902060018101546001600160a01b0316331480611f4f575080546001600160a01b031633145b611fac5760405162461bcd60e51b815260206004820152602860248201527f596f75277265206e6f74207468652064657374696e6174696f6e206f7220746860448201526765206f776e65722160c01b606482015260840161077d565b80600701805480602002602001604051908101604052809291908181526020016000905b828210156120c1576000848152602090819020604080516080810182526004860290920180546001600160a01b039081168452600182015416938301939093526002830180549293929184019161202690613fe5565b80601f016020809104026020016040519081016040528092919081815260200182805461205290613fe5565b801561209f5780601f106120745761010080835404028352916020019161209f565b820191906000526020600020905b81548152906001019060200180831161208257829003601f168201915b5050505050815260200160038201548152505081526020019060010190611fd0565b5050505092505050919050565b3360009081526004602052604090205460ff161561212e5760405162461bcd60e51b815260206004820152601960248201527f596f7527726520616c7265616479207265676973746572642100000000000000604482015260640161077d565b336000908152600460209081526040909120805460ff191660019081178255885161216093929091019189019061380b565b5033600090815260046020908152604090912086516121879260029092019188019061380b565b503360009081526004602081815260409092206003810187905585516121b59391909201919086019061380b565b5033600090815260046020908152604090912083516121dc9260059092019185019061380b565b5033600090815260046020908152604090912082516122039260069092019184019061380b565b5060068054600090815260056020526040812080546001600160a01b03191633179055815491906122338361401a565b91905055507f0eeb057e74cdc4b0baf2f21550ca34bce6c87cbfd56af98a4e3b95940f14561586863360405161226b93929190613ec9565b60405180910390a1505050505050565b3360009081526001602052604090205460ff166122c95760405162461bcd60e51b815260206004820152600c60248201526b4e6f7420436f6d70616e792160a01b604482015260640161077d565b6000341161233e5760405162461bcd60e51b8152602060048201526024808201527f596f75206d75737420637265617465206120726571756573742077697468207660448201527f616c756500000000000000000000000000000000000000000000000000000000606482015260840161077d565b60008311801561234d57508282115b80156123595750600085115b801561236457508484115b6123b05760405162461bcd60e51b815260206004820152601960248201527f54686520696e707574732061726520696e636f72726563747300000000000000604482015260640161077d565b600a54600090815260096020908152604080832080546001600160a01b0319908116339081178355600180840180546001600160a01b038f8116918616821790925560028087018f9055600387018e905534600480890191909155600588018e9055600688018d905560088801805461ffff19166101001790558851608081018a52958652858a019283529785018b81524260608701526007880180548087018255908c529a8a902086519b90990290980180549a84169a87169a909a178a55905192890180549390921692909416919091179055925180519295939461249d939285019291019061380b565b50606091909101516003909101556001600160a01b0387166000908152600460209081526040808320600a8054908201805486526009830190945291842091909155815490929091906124ef8361401a565b9091555050336000908152600160209081526040808320600a54600782018054865260068301909452918420919091558154909290919061252f8361401a565b9091555050600a80549060006125448361401a565b9091555050604080513381526001600160a01b038b1660208201527fe574516642c19610bea5fc1607d78a7cd18f285d643c3f76da84f4bf50daff10910160405180910390a1505050505050505050565b8060085481106125db5760405162461bcd60e51b8152602060048201526011602482015270151a19481a9bd8881b9bdd08195e1a5cdd607a1b604482015260640161077d565b3360009081526004602052604090205460ff166125f757600080fd5b6000828152600760209081526040808320338452600490925290912061261c84613355565b156126695760405162461bcd60e51b815260206004820152601360248201527f416c726561647920526567697374657265642100000000000000000000000000604482015260640161077d565b60118201546000908152601083016020526040902060018201805482919061269090613fe5565b61269b92919061388f565b5081600201816001019080546126b090613fe5565b6126bb92919061388f565b506002810180546001600160a01b031916331790556004820180546003830191906126e590613fe5565b6126f092919061388f565b5060038201546004820155600580830180549183019161270f90613fe5565b61271a92919061388f565b50816006018160060190805461272f90613fe5565b61273a92919061388f565b5060006007820181905560088201805461ffff19169055601184018054338352600f860160205260408320819055916127728361401a565b9091555050600882018054600090815260078401602052604081208790558154919061279d8361401a565b91905055505050505050565b8060085481106127ef5760405162461bcd60e51b8152602060048201526011602482015270151a19481a9bd8881b9bdd08195e1a5cdd607a1b604482015260640161077d565b600082815260076020908152604080832033808552600f82018452828520548086526010830190945291909320600281015490916001600160a01b039091161461287b5760405162461bcd60e51b815260206004820152601860248201527f596f75277265206e6f74207468652063616e6469646174650000000000000000604482015260640161077d565b600881015460ff166128cf5760405162461bcd60e51b815260206004820152601760248201527f486972652070726f706f73616c206e6f7420666f756e64000000000000000000604482015260640161077d565b6002810154600e840180546000908152600d86016020526040812080546001600160a01b0319166001600160a01b039094169390931790925560088301805461ffff19166101001790558054916129258361401a565b9091555050604080518681523360208201527fd5ca6cfd1918e76c3d26f5e6de2dc17b8c36ee5288009156a52bab0d193583ca9101611d6d565b81600a54811061296e57600080fd5b60008381526009602052604090206008810154610100900460ff166129d55760405162461bcd60e51b815260206004820152601a60248201527f5468652072657175657374206973206e6f742061637469766521000000000000604482015260640161077d565b60018101546001600160a01b031633146129ee57600080fd5b60008360ff16118015612a04575060038360ff16105b612a0d57600080fd5b600801805460ff191660ff93909316929092179091555050565b60608080600081808280896008548110612a775760405162461bcd60e51b8152602060048201526011602482015270151a19481a9bd8881b9bdd08195e1a5cdd607a1b604482015260640161077d565b60008b8152600760205260409020548b906001600160a01b03163314612ad65760405162461bcd60e51b81526020600482015260146024820152732cb7ba93b932903737ba103a34329037bbb732b960611b604482015260640161077d565b60008c81526007602090815260408083208e845260100190915280822081516101408101909252805482908290612b0c90613fe5565b80601f0160208091040260200160405190810160405280929190818152602001828054612b3890613fe5565b8015612b855780601f10612b5a57610100808354040283529160200191612b85565b820191906000526020600020905b815481529060010190602001808311612b6857829003601f168201915b50505050508152602001600182018054612b9e90613fe5565b80601f0160208091040260200160405190810160405280929190818152602001828054612bca90613fe5565b8015612c175780601f10612bec57610100808354040283529160200191612c17565b820191906000526020600020905b815481529060010190602001808311612bfa57829003601f168201915b505050918352505060028201546001600160a01b03166020820152600382018054604090920191612c4790613fe5565b80601f0160208091040260200160405190810160405280929190818152602001828054612c7390613fe5565b8015612cc05780601f10612c9557610100808354040283529160200191612cc0565b820191906000526020600020905b815481529060010190602001808311612ca357829003601f168201915b5050505050815260200160048201548152602001600582018054612ce390613fe5565b80601f0160208091040260200160405190810160405280929190818152602001828054612d0f90613fe5565b8015612d5c5780601f10612d3157610100808354040283529160200191612d5c565b820191906000526020600020905b815481529060010190602001808311612d3f57829003601f168201915b50505050508152602001600682018054612d7590613fe5565b80601f0160208091040260200160405190810160405280929190818152602001828054612da190613fe5565b8015612dee5780601f10612dc357610100808354040283529160200191612dee565b820191906000526020600020905b815481529060010190602001808311612dd157829003601f168201915b50505050508152602001600782015481526020016008820160009054906101000a900460ff161515151581526020016008820160019054906101000a900460ff161515151581525050905080600001518160200151826060015183608001518460a001518560c001518661010001518761012001519a509a509a509a509a509a509a509a505050509295985092959890939650565b3360009081526001602052604081205460ff16612ed15760405162461bcd60e51b815260206004820152600c60248201526b4e6f7420436f6d70616e792160a01b604482015260640161077d565b503360009081526001602052604090206005015490565b3360009081526004602052604081205460ff16612f0457600080fd5b336000908152600460205260409020600801548210612f655760405162461bcd60e51b815260206004820152600f60248201527f4a6f6220646f6e277420666f756e640000000000000000000000000000000000604482015260640161077d565b5033600090815260046020908152604080832093835260079093019052205490565b3360009081526001602052604090205460ff16612fd55760405162461bcd60e51b815260206004820152600c60248201526b4e6f7420436f6d70616e792160a01b604482015260640161077d565b6000341161304b5760405162461bcd60e51b815260206004820152602560248201527f4e6565642073656e64696e67206d6f6e657920666f72206372656174696e672060448201527f61206a6f62000000000000000000000000000000000000000000000000000000606482015260840161077d565b60008511801561305a57508484115b80156130665750600082115b801561307157508181115b801561307d5750600083115b6130c95760405162461bcd60e51b815260206004820152601960248201527f54686520696e707574732061726520696e636f72726563747300000000000000604482015260640161077d565b6000603c6130d78787613fce565b6130e19190613f8f565b905060006018603c806130f48787613fce565b6130fe9190613f8f565b6131089190613f8f565b6131129190613f8f565b9050600085836131228434613f8f565b61312c9190613f8f565b6131369190613f8f565b905060006007600060085481526020019081526020016000209050338160000160006101000a8154816001600160a01b0302191690836001600160a01b031602179055503481600101819055508c81600201908051906020019061319b92919061380b565b508b516131b190600383019060208f019061380b565b508a516131c790600483019060208e019061380b565b5089516131dd90600583019060208d019061380b565b506006810189905560078101889055600880820188905560098201839055600a8201879055600b8201869055600c8201805461ffff191660019081179091556000600e840181905560118401819055338152602091825260408082209354600585018054845260048601909452908220558154919061325b8361401a565b9091555050600880549060006132708361401a565b9091555050604080513381523460208201527f8989b75cccca0fb30da05814ad53f47c96062c68f02f70eef5673f84e1f905d8910160405180910390a15050505050505050505050505050565b3360009081526004602052604081206008810154831061330f5760405162461bcd60e51b815260206004820152600d60248201526c129bd8881b9bdd08199bdd5b99609a1b604482015260640161077d565b6008808201546000908152600792830160209081526040808320548352938152838220338352600f81018252848320548352601001905291909120015460ff1692915050565b600081600854811061339d5760405162461bcd60e51b8152602060048201526011602482015270151a19481a9bd8881b9bdd08195e1a5cdd607a1b604482015260640161077d565b3360009081526004602052604090205460ff166133b957600080fd5b600083815260076020908152604080832033808552600f82018452828520548552601082019093529220600201546001600160a01b031614156134005760019250506107a7565b60009250506107a7565b600080606080808084808080808b600854811061345d5760405162461bcd60e51b8152602060048201526011602482015270151a19481a9bd8881b9bdd08195e1a5cdd607a1b604482015260640161077d565b60008d8152600760205260409020805460018201546008830154600a840154600b850154600c86015460118701546002880180546001600160a01b0390981697909560038a019560048b019560058c019592949193909260ff16919089906134c490613fe5565b80601f01602080910402602001604051908101604052809291908181526020018280546134f090613fe5565b801561353d5780601f106135125761010080835404028352916020019161353d565b820191906000526020600020905b81548152906001019060200180831161352057829003601f168201915b5050505050985087805461355090613fe5565b80601f016020809104026020016040519081016040528092919081815260200182805461357c90613fe5565b80156135c95780601f1061359e576101008083540402835291602001916135c9565b820191906000526020600020905b8154815290600101906020018083116135ac57829003601f168201915b505050505097508680546135dc90613fe5565b80601f016020809104026020016040519081016040528092919081815260200182805461360890613fe5565b80156136555780601f1061362a57610100808354040283529160200191613655565b820191906000526020600020905b81548152906001019060200180831161363857829003601f168201915b5050505050965085805461366890613fe5565b80601f016020809104026020016040519081016040528092919081815260200182805461369490613fe5565b80156136e15780601f106136b6576101008083540402835291602001916136e1565b820191906000526020600020905b8154815290600101906020018083116136c457829003601f168201915b505050505095509c509c509c509c509c509c509c509c509c509c509c50505091939597999b90929496989a50565b60008160085481106137575760405162461bcd60e51b8152602060048201526011602482015270151a19481a9bd8881b9bdd08195e1a5cdd607a1b604482015260640161077d565b3360009081526004602052604090205460ff1661377357600080fd5b50506000908152600760209081526040808320338452600f81018352818420548452601001909152902060080154610100900460ff1690565b60008160085481106137f45760405162461bcd60e51b8152602060048201526011602482015270151a19481a9bd8881b9bdd08195e1a5cdd607a1b604482015260640161077d565b505060009081526007602052604090206011015490565b82805461381790613fe5565b90600052602060002090601f016020900481019282613839576000855561387f565b82601f1061385257805160ff191683800117855561387f565b8280016001018555821561387f579182015b8281111561387f578251825591602001919060010190613864565b5061388b92915061390a565b5090565b82805461389b90613fe5565b90600052602060002090601f0160209004810192826138bd576000855561387f565b82601f106138ce578054855561387f565b8280016001018555821561387f57600052602060002091601f016020900482015b8281111561387f5782548255916001019190600101906138ef565b5b8082111561388b576000815560010161390b565b600082601f83011261392f578081fd5b813567ffffffffffffffff8082111561394a5761394a61404b565b604051601f8301601f19908116603f011681019082821181831017156139725761397261404b565b8160405283815286602085880101111561398a578485fd5b8360208701602083013792830160200193909352509392505050565b60008060008060008060c087890312156139be578182fd5b86356001600160a01b03811681146139d4578283fd5b95506020870135945060408701359350606087013592506080870135915060a087013567ffffffffffffffff811115613a0b578182fd5b613a1789828a0161391f565b9150509295509295509295565b600080600060608486031215613a38578283fd5b833567ffffffffffffffff80821115613a4f578485fd5b613a5b8783880161391f565b94506020860135915080821115613a70578384fd5b613a7c8783880161391f565b93506040860135915080821115613a91578283fd5b50613a9e8682870161391f565b9150509250925092565b60008060008060008060008060006101208a8c031215613ac6578283fd5b893567ffffffffffffffff80821115613add578485fd5b613ae98d838e0161391f565b9a5060208c0135915080821115613afe578485fd5b613b0a8d838e0161391f565b995060408c0135915080821115613b1f578485fd5b613b2b8d838e0161391f565b985060608c0135915080821115613b40578485fd5b50613b4d8c828d0161391f565b999c989b50969960808101359860a0820135985060c0820135975060e0820135965061010090910135945092505050565b60008060008060008060c08789031215613b96578182fd5b863567ffffffffffffffff80821115613bad578384fd5b613bb98a838b0161391f565b97506020890135915080821115613bce578384fd5b613bda8a838b0161391f565b9650604089013595506060890135915080821115613bf6578384fd5b613c028a838b0161391f565b94506080890135915080821115613c17578384fd5b613c238a838b0161391f565b935060a0890135915080821115613c38578283fd5b50613a1789828a0161391f565b600060208284031215613c56578081fd5b5035919050565b60008060408385031215613c6f578182fd5b82359150602083013567ffffffffffffffff811115613c8c578182fd5b613c988582860161391f565b9150509250929050565b60008060408385031215613cb4578182fd5b50508035926020909101359150565b600080600060608486031215613cd7578283fd5b505081359360208301359350604090920135919050565b60008060408385031215613d00578182fd5b82359150602083013560ff81168114613d17578182fd5b809150509250929050565b60008151808452815b81811015613d4757602081850181015186830182015201613d2b565b81811115613d585782602083870101525b50601f01601f19169290920160200192915050565b60006101606001600160a01b038e1683528c6020840152806040840152613d968184018d613d22565b90508281036060840152613daa818c613d22565b90508281036080840152613dbe818b613d22565b905082810360a0840152613dd2818a613d22565b60c0840198909852505060e08101949094526101008401929092521515610120830152610140909101529695505050505050565b60006020808301818452808551808352604092508286019150828160051b870101848801865b83811015613e9057603f19898403018552815160806001600160a01b03808351168652808a840151168a87015250878201518189870152613e6f82870182613d22565b60609384015196909301959095525094870194925090860190600101613e2c565b509098975050505050505050565b604081526000613eb16040830185613d22565b90506001600160a01b03831660208301529392505050565b606081526000613edc6060830186613d22565b8281036020840152613eee8186613d22565b9150506001600160a01b0383166040830152949350505050565b6000610100808352613f1c8184018c613d22565b90508281036020840152613f30818b613d22565b90508281036040840152613f44818a613d22565b90508760608401528281036080840152613f5e8188613d22565b905082810360a0840152613f728187613d22565b94151560c0840152505090151560e0909101529695505050505050565b600082613faa57634e487b7160e01b81526012600452602481fd5b500490565b6000816000190483118215151615613fc957613fc9614035565b500290565b600082821015613fe057613fe0614035565b500390565b600181811c90821680613ff957607f821691505b602082108114156107a757634e487b7160e01b600052602260045260246000fd5b600060001982141561402e5761402e614035565b5060010190565b634e487b7160e01b600052601160045260246000fd5b634e487b7160e01b600052604160045260246000fdfea26469706673582212202626a9f099c56c4f84648e881818de400e752795f696227028ad6ac6f5782cb764736f6c63430008040033",
  "linkReferences": {},
  "deployedLinkReferences": {}
}