{
  "_format": "hh-sol-artifact-1",
  "contractName": "LastMinuteJob",
  "sourceName": "contracts/LastMinuteJob.sol",
  "abi": [
    {
      "anonymous": false,
      "inputs": [
        {
          "indexed": false,
          "internalType": "uint256",
          "name": "",
          "type": "uint256"
        }
      ],
      "name": "ev_CloseJob",
      "type": "event"
    },
    {
      "anonymous": false,
      "inputs": [
        {
          "indexed": false,
          "internalType": "uint256",
          "name": "",
          "type": "uint256"
        },
        {
          "indexed": false,
          "internalType": "uint256",
          "name": "",
          "type": "uint256"
        }
      ],
      "name": "ev_CloseRequest",
      "type": "event"
    },
    {
      "anonymous": false,
      "inputs": [
        {
          "indexed": false,
          "internalType": "uint256",
          "name": "",
          "type": "uint256"
        }
      ],
      "name": "ev_ClosedSearch",
      "type": "event"
    },
    {
      "anonymous": false,
      "inputs": [
        {
          "indexed": false,
          "internalType": "address",
          "name": "",
          "type": "address"
        },
        {
          "indexed": false,
          "internalType": "uint256",
          "name": "",
          "type": "uint256"
        }
      ],
      "name": "ev_CreateJob",
      "type": "event"
    },
    {
      "anonymous": false,
      "inputs": [
        {
          "indexed": false,
          "internalType": "address",
          "name": "",
          "type": "address"
        },
        {
          "indexed": false,
          "internalType": "address",
          "name": "",
          "type": "address"
        }
      ],
      "name": "ev_CreateRequest",
      "type": "event"
    },
    {
      "anonymous": false,
      "inputs": [
        {
          "indexed": false,
          "internalType": "uint256",
          "name": "",
          "type": "uint256"
        },
        {
          "indexed": false,
          "internalType": "address",
          "name": "",
          "type": "address"
        }
      ],
      "name": "ev_Hired",
      "type": "event"
    },
    {
      "anonymous": false,
      "inputs": [
        {
          "indexed": false,
          "internalType": "address",
          "name": "",
          "type": "address"
        },
        {
          "indexed": false,
          "internalType": "uint256",
          "name": "",
          "type": "uint256"
        }
      ],
      "name": "ev_Pay",
      "type": "event"
    },
    {
      "anonymous": false,
      "inputs": [
        {
          "indexed": false,
          "internalType": "string",
          "name": "",
          "type": "string"
        },
        {
          "indexed": false,
          "internalType": "address",
          "name": "",
          "type": "address"
        }
      ],
      "name": "ev_RegisterAsCompany",
      "type": "event"
    },
    {
      "anonymous": false,
      "inputs": [
        {
          "indexed": false,
          "internalType": "string",
          "name": "",
          "type": "string"
        },
        {
          "indexed": false,
          "internalType": "string",
          "name": "",
          "type": "string"
        },
        {
          "indexed": false,
          "internalType": "address",
          "name": "",
          "type": "address"
        }
      ],
      "name": "ev_RegisterAsPerson",
      "type": "event"
    },
    {
      "anonymous": false,
      "inputs": [
        {
          "indexed": false,
          "internalType": "address",
          "name": "",
          "type": "address"
        },
        {
          "indexed": false,
          "internalType": "address",
          "name": "",
          "type": "address"
        }
      ],
      "name": "ev_SendMessage",
      "type": "event"
    },
    {
      "inputs": [
        {
          "internalType": "uint256",
          "name": "_nrJob",
          "type": "uint256"
        }
      ],
      "name": "AcceptJob",
      "outputs": [],
      "stateMutability": "nonpayable",
      "type": "function"
    },
    {
      "inputs": [],
      "name": "CheckIsCompany",
      "outputs": [
        {
          "internalType": "bool",
          "name": "",
          "type": "bool"
        }
      ],
      "stateMutability": "view",
      "type": "function"
    },
    {
      "inputs": [],
      "name": "CheckIsPerson",
      "outputs": [
        {
          "internalType": "bool",
          "name": "",
          "type": "bool"
        }
      ],
      "stateMutability": "view",
      "type": "function"
    },
    {
      "inputs": [
        {
          "internalType": "uint256",
          "name": "_nrJob",
          "type": "uint256"
        }
      ],
      "name": "CheckPersonApplied",
      "outputs": [
        {
          "internalType": "bool",
          "name": "",
          "type": "bool"
        }
      ],
      "stateMutability": "view",
      "type": "function"
    },
    {
      "inputs": [
        {
          "internalType": "uint256",
          "name": "_nrJob",
          "type": "uint256"
        }
      ],
      "name": "CheckPersonHired",
      "outputs": [
        {
          "internalType": "bool",
          "name": "",
          "type": "bool"
        }
      ],
      "stateMutability": "view",
      "type": "function"
    },
    {
      "inputs": [
        {
          "internalType": "uint256",
          "name": "_nrJob",
          "type": "uint256"
        }
      ],
      "name": "CloseAndPay",
      "outputs": [],
      "stateMutability": "nonpayable",
      "type": "function"
    },
    {
      "inputs": [
        {
          "internalType": "uint256",
          "name": "_nRequest",
          "type": "uint256"
        }
      ],
      "name": "CloseRequest",
      "outputs": [],
      "stateMutability": "nonpayable",
      "type": "function"
    },
    {
      "inputs": [
        {
          "internalType": "uint256",
          "name": "_nrJob",
          "type": "uint256"
        }
      ],
      "name": "CloseSearching",
      "outputs": [],
      "stateMutability": "nonpayable",
      "type": "function"
    },
    {
      "inputs": [
        {
          "internalType": "string",
          "name": "_title",
          "type": "string"
        },
        {
          "internalType": "string",
          "name": "_description",
          "type": "string"
        },
        {
          "internalType": "string",
          "name": "_workingAddress",
          "type": "string"
        },
        {
          "internalType": "string",
          "name": "_searchingPosition",
          "type": "string"
        },
        {
          "internalType": "uint256",
          "name": "_hourInit",
          "type": "uint256"
        },
        {
          "internalType": "uint256",
          "name": "_hourFinish",
          "type": "uint256"
        },
        {
          "internalType": "uint256",
          "name": "_peopleToHire",
          "type": "uint256"
        },
        {
          "internalType": "uint256",
          "name": "_dateFrom",
          "type": "uint256"
        },
        {
          "internalType": "uint256",
          "name": "_dateTo",
          "type": "uint256"
        }
      ],
      "name": "CreateJob",
      "outputs": [],
      "stateMutability": "payable",
      "type": "function"
    },
    {
      "inputs": [
        {
          "internalType": "address",
          "name": "_destination",
          "type": "address"
        },
        {
          "internalType": "uint256",
          "name": "_dateFrom",
          "type": "uint256"
        },
        {
          "internalType": "uint256",
          "name": "_dateTo",
          "type": "uint256"
        },
        {
          "internalType": "uint256",
          "name": "_hourStart",
          "type": "uint256"
        },
        {
          "internalType": "uint256",
          "name": "_hourFinish",
          "type": "uint256"
        },
        {
          "internalType": "string",
          "name": "_message",
          "type": "string"
        }
      ],
      "name": "CreateRequest",
      "outputs": [],
      "stateMutability": "payable",
      "type": "function"
    },
    {
      "inputs": [],
      "name": "GetCompaniesCounter",
      "outputs": [
        {
          "internalType": "uint256",
          "name": "",
          "type": "uint256"
        }
      ],
      "stateMutability": "view",
      "type": "function"
    },
    {
      "inputs": [],
      "name": "GetPersonsCounter",
      "outputs": [
        {
          "internalType": "uint256",
          "name": "",
          "type": "uint256"
        }
      ],
      "stateMutability": "view",
      "type": "function"
    },
    {
      "inputs": [
        {
          "internalType": "string",
          "name": "_name",
          "type": "string"
        },
        {
          "internalType": "string",
          "name": "_description",
          "type": "string"
        },
        {
          "internalType": "string",
          "name": "_address",
          "type": "string"
        }
      ],
      "name": "RegisterAsCompany",
      "outputs": [],
      "stateMutability": "nonpayable",
      "type": "function"
    },
    {
      "inputs": [
        {
          "internalType": "string",
          "name": "_name",
          "type": "string"
        },
        {
          "internalType": "string",
          "name": "_surname",
          "type": "string"
        },
        {
          "internalType": "uint256",
          "name": "_age",
          "type": "uint256"
        },
        {
          "internalType": "string",
          "name": "_mobilePhone",
          "type": "string"
        },
        {
          "internalType": "string",
          "name": "_CV",
          "type": "string"
        },
        {
          "internalType": "string",
          "name": "_coverLetter",
          "type": "string"
        }
      ],
      "name": "RegisterAsPerson",
      "outputs": [],
      "stateMutability": "nonpayable",
      "type": "function"
    },
    {
      "inputs": [
        {
          "internalType": "uint256",
          "name": "_nrCompanyJob",
          "type": "uint256"
        },
        {
          "internalType": "uint256",
          "name": "_nrCandidate",
          "type": "uint256"
        }
      ],
      "name": "RequestHire",
      "outputs": [],
      "stateMutability": "nonpayable",
      "type": "function"
    },
    {
      "inputs": [
        {
          "internalType": "uint256",
          "name": "_nRequest",
          "type": "uint256"
        },
        {
          "internalType": "string",
          "name": "_message",
          "type": "string"
        }
      ],
      "name": "SendMessage",
      "outputs": [],
      "stateMutability": "nonpayable",
      "type": "function"
    },
    {
      "inputs": [
        {
          "internalType": "uint256",
          "name": "_nrJob",
          "type": "uint256"
        },
        {
          "internalType": "uint256",
          "name": "_nrCandidate",
          "type": "uint256"
        },
        {
          "internalType": "uint256",
          "name": "_absentHours",
          "type": "uint256"
        }
      ],
      "name": "SetAbsentHours",
      "outputs": [],
      "stateMutability": "nonpayable",
      "type": "function"
    },
    {
      "inputs": [
        {
          "internalType": "uint256",
          "name": "_nRequest",
          "type": "uint256"
        },
        {
          "internalType": "uint8",
          "name": "_status",
          "type": "uint8"
        }
      ],
      "name": "SetAnswer",
      "outputs": [],
      "stateMutability": "nonpayable",
      "type": "function"
    },
    {
      "inputs": [
        {
          "internalType": "uint256",
          "name": "_nrJob",
          "type": "uint256"
        },
        {
          "internalType": "uint256",
          "name": "_nrCandidate",
          "type": "uint256"
        }
      ],
      "name": "ShowAbsentHoursCandidate",
      "outputs": [
        {
          "internalType": "uint256",
          "name": "",
          "type": "uint256"
        }
      ],
      "stateMutability": "view",
      "type": "function"
    },
    {
      "inputs": [
        {
          "internalType": "uint256",
          "name": "_nrJob",
          "type": "uint256"
        }
      ],
      "name": "ShowCloseJob",
      "outputs": [
        {
          "internalType": "bool",
          "name": "",
          "type": "bool"
        }
      ],
      "stateMutability": "view",
      "type": "function"
    },
    {
      "inputs": [
        {
          "internalType": "uint256",
          "name": "_nrJob",
          "type": "uint256"
        }
      ],
      "name": "ShowCompanyJobID",
      "outputs": [
        {
          "internalType": "uint256",
          "name": "",
          "type": "uint256"
        }
      ],
      "stateMutability": "view",
      "type": "function"
    },
    {
      "inputs": [],
      "name": "ShowCompanyJobsCounter",
      "outputs": [
        {
          "internalType": "uint256",
          "name": "",
          "type": "uint256"
        }
      ],
      "stateMutability": "view",
      "type": "function"
    },
    {
      "inputs": [],
      "name": "ShowCounterRequests",
      "outputs": [
        {
          "internalType": "uint256",
          "name": "",
          "type": "uint256"
        }
      ],
      "stateMutability": "view",
      "type": "function"
    },
    {
      "inputs": [],
      "name": "ShowCounterRequestsCompany",
      "outputs": [
        {
          "internalType": "uint256",
          "name": "",
          "type": "uint256"
        }
      ],
      "stateMutability": "view",
      "type": "function"
    },
    {
      "inputs": [],
      "name": "ShowCounterRequestsPerson",
      "outputs": [
        {
          "internalType": "uint256",
          "name": "",
          "type": "uint256"
        }
      ],
      "stateMutability": "view",
      "type": "function"
    },
    {
      "inputs": [
        {
          "internalType": "uint256",
          "name": "_nrJob",
          "type": "uint256"
        }
      ],
      "name": "ShowHired",
      "outputs": [
        {
          "internalType": "uint256",
          "name": "",
          "type": "uint256"
        }
      ],
      "stateMutability": "view",
      "type": "function"
    },
    {
      "inputs": [
        {
          "internalType": "uint256",
          "name": "_nrCompanyRequest",
          "type": "uint256"
        }
      ],
      "name": "ShowIDRequestCompany",
      "outputs": [
        {
          "internalType": "uint256",
          "name": "",
          "type": "uint256"
        }
      ],
      "stateMutability": "view",
      "type": "function"
    },
    {
      "inputs": [
        {
          "internalType": "uint256",
          "name": "_nrPersonRequest",
          "type": "uint256"
        }
      ],
      "name": "ShowIDRequestPerson",
      "outputs": [
        {
          "internalType": "uint256",
          "name": "",
          "type": "uint256"
        }
      ],
      "stateMutability": "view",
      "type": "function"
    },
    {
      "inputs": [
        {
          "internalType": "uint256",
          "name": "_jobApplied",
          "type": "uint256"
        }
      ],
      "name": "ShowIfHireQuestion",
      "outputs": [
        {
          "internalType": "bool",
          "name": "",
          "type": "bool"
        }
      ],
      "stateMutability": "view",
      "type": "function"
    },
    {
      "inputs": [
        {
          "internalType": "uint256",
          "name": "_jobApplied",
          "type": "uint256"
        }
      ],
      "name": "ShowIfHired",
      "outputs": [
        {
          "internalType": "bool",
          "name": "",
          "type": "bool"
        }
      ],
      "stateMutability": "view",
      "type": "function"
    },
    {
      "inputs": [
        {
          "internalType": "uint256",
          "name": "_nrJob",
          "type": "uint256"
        },
        {
          "internalType": "uint256",
          "name": "_nrCandidate",
          "type": "uint256"
        }
      ],
      "name": "ShowJobCandidate",
      "outputs": [
        {
          "internalType": "string",
          "name": "",
          "type": "string"
        },
        {
          "internalType": "string",
          "name": "",
          "type": "string"
        },
        {
          "internalType": "string",
          "name": "",
          "type": "string"
        },
        {
          "internalType": "uint256",
          "name": "",
          "type": "uint256"
        },
        {
          "internalType": "string",
          "name": "",
          "type": "string"
        },
        {
          "internalType": "string",
          "name": "",
          "type": "string"
        },
        {
          "internalType": "bool",
          "name": "",
          "type": "bool"
        },
        {
          "internalType": "bool",
          "name": "",
          "type": "bool"
        }
      ],
      "stateMutability": "view",
      "type": "function"
    },
    {
      "inputs": [
        {
          "internalType": "uint256",
          "name": "_nrJob",
          "type": "uint256"
        }
      ],
      "name": "ShowJobCandidatesCounter",
      "outputs": [
        {
          "internalType": "uint256",
          "name": "",
          "type": "uint256"
        }
      ],
      "stateMutability": "view",
      "type": "function"
    },
    {
      "inputs": [
        {
          "internalType": "uint256",
          "name": "_nrJob",
          "type": "uint256"
        }
      ],
      "name": "ShowJobSummary",
      "outputs": [
        {
          "internalType": "address",
          "name": "",
          "type": "address"
        },
        {
          "internalType": "uint256",
          "name": "",
          "type": "uint256"
        },
        {
          "internalType": "string",
          "name": "",
          "type": "string"
        },
        {
          "internalType": "string",
          "name": "",
          "type": "string"
        },
        {
          "internalType": "string",
          "name": "",
          "type": "string"
        },
        {
          "internalType": "string",
          "name": "",
          "type": "string"
        },
        {
          "internalType": "uint256",
          "name": "",
          "type": "uint256"
        },
        {
          "internalType": "uint256",
          "name": "",
          "type": "uint256"
        },
        {
          "internalType": "uint256",
          "name": "",
          "type": "uint256"
        },
        {
          "internalType": "bool",
          "name": "",
          "type": "bool"
        },
        {
          "internalType": "uint256",
          "name": "",
          "type": "uint256"
        }
      ],
      "stateMutability": "view",
      "type": "function"
    },
    {
      "inputs": [],
      "name": "ShowJobsCounter",
      "outputs": [
        {
          "internalType": "uint256",
          "name": "",
          "type": "uint256"
        }
      ],
      "stateMutability": "view",
      "type": "function"
    },
    {
      "inputs": [
        {
          "internalType": "uint256",
          "name": "_nRequest",
          "type": "uint256"
        }
      ],
      "name": "ShowMessages",
      "outputs": [
        {
          "components": [
            {
              "internalType": "address",
              "name": "owner",
              "type": "address"
            },
            {
              "internalType": "address",
              "name": "destination",
              "type": "address"
            },
            {
              "internalType": "string",
              "name": "message",
              "type": "string"
            },
            {
              "internalType": "uint256",
              "name": "datetime",
              "type": "uint256"
            }
          ],
          "internalType": "struct LastMinuteJob.Message[]",
          "name": "",
          "type": "tuple[]"
        }
      ],
      "stateMutability": "view",
      "type": "function"
    },
    {
      "inputs": [
        {
          "internalType": "uint256",
          "name": "_nrWorker",
          "type": "uint256"
        }
      ],
      "name": "ShowPerson",
      "outputs": [
        {
          "internalType": "string",
          "name": "",
          "type": "string"
        },
        {
          "internalType": "string",
          "name": "",
          "type": "string"
        },
        {
          "internalType": "uint256",
          "name": "",
          "type": "uint256"
        },
        {
          "internalType": "string",
          "name": "",
          "type": "string"
        },
        {
          "internalType": "string",
          "name": "",
          "type": "string"
        },
        {
          "internalType": "string",
          "name": "",
          "type": "string"
        },
        {
          "internalType": "address",
          "name": "",
          "type": "address"
        }
      ],
      "stateMutability": "view",
      "type": "function"
    },
    {
      "inputs": [
        {
          "internalType": "uint256",
          "name": "_nrRequest",
          "type": "uint256"
        }
      ],
      "name": "ShowRequest",
      "outputs": [
        {
          "internalType": "address",
          "name": "",
          "type": "address"
        },
        {
          "internalType": "address",
          "name": "",
          "type": "address"
        },
        {
          "internalType": "uint256",
          "name": "",
          "type": "uint256"
        },
        {
          "internalType": "uint256",
          "name": "",
          "type": "uint256"
        },
        {
          "internalType": "uint256",
          "name": "",
          "type": "uint256"
        },
        {
          "internalType": "uint256",
          "name": "",
          "type": "uint256"
        },
        {
          "internalType": "uint256",
          "name": "",
          "type": "uint256"
        },
        {
          "internalType": "uint8",
          "name": "",
          "type": "uint8"
        },
        {
          "internalType": "bool",
          "name": "",
          "type": "bool"
        }
      ],
      "stateMutability": "view",
      "type": "function"
    },
    {
      "inputs": [],
      "name": "appliedJobsCounter",
      "outputs": [
        {
          "internalType": "uint256",
          "name": "",
          "type": "uint256"
        }
      ],
      "stateMutability": "view",
      "type": "function"
    },
    {
      "inputs": [
        {
          "internalType": "uint256",
          "name": "_nrJob",
          "type": "uint256"
        }
      ],
      "name": "applyToJob",
      "outputs": [],
      "stateMutability": "nonpayable",
      "type": "function"
    },
    {
      "inputs": [
        {
          "internalType": "uint256",
          "name": "_nrAppliedJob",
          "type": "uint256"
        }
      ],
      "name": "showAppliedJob",
      "outputs": [
        {
          "internalType": "uint256",
          "name": "",
          "type": "uint256"
        }
      ],
      "stateMutability": "view",
      "type": "function"
    }
  ],
  "bytecode": "0x608060405234801561001057600080fd5b50600160005561474e806100256000396000f3fe6080604052600436106102bb5760003560e01c80637c1a24331161016e578063bda3ce94116100cb578063d83f6e701161007f578063ef79966111610064578063ef799661146107c1578063f2fd3e4a146107f8578063f8a5ef0b1461081857600080fd5b8063d83f6e701461078c578063daf5223f146107ac57600080fd5b8063c301a7a2116100b0578063c301a7a214610734578063ccef46f314610747578063d53f9b9b1461076c57600080fd5b8063bda3ce94146106f4578063be077e7a1461071457600080fd5b80638e4ca94d11610122578063a8404e3f11610107578063a8404e3f1461068b578063ad2a79f8146106ab578063b524628f146106df57600080fd5b80638e4ca94d14610656578063a0933fbc1461067657600080fd5b8063863f671f11610153578063863f671f1461060e5780638a0b6153146106215780638e1a32d01461063657600080fd5b80637c1a2433146105c15780637d2fa512146105ee57600080fd5b80633b2aec481161021c5780636c4d0984116101d0578063748ff7ad116101b5578063748ff7ad14610508578063783485fc1461052d5780637a41bdc51461054d57600080fd5b80636c4d0984146104c857806372b6e521146104e857600080fd5b80635e0ced5c116102015780635e0ced5c14610473578063650efe001461048857806365f36692146104a857600080fd5b80633b2aec48146104335780635386903f1461045357600080fd5b806316814b9d116102735780631eca0d2e116102585780631eca0d2e146103c257806324c12f56146103e2578063311de8f91461040257600080fd5b806316814b9d1461037a5780631b161115146103ad57600080fd5b80630ca0ef74116102a45780630ca0ef7414610315578063117a81ea1461033a578063130176691461035a57600080fd5b806305de6b48146102c05780630b216438146102f3575b600080fd5b3480156102cc57600080fd5b506102e06102db366004614277565b610838565b6040519081526020015b60405180910390f35b3480156102ff57600080fd5b5061031361030e366004614277565b6108ac565b005b34801561032157600080fd5b50336000908152600160205260409020600701546102e0565b34801561034657600080fd5b50610313610355366004614056565b6109a5565b34801561036657600080fd5b506103136103753660046142d4565b610af6565b34801561038657600080fd5b5061039a610395366004614277565b610bd9565b6040516102ea97969594939291906145c1565b3480156103b957600080fd5b506003546102e0565b3480156103ce57600080fd5b506102e06103dd366004614277565b610f10565b3480156103ee57600080fd5b506103136103fd366004614277565b610f6f565b34801561040e57600080fd5b503360009081526004602052604090205460ff165b60405190151581526020016102ea565b34801561043f57600080fd5b506102e061044e3660046142d4565b611530565b34801561045f57600080fd5b5061042361046e366004614277565b61159c565b34801561047f57600080fd5b506102e0611603565b34801561049457600080fd5b506104236104a3366004614277565b611636565b3480156104b457600080fd5b506103136104c33660046142f5565b6116d3565b3480156104d457600080fd5b506103136104e3366004614277565b61194d565b3480156104f457600080fd5b506102e0610503366004614277565b6120a0565b34801561051457600080fd5b50336000908152600460205260409020600a01546102e0565b34801561053957600080fd5b5061031361054836600461428f565b612149565b34801561055957600080fd5b5061056d610568366004614277565b612305565b604080516001600160a01b039a8b1681529990981660208a0152968801959095526060870193909352608086019190915260a085015260c084015260ff1660e08301521515610100820152610120016102ea565b3480156105cd57600080fd5b506105e16105dc366004614277565b612495565b6040516102ea9190614438565b3480156105fa57600080fd5b506103136106093660046141b0565b612657565b61031361061c366004613fd8565b612804565b34801561062d57600080fd5b50600a546102e0565b34801561064257600080fd5b50610313610651366004614277565b612b1e565b34801561066257600080fd5b50610313610671366004614277565b612d32565b34801561068257600080fd5b506008546102e0565b34801561069757600080fd5b506103136106a6366004614320565b612ee8565b3480156106b757600080fd5b506106cb6106c63660046142d4565b612fb0565b6040516102ea98979695949392919061453a565b3480156106eb57600080fd5b506102e061340c565b34801561070057600080fd5b506102e061070f366004614277565b613471565b34801561072057600080fd5b506102e061072f366004614277565b61351a565b6103136107423660046140da565b6135b9565b34801561075357600080fd5b503360009081526001602052604090205460ff16610423565b34801561077857600080fd5b50610423610787366004614277565b6138ef565b34801561079857600080fd5b506104236107a7366004614277565b613987565b3480156107b857600080fd5b506006546102e0565b3480156107cd57600080fd5b506107e16107dc366004614277565b613a3c565b6040516102ea9b9a9998979695949392919061439f565b34801561080457600080fd5b50610423610813366004614277565b613d41565b34801561082457600080fd5b506102e0610833366004614277565b613dde565b60008160085481106108855760405162461bcd60e51b8152602060048201526011602482015270151a19481a9bd8881b9bdd08195e1a5cdd607a1b60448201526064015b60405180910390fd5b33600090815260016020908152604080832086845260040190915290205491505b50919050565b8060085481106108f25760405162461bcd60e51b8152602060048201526011602482015270151a19481a9bd8881b9bdd08195e1a5cdd607a1b604482015260640161087c565b60008281526007602052604090205482906001600160a01b031633146109515760405162461bcd60e51b81526020600482015260146024820152732cb7ba93b932903737ba103a34329037bbb732b960611b604482015260640161087c565b600083815260076020908152604091829020600c8101805460ff1916905591518581527f156d298e3230eef448bd5231631a15a00a31d76ee7cc580888b12e660d3c4519910160405180910390a150505050565b3360009081526001602052604090205460ff1615610a055760405162461bcd60e51b815260206004820152601960248201527f596f7527726520616c7265616479207265676973746572642100000000000000604482015260640161087c565b336000908152600160208181526040909220805460ff1916821781558551610a3593919092019190860190613e3d565b503360009081526001602090815260409091208351610a5c92600290920191850190613e3d565b503360009081526001602090815260409091208251610a8392600390920191840190613e3d565b5060038054600090815260026020526040812080546001600160a01b0319163317905581549190610ab3836146d1565b91905055507fc7ce3fb6fc45f140ade3c39c738b15b325a6682e6862a6f0cb720b08bfc922cc8333604051610ae99291906144d0565b60405180910390a1505050565b33600090815260016020526040902060058101548310610b485760405162461bcd60e51b815260206004820152600d60248201526c129bd8881b9bdd08199bdd5b99609a1b604482015260640161087c565b600083815260048201602090815260408083205483526007909152902060118101548310610bb85760405162461bcd60e51b815260206004820152601360248201527f43616e646974617465206e6f7420666f756e6400000000000000000000000000604482015260640161087c565b60009283526010016020525060409020600801805460ff1916600117905550565b6000818152600560208181526040808420546001600160a01b03168085526004808452918520868652928490526003830154600184018054606097889790968896879687968a9693959194600287019391929187019190870190600688019087908790610c459061469c565b80601f0160208091040260200160405190810160405280929190818152602001828054610c719061469c565b8015610cbe5780601f10610c9357610100808354040283529160200191610cbe565b820191906000526020600020905b815481529060010190602001808311610ca157829003601f168201915b50505050509650858054610cd19061469c565b80601f0160208091040260200160405190810160405280929190818152602001828054610cfd9061469c565b8015610d4a5780601f10610d1f57610100808354040283529160200191610d4a565b820191906000526020600020905b815481529060010190602001808311610d2d57829003601f168201915b50505050509550838054610d5d9061469c565b80601f0160208091040260200160405190810160405280929190818152602001828054610d899061469c565b8015610dd65780601f10610dab57610100808354040283529160200191610dd6565b820191906000526020600020905b815481529060010190602001808311610db957829003601f168201915b50505050509350828054610de99061469c565b80601f0160208091040260200160405190810160405280929190818152602001828054610e159061469c565b8015610e625780601f10610e3757610100808354040283529160200191610e62565b820191906000526020600020905b815481529060010190602001808311610e4557829003601f168201915b50505050509250818054610e759061469c565b80601f0160208091040260200160405190810160405280929190818152602001828054610ea19061469c565b8015610eee5780601f10610ec357610100808354040283529160200191610eee565b820191906000526020600020905b815481529060010190602001808311610ed157829003601f168201915b5050505050915098509850985098509850985098505050919395979092949650565b6000816008548110610f585760405162461bcd60e51b8152602060048201526011602482015270151a19481a9bd8881b9bdd08195e1a5cdd607a1b604482015260640161087c565b50506000908152600760205260409020600e015490565b80600a548110610f7e57600080fd5b60026000541415610fd15760405162461bcd60e51b815260206004820152601f60248201527f5265656e7472616e637947756172643a207265656e7472616e742063616c6c00604482015260640161087c565b600260009081558281526009602052604090206008810154610100900460ff16610ffa57600080fd5b80546001600160a01b0316331461101057600080fd5b600881015460ff1660021415611499576000603c826005015483600601546110389190614685565b6110429190614646565b905060006018603c808560020154866003015461105f9190614685565b6110699190614646565b6110739190614646565b61107d9190614646565b90506000828285600401546110929190614646565b61109c9190614646565b6008805460009081526007602081815260408084208a5481546001600160a01b0319166001600160a01b039091161781556004808c01546001808401919091556005808e01546006808601919091558e0154968401969096558288018190556009830189905560028d0154600a84015560038d0154600b840155600c8301805461ffff191682179055600e8301879055601183018790553387528452828620965494870180548752908701909352908420929092558054949550909391611162836146d1565b90915550506001808701546001600160a01b03166000908152600460209081526040808320601187015484526010870190925290912091810180549192918291906111ac9061469c565b6111b7929190613ec1565b5081600201816001019080546111cc9061469c565b6111d7929190613ec1565b5060018801546002820180546001600160a01b0319166001600160a01b039092169190911790556004820180546003830191906112139061469c565b61121e929190613ec1565b5060038201546004820155600580830180549183019161123d9061469c565b611248929190613ec1565b50816006018160060190805461125d9061469c565b611268929190613ec1565b50600060078201819055601185015460018a01546001600160a01b03168252600f86016020908152604080842083905591835260108701905290208154829190819083906112b59061469c565b6112c0929190613ec1565b5060018201816001019080546112d59061469c565b6112e0929190613ec1565b5060028281015490820180546001600160a01b0319166001600160a01b03909216919091179055600380830180549183019161131b9061469c565b611326929190613ec1565b506004820154816004015560058201816005019080546113459061469c565b611350929190613ec1565b5060068201816006019080546113659061469c565b611370929190613ec1565b50600782810154908201556008918201805492909101805460ff938416151560ff19821681178355925461010090819004909416151590930261ff001990921661ffff19909316929092171790556011840180549060006113d0836146d1565b90915550506002810154600e850180546000908152600d87016020526040812080546001600160a01b0319166001600160a01b039094169390931790925560088301805461ff00191661010017905580549161142b836146d1565b90915550506008805490830180546000908152600785016020526040812092909255805491611459836146d1565b9091555050600c8401805460ff191690556008805490600061147a836146d1565b90915550505060088701805461ff0019169055506114e5945050505050565b60088101805461ff0019169055805460048201546040516001600160a01b039092169181156108fc0291906000818181858888f193505050501580156114e3573d6000803e3d6000fd5b505b60088101546040805185815260ff90921660208301527f5b35f771d9f644c0f2050975bea8e2fbc8b54a867818d17d83983f4538dcaeb3910160405180910390a15050600160005550565b60008260085481106115785760405162461bcd60e51b8152602060048201526011602482015270151a19481a9bd8881b9bdd08195e1a5cdd607a1b604482015260640161087c565b50506000918252600760208181526040808520938552601090930190529120015490565b60008160085481106115e45760405162461bcd60e51b8152602060048201526011602482015270151a19481a9bd8881b9bdd08195e1a5cdd607a1b604482015260640161087c565b50506000908152600760205260409020600c0154610100900460ff1690565b3360009081526004602052604081205460ff1661161f57600080fd5b503360009081526004602052604090206008015490565b336000908152600460205260408120600881015483106116885760405162461bcd60e51b815260206004820152600d60248201526c129bd8881b9bdd08199bdd5b99609a1b604482015260640161087c565b6008818101546000908152600792830160209081526040808320548352938152838220338352600f810182528483205483526010019052919091200154610100900460ff1692915050565b8260085481106117195760405162461bcd60e51b8152602060048201526011602482015270151a19481a9bd8881b9bdd08195e1a5cdd607a1b604482015260640161087c565b60008481526007602052604090205484906001600160a01b031633146117785760405162461bcd60e51b81526020600482015260146024820152732cb7ba93b932903737ba103a34329037bbb732b960611b604482015260640161087c565b6000831161178557600080fd5b6000858152600760205260409020601181015485106117e65760405162461bcd60e51b815260206004820152601360248201527f43616e646964617465206e6f7420666f756e6400000000000000000000000000604482015260640161087c565b6000858152601082016020526040902060080154610100900460ff1661184e5760405162461bcd60e51b815260206004820152601560248201527f43616e6469646174652069736e27742068697265640000000000000000000000604482015260640161087c565b6000603c826006015483600701546118669190614685565b6118709190614646565b905060006018603c8085600a015486600b015461188d9190614685565b6118979190614646565b6118a19190614646565b6118ab9190614646565b905060006118b98284614666565b9050808711156119315760405162461bcd60e51b815260206004820152602860248201527f596f752063616e277420616464206d6f726520686f757273207468616e20746860448201527f6520746f74616c21000000000000000000000000000000000000000000000000606482015260840161087c565b5050506000948552601001602052505060409091206007015550565b8060085481106119935760405162461bcd60e51b8152602060048201526011602482015270151a19481a9bd8881b9bdd08195e1a5cdd607a1b604482015260640161087c565b60008281526007602052604090205482906001600160a01b031633146119f25760405162461bcd60e51b81526020600482015260146024820152732cb7ba93b932903737ba103a34329037bbb732b960611b604482015260640161087c565b6000838152600760205260409020600c0154839060ff1615611a7c5760405162461bcd60e51b815260206004820152603060248201527f546865206a6f6220697320736561726368696e672063616e646964617465732060448201527f796f752063616e277420636c6f73652100000000000000000000000000000000606482015260840161087c565b6000848152600760205260409020600c01548490610100900460ff1615611ae55760405162461bcd60e51b815260206004820152601860248201527f546865206a6f6220697320616c726561647920656e6465640000000000000000604482015260640161087c565b60026000541415611b385760405162461bcd60e51b815260206004820152601f60248201527f5265656e7472616e637947756172643a207265656e7472616e742063616c6c00604482015260640161087c565b600260009081558581526007602081905260408220600c8101805461ff001916610100179055600681015491810154909291603c91611b779190614685565b611b819190614646565b905060006018603c8085600a015486600b0154611b9e9190614685565b611ba89190614646565b611bb29190614646565b611bbc9190614646565b905060005b83600e0154811015612014576000818152600d850160209081526040808320546001600160a01b03168352600f87018252808320548084526010880190925280832081516101408101909252805492939282908290611c1f9061469c565b80601f0160208091040260200160405190810160405280929190818152602001828054611c4b9061469c565b8015611c985780601f10611c6d57610100808354040283529160200191611c98565b820191906000526020600020905b815481529060010190602001808311611c7b57829003601f168201915b50505050508152602001600182018054611cb19061469c565b80601f0160208091040260200160405190810160405280929190818152602001828054611cdd9061469c565b8015611d2a5780601f10611cff57610100808354040283529160200191611d2a565b820191906000526020600020905b815481529060010190602001808311611d0d57829003601f168201915b505050918352505060028201546001600160a01b03166020820152600382018054604090920191611d5a9061469c565b80601f0160208091040260200160405190810160405280929190818152602001828054611d869061469c565b8015611dd35780601f10611da857610100808354040283529160200191611dd3565b820191906000526020600020905b815481529060010190602001808311611db657829003601f168201915b5050505050815260200160048201548152602001600582018054611df69061469c565b80601f0160208091040260200160405190810160405280929190818152602001828054611e229061469c565b8015611e6f5780601f10611e4457610100808354040283529160200191611e6f565b820191906000526020600020905b815481529060010190602001808311611e5257829003601f168201915b50505050508152602001600682018054611e889061469c565b80601f0160208091040260200160405190810160405280929190818152602001828054611eb49061469c565b8015611f015780601f10611ed657610100808354040283529160200191611f01565b820191906000526020600020905b815481529060010190602001808311611ee457829003601f168201915b50505091835250506007820154602082015260089091015460ff8082161515604084015261010090910416151560609091015260e0810151909150600090611f498688614666565b611f539190614685565b8760090154611f629190614666565b905081604001516001600160a01b03166108fc829081150290604051600060405180830381858888f19350505050158015611fa1573d6000803e3d6000fd5b50808760010154611fb29190614685565b600188015560408281015181516001600160a01b039091168152602081018390527fecf0692d4cedbdf4decc633271b8b1b4d257953fdca5cba30e444495ede0f31c910160405180910390a1505050808061200c906146d1565b915050611bc1565b5060018301541561205e57825460018401546040516001600160a01b039092169181156108fc0291906000818181858888f1935050505015801561205c573d6000803e3d6000fd5b505b6040518881527fca41b15f743cd506e877a65737b7072363d1ea62b57636bb94622e337a4c2add9060200160405180910390a150506001600055505050505050565b336000908152600460205260408120600a015482106121275760405162461bcd60e51b815260206004820152602260248201527f54686520696e636f6d696e67207265717565737420646f65736e27742065786960448201527f7374000000000000000000000000000000000000000000000000000000000000606482015260840161087c565b5033600090815260046020908152604080832093835260099093019052205490565b60008281526009602052604090206008810154610100900460ff1661216d57600080fd5b60018101546001600160a01b0316331480612191575080546001600160a01b031633145b6121ee5760405162461bcd60e51b815260206004820152602860248201527f596f75277265206e6f74207468652064657374696e6174696f6e206f7220746860448201526765206f776e65722160c01b606482015260840161087c565b60018101546000906001600160a01b0316331415612217575080546001600160a01b0316612227565b5060018101546001600160a01b03165b604080516080810182523381526001600160a01b03838116602080840191825293830187815242606085015260078701805460018181018355600092835291879020865160049092020180549186166001600160a01b0319928316178155935191840180549290951691161790925590518051929384936122ae9260028501920190613e3d565b5060609190910151600390910155604080513381526001600160a01b03841660208201527fd8b299e59f769a419bee2384c79e5dc491a05f9533388b3376d9848981da81b691015b60405180910390a15050505050565b6000806000806000806000806000600a548a106123645760405162461bcd60e51b815260206004820152601960248201527f546865207265717565737420646f65736e277420657869737400000000000000604482015260640161087c565b60008a815260096020526040902080546001600160a01b0316331480612396575060018101546001600160a01b031633145b6124085760405162461bcd60e51b815260206004820152602660248201527f596f75277265206e6f7420616c6c6f77656420746f207265616420746865207260448201527f6571756573740000000000000000000000000000000000000000000000000000606482015260840161087c565b8060000160009054906101000a90046001600160a01b03168160010160009054906101000a90046001600160a01b0316826002015483600301548460040154856005015486600601548760080160009054906101000a900460ff168860080160019054906101000a900460ff16995099509950995099509950995099509950509193959799909294969850565b606081600a5481106124a657600080fd5b600083815260096020526040902060018101546001600160a01b03163314806124d8575080546001600160a01b031633145b6125355760405162461bcd60e51b815260206004820152602860248201527f596f75277265206e6f74207468652064657374696e6174696f6e206f7220746860448201526765206f776e65722160c01b606482015260840161087c565b80600701805480602002602001604051908101604052809291908181526020016000905b8282101561264a576000848152602090819020604080516080810182526004860290920180546001600160a01b03908116845260018201541693830193909352600283018054929392918401916125af9061469c565b80601f01602080910402602001604051908101604052809291908181526020018280546125db9061469c565b80156126285780601f106125fd57610100808354040283529160200191612628565b820191906000526020600020905b81548152906001019060200180831161260b57829003601f168201915b5050505050815260200160038201548152505081526020019060010190612559565b5050505092505050919050565b3360009081526004602052604090205460ff16156126b75760405162461bcd60e51b815260206004820152601960248201527f596f7527726520616c7265616479207265676973746572642100000000000000604482015260640161087c565b336000908152600460209081526040909120805460ff19166001908117825588516126e9939290910191890190613e3d565b50336000908152600460209081526040909120865161271092600290920191880190613e3d565b5033600090815260046020818152604090922060038101879055855161273e93919092019190860190613e3d565b50336000908152600460209081526040909120835161276592600590920191850190613e3d565b50336000908152600460209081526040909120825161278c92600690920191840190613e3d565b5060068054600090815260056020526040812080546001600160a01b03191633179055815491906127bc836146d1565b91905055507f0eeb057e74cdc4b0baf2f21550ca34bce6c87cbfd56af98a4e3b95940f1456158686336040516127f4939291906144fb565b60405180910390a1505050505050565b3360009081526001602052604090205460ff166128525760405162461bcd60e51b815260206004820152600c60248201526b4e6f7420436f6d70616e792160a01b604482015260640161087c565b600034116128c75760405162461bcd60e51b8152602060048201526024808201527f596f75206d75737420637265617465206120726571756573742077697468207660448201527f616c756500000000000000000000000000000000000000000000000000000000606482015260840161087c565b6000831180156128d657508282115b80156128e25750600085115b80156128ed57508484115b6129395760405162461bcd60e51b815260206004820152601960248201527f54686520696e707574732061726520696e636f72726563747300000000000000604482015260640161087c565b600a54600090815260096020908152604080832080546001600160a01b0319908116339081178355600180840180546001600160a01b038f8116918616821790925560028087018f9055600387018e905534600480890191909155600588018e9055600688018d905560088801805461ffff19166101001790558851608081018a52958652858a019283529785018b81524260608701526007880180548087018255908c529a8a902086519b90990290980180549a84169a87169a909a178a559051928901805493909216929094169190911790559251805192959394612a269392850192910190613e3d565b50606091909101516003909101556001600160a01b0387166000908152600460209081526040808320600a805490820180548652600983019094529184209190915581549092909190612a78836146d1565b9091555050336000908152600160209081526040808320600a546007820180548652600683019094529184209190915581549092909190612ab8836146d1565b9091555050600a8054906000612acd836146d1565b9091555050604080513381526001600160a01b038b1660208201527fe574516642c19610bea5fc1607d78a7cd18f285d643c3f76da84f4bf50daff10910160405180910390a1505050505050505050565b806008548110612b645760405162461bcd60e51b8152602060048201526011602482015270151a19481a9bd8881b9bdd08195e1a5cdd607a1b604482015260640161087c565b3360009081526004602052604090205460ff16612b8057600080fd5b60008281526007602090815260408083203384526004909252909120612ba584613987565b15612bf25760405162461bcd60e51b815260206004820152601360248201527f416c726561647920526567697374657265642100000000000000000000000000604482015260640161087c565b601182015460009081526010830160205260409020600182018054829190612c199061469c565b612c24929190613ec1565b508160020181600101908054612c399061469c565b612c44929190613ec1565b506002810180546001600160a01b03191633179055600482018054600383019190612c6e9061469c565b612c79929190613ec1565b50600382015460048201556005808301805491830191612c989061469c565b612ca3929190613ec1565b508160060181600601908054612cb89061469c565b612cc3929190613ec1565b5060006007820181905560088201805461ffff19169055601184018054338352600f86016020526040832081905591612cfb836146d1565b90915550506008820180546000908152600784016020526040812087905581549190612d26836146d1565b91905055505050505050565b806008548110612d785760405162461bcd60e51b8152602060048201526011602482015270151a19481a9bd8881b9bdd08195e1a5cdd607a1b604482015260640161087c565b600082815260076020908152604080832033808552600f82018452828520548086526010830190945291909320600281015490916001600160a01b0390911614612e045760405162461bcd60e51b815260206004820152601860248201527f596f75277265206e6f74207468652063616e6469646174650000000000000000604482015260640161087c565b600881015460ff16612e585760405162461bcd60e51b815260206004820152601760248201527f486972652070726f706f73616c206e6f7420666f756e64000000000000000000604482015260640161087c565b6002810154600e840180546000908152600d86016020526040812080546001600160a01b0319166001600160a01b039094169390931790925560088301805461ffff1916610100179055805491612eae836146d1565b9091555050604080518681523360208201527fd5ca6cfd1918e76c3d26f5e6de2dc17b8c36ee5288009156a52bab0d193583ca91016122f6565b81600a548110612ef757600080fd5b60008381526009602052604090206008810154610100900460ff16612f5e5760405162461bcd60e51b815260206004820152601a60248201527f5468652072657175657374206973206e6f742061637469766521000000000000604482015260640161087c565b60018101546001600160a01b03163314612f7757600080fd5b60008360ff16118015612f8d575060038360ff16105b612f9657600080fd5b600801805460ff191660ff93909316929092179091555050565b606080806000818082808960085481106130005760405162461bcd60e51b8152602060048201526011602482015270151a19481a9bd8881b9bdd08195e1a5cdd607a1b604482015260640161087c565b60008b8152600760205260409020548b906001600160a01b0316331461305f5760405162461bcd60e51b81526020600482015260146024820152732cb7ba93b932903737ba103a34329037bbb732b960611b604482015260640161087c565b60008c81526007602090815260408083208e8452601001909152808220815161014081019092528054829082906130959061469c565b80601f01602080910402602001604051908101604052809291908181526020018280546130c19061469c565b801561310e5780601f106130e35761010080835404028352916020019161310e565b820191906000526020600020905b8154815290600101906020018083116130f157829003601f168201915b505050505081526020016001820180546131279061469c565b80601f01602080910402602001604051908101604052809291908181526020018280546131539061469c565b80156131a05780601f10613175576101008083540402835291602001916131a0565b820191906000526020600020905b81548152906001019060200180831161318357829003601f168201915b505050918352505060028201546001600160a01b031660208201526003820180546040909201916131d09061469c565b80601f01602080910402602001604051908101604052809291908181526020018280546131fc9061469c565b80156132495780601f1061321e57610100808354040283529160200191613249565b820191906000526020600020905b81548152906001019060200180831161322c57829003601f168201915b505050505081526020016004820154815260200160058201805461326c9061469c565b80601f01602080910402602001604051908101604052809291908181526020018280546132989061469c565b80156132e55780601f106132ba576101008083540402835291602001916132e5565b820191906000526020600020905b8154815290600101906020018083116132c857829003601f168201915b505050505081526020016006820180546132fe9061469c565b80601f016020809104026020016040519081016040528092919081815260200182805461332a9061469c565b80156133775780601f1061334c57610100808354040283529160200191613377565b820191906000526020600020905b81548152906001019060200180831161335a57829003601f168201915b50505050508152602001600782015481526020016008820160009054906101000a900460ff161515151581526020016008820160019054906101000a900460ff161515151581525050905080600001518160200151826060015183608001518460a001518560c001518661010001518761012001519a509a509a509a509a509a509a509a505050509295985092959890939650565b3360009081526001602052604081205460ff1661345a5760405162461bcd60e51b815260206004820152600c60248201526b4e6f7420436f6d70616e792160a01b604482015260640161087c565b503360009081526001602052604090206005015490565b3360009081526001602052604081206007015482106134f85760405162461bcd60e51b815260206004820152602160248201527f5468652073656e64656420726571756573742020646f65736e2774206578697360448201527f7400000000000000000000000000000000000000000000000000000000000000606482015260840161087c565b5033600090815260016020908152604080832093835260069093019052205490565b3360009081526004602052604081205460ff1661353657600080fd5b3360009081526004602052604090206008015482106135975760405162461bcd60e51b815260206004820152600f60248201527f4a6f6220646f6e277420666f756e640000000000000000000000000000000000604482015260640161087c565b5033600090815260046020908152604080832093835260079093019052205490565b3360009081526001602052604090205460ff166136075760405162461bcd60e51b815260206004820152600c60248201526b4e6f7420436f6d70616e792160a01b604482015260640161087c565b6000341161367d5760405162461bcd60e51b815260206004820152602560248201527f4e6565642073656e64696e67206d6f6e657920666f72206372656174696e672060448201527f61206a6f62000000000000000000000000000000000000000000000000000000606482015260840161087c565b60008511801561368c57508484115b80156136985750600082115b80156136a357508181115b80156136af5750600083115b6136fb5760405162461bcd60e51b815260206004820152601960248201527f54686520696e707574732061726520696e636f72726563747300000000000000604482015260640161087c565b6000603c6137098787614685565b6137139190614646565b905060006018603c806137268787614685565b6137309190614646565b61373a9190614646565b6137449190614646565b9050600085836137548434614646565b61375e9190614646565b6137689190614646565b905060006007600060085481526020019081526020016000209050338160000160006101000a8154816001600160a01b0302191690836001600160a01b031602179055503481600101819055508c8160020190805190602001906137cd929190613e3d565b508b516137e390600383019060208f0190613e3d565b508a516137f990600483019060208e0190613e3d565b50895161380f90600583019060208d0190613e3d565b506006810189905560078101889055600880820188905560098201839055600a8201879055600b8201869055600c8201805461ffff191660019081179091556000600e840181905560118401819055338152602091825260408082209354600585018054845260048601909452908220558154919061388d836146d1565b9091555050600880549060006138a2836146d1565b9091555050604080513381523460208201527f8989b75cccca0fb30da05814ad53f47c96062c68f02f70eef5673f84e1f905d8910160405180910390a15050505050505050505050505050565b336000908152600460205260408120600881015483106139415760405162461bcd60e51b815260206004820152600d60248201526c129bd8881b9bdd08199bdd5b99609a1b604482015260640161087c565b6008808201546000908152600792830160209081526040808320548352938152838220338352600f81018252848320548352601001905291909120015460ff1692915050565b60008160085481106139cf5760405162461bcd60e51b8152602060048201526011602482015270151a19481a9bd8881b9bdd08195e1a5cdd607a1b604482015260640161087c565b3360009081526004602052604090205460ff166139eb57600080fd5b600083815260076020908152604080832033808552600f82018452828520548552601082019093529220600201546001600160a01b03161415613a325760019250506108a6565b60009250506108a6565b600080606080808084808080808b6008548110613a8f5760405162461bcd60e51b8152602060048201526011602482015270151a19481a9bd8881b9bdd08195e1a5cdd607a1b604482015260640161087c565b60008d8152600760205260409020805460018201546008830154600a840154600b850154600c86015460118701546002880180546001600160a01b0390981697909560038a019560048b019560058c019592949193909260ff1691908990613af69061469c565b80601f0160208091040260200160405190810160405280929190818152602001828054613b229061469c565b8015613b6f5780601f10613b4457610100808354040283529160200191613b6f565b820191906000526020600020905b815481529060010190602001808311613b5257829003601f168201915b50505050509850878054613b829061469c565b80601f0160208091040260200160405190810160405280929190818152602001828054613bae9061469c565b8015613bfb5780601f10613bd057610100808354040283529160200191613bfb565b820191906000526020600020905b815481529060010190602001808311613bde57829003601f168201915b50505050509750868054613c0e9061469c565b80601f0160208091040260200160405190810160405280929190818152602001828054613c3a9061469c565b8015613c875780601f10613c5c57610100808354040283529160200191613c87565b820191906000526020600020905b815481529060010190602001808311613c6a57829003601f168201915b50505050509650858054613c9a9061469c565b80601f0160208091040260200160405190810160405280929190818152602001828054613cc69061469c565b8015613d135780601f10613ce857610100808354040283529160200191613d13565b820191906000526020600020905b815481529060010190602001808311613cf657829003601f168201915b505050505095509c509c509c509c509c509c509c509c509c509c509c50505091939597999b90929496989a50565b6000816008548110613d895760405162461bcd60e51b8152602060048201526011602482015270151a19481a9bd8881b9bdd08195e1a5cdd607a1b604482015260640161087c565b3360009081526004602052604090205460ff16613da557600080fd5b50506000908152600760209081526040808320338452600f81018352818420548452601001909152902060080154610100900460ff1690565b6000816008548110613e265760405162461bcd60e51b8152602060048201526011602482015270151a19481a9bd8881b9bdd08195e1a5cdd607a1b604482015260640161087c565b505060009081526007602052604090206011015490565b828054613e499061469c565b90600052602060002090601f016020900481019282613e6b5760008555613eb1565b82601f10613e8457805160ff1916838001178555613eb1565b82800160010185558215613eb1579182015b82811115613eb1578251825591602001919060010190613e96565b50613ebd929150613f3c565b5090565b828054613ecd9061469c565b90600052602060002090601f016020900481019282613eef5760008555613eb1565b82601f10613f005780548555613eb1565b82800160010185558215613eb157600052602060002091601f016020900482015b82811115613eb1578254825591600101919060010190613f21565b5b80821115613ebd5760008155600101613f3d565b600082601f830112613f61578081fd5b813567ffffffffffffffff80821115613f7c57613f7c614702565b604051601f8301601f19908116603f01168101908282118183101715613fa457613fa4614702565b81604052838152866020858801011115613fbc578485fd5b8360208701602083013792830160200193909352509392505050565b60008060008060008060c08789031215613ff0578182fd5b86356001600160a01b0381168114614006578283fd5b95506020870135945060408701359350606087013592506080870135915060a087013567ffffffffffffffff81111561403d578182fd5b61404989828a01613f51565b9150509295509295509295565b60008060006060848603121561406a578283fd5b833567ffffffffffffffff80821115614081578485fd5b61408d87838801613f51565b945060208601359150808211156140a2578384fd5b6140ae87838801613f51565b935060408601359150808211156140c3578283fd5b506140d086828701613f51565b9150509250925092565b60008060008060008060008060006101208a8c0312156140f8578283fd5b893567ffffffffffffffff8082111561410f578485fd5b61411b8d838e01613f51565b9a5060208c0135915080821115614130578485fd5b61413c8d838e01613f51565b995060408c0135915080821115614151578485fd5b61415d8d838e01613f51565b985060608c0135915080821115614172578485fd5b5061417f8c828d01613f51565b999c989b50969960808101359860a0820135985060c0820135975060e0820135965061010090910135945092505050565b60008060008060008060c087890312156141c8578182fd5b863567ffffffffffffffff808211156141df578384fd5b6141eb8a838b01613f51565b97506020890135915080821115614200578384fd5b61420c8a838b01613f51565b9650604089013595506060890135915080821115614228578384fd5b6142348a838b01613f51565b94506080890135915080821115614249578384fd5b6142558a838b01613f51565b935060a089013591508082111561426a578283fd5b5061404989828a01613f51565b600060208284031215614288578081fd5b5035919050565b600080604083850312156142a1578182fd5b82359150602083013567ffffffffffffffff8111156142be578182fd5b6142ca85828601613f51565b9150509250929050565b600080604083850312156142e6578182fd5b50508035926020909101359150565b600080600060608486031215614309578283fd5b505081359360208301359350604090920135919050565b60008060408385031215614332578182fd5b82359150602083013560ff81168114614349578182fd5b809150509250929050565b60008151808452815b818110156143795760208185018101518683018201520161435d565b8181111561438a5782602083870101525b50601f01601f19169290920160200192915050565b60006101606001600160a01b038e1683528c60208401528060408401526143c88184018d614354565b905082810360608401526143dc818c614354565b905082810360808401526143f0818b614354565b905082810360a0840152614404818a614354565b60c0840198909852505060e08101949094526101008401929092521515610120830152610140909101529695505050505050565b60006020808301818452808551808352604092508286019150828160051b870101848801865b838110156144c257603f19898403018552815160806001600160a01b03808351168652808a840151168a870152508782015181898701526144a182870182614354565b6060938401519690930195909552509487019492509086019060010161445e565b509098975050505050505050565b6040815260006144e36040830185614354565b90506001600160a01b03831660208301529392505050565b60608152600061450e6060830186614354565b82810360208401526145208186614354565b9150506001600160a01b0383166040830152949350505050565b600061010080835261454e8184018c614354565b90508281036020840152614562818b614354565b90508281036040840152614576818a614354565b905087606084015282810360808401526145908188614354565b905082810360a08401526145a48187614354565b94151560c0840152505090151560e0909101529695505050505050565b60e0815260006145d460e083018a614354565b82810360208401526145e6818a614354565b905087604084015282810360608401526146008188614354565b905082810360808401526146148187614354565b905082810360a08401526146288186614354565b9150506001600160a01b03831660c083015298975050505050505050565b60008261466157634e487b7160e01b81526012600452602481fd5b500490565b6000816000190483118215151615614680576146806146ec565b500290565b600082821015614697576146976146ec565b500390565b600181811c908216806146b057607f821691505b602082108114156108a657634e487b7160e01b600052602260045260246000fd5b60006000198214156146e5576146e56146ec565b5060010190565b634e487b7160e01b600052601160045260246000fd5b634e487b7160e01b600052604160045260246000fdfea26469706673582212206bede0304b97408f7dbfb21254d7b3d92fb550b55832067c9e6254426fd7545b64736f6c63430008040033",
  "linkReferences": {},
  "deployedLinkReferences": {}
}