{
  "_format": "hh-sol-artifact-1",
  "contractName": "JobContract",
  "sourceName": "contracts/JobContract.sol",
  "abi": [
    {
      "inputs": [
        {
          "internalType": "address",
          "name": "_interfaceHUB",
          "type": "address"
        }
      ],
      "stateMutability": "nonpayable",
      "type": "constructor"
    },
    {
      "anonymous": false,
      "inputs": [
        {
          "indexed": false,
          "internalType": "uint256",
          "name": "",
          "type": "uint256"
        }
      ],
      "name": "ev_CloseJob",
      "type": "event"
    },
    {
      "anonymous": false,
      "inputs": [
        {
          "indexed": false,
          "internalType": "uint256",
          "name": "",
          "type": "uint256"
        }
      ],
      "name": "ev_ClosedSearch",
      "type": "event"
    },
    {
      "anonymous": false,
      "inputs": [
        {
          "indexed": false,
          "internalType": "address",
          "name": "",
          "type": "address"
        },
        {
          "indexed": false,
          "internalType": "uint256",
          "name": "",
          "type": "uint256"
        }
      ],
      "name": "ev_CreateJob",
      "type": "event"
    },
    {
      "anonymous": false,
      "inputs": [
        {
          "indexed": false,
          "internalType": "uint256",
          "name": "",
          "type": "uint256"
        },
        {
          "indexed": false,
          "internalType": "address",
          "name": "",
          "type": "address"
        }
      ],
      "name": "ev_Hired",
      "type": "event"
    },
    {
      "anonymous": false,
      "inputs": [
        {
          "indexed": false,
          "internalType": "address",
          "name": "",
          "type": "address"
        },
        {
          "indexed": false,
          "internalType": "uint256",
          "name": "",
          "type": "uint256"
        }
      ],
      "name": "ev_Pay",
      "type": "event"
    },
    {
      "inputs": [
        {
          "internalType": "address",
          "name": "worker",
          "type": "address"
        },
        {
          "internalType": "uint256",
          "name": "_nrJob",
          "type": "uint256"
        }
      ],
      "name": "AcceptJob",
      "outputs": [],
      "stateMutability": "nonpayable",
      "type": "function"
    },
    {
      "inputs": [
        {
          "internalType": "address",
          "name": "worker",
          "type": "address"
        },
        {
          "internalType": "uint256",
          "name": "_nrJob",
          "type": "uint256"
        },
        {
          "internalType": "string",
          "name": "_name",
          "type": "string"
        },
        {
          "internalType": "string",
          "name": "_surname",
          "type": "string"
        },
        {
          "internalType": "string",
          "name": "_mobilePhone",
          "type": "string"
        },
        {
          "internalType": "uint256",
          "name": "_age",
          "type": "uint256"
        },
        {
          "internalType": "string",
          "name": "_CV",
          "type": "string"
        },
        {
          "internalType": "string",
          "name": "_coverLetter",
          "type": "string"
        }
      ],
      "name": "ApplyToJob",
      "outputs": [],
      "stateMutability": "nonpayable",
      "type": "function"
    },
    {
      "inputs": [
        {
          "internalType": "uint256",
          "name": "_nrJob",
          "type": "uint256"
        }
      ],
      "name": "CheckWorkerApplied",
      "outputs": [
        {
          "internalType": "bool",
          "name": "",
          "type": "bool"
        }
      ],
      "stateMutability": "view",
      "type": "function"
    },
    {
      "inputs": [
        {
          "internalType": "uint256",
          "name": "_nrJob",
          "type": "uint256"
        }
      ],
      "name": "CheckWorkerHired",
      "outputs": [
        {
          "internalType": "bool",
          "name": "",
          "type": "bool"
        }
      ],
      "stateMutability": "view",
      "type": "function"
    },
    {
      "inputs": [
        {
          "internalType": "uint256",
          "name": "_nrJob",
          "type": "uint256"
        }
      ],
      "name": "CloseAndPay",
      "outputs": [],
      "stateMutability": "nonpayable",
      "type": "function"
    },
    {
      "inputs": [
        {
          "internalType": "uint256",
          "name": "_nrJob",
          "type": "uint256"
        }
      ],
      "name": "CloseSearching",
      "outputs": [],
      "stateMutability": "nonpayable",
      "type": "function"
    },
    {
      "inputs": [
        {
          "internalType": "address payable",
          "name": "_owner",
          "type": "address"
        },
        {
          "internalType": "string",
          "name": "_title",
          "type": "string"
        },
        {
          "internalType": "string",
          "name": "_description",
          "type": "string"
        },
        {
          "internalType": "string",
          "name": "_workingAddress",
          "type": "string"
        },
        {
          "internalType": "string",
          "name": "_searchingPosition",
          "type": "string"
        },
        {
          "internalType": "uint256",
          "name": "_hourInit",
          "type": "uint256"
        },
        {
          "internalType": "uint256",
          "name": "_hourFinish",
          "type": "uint256"
        },
        {
          "internalType": "uint256",
          "name": "_peopleToHire",
          "type": "uint256"
        },
        {
          "internalType": "uint256",
          "name": "_dateFrom",
          "type": "uint256"
        },
        {
          "internalType": "uint256",
          "name": "_dateTo",
          "type": "uint256"
        }
      ],
      "name": "CreateJob",
      "outputs": [],
      "stateMutability": "payable",
      "type": "function"
    },
    {
      "inputs": [
        {
          "internalType": "uint256",
          "name": "_nrJob",
          "type": "uint256"
        },
        {
          "internalType": "uint256",
          "name": "_nrCandidate",
          "type": "uint256"
        }
      ],
      "name": "RequestHire",
      "outputs": [],
      "stateMutability": "nonpayable",
      "type": "function"
    },
    {
      "inputs": [
        {
          "internalType": "uint256",
          "name": "_nrJob",
          "type": "uint256"
        },
        {
          "internalType": "uint256",
          "name": "_nrCandidate",
          "type": "uint256"
        },
        {
          "internalType": "uint256",
          "name": "_absentHours",
          "type": "uint256"
        }
      ],
      "name": "SetAbsentHours",
      "outputs": [],
      "stateMutability": "nonpayable",
      "type": "function"
    },
    {
      "inputs": [
        {
          "internalType": "address",
          "name": "_requestContract",
          "type": "address"
        }
      ],
      "name": "SetContractRequestAddress",
      "outputs": [],
      "stateMutability": "nonpayable",
      "type": "function"
    },
    {
      "inputs": [
        {
          "internalType": "uint256",
          "name": "_nrJob",
          "type": "uint256"
        },
        {
          "internalType": "uint256",
          "name": "_nrCandidate",
          "type": "uint256"
        }
      ],
      "name": "ShowAbsentHoursCandidate",
      "outputs": [
        {
          "internalType": "uint256",
          "name": "",
          "type": "uint256"
        }
      ],
      "stateMutability": "view",
      "type": "function"
    },
    {
      "inputs": [
        {
          "internalType": "uint256",
          "name": "_nrJob",
          "type": "uint256"
        }
      ],
      "name": "ShowCloseJob",
      "outputs": [
        {
          "internalType": "bool",
          "name": "",
          "type": "bool"
        }
      ],
      "stateMutability": "view",
      "type": "function"
    },
    {
      "inputs": [
        {
          "internalType": "uint256",
          "name": "_nrJob",
          "type": "uint256"
        }
      ],
      "name": "ShowHired",
      "outputs": [
        {
          "internalType": "uint256",
          "name": "",
          "type": "uint256"
        }
      ],
      "stateMutability": "view",
      "type": "function"
    },
    {
      "inputs": [
        {
          "internalType": "uint256",
          "name": "_nrJob",
          "type": "uint256"
        }
      ],
      "name": "ShowIfHireQuestion",
      "outputs": [
        {
          "internalType": "bool",
          "name": "",
          "type": "bool"
        }
      ],
      "stateMutability": "view",
      "type": "function"
    },
    {
      "inputs": [
        {
          "internalType": "uint256",
          "name": "_nrJob",
          "type": "uint256"
        },
        {
          "internalType": "uint256",
          "name": "_nrCandidate",
          "type": "uint256"
        }
      ],
      "name": "ShowJobCandidate",
      "outputs": [
        {
          "internalType": "string",
          "name": "",
          "type": "string"
        },
        {
          "internalType": "string",
          "name": "",
          "type": "string"
        },
        {
          "internalType": "string",
          "name": "",
          "type": "string"
        },
        {
          "internalType": "uint256",
          "name": "",
          "type": "uint256"
        },
        {
          "internalType": "string",
          "name": "",
          "type": "string"
        },
        {
          "internalType": "string",
          "name": "",
          "type": "string"
        },
        {
          "internalType": "bool",
          "name": "",
          "type": "bool"
        },
        {
          "internalType": "bool",
          "name": "",
          "type": "bool"
        }
      ],
      "stateMutability": "view",
      "type": "function"
    },
    {
      "inputs": [
        {
          "internalType": "uint256",
          "name": "_nrJob",
          "type": "uint256"
        }
      ],
      "name": "ShowJobCandidatesCounter",
      "outputs": [
        {
          "internalType": "uint256",
          "name": "",
          "type": "uint256"
        }
      ],
      "stateMutability": "view",
      "type": "function"
    },
    {
      "inputs": [
        {
          "internalType": "uint256",
          "name": "_nrJob",
          "type": "uint256"
        }
      ],
      "name": "ShowJobSummary",
      "outputs": [
        {
          "internalType": "address",
          "name": "",
          "type": "address"
        },
        {
          "internalType": "uint256",
          "name": "",
          "type": "uint256"
        },
        {
          "internalType": "string",
          "name": "",
          "type": "string"
        },
        {
          "internalType": "string",
          "name": "",
          "type": "string"
        },
        {
          "internalType": "string",
          "name": "",
          "type": "string"
        },
        {
          "internalType": "string",
          "name": "",
          "type": "string"
        },
        {
          "internalType": "uint256",
          "name": "",
          "type": "uint256"
        },
        {
          "internalType": "uint256",
          "name": "",
          "type": "uint256"
        },
        {
          "internalType": "uint256",
          "name": "",
          "type": "uint256"
        },
        {
          "internalType": "bool",
          "name": "",
          "type": "bool"
        },
        {
          "internalType": "uint256",
          "name": "",
          "type": "uint256"
        }
      ],
      "stateMutability": "view",
      "type": "function"
    },
    {
      "inputs": [],
      "name": "ShowJobsCounter",
      "outputs": [
        {
          "internalType": "uint256",
          "name": "",
          "type": "uint256"
        }
      ],
      "stateMutability": "view",
      "type": "function"
    }
  ],
  "bytecode": "0x60806040523480156200001157600080fd5b5060405162002d0938038062002d0983398101604081905262000034916200005f565b6001600055600380546001600160a01b0319166001600160a01b03929092169190911790556200008f565b60006020828403121562000071578081fd5b81516001600160a01b038116811462000088578182fd5b9392505050565b612c6a806200009f6000396000f3fe6080604052600436106101295760003560e01c80636c4d0984116100a5578063ad2a79f811610074578063d53f9b9b11610059578063d53f9b9b14610359578063ef79966114610379578063f8a5ef0b146103b057600080fd5b8063ad2a79f814610312578063ce0e6d741461034657600080fd5b80636c4d09841461027357806378c27142146102935780637bd989f5146102b3578063a0933fbc146102fd57600080fd5b806334619d50116100fc5780635051b892116100e15780635051b892146102135780635386903f1461023357806365f366921461025357600080fd5b806334619d50146101c35780633b2aec48146101f357600080fd5b80630b2164381461012e57806313017669146101505780631eca0d2e146101705780632665ca3c146101a3575b600080fd5b34801561013a57600080fd5b5061014e61014936600461297b565b6103d0565b005b34801561015c57600080fd5b5061014e61016b366004612993565b6104d0565b34801561017c57600080fd5b5061019061018b36600461297b565b6105fb565b6040519081526020015b60405180910390f35b3480156101af57600080fd5b5061014e6101be366004612840565b61065e565b3480156101cf57600080fd5b506101e36101de36600461297b565b61089a565b604051901515815260200161019a565b3480156101ff57600080fd5b5061019061020e366004612993565b6109da565b34801561021f57600080fd5b506101e361022e36600461297b565b610a48565b34801561023f57600080fd5b506101e361024e36600461297b565b610b82565b34801561025f57600080fd5b5061014e61026e3660046129b4565b610be9565b34801561027f57600080fd5b5061014e61028e36600461297b565b610e6c565b34801561029f57600080fd5b5061014e6102ae36600461286b565b6115c6565b3480156102bf57600080fd5b5061014e6102ce366004612736565b6004805473ffffffffffffffffffffffffffffffffffffffff19166001600160a01b0392909216919091179055565b34801561030957600080fd5b50600254610190565b34801561031e57600080fd5b5061033261032d366004612993565b611913565b60405161019a989796959493929190612ac3565b61014e610354366004612759565b611d78565b34801561036557600080fd5b506101e361037436600461297b565b61216b565b34801561038557600080fd5b5061039961039436600461297b565b6122a0565b60405161019a9b9a99989796959493929190612a2a565b3480156103bc57600080fd5b506101906103cb36600461297b565b6125a7565b80600254811061041b5760405162461bcd60e51b8152602060048201526011602482015270151a19481a9bd8881b9bdd08195e1a5cdd607a1b60448201526064015b60405180910390fd5b600082815260016020526040902080546001600160a01b031633148061044b57506004546001600160a01b031633145b61048c5760405162461bcd60e51b8152602060048201526012602482015271165bdd49dc99481b9bdd08185b1b1bddd95960721b6044820152606401610412565b600c8101805460ff191690556040518381527f156d298e3230eef448bd5231631a15a00a31d76ee7cc580888b12e660d3c45199060200160405180910390a1505050565b8160025481106105165760405162461bcd60e51b8152602060048201526011602482015270151a19481a9bd8881b9bdd08195e1a5cdd607a1b6044820152606401610412565b600083815260016020526040902080546001600160a01b031633148061054657506004546001600160a01b031633145b6105875760405162461bcd60e51b8152602060048201526012602482015271165bdd49dc99481b9bdd08185b1b1bddd95960721b6044820152606401610412565b806011015483106105da5760405162461bcd60e51b815260206004820152601360248201527f43616e646974617465206e6f7420666f756e64000000000000000000000000006044820152606401610412565b60009283526010016020525060409020600801805460ff1916600117905550565b60008160025481106106435760405162461bcd60e51b8152602060048201526011602482015270151a19481a9bd8881b9bdd08195e1a5cdd607a1b6044820152606401610412565b6000838152600160205260409020600e015491505b50919050565b8060025481106106a45760405162461bcd60e51b8152602060048201526011602482015270151a19481a9bd8881b9bdd08195e1a5cdd607a1b6044820152606401610412565b6001600160a01b0383163314806106c557506004546001600160a01b031633145b6107065760405162461bcd60e51b8152602060048201526012602482015271165bdd49dc99481b9bdd08185b1b1bddd95960721b6044820152606401610412565b60008281526001602090815260408083206001600160a01b03808816808652600f830185528386205480875260108401909552929094206002810154919490929116146107955760405162461bcd60e51b815260206004820152601860248201527f596f75277265206e6f74207468652063616e64696461746500000000000000006044820152606401610412565b600881015460ff166107e95760405162461bcd60e51b815260206004820152601760248201527f486972652070726f706f73616c206e6f7420666f756e640000000000000000006044820152606401610412565b6002810154600e840180546000908152600d860160205260408120805473ffffffffffffffffffffffffffffffffffffffff19166001600160a01b039094169390931790925560088301805461ffff191661010017905580549161084c83612bd5565b9091555050604080518681526001600160a01b03881660208201527fd5ca6cfd1918e76c3d26f5e6de2dc17b8c36ee5288009156a52bab0d193583ca910160405180910390a1505050505050565b60008160025481106108e25760405162461bcd60e51b8152602060048201526011602482015270151a19481a9bd8881b9bdd08195e1a5cdd607a1b6044820152606401610412565b600354604051632e1f173f60e21b81523360048201526001600160a01b0390911690819063b87c5cfc9060240160206040518083038186803b15801561092757600080fd5b505afa15801561093b573d6000803e3d6000fd5b505050506040513d601f19601f8201168201806040525081019061095f919061295b565b61099a5760405162461bcd60e51b815260206004820152600c60248201526b2737ba1030903bb7b935b2b960a11b6044820152606401610412565b505050600090815260016020908152604080832033808552600f820184528285205485526010909101909252909120600201546001600160a01b03161490565b6000826002548110610a225760405162461bcd60e51b8152602060048201526011602482015270151a19481a9bd8881b9bdd08195e1a5cdd607a1b6044820152606401610412565b505060009182526001602090815260408084209284526010909201905290206007015490565b6000816002548110610a905760405162461bcd60e51b8152602060048201526011602482015270151a19481a9bd8881b9bdd08195e1a5cdd607a1b6044820152606401610412565b600354604051632e1f173f60e21b81523360048201526001600160a01b0390911690819063b87c5cfc9060240160206040518083038186803b158015610ad557600080fd5b505afa158015610ae9573d6000803e3d6000fd5b505050506040513d601f19601f82011682018060405250810190610b0d919061295b565b610b485760405162461bcd60e51b815260206004820152600c60248201526b2737ba1030903bb7b935b2b960a11b6044820152606401610412565b5050506000908152600160209081526040808320338452600f81018352818420548452601001909152902060080154610100900460ff1690565b6000816002548110610bca5760405162461bcd60e51b8152602060048201526011602482015270151a19481a9bd8881b9bdd08195e1a5cdd607a1b6044820152606401610412565b50506000908152600160205260409020600c0154610100900460ff1690565b826002548110610c2f5760405162461bcd60e51b8152602060048201526011602482015270151a19481a9bd8881b9bdd08195e1a5cdd607a1b6044820152606401610412565b60008481526001602052604090205484906001600160a01b03163314610c975760405162461bcd60e51b815260206004820152601460248201527f4e6f74206f776e6572206f6620746865206a6f620000000000000000000000006044820152606401610412565b60008311610ca457600080fd5b600085815260016020526040902060118101548510610d055760405162461bcd60e51b815260206004820152601360248201527f43616e646964617465206e6f7420666f756e64000000000000000000000000006044820152606401610412565b6000858152601082016020526040902060080154610100900460ff16610d6d5760405162461bcd60e51b815260206004820152601560248201527f43616e6469646174652069736e277420686972656400000000000000000000006044820152606401610412565b6000603c82600601548360070154610d859190612b89565b610d8f9190612b4a565b905060006018603c8085600a015486600b0154610dac9190612b89565b610db69190612b4a565b610dc09190612b4a565b610dca9190612b4a565b90506000610dd88284612b6a565b905080871115610e505760405162461bcd60e51b815260206004820152602860248201527f596f752063616e277420616464206d6f726520686f757273207468616e20746860448201527f6520746f74616c210000000000000000000000000000000000000000000000006064820152608401610412565b5050506000948552601001602052505060409091206007015550565b806002548110610eb25760405162461bcd60e51b8152602060048201526011602482015270151a19481a9bd8881b9bdd08195e1a5cdd607a1b6044820152606401610412565b60008281526001602052604090205482906001600160a01b03163314610f1a5760405162461bcd60e51b815260206004820152601460248201527f4e6f74206f776e6572206f6620746865206a6f620000000000000000000000006044820152606401610412565b6000838152600160205260409020600c0154839060ff1615610fa45760405162461bcd60e51b815260206004820152603060248201527f546865206a6f6220697320736561726368696e672063616e646964617465732060448201527f796f752063616e277420636c6f736521000000000000000000000000000000006064820152608401610412565b6000848152600160205260409020600c01548490610100900460ff161561100d5760405162461bcd60e51b815260206004820152601860248201527f546865206a6f6220697320616c726561647920656e64656400000000000000006044820152606401610412565b600260005414156110605760405162461bcd60e51b815260206004820152601f60248201527f5265656e7472616e637947756172643a207265656e7472616e742063616c6c006044820152606401610412565b60026000908155858152600160205260408120600c8101805461ff00191661010017905560068101546007820154919291603c9161109d91612b89565b6110a79190612b4a565b905060006018603c8085600a015486600b01546110c49190612b89565b6110ce9190612b4a565b6110d89190612b4a565b6110e29190612b4a565b905060005b83600e015481101561153a576000818152600d850160209081526040808320546001600160a01b03168352600f8701825280832054808452601088019092528083208151610140810190925280549293928290829061114590612ba0565b80601f016020809104026020016040519081016040528092919081815260200182805461117190612ba0565b80156111be5780601f10611193576101008083540402835291602001916111be565b820191906000526020600020905b8154815290600101906020018083116111a157829003601f168201915b505050505081526020016001820180546111d790612ba0565b80601f016020809104026020016040519081016040528092919081815260200182805461120390612ba0565b80156112505780601f1061122557610100808354040283529160200191611250565b820191906000526020600020905b81548152906001019060200180831161123357829003601f168201915b505050918352505060028201546001600160a01b0316602082015260038201805460409092019161128090612ba0565b80601f01602080910402602001604051908101604052809291908181526020018280546112ac90612ba0565b80156112f95780601f106112ce576101008083540402835291602001916112f9565b820191906000526020600020905b8154815290600101906020018083116112dc57829003601f168201915b505050505081526020016004820154815260200160058201805461131c90612ba0565b80601f016020809104026020016040519081016040528092919081815260200182805461134890612ba0565b80156113955780601f1061136a57610100808354040283529160200191611395565b820191906000526020600020905b81548152906001019060200180831161137857829003601f168201915b505050505081526020016006820180546113ae90612ba0565b80601f01602080910402602001604051908101604052809291908181526020018280546113da90612ba0565b80156114275780601f106113fc57610100808354040283529160200191611427565b820191906000526020600020905b81548152906001019060200180831161140a57829003601f168201915b50505091835250506007820154602082015260089091015460ff8082161515604084015261010090910416151560609091015260e081015190915060009061146f8688612b6a565b6114799190612b89565b87600901546114889190612b6a565b905081604001516001600160a01b03166108fc829081150290604051600060405180830381858888f193505050501580156114c7573d6000803e3d6000fd5b508087600101546114d89190612b89565b600188015560408281015181516001600160a01b039091168152602081018390527fecf0692d4cedbdf4decc633271b8b1b4d257953fdca5cba30e444495ede0f31c910160405180910390a1505050808061153290612bd5565b9150506110e7565b5060018301541561158457825460018401546040516001600160a01b039092169181156108fc0291906000818181858888f19350505050158015611582573d6000803e3d6000fd5b505b6040518881527fca41b15f743cd506e877a65737b7072363d1ea62b57636bb94622e337a4c2add9060200160405180910390a150506001600055505050505050565b86600254811061160c5760405162461bcd60e51b8152602060048201526011602482015270151a19481a9bd8881b9bdd08195e1a5cdd607a1b6044820152606401610412565b600354604051632e1f173f60e21b81523360048201526001600160a01b0390911690819063b87c5cfc9060240160206040518083038186803b15801561165157600080fd5b505afa158015611665573d6000803e3d6000fd5b505050506040513d601f19601f82011682018060405250810190611689919061295b565b6116c45760405162461bcd60e51b815260206004820152600c60248201526b2737ba1030903bb7b935b2b960a11b6044820152606401610412565b60008981526001602052604090206116db8a61089a565b156117285760405162461bcd60e51b815260206004820152601360248201527f416c7265616479205265676973746572656421000000000000000000000000006044820152606401610412565b6001600160a01b038b1633148061174957506004546001600160a01b031633145b61178a5760405162461bcd60e51b8152602060048201526012602482015271165bdd49dc99481b9bdd08185b1b1bddd95960721b6044820152606401610412565b6011810154600090815260108201602090815260409091208a5190916117b49183918d0190612606565b5088516117ca90600183019060208c0190612606565b5060028101805473ffffffffffffffffffffffffffffffffffffffff19166001600160a01b038e16179055875161180a90600383019060208b0190612606565b506004810187905585516118279060058301906020890190612606565b50845161183d9060068301906020880190612606565b5060006007820181905560088201805461ffff191690556011830180546001600160a01b038f168352600f8501602052604083208190559161187e83612bd5565b90915550506003546040517f8554a2600000000000000000000000000000000000000000000000000000000081526001600160a01b038e81166004830152602482018e9052909116908190638554a26090604401600060405180830381600087803b1580156118ec57600080fd5b505af1158015611900573d6000803e3d6000fd5b5050505050505050505050505050505050565b606080806000818082808960025481106119635760405162461bcd60e51b8152602060048201526011602482015270151a19481a9bd8881b9bdd08195e1a5cdd607a1b6044820152606401610412565b60008b8152600160205260409020548b906001600160a01b031633146119cb5760405162461bcd60e51b815260206004820152601460248201527f4e6f74206f776e6572206f6620746865206a6f620000000000000000000000006044820152606401610412565b60008c81526001602090815260408083208e845260100190915280822081516101408101909252805482908290611a0190612ba0565b80601f0160208091040260200160405190810160405280929190818152602001828054611a2d90612ba0565b8015611a7a5780601f10611a4f57610100808354040283529160200191611a7a565b820191906000526020600020905b815481529060010190602001808311611a5d57829003601f168201915b50505050508152602001600182018054611a9390612ba0565b80601f0160208091040260200160405190810160405280929190818152602001828054611abf90612ba0565b8015611b0c5780601f10611ae157610100808354040283529160200191611b0c565b820191906000526020600020905b815481529060010190602001808311611aef57829003601f168201915b505050918352505060028201546001600160a01b03166020820152600382018054604090920191611b3c90612ba0565b80601f0160208091040260200160405190810160405280929190818152602001828054611b6890612ba0565b8015611bb55780601f10611b8a57610100808354040283529160200191611bb5565b820191906000526020600020905b815481529060010190602001808311611b9857829003601f168201915b5050505050815260200160048201548152602001600582018054611bd890612ba0565b80601f0160208091040260200160405190810160405280929190818152602001828054611c0490612ba0565b8015611c515780601f10611c2657610100808354040283529160200191611c51565b820191906000526020600020905b815481529060010190602001808311611c3457829003601f168201915b50505050508152602001600682018054611c6a90612ba0565b80601f0160208091040260200160405190810160405280929190818152602001828054611c9690612ba0565b8015611ce35780601f10611cb857610100808354040283529160200191611ce3565b820191906000526020600020905b815481529060010190602001808311611cc657829003601f168201915b50505050508152602001600782015481526020016008820160009054906101000a900460ff161515151581526020016008820160019054906101000a900460ff161515151581525050905080600001518160200151826060015183608001518460a001518560c001518661010001518761012001519a509a509a509a509a509a509a509a505050509295985092959890939650565b6003546040517f30b1937a0000000000000000000000000000000000000000000000000000000081523360048201526001600160a01b039091169081906330b1937a9060240160206040518083038186803b158015611dd657600080fd5b505afa158015611dea573d6000803e3d6000fd5b505050506040513d601f19601f82011682018060405250810190611e0e919061295b565b611e5a5760405162461bcd60e51b815260206004820152600d60248201527f4e6f74206120636f6d70616e79000000000000000000000000000000000000006044820152606401610412565b60003411611eaa5760405162461bcd60e51b815260206004820152601860248201527f56616c7565206f66206d657373616765206973206e756c6c00000000000000006044820152606401610412565b600086118015611eb957508585115b8015611ec55750600083115b8015611ed057508282115b8015611edc5750600084115b611f285760405162461bcd60e51b815260206004820152600f60248201527f4572726f72206f6e20696e7075747300000000000000000000000000000000006044820152606401610412565b6000603c611f368888612b89565b611f409190612b4a565b905060006018603c80611f538888612b89565b611f5d9190612b4a565b611f679190612b4a565b611f719190612b4a565b905060008683611f818434612b4a565b611f8b9190612b4a565b611f959190612b4a565b9050600060016000600254815260200190815260200160002090508e8160000160006101000a8154816001600160a01b0302191690836001600160a01b031602179055503481600101819055508d816002019080519060200190611ffa929190612606565b508c816003019080519060200190612013929190612606565b508b5161202990600483019060208f0190612606565b508a5161203f90600583019060208e0190612606565b50600681018a9055600781018990556008810188905560098101829055600a8101879055600b8101869055600c8101805461ffff191660011790556000600e820181905560118201556003546002546040517f71f7d49800000000000000000000000000000000000000000000000000000000815233600482015260248101919091526001600160a01b039091169081906371f7d49890604401600060405180830381600087803b1580156120f357600080fd5b505af1158015612107573d6000803e3d6000fd5b50506002805492509050600061211c83612bd5565b9091555050604080513381523460208201527f8989b75cccca0fb30da05814ad53f47c96062c68f02f70eef5673f84e1f905d8910160405180910390a150505050505050505050505050505050565b60008160025481106121b35760405162461bcd60e51b8152602060048201526011602482015270151a19481a9bd8881b9bdd08195e1a5cdd607a1b6044820152606401610412565b600354604051632e1f173f60e21b81523360048201526001600160a01b0390911690819063b87c5cfc9060240160206040518083038186803b1580156121f857600080fd5b505afa15801561220c573d6000803e3d6000fd5b505050506040513d601f19601f82011682018060405250810190612230919061295b565b61226b5760405162461bcd60e51b815260206004820152600c60248201526b2737ba1030903bb7b935b2b960a11b6044820152606401610412565b5050506000908152600160209081526040808320338452600f8101835281842054845260100190915290206008015460ff1690565b600080606080808084808080808b60025481106122f35760405162461bcd60e51b8152602060048201526011602482015270151a19481a9bd8881b9bdd08195e1a5cdd607a1b6044820152606401610412565b60008d81526001602081905260409091208054918101546008820154600a830154600b840154600c850154601186015460028701805497986001600160a01b031697909560038a019560048b019560058c019592949193909260ff169190899061235c90612ba0565b80601f016020809104026020016040519081016040528092919081815260200182805461238890612ba0565b80156123d55780601f106123aa576101008083540402835291602001916123d5565b820191906000526020600020905b8154815290600101906020018083116123b857829003601f168201915b505050505098508780546123e890612ba0565b80601f016020809104026020016040519081016040528092919081815260200182805461241490612ba0565b80156124615780601f1061243657610100808354040283529160200191612461565b820191906000526020600020905b81548152906001019060200180831161244457829003601f168201915b5050505050975086805461247490612ba0565b80601f01602080910402602001604051908101604052809291908181526020018280546124a090612ba0565b80156124ed5780601f106124c2576101008083540402835291602001916124ed565b820191906000526020600020905b8154815290600101906020018083116124d057829003601f168201915b5050505050965085805461250090612ba0565b80601f016020809104026020016040519081016040528092919081815260200182805461252c90612ba0565b80156125795780601f1061254e57610100808354040283529160200191612579565b820191906000526020600020905b81548152906001019060200180831161255c57829003601f168201915b505050505095509c509c509c509c509c509c509c509c509c509c509c50505091939597999b90929496989a50565b60008160025481106125ef5760405162461bcd60e51b8152602060048201526011602482015270151a19481a9bd8881b9bdd08195e1a5cdd607a1b6044820152606401610412565b505060009081526001602052604090206011015490565b82805461261290612ba0565b90600052602060002090601f016020900481019282612634576000855561267a565b82601f1061264d57805160ff191683800117855561267a565b8280016001018555821561267a579182015b8281111561267a57825182559160200191906001019061265f565b5061268692915061268a565b5090565b5b80821115612686576000815560010161268b565b80356126aa81612c1c565b919050565b600082601f8301126126bf578081fd5b813567ffffffffffffffff808211156126da576126da612c06565b604051601f8301601f19908116603f0116810190828211818310171561270257612702612c06565b8160405283815286602085880101111561271a578485fd5b8360208701602083013792830160200193909352509392505050565b600060208284031215612747578081fd5b813561275281612c1c565b9392505050565b6000806000806000806000806000806101408b8d031215612778578586fd5b6127818b61269f565b995060208b013567ffffffffffffffff8082111561279d578788fd5b6127a98e838f016126af565b9a5060408d01359150808211156127be578788fd5b6127ca8e838f016126af565b995060608d01359150808211156127df578788fd5b6127eb8e838f016126af565b985060808d0135915080821115612800578788fd5b5061280d8d828e016126af565b9a9d999c50979a96999860a0880135985060c08801359760e0810135975061010081013596506101200135945092505050565b60008060408385031215612852578182fd5b823561285d81612c1c565b946020939093013593505050565b600080600080600080600080610100898b031215612887578384fd5b6128908961269f565b975060208901359650604089013567ffffffffffffffff808211156128b3578586fd5b6128bf8c838d016126af565b975060608b01359150808211156128d4578586fd5b6128e08c838d016126af565b965060808b01359150808211156128f5578586fd5b6129018c838d016126af565b955060a08b0135945060c08b013591508082111561291d578384fd5b6129298c838d016126af565b935060e08b013591508082111561293e578283fd5b5061294b8b828c016126af565b9150509295985092959890939650565b60006020828403121561296c578081fd5b81518015158114612752578182fd5b60006020828403121561298c578081fd5b5035919050565b600080604083850312156129a5578182fd5b50508035926020909101359150565b6000806000606084860312156129c8578283fd5b505081359360208301359350604090920135919050565b60008151808452815b81811015612a04576020818501810151868301820152016129e8565b81811115612a155782602083870101525b50601f01601f19169290920160200192915050565b60006101606001600160a01b038e1683528c6020840152806040840152612a538184018d6129df565b90508281036060840152612a67818c6129df565b90508281036080840152612a7b818b6129df565b905082810360a0840152612a8f818a6129df565b60c0840198909852505060e08101949094526101008401929092521515610120830152610140909101529695505050505050565b6000610100808352612ad78184018c6129df565b90508281036020840152612aeb818b6129df565b90508281036040840152612aff818a6129df565b90508760608401528281036080840152612b1981886129df565b905082810360a0840152612b2d81876129df565b94151560c0840152505090151560e0909101529695505050505050565b600082612b6557634e487b7160e01b81526012600452602481fd5b500490565b6000816000190483118215151615612b8457612b84612bf0565b500290565b600082821015612b9b57612b9b612bf0565b500390565b600181811c90821680612bb457607f821691505b6020821081141561065857634e487b7160e01b600052602260045260246000fd5b6000600019821415612be957612be9612bf0565b5060010190565b634e487b7160e01b600052601160045260246000fd5b634e487b7160e01b600052604160045260246000fd5b6001600160a01b0381168114612c3157600080fd5b5056fea2646970667358221220f05b057b4b56acdda5de7e774ed8c432bcd04e35d44580bf6c067707b6698c6564736f6c63430008040033",
  "linkReferences": {},
  "deployedLinkReferences": {}
}