{
  "_format": "hh-sol-artifact-1",
  "contractName": "JobContract",
  "sourceName": "contracts/JobContract.sol",
  "abi": [
    {
      "inputs": [
        {
          "internalType": "address",
          "name": "_interfaceHUB",
          "type": "address"
        }
      ],
      "stateMutability": "nonpayable",
      "type": "constructor"
    },
    {
      "anonymous": false,
      "inputs": [
        {
          "indexed": true,
          "internalType": "address",
          "name": "previousOwner",
          "type": "address"
        },
        {
          "indexed": true,
          "internalType": "address",
          "name": "newOwner",
          "type": "address"
        }
      ],
      "name": "OwnershipTransferred",
      "type": "event"
    },
    {
      "anonymous": false,
      "inputs": [
        {
          "indexed": false,
          "internalType": "uint256",
          "name": "",
          "type": "uint256"
        }
      ],
      "name": "ev_CloseJob",
      "type": "event"
    },
    {
      "anonymous": false,
      "inputs": [
        {
          "indexed": false,
          "internalType": "uint256",
          "name": "",
          "type": "uint256"
        }
      ],
      "name": "ev_ClosedSearch",
      "type": "event"
    },
    {
      "anonymous": false,
      "inputs": [
        {
          "indexed": false,
          "internalType": "address",
          "name": "",
          "type": "address"
        },
        {
          "indexed": false,
          "internalType": "uint256",
          "name": "",
          "type": "uint256"
        }
      ],
      "name": "ev_CreateJob",
      "type": "event"
    },
    {
      "anonymous": false,
      "inputs": [
        {
          "indexed": false,
          "internalType": "uint256",
          "name": "",
          "type": "uint256"
        },
        {
          "indexed": false,
          "internalType": "address",
          "name": "",
          "type": "address"
        }
      ],
      "name": "ev_Hired",
      "type": "event"
    },
    {
      "anonymous": false,
      "inputs": [
        {
          "indexed": false,
          "internalType": "address",
          "name": "",
          "type": "address"
        },
        {
          "indexed": false,
          "internalType": "uint256",
          "name": "",
          "type": "uint256"
        }
      ],
      "name": "ev_Pay",
      "type": "event"
    },
    {
      "inputs": [
        {
          "internalType": "address",
          "name": "worker",
          "type": "address"
        },
        {
          "internalType": "uint256",
          "name": "_nrJob",
          "type": "uint256"
        }
      ],
      "name": "AcceptJob",
      "outputs": [],
      "stateMutability": "nonpayable",
      "type": "function"
    },
    {
      "inputs": [
        {
          "internalType": "address",
          "name": "worker",
          "type": "address"
        },
        {
          "internalType": "uint256",
          "name": "_nrJob",
          "type": "uint256"
        },
        {
          "internalType": "string",
          "name": "_name",
          "type": "string"
        },
        {
          "internalType": "string",
          "name": "_surname",
          "type": "string"
        },
        {
          "internalType": "string",
          "name": "_mobilePhone",
          "type": "string"
        },
        {
          "internalType": "uint256",
          "name": "_age",
          "type": "uint256"
        },
        {
          "internalType": "string",
          "name": "_CV",
          "type": "string"
        },
        {
          "internalType": "string",
          "name": "_coverLetter",
          "type": "string"
        }
      ],
      "name": "ApplyToJob",
      "outputs": [],
      "stateMutability": "nonpayable",
      "type": "function"
    },
    {
      "inputs": [
        {
          "internalType": "uint256",
          "name": "_nrJob",
          "type": "uint256"
        }
      ],
      "name": "CheckWorkerApplied",
      "outputs": [
        {
          "internalType": "bool",
          "name": "",
          "type": "bool"
        }
      ],
      "stateMutability": "view",
      "type": "function"
    },
    {
      "inputs": [
        {
          "internalType": "uint256",
          "name": "_nrJob",
          "type": "uint256"
        }
      ],
      "name": "CheckWorkerHired",
      "outputs": [
        {
          "internalType": "bool",
          "name": "",
          "type": "bool"
        }
      ],
      "stateMutability": "view",
      "type": "function"
    },
    {
      "inputs": [
        {
          "internalType": "uint256",
          "name": "_nrJob",
          "type": "uint256"
        }
      ],
      "name": "CloseAndPay",
      "outputs": [],
      "stateMutability": "nonpayable",
      "type": "function"
    },
    {
      "inputs": [
        {
          "internalType": "uint256",
          "name": "_nrJob",
          "type": "uint256"
        }
      ],
      "name": "CloseSearching",
      "outputs": [],
      "stateMutability": "nonpayable",
      "type": "function"
    },
    {
      "inputs": [
        {
          "internalType": "address payable",
          "name": "_owner",
          "type": "address"
        },
        {
          "internalType": "string",
          "name": "_title",
          "type": "string"
        },
        {
          "internalType": "string",
          "name": "_description",
          "type": "string"
        },
        {
          "internalType": "string",
          "name": "_workingAddress",
          "type": "string"
        },
        {
          "internalType": "string",
          "name": "_searchingPosition",
          "type": "string"
        },
        {
          "internalType": "uint256",
          "name": "_hourInit",
          "type": "uint256"
        },
        {
          "internalType": "uint256",
          "name": "_hourFinish",
          "type": "uint256"
        },
        {
          "internalType": "uint256",
          "name": "_peopleToHire",
          "type": "uint256"
        },
        {
          "internalType": "uint256",
          "name": "_dateFrom",
          "type": "uint256"
        },
        {
          "internalType": "uint256",
          "name": "_dateTo",
          "type": "uint256"
        }
      ],
      "name": "CreateJob",
      "outputs": [],
      "stateMutability": "payable",
      "type": "function"
    },
    {
      "inputs": [
        {
          "internalType": "uint256",
          "name": "_nrJob",
          "type": "uint256"
        },
        {
          "internalType": "uint256",
          "name": "_nrCandidate",
          "type": "uint256"
        }
      ],
      "name": "RequestHire",
      "outputs": [],
      "stateMutability": "nonpayable",
      "type": "function"
    },
    {
      "inputs": [
        {
          "internalType": "uint256",
          "name": "_nrJob",
          "type": "uint256"
        },
        {
          "internalType": "uint256",
          "name": "_nrCandidate",
          "type": "uint256"
        },
        {
          "internalType": "uint256",
          "name": "_absentHours",
          "type": "uint256"
        }
      ],
      "name": "SetAbsentHours",
      "outputs": [],
      "stateMutability": "nonpayable",
      "type": "function"
    },
    {
      "inputs": [
        {
          "internalType": "address",
          "name": "_requestContract",
          "type": "address"
        }
      ],
      "name": "SetContractRequestAddress",
      "outputs": [],
      "stateMutability": "nonpayable",
      "type": "function"
    },
    {
      "inputs": [
        {
          "internalType": "uint256",
          "name": "_nrJob",
          "type": "uint256"
        },
        {
          "internalType": "uint256",
          "name": "_nrCandidate",
          "type": "uint256"
        }
      ],
      "name": "ShowAbsentHoursCandidate",
      "outputs": [
        {
          "internalType": "uint256",
          "name": "",
          "type": "uint256"
        }
      ],
      "stateMutability": "view",
      "type": "function"
    },
    {
      "inputs": [
        {
          "internalType": "uint256",
          "name": "_nrJob",
          "type": "uint256"
        }
      ],
      "name": "ShowCloseJob",
      "outputs": [
        {
          "internalType": "bool",
          "name": "",
          "type": "bool"
        }
      ],
      "stateMutability": "view",
      "type": "function"
    },
    {
      "inputs": [
        {
          "internalType": "uint256",
          "name": "_nrJob",
          "type": "uint256"
        }
      ],
      "name": "ShowHiredCounter",
      "outputs": [
        {
          "internalType": "uint256",
          "name": "",
          "type": "uint256"
        }
      ],
      "stateMutability": "view",
      "type": "function"
    },
    {
      "inputs": [
        {
          "internalType": "uint256",
          "name": "_nrJob",
          "type": "uint256"
        }
      ],
      "name": "ShowIfHireQuestion",
      "outputs": [
        {
          "internalType": "bool",
          "name": "",
          "type": "bool"
        }
      ],
      "stateMutability": "view",
      "type": "function"
    },
    {
      "inputs": [
        {
          "internalType": "uint256",
          "name": "_nrJob",
          "type": "uint256"
        },
        {
          "internalType": "uint256",
          "name": "_nrCandidate",
          "type": "uint256"
        }
      ],
      "name": "ShowJobCandidate",
      "outputs": [
        {
          "internalType": "string",
          "name": "",
          "type": "string"
        },
        {
          "internalType": "string",
          "name": "",
          "type": "string"
        },
        {
          "internalType": "string",
          "name": "",
          "type": "string"
        },
        {
          "internalType": "uint256",
          "name": "",
          "type": "uint256"
        },
        {
          "internalType": "string",
          "name": "",
          "type": "string"
        },
        {
          "internalType": "string",
          "name": "",
          "type": "string"
        },
        {
          "internalType": "bool",
          "name": "",
          "type": "bool"
        },
        {
          "internalType": "bool",
          "name": "",
          "type": "bool"
        }
      ],
      "stateMutability": "view",
      "type": "function"
    },
    {
      "inputs": [
        {
          "internalType": "uint256",
          "name": "_nrJob",
          "type": "uint256"
        }
      ],
      "name": "ShowJobCandidatesCounter",
      "outputs": [
        {
          "internalType": "uint256",
          "name": "",
          "type": "uint256"
        }
      ],
      "stateMutability": "view",
      "type": "function"
    },
    {
      "inputs": [
        {
          "internalType": "uint256",
          "name": "_nrJob",
          "type": "uint256"
        }
      ],
      "name": "ShowJobSummary",
      "outputs": [
        {
          "internalType": "address",
          "name": "",
          "type": "address"
        },
        {
          "internalType": "uint256",
          "name": "",
          "type": "uint256"
        },
        {
          "internalType": "string",
          "name": "",
          "type": "string"
        },
        {
          "internalType": "string",
          "name": "",
          "type": "string"
        },
        {
          "internalType": "string",
          "name": "",
          "type": "string"
        },
        {
          "internalType": "string",
          "name": "",
          "type": "string"
        },
        {
          "internalType": "uint256",
          "name": "",
          "type": "uint256"
        },
        {
          "internalType": "uint256",
          "name": "",
          "type": "uint256"
        },
        {
          "internalType": "uint256",
          "name": "",
          "type": "uint256"
        },
        {
          "internalType": "bool",
          "name": "",
          "type": "bool"
        },
        {
          "internalType": "uint256",
          "name": "",
          "type": "uint256"
        }
      ],
      "stateMutability": "view",
      "type": "function"
    },
    {
      "inputs": [],
      "name": "ShowJobsCounter",
      "outputs": [
        {
          "internalType": "uint256",
          "name": "",
          "type": "uint256"
        }
      ],
      "stateMutability": "view",
      "type": "function"
    },
    {
      "inputs": [],
      "name": "owner",
      "outputs": [
        {
          "internalType": "address",
          "name": "",
          "type": "address"
        }
      ],
      "stateMutability": "view",
      "type": "function"
    },
    {
      "inputs": [],
      "name": "renounceOwnership",
      "outputs": [],
      "stateMutability": "nonpayable",
      "type": "function"
    },
    {
      "inputs": [
        {
          "internalType": "address",
          "name": "newOwner",
          "type": "address"
        }
      ],
      "name": "transferOwnership",
      "outputs": [],
      "stateMutability": "nonpayable",
      "type": "function"
    }
  ],
  "bytecode": "0x60806040523480156200001157600080fd5b5060405162002eea38038062002eea8339810160408190526200003491620000bc565b600160005562000044336200006a565b600480546001600160a01b0319166001600160a01b0392909216919091179055620000ec565b600180546001600160a01b038381166001600160a01b0319831681179093556040519116919082907f8be0079c531659141344cd1fd0a4f28419497f9722a3daafe3b4186f6b6457e090600090a35050565b600060208284031215620000ce578081fd5b81516001600160a01b0381168114620000e5578182fd5b9392505050565b612dee80620000fc6000396000f3fe60806040526004361061016a5760003560e01c8063715018a6116100cb578063ad2a79f81161007f578063ef79966111610059578063ef799661146103cd578063f2fde38b14610404578063f8a5ef0b1461042457600080fd5b8063ad2a79f814610366578063ce0e6d741461039a578063d53f9b9b146103ad57600080fd5b80637bd989f5116100b05780637bd989f5146103095780638da5cb5b14610329578063a0933fbc1461035157600080fd5b8063715018a6146102d457806378c27142146102e957600080fd5b80633b2aec48116101225780635386903f116101075780635386903f1461027457806365f36692146102945780636c4d0984146102b457600080fd5b80633b2aec48146102345780635051b8921461025457600080fd5b80631a01c4e8116101535780631a01c4e8146101b15780632665ca3c146101e457806334619d501461020457600080fd5b80630b2164381461016f5780631301766914610191575b600080fd5b34801561017b57600080fd5b5061018f61018a366004612b02565b610444565b005b34801561019d57600080fd5b5061018f6101ac366004612b1a565b610544565b3480156101bd57600080fd5b506101d16101cc366004612b02565b61066f565b6040519081526020015b60405180910390f35b3480156101f057600080fd5b5061018f6101ff3660046129c7565b6106d2565b34801561021057600080fd5b5061022461021f366004612b02565b61090d565b60405190151581526020016101db565b34801561024057600080fd5b506101d161024f366004612b1a565b610a72565b34801561026057600080fd5b5061022461026f366004612b02565b610ae0565b34801561028057600080fd5b5061022461028f366004612b02565b610c1b565b3480156102a057600080fd5b5061018f6102af366004612b3b565b610c82565b3480156102c057600080fd5b5061018f6102cf366004612b02565b610f05565b3480156102e057600080fd5b5061018f611660565b3480156102f557600080fd5b5061018f6103043660046129f2565b611674565b34801561031557600080fd5b5061018f6103243660046128bd565b61190a565b34801561033557600080fd5b506001546040516001600160a01b0390911681526020016101db565b34801561035d57600080fd5b506003546101d1565b34801561037257600080fd5b50610386610381366004612b1a565b611941565b6040516101db989796959493929190612c4a565b61018f6103a83660046128e0565b611da6565b3480156103b957600080fd5b506102246103c8366004612b02565b61219b565b3480156103d957600080fd5b506103ed6103e8366004612b02565b6122d1565b6040516101db9b9a99989796959493929190612bb1565b34801561041057600080fd5b5061018f61041f3660046128bd565b6125e5565b34801561043057600080fd5b506101d161043f366004612b02565b612675565b80600354811061048f5760405162461bcd60e51b8152602060048201526011602482015270151a19481a9bd8881b9bdd08195e1a5cdd607a1b60448201526064015b60405180910390fd5b600082815260026020526040902080546001600160a01b03163314806104bf57506005546001600160a01b031633145b6105005760405162461bcd60e51b8152602060048201526012602482015271165bdd49dc99481b9bdd08185b1b1bddd95960721b6044820152606401610486565b600c8101805460ff191690556040518381527f156d298e3230eef448bd5231631a15a00a31d76ee7cc580888b12e660d3c45199060200160405180910390a1505050565b81600354811061058a5760405162461bcd60e51b8152602060048201526011602482015270151a19481a9bd8881b9bdd08195e1a5cdd607a1b6044820152606401610486565b600083815260026020526040902080546001600160a01b03163314806105ba57506005546001600160a01b031633145b6105fb5760405162461bcd60e51b8152602060048201526012602482015271165bdd49dc99481b9bdd08185b1b1bddd95960721b6044820152606401610486565b8060110154831061064e5760405162461bcd60e51b815260206004820152601360248201527f43616e646974617465206e6f7420666f756e64000000000000000000000000006044820152606401610486565b60009283526010016020525060409020600801805460ff1916600117905550565b60008160035481106106b75760405162461bcd60e51b8152602060048201526011602482015270151a19481a9bd8881b9bdd08195e1a5cdd607a1b6044820152606401610486565b6000838152600260205260409020600e015491505b50919050565b8060035481106107185760405162461bcd60e51b8152602060048201526011602482015270151a19481a9bd8881b9bdd08195e1a5cdd607a1b6044820152606401610486565b6001600160a01b03831633148061073957506005546001600160a01b031633145b61077a5760405162461bcd60e51b8152602060048201526012602482015271165bdd49dc99481b9bdd08185b1b1bddd95960721b6044820152606401610486565b60008281526002602081815260408084206001600160a01b03808916808752600f8301855283872054808852601084019095529290952093840154909492939216146108085760405162461bcd60e51b815260206004820152601860248201527f596f75277265206e6f74207468652063616e64696461746500000000000000006044820152606401610486565b600881015460ff1661085c5760405162461bcd60e51b815260206004820152601760248201527f486972652070726f706f73616c206e6f7420666f756e640000000000000000006044820152606401610486565b6002810154600e840180546000908152600d860160205260408120805473ffffffffffffffffffffffffffffffffffffffff19166001600160a01b039094169390931790925560088301805461ffff19166101001790558054916108bf83612d5c565b9091555050604080518681526001600160a01b03881660208201527fd5ca6cfd1918e76c3d26f5e6de2dc17b8c36ee5288009156a52bab0d193583ca910160405180910390a1505050505050565b60008160035481106109555760405162461bcd60e51b8152602060048201526011602482015270151a19481a9bd8881b9bdd08195e1a5cdd607a1b6044820152606401610486565b60008381526002602052604090819020600480549251632e1f173f60e21b8152339181019190915290916001600160a01b031690819063b87c5cfc9060240160206040518083038186803b1580156109ac57600080fd5b505afa1580156109c0573d6000803e3d6000fd5b505050506040513d601f19601f820116820180604052508101906109e49190612ae2565b806109f957506005546001600160a01b031633145b610a3a5760405162461bcd60e51b8152602060048201526012602482015271165bdd49dc99481b9bdd08185b1b1bddd95960721b6044820152606401610486565b50336000818152600f8301602090815260408083205483526010909401905291909120600201546001600160a01b0316149392505050565b6000826003548110610aba5760405162461bcd60e51b8152602060048201526011602482015270151a19481a9bd8881b9bdd08195e1a5cdd607a1b6044820152606401610486565b505060009182526002602090815260408084209284526010909201905290206007015490565b6000816003548110610b285760405162461bcd60e51b8152602060048201526011602482015270151a19481a9bd8881b9bdd08195e1a5cdd607a1b6044820152606401610486565b60048054604051632e1f173f60e21b815233928101929092526001600160a01b031690819063b87c5cfc9060240160206040518083038186803b158015610b6e57600080fd5b505afa158015610b82573d6000803e3d6000fd5b505050506040513d601f19601f82011682018060405250810190610ba69190612ae2565b610be15760405162461bcd60e51b815260206004820152600c60248201526b2737ba1030903bb7b935b2b960a11b6044820152606401610486565b5050506000908152600260209081526040808320338452600f81018352818420548452601001909152902060080154610100900460ff1690565b6000816003548110610c635760405162461bcd60e51b8152602060048201526011602482015270151a19481a9bd8881b9bdd08195e1a5cdd607a1b6044820152606401610486565b50506000908152600260205260409020600c0154610100900460ff1690565b826003548110610cc85760405162461bcd60e51b8152602060048201526011602482015270151a19481a9bd8881b9bdd08195e1a5cdd607a1b6044820152606401610486565b60008481526002602052604090205484906001600160a01b03163314610d305760405162461bcd60e51b815260206004820152601460248201527f4e6f74206f776e6572206f6620746865206a6f620000000000000000000000006044820152606401610486565b60008311610d3d57600080fd5b600085815260026020526040902060118101548510610d9e5760405162461bcd60e51b815260206004820152601360248201527f43616e646964617465206e6f7420666f756e64000000000000000000000000006044820152606401610486565b6000858152601082016020526040902060080154610100900460ff16610e065760405162461bcd60e51b815260206004820152601560248201527f43616e6469646174652069736e277420686972656400000000000000000000006044820152606401610486565b6000603c82600601548360070154610e1e9190612d10565b610e289190612cd1565b905060006018603c8085600a015486600b0154610e459190612d10565b610e4f9190612cd1565b610e599190612cd1565b610e639190612cd1565b90506000610e718284612cf1565b905080871115610ee95760405162461bcd60e51b815260206004820152602860248201527f596f752063616e277420616464206d6f726520686f757273207468616e20746860448201527f6520746f74616c210000000000000000000000000000000000000000000000006064820152608401610486565b5050506000948552601001602052505060409091206007015550565b806003548110610f4b5760405162461bcd60e51b8152602060048201526011602482015270151a19481a9bd8881b9bdd08195e1a5cdd607a1b6044820152606401610486565b60008281526002602052604090205482906001600160a01b03163314610fb35760405162461bcd60e51b815260206004820152601460248201527f4e6f74206f776e6572206f6620746865206a6f620000000000000000000000006044820152606401610486565b6000838152600260205260409020600c0154839060ff161561103d5760405162461bcd60e51b815260206004820152603060248201527f546865206a6f6220697320736561726368696e672063616e646964617465732060448201527f796f752063616e277420636c6f736521000000000000000000000000000000006064820152608401610486565b6000848152600260205260409020600c01548490610100900460ff16156110a65760405162461bcd60e51b815260206004820152601860248201527f546865206a6f6220697320616c726561647920656e64656400000000000000006044820152606401610486565b600260005414156110f95760405162461bcd60e51b815260206004820152601f60248201527f5265656e7472616e637947756172643a207265656e7472616e742063616c6c006044820152606401610486565b6002600081815586815260209190915260408120600c8101805461ff00191661010017905560068101546007820154919291603c9161113791612d10565b6111419190612cd1565b905060006018603c8085600a015486600b015461115e9190612d10565b6111689190612cd1565b6111729190612cd1565b61117c9190612cd1565b905060005b83600e01548110156115d4576000818152600d850160209081526040808320546001600160a01b03168352600f870182528083205480845260108801909252808320815161014081019092528054929392829082906111df90612d27565b80601f016020809104026020016040519081016040528092919081815260200182805461120b90612d27565b80156112585780601f1061122d57610100808354040283529160200191611258565b820191906000526020600020905b81548152906001019060200180831161123b57829003601f168201915b5050505050815260200160018201805461127190612d27565b80601f016020809104026020016040519081016040528092919081815260200182805461129d90612d27565b80156112ea5780601f106112bf576101008083540402835291602001916112ea565b820191906000526020600020905b8154815290600101906020018083116112cd57829003601f168201915b505050918352505060028201546001600160a01b0316602082015260038201805460409092019161131a90612d27565b80601f016020809104026020016040519081016040528092919081815260200182805461134690612d27565b80156113935780601f1061136857610100808354040283529160200191611393565b820191906000526020600020905b81548152906001019060200180831161137657829003601f168201915b50505050508152602001600482015481526020016005820180546113b690612d27565b80601f01602080910402602001604051908101604052809291908181526020018280546113e290612d27565b801561142f5780601f106114045761010080835404028352916020019161142f565b820191906000526020600020905b81548152906001019060200180831161141257829003601f168201915b5050505050815260200160068201805461144890612d27565b80601f016020809104026020016040519081016040528092919081815260200182805461147490612d27565b80156114c15780601f10611496576101008083540402835291602001916114c1565b820191906000526020600020905b8154815290600101906020018083116114a457829003601f168201915b50505091835250506007820154602082015260089091015460ff8082161515604084015261010090910416151560609091015260e08101519091506000906115098688612cf1565b6115139190612d10565b87600901546115229190612cf1565b905081604001516001600160a01b03166108fc829081150290604051600060405180830381858888f19350505050158015611561573d6000803e3d6000fd5b508087600101546115729190612d10565b600188015560408281015181516001600160a01b039091168152602081018390527fecf0692d4cedbdf4decc633271b8b1b4d257953fdca5cba30e444495ede0f31c910160405180910390a150505080806115cc90612d5c565b915050611181565b5060018301541561161e57825460018401546040516001600160a01b039092169181156108fc0291906000818181858888f1935050505015801561161c573d6000803e3d6000fd5b505b6040518881527fca41b15f743cd506e877a65737b7072363d1ea62b57636bb94622e337a4c2add9060200160405180910390a150506001600055505050505050565b6116686126d4565b611672600061272e565b565b8660035481106116ba5760405162461bcd60e51b8152602060048201526011602482015270151a19481a9bd8881b9bdd08195e1a5cdd607a1b6044820152606401610486565b60008881526002602052604090206116d18961090d565b1561171e5760405162461bcd60e51b815260206004820152601360248201527f416c7265616479205265676973746572656421000000000000000000000000006044820152606401610486565b6001600160a01b038a1633148061173f57506005546001600160a01b031633145b6117805760405162461bcd60e51b8152602060048201526012602482015271165bdd49dc99481b9bdd08185b1b1bddd95960721b6044820152606401610486565b601181015460009081526010820160209081526040909120895190916117aa9183918c019061278d565b5087516117c090600183019060208b019061278d565b5060028101805473ffffffffffffffffffffffffffffffffffffffff19166001600160a01b038d16179055865161180090600383019060208a019061278d565b5060048101869055845161181d906005830190602088019061278d565b508351611833906006830190602087019061278d565b5060006007820181905560088201805461ffff191690556011830180546001600160a01b038e168352600f8501602052604083208190559161187483612d5c565b9091555050600480546040517f8554a2600000000000000000000000000000000000000000000000000000000081526001600160a01b038e811693820193909352602481018d90529116908190638554a26090604401600060405180830381600087803b1580156118e457600080fd5b505af11580156118f8573d6000803e3d6000fd5b50505050505050505050505050505050565b6119126126d4565b6005805473ffffffffffffffffffffffffffffffffffffffff19166001600160a01b0392909216919091179055565b606080806000818082808960035481106119915760405162461bcd60e51b8152602060048201526011602482015270151a19481a9bd8881b9bdd08195e1a5cdd607a1b6044820152606401610486565b60008b8152600260205260409020548b906001600160a01b031633146119f95760405162461bcd60e51b815260206004820152601460248201527f4e6f74206f776e6572206f6620746865206a6f620000000000000000000000006044820152606401610486565b60008c81526002602090815260408083208e845260100190915280822081516101408101909252805482908290611a2f90612d27565b80601f0160208091040260200160405190810160405280929190818152602001828054611a5b90612d27565b8015611aa85780601f10611a7d57610100808354040283529160200191611aa8565b820191906000526020600020905b815481529060010190602001808311611a8b57829003601f168201915b50505050508152602001600182018054611ac190612d27565b80601f0160208091040260200160405190810160405280929190818152602001828054611aed90612d27565b8015611b3a5780601f10611b0f57610100808354040283529160200191611b3a565b820191906000526020600020905b815481529060010190602001808311611b1d57829003601f168201915b505050918352505060028201546001600160a01b03166020820152600382018054604090920191611b6a90612d27565b80601f0160208091040260200160405190810160405280929190818152602001828054611b9690612d27565b8015611be35780601f10611bb857610100808354040283529160200191611be3565b820191906000526020600020905b815481529060010190602001808311611bc657829003601f168201915b5050505050815260200160048201548152602001600582018054611c0690612d27565b80601f0160208091040260200160405190810160405280929190818152602001828054611c3290612d27565b8015611c7f5780601f10611c5457610100808354040283529160200191611c7f565b820191906000526020600020905b815481529060010190602001808311611c6257829003601f168201915b50505050508152602001600682018054611c9890612d27565b80601f0160208091040260200160405190810160405280929190818152602001828054611cc490612d27565b8015611d115780601f10611ce657610100808354040283529160200191611d11565b820191906000526020600020905b815481529060010190602001808311611cf457829003601f168201915b50505050508152602001600782015481526020016008820160009054906101000a900460ff161515151581526020016008820160019054906101000a900460ff161515151581525050905080600001518160200151826060015183608001518460a001518560c001518661010001518761012001519a509a509a509a509a509a509a509a505050509295985092959890939650565b600480546040517f30b1937a00000000000000000000000000000000000000000000000000000000815233928101929092526001600160a01b03169081906330b1937a9060240160206040518083038186803b158015611e0557600080fd5b505afa158015611e19573d6000803e3d6000fd5b505050506040513d601f19601f82011682018060405250810190611e3d9190612ae2565b80611e5257506005546001600160a01b031633145b611e935760405162461bcd60e51b8152602060048201526012602482015271165bdd49dc99481b9bdd08185b1b1bddd95960721b6044820152606401610486565b60003411611ee35760405162461bcd60e51b815260206004820152601860248201527f56616c7565206f66206d657373616765206973206e756c6c00000000000000006044820152606401610486565b600086118015611ef257508585115b8015611efe5750600083115b8015611f0957508282115b8015611f155750600084115b611f615760405162461bcd60e51b815260206004820152600f60248201527f4572726f72206f6e20696e7075747300000000000000000000000000000000006044820152606401610486565b600084603c611f708989612d10565b611f7a9190612cd1565b6018603c80611f898989612d10565b611f939190612cd1565b611f9d9190612cd1565b611fa79190612cd1565b611fb19034612cd1565b611fbb9190612cd1565b611fc59190612cd1565b9050600060026000600354815260200190815260200160002090508c8160000160006101000a8154816001600160a01b0302191690836001600160a01b031602179055503481600101819055508b81600201908051906020019061202a92919061278d565b508a5161204090600383019060208e019061278d565b50895161205690600483019060208d019061278d565b50885161206c90600583019060208c019061278d565b5060068101889055600781018790556008810186905560098101829055600a8101859055600b8101849055600c8101805461ffff191660011790556000600e820181905560118201556003546040517f71f7d4980000000000000000000000000000000000000000000000000000000081526001600160a01b038f811660048301526024820192909252908416906371f7d49890604401600060405180830381600087803b15801561211d57600080fd5b505af1158015612131573d6000803e3d6000fd5b50506003805492509050600061214683612d5c565b9091555050604080516001600160a01b038f1681523460208201527f8989b75cccca0fb30da05814ad53f47c96062c68f02f70eef5673f84e1f905d8910160405180910390a150505050505050505050505050565b60008160035481106121e35760405162461bcd60e51b8152602060048201526011602482015270151a19481a9bd8881b9bdd08195e1a5cdd607a1b6044820152606401610486565b60048054604051632e1f173f60e21b815233928101929092526001600160a01b031690819063b87c5cfc9060240160206040518083038186803b15801561222957600080fd5b505afa15801561223d573d6000803e3d6000fd5b505050506040513d601f19601f820116820180604052508101906122619190612ae2565b61229c5760405162461bcd60e51b815260206004820152600c60248201526b2737ba1030903bb7b935b2b960a11b6044820152606401610486565b5050506000908152600260209081526040808320338452600f8101835281842054845260100190915290206008015460ff1690565b600080606080808084808080808b60035481106123245760405162461bcd60e51b8152602060048201526011602482015270151a19481a9bd8881b9bdd08195e1a5cdd607a1b6044820152606401610486565b6000600260008f815260200190815260200160002090508060000160009054906101000a90046001600160a01b0316816001015482600201836003018460040185600501866008015487600a015488600b015489600c0160009054906101000a900460ff168a6011015488805461239a90612d27565b80601f01602080910402602001604051908101604052809291908181526020018280546123c690612d27565b80156124135780601f106123e857610100808354040283529160200191612413565b820191906000526020600020905b8154815290600101906020018083116123f657829003601f168201915b5050505050985087805461242690612d27565b80601f016020809104026020016040519081016040528092919081815260200182805461245290612d27565b801561249f5780601f106124745761010080835404028352916020019161249f565b820191906000526020600020905b81548152906001019060200180831161248257829003601f168201915b505050505097508680546124b290612d27565b80601f01602080910402602001604051908101604052809291908181526020018280546124de90612d27565b801561252b5780601f106125005761010080835404028352916020019161252b565b820191906000526020600020905b81548152906001019060200180831161250e57829003601f168201915b5050505050965085805461253e90612d27565b80601f016020809104026020016040519081016040528092919081815260200182805461256a90612d27565b80156125b75780601f1061258c576101008083540402835291602001916125b7565b820191906000526020600020905b81548152906001019060200180831161259a57829003601f168201915b505050505095509c509c509c509c509c509c509c509c509c509c509c50505091939597999b90929496989a50565b6125ed6126d4565b6001600160a01b0381166126695760405162461bcd60e51b815260206004820152602660248201527f4f776e61626c653a206e6577206f776e657220697320746865207a65726f206160448201527f64647265737300000000000000000000000000000000000000000000000000006064820152608401610486565b6126728161272e565b50565b60008160035481106126bd5760405162461bcd60e51b8152602060048201526011602482015270151a19481a9bd8881b9bdd08195e1a5cdd607a1b6044820152606401610486565b505060009081526002602052604090206011015490565b6001546001600160a01b031633146116725760405162461bcd60e51b815260206004820181905260248201527f4f776e61626c653a2063616c6c6572206973206e6f7420746865206f776e65726044820152606401610486565b600180546001600160a01b0383811673ffffffffffffffffffffffffffffffffffffffff19831681179093556040519116919082907f8be0079c531659141344cd1fd0a4f28419497f9722a3daafe3b4186f6b6457e090600090a35050565b82805461279990612d27565b90600052602060002090601f0160209004810192826127bb5760008555612801565b82601f106127d457805160ff1916838001178555612801565b82800160010185558215612801579182015b828111156128015782518255916020019190600101906127e6565b5061280d929150612811565b5090565b5b8082111561280d5760008155600101612812565b803561283181612da3565b919050565b600082601f830112612846578081fd5b813567ffffffffffffffff8082111561286157612861612d8d565b604051601f8301601f19908116603f0116810190828211818310171561288957612889612d8d565b816040528381528660208588010111156128a1578485fd5b8360208701602083013792830160200193909352509392505050565b6000602082840312156128ce578081fd5b81356128d981612da3565b9392505050565b6000806000806000806000806000806101408b8d0312156128ff578586fd5b6129088b612826565b995060208b013567ffffffffffffffff80821115612924578788fd5b6129308e838f01612836565b9a5060408d0135915080821115612945578788fd5b6129518e838f01612836565b995060608d0135915080821115612966578788fd5b6129728e838f01612836565b985060808d0135915080821115612987578788fd5b506129948d828e01612836565b9a9d999c50979a96999860a0880135985060c08801359760e0810135975061010081013596506101200135945092505050565b600080604083850312156129d9578182fd5b82356129e481612da3565b946020939093013593505050565b600080600080600080600080610100898b031215612a0e578384fd5b612a1789612826565b975060208901359650604089013567ffffffffffffffff80821115612a3a578586fd5b612a468c838d01612836565b975060608b0135915080821115612a5b578586fd5b612a678c838d01612836565b965060808b0135915080821115612a7c578586fd5b612a888c838d01612836565b955060a08b0135945060c08b0135915080821115612aa4578384fd5b612ab08c838d01612836565b935060e08b0135915080821115612ac5578283fd5b50612ad28b828c01612836565b9150509295985092959890939650565b600060208284031215612af3578081fd5b815180151581146128d9578182fd5b600060208284031215612b13578081fd5b5035919050565b60008060408385031215612b2c578182fd5b50508035926020909101359150565b600080600060608486031215612b4f578283fd5b505081359360208301359350604090920135919050565b60008151808452815b81811015612b8b57602081850181015186830182015201612b6f565b81811115612b9c5782602083870101525b50601f01601f19169290920160200192915050565b60006101606001600160a01b038e1683528c6020840152806040840152612bda8184018d612b66565b90508281036060840152612bee818c612b66565b90508281036080840152612c02818b612b66565b905082810360a0840152612c16818a612b66565b60c0840198909852505060e08101949094526101008401929092521515610120830152610140909101529695505050505050565b6000610100808352612c5e8184018c612b66565b90508281036020840152612c72818b612b66565b90508281036040840152612c86818a612b66565b90508760608401528281036080840152612ca08188612b66565b905082810360a0840152612cb48187612b66565b94151560c0840152505090151560e0909101529695505050505050565b600082612cec57634e487b7160e01b81526012600452602481fd5b500490565b6000816000190483118215151615612d0b57612d0b612d77565b500290565b600082821015612d2257612d22612d77565b500390565b600181811c90821680612d3b57607f821691505b602082108114156106cc57634e487b7160e01b600052602260045260246000fd5b6000600019821415612d7057612d70612d77565b5060010190565b634e487b7160e01b600052601160045260246000fd5b634e487b7160e01b600052604160045260246000fd5b6001600160a01b038116811461267257600080fdfea26469706673582212202b7963e6a213e2c47626f2302e07aa54afa94dca5a4374072cfd06da52f8f77764736f6c63430008040033",
  "linkReferences": {},
  "deployedLinkReferences": {}
}