{
  "_format": "hh-sol-artifact-1",
  "contractName": "HUB",
  "sourceName": "contracts/HUB.sol",
  "abi": [
    {
      "anonymous": false,
      "inputs": [
        {
          "indexed": true,
          "internalType": "address",
          "name": "previousOwner",
          "type": "address"
        },
        {
          "indexed": true,
          "internalType": "address",
          "name": "newOwner",
          "type": "address"
        }
      ],
      "name": "OwnershipTransferred",
      "type": "event"
    },
    {
      "anonymous": false,
      "inputs": [
        {
          "indexed": false,
          "internalType": "string",
          "name": "",
          "type": "string"
        },
        {
          "indexed": false,
          "internalType": "address",
          "name": "",
          "type": "address"
        }
      ],
      "name": "ev_RegisterAsCompany",
      "type": "event"
    },
    {
      "anonymous": false,
      "inputs": [
        {
          "indexed": false,
          "internalType": "string",
          "name": "",
          "type": "string"
        },
        {
          "indexed": false,
          "internalType": "string",
          "name": "",
          "type": "string"
        },
        {
          "indexed": false,
          "internalType": "address",
          "name": "",
          "type": "address"
        }
      ],
      "name": "ev_RegisterAsPerson",
      "type": "event"
    },
    {
      "inputs": [
        {
          "internalType": "address",
          "name": "sender",
          "type": "address"
        },
        {
          "internalType": "uint256",
          "name": "_jobID",
          "type": "uint256"
        }
      ],
      "name": "AddCompanyJob",
      "outputs": [],
      "stateMutability": "nonpayable",
      "type": "function"
    },
    {
      "inputs": [
        {
          "internalType": "address",
          "name": "sender",
          "type": "address"
        },
        {
          "internalType": "uint256",
          "name": "_jobID",
          "type": "uint256"
        }
      ],
      "name": "AddCompanyRequest",
      "outputs": [],
      "stateMutability": "nonpayable",
      "type": "function"
    },
    {
      "inputs": [
        {
          "internalType": "address",
          "name": "sender",
          "type": "address"
        },
        {
          "internalType": "uint256",
          "name": "_jobID",
          "type": "uint256"
        }
      ],
      "name": "AddWorkerJobApplied",
      "outputs": [],
      "stateMutability": "nonpayable",
      "type": "function"
    },
    {
      "inputs": [
        {
          "internalType": "address",
          "name": "_destination",
          "type": "address"
        },
        {
          "internalType": "uint256",
          "name": "_jobID",
          "type": "uint256"
        }
      ],
      "name": "AddWorkerRequest",
      "outputs": [],
      "stateMutability": "nonpayable",
      "type": "function"
    },
    {
      "inputs": [
        {
          "internalType": "address",
          "name": "sender",
          "type": "address"
        }
      ],
      "name": "CheckCompany",
      "outputs": [
        {
          "internalType": "bool",
          "name": "",
          "type": "bool"
        }
      ],
      "stateMutability": "view",
      "type": "function"
    },
    {
      "inputs": [
        {
          "internalType": "address",
          "name": "sender",
          "type": "address"
        }
      ],
      "name": "CheckWorker",
      "outputs": [
        {
          "internalType": "bool",
          "name": "",
          "type": "bool"
        }
      ],
      "stateMutability": "view",
      "type": "function"
    },
    {
      "inputs": [
        {
          "internalType": "string",
          "name": "_name",
          "type": "string"
        },
        {
          "internalType": "string",
          "name": "_description",
          "type": "string"
        },
        {
          "internalType": "string",
          "name": "_address",
          "type": "string"
        }
      ],
      "name": "CreateCompany",
      "outputs": [],
      "stateMutability": "nonpayable",
      "type": "function"
    },
    {
      "inputs": [
        {
          "internalType": "string",
          "name": "_name",
          "type": "string"
        },
        {
          "internalType": "string",
          "name": "_surname",
          "type": "string"
        },
        {
          "internalType": "uint256",
          "name": "_age",
          "type": "uint256"
        },
        {
          "internalType": "string",
          "name": "_mobilePhone",
          "type": "string"
        },
        {
          "internalType": "string",
          "name": "_CV",
          "type": "string"
        },
        {
          "internalType": "string",
          "name": "_coverLetter",
          "type": "string"
        }
      ],
      "name": "CreateWorker",
      "outputs": [],
      "stateMutability": "nonpayable",
      "type": "function"
    },
    {
      "inputs": [],
      "name": "GetCompaniesCounter",
      "outputs": [
        {
          "internalType": "uint256",
          "name": "",
          "type": "uint256"
        }
      ],
      "stateMutability": "view",
      "type": "function"
    },
    {
      "inputs": [],
      "name": "GetWorkersCounter",
      "outputs": [
        {
          "internalType": "uint256",
          "name": "",
          "type": "uint256"
        }
      ],
      "stateMutability": "view",
      "type": "function"
    },
    {
      "inputs": [
        {
          "internalType": "address",
          "name": "_contractJOB",
          "type": "address"
        }
      ],
      "name": "SetContractJobAddress",
      "outputs": [],
      "stateMutability": "nonpayable",
      "type": "function"
    },
    {
      "inputs": [
        {
          "internalType": "address",
          "name": "_contractREQUEST",
          "type": "address"
        }
      ],
      "name": "SetContractRequestAddress",
      "outputs": [],
      "stateMutability": "nonpayable",
      "type": "function"
    },
    {
      "inputs": [
        {
          "internalType": "uint256",
          "name": "_nrCompany",
          "type": "uint256"
        }
      ],
      "name": "ShowCompany",
      "outputs": [
        {
          "internalType": "string",
          "name": "",
          "type": "string"
        },
        {
          "internalType": "string",
          "name": "",
          "type": "string"
        },
        {
          "internalType": "string",
          "name": "",
          "type": "string"
        }
      ],
      "stateMutability": "view",
      "type": "function"
    },
    {
      "inputs": [
        {
          "internalType": "address",
          "name": "sender",
          "type": "address"
        }
      ],
      "name": "ShowCompanyCounterRequests",
      "outputs": [
        {
          "internalType": "uint256",
          "name": "",
          "type": "uint256"
        }
      ],
      "stateMutability": "view",
      "type": "function"
    },
    {
      "inputs": [
        {
          "internalType": "address",
          "name": "sender",
          "type": "address"
        }
      ],
      "name": "ShowCompanyJobsCounter",
      "outputs": [
        {
          "internalType": "uint256",
          "name": "",
          "type": "uint256"
        }
      ],
      "stateMutability": "view",
      "type": "function"
    },
    {
      "inputs": [
        {
          "internalType": "address",
          "name": "sender",
          "type": "address"
        },
        {
          "internalType": "uint256",
          "name": "_nrJobCreated",
          "type": "uint256"
        }
      ],
      "name": "ShowJobIDCompany",
      "outputs": [
        {
          "internalType": "uint256",
          "name": "",
          "type": "uint256"
        }
      ],
      "stateMutability": "view",
      "type": "function"
    },
    {
      "inputs": [
        {
          "internalType": "address",
          "name": "sender",
          "type": "address"
        },
        {
          "internalType": "uint256",
          "name": "_nrJobApplied",
          "type": "uint256"
        }
      ],
      "name": "ShowJobIDWorker",
      "outputs": [
        {
          "internalType": "uint256",
          "name": "",
          "type": "uint256"
        }
      ],
      "stateMutability": "view",
      "type": "function"
    },
    {
      "inputs": [
        {
          "internalType": "address",
          "name": "sender",
          "type": "address"
        },
        {
          "internalType": "uint256",
          "name": "_nrCompanyRequest",
          "type": "uint256"
        }
      ],
      "name": "ShowRequestIDCompany",
      "outputs": [
        {
          "internalType": "uint256",
          "name": "",
          "type": "uint256"
        }
      ],
      "stateMutability": "view",
      "type": "function"
    },
    {
      "inputs": [
        {
          "internalType": "address",
          "name": "sender",
          "type": "address"
        },
        {
          "internalType": "uint256",
          "name": "_nrPersonRequest",
          "type": "uint256"
        }
      ],
      "name": "ShowRequestIDWorker",
      "outputs": [
        {
          "internalType": "uint256",
          "name": "",
          "type": "uint256"
        }
      ],
      "stateMutability": "view",
      "type": "function"
    },
    {
      "inputs": [
        {
          "internalType": "address",
          "name": "_address",
          "type": "address"
        }
      ],
      "name": "ShowWorker",
      "outputs": [
        {
          "internalType": "bytes",
          "name": "",
          "type": "bytes"
        }
      ],
      "stateMutability": "view",
      "type": "function"
    },
    {
      "inputs": [
        {
          "internalType": "address",
          "name": "sender",
          "type": "address"
        }
      ],
      "name": "ShowWorkerAppliedJobsCounter",
      "outputs": [
        {
          "internalType": "uint256",
          "name": "",
          "type": "uint256"
        }
      ],
      "stateMutability": "view",
      "type": "function"
    },
    {
      "inputs": [
        {
          "internalType": "address",
          "name": "sender",
          "type": "address"
        }
      ],
      "name": "ShowWorkerCounterRequests",
      "outputs": [
        {
          "internalType": "uint256",
          "name": "",
          "type": "uint256"
        }
      ],
      "stateMutability": "view",
      "type": "function"
    },
    {
      "inputs": [
        {
          "internalType": "uint256",
          "name": "_nrWorker",
          "type": "uint256"
        }
      ],
      "name": "ShowWorkerID",
      "outputs": [
        {
          "internalType": "address",
          "name": "",
          "type": "address"
        }
      ],
      "stateMutability": "view",
      "type": "function"
    },
    {
      "inputs": [],
      "name": "owner",
      "outputs": [
        {
          "internalType": "address",
          "name": "",
          "type": "address"
        }
      ],
      "stateMutability": "view",
      "type": "function"
    },
    {
      "inputs": [],
      "name": "renounceOwnership",
      "outputs": [],
      "stateMutability": "nonpayable",
      "type": "function"
    },
    {
      "inputs": [
        {
          "internalType": "address",
          "name": "newOwner",
          "type": "address"
        }
      ],
      "name": "transferOwnership",
      "outputs": [],
      "stateMutability": "nonpayable",
      "type": "function"
    }
  ],
  "bytecode": "0x608060405234801561001057600080fd5b5061001a3361001f565b61006f565b600080546001600160a01b038381166001600160a01b0319831681178455604051919092169283917f8be0079c531659141344cd1fd0a4f28419497f9722a3daafe3b4186f6b6457e09190a35050565b61166e8061007e6000396000f3fe608060405234801561001057600080fd5b50600436106101ae5760003560e01c8063879716da116100ee578063b832eab111610097578063c23e8eff11610071578063c23e8eff146103fd578063c25b24d014610410578063e1fc78a91461043c578063f2fde38b1461046857600080fd5b8063b832eab1146103ab578063b83eafae146103be578063b87c5cfc146103d157600080fd5b80638da5cb5b116100c85780638da5cb5b1461034a578063b63a132a1461036f578063b73cf8b81461039857600080fd5b8063879716da1461031157806389c609c0146103245780638caa12dc1461033757600080fd5b8063441ad2ca1161015b57806371f7d4981161013557806371f7d498146102b6578063791facd8146102c95780637bd989f5146102eb5780638554a260146102fe57600080fd5b8063441ad2ca1461026d57806346c790d814610282578063715018a6146102ae57600080fd5b80631e3402fa1161018c5780631e3402fa146101f25780632f050e371461021e57806330b1937a1461023157600080fd5b80630f9efc0a146101b35780631b161115146101ca5780631dcd8a50146101d2575b600080fd5b6006545b6040519081526020015b60405180910390f35b6003546101b7565b6101e56101e03660046111db565b61047b565b6040516101c1919061147e565b6101b76102003660046111db565b6001600160a01b031660009081526001602052604090206007015490565b6101b761022c3660046111fc565b6104db565b61025d61023f3660046111db565b6001600160a01b031660009081526001602052604090205460ff1690565b60405190151581526020016101c1565b61028061027b366004611225565b610577565b005b6101b76102903660046111db565b6001600160a01b03166000908152600460205260409020600a015490565b6102806106a7565b6102806102c43660046111fc565b6106bb565b6102dc6102d736600461137d565b61075f565b6040516101c19392919061157d565b6102806102f93660046111db565b61094d565b61028061030c3660046111fc565b610977565b61028061031f3660046111fc565b610a11565b6102806103323660046111fc565b610aab565b6102806103453660046111db565b610b45565b6000546001600160a01b03165b6040516001600160a01b0390911681526020016101c1565b61035761037d36600461137d565b6000908152600560205260409020546001600160a01b031690565b6102806103a63660046112a9565b610b6f565b6101b76103b93660046111fc565b610dc0565b6101b76103cc3660046111fc565b610e57565b61025d6103df3660046111db565b6001600160a01b031660009081526004602052604090205460ff1690565b6101b761040b3660046111fc565b610ede565b6101b761041e3660046111db565b6001600160a01b031660009081526004602052604090206008015490565b6101b761044a3660046111db565b6001600160a01b031660009081526001602052604090206005015490565b6102806104763660046111db565b610f65565b6001600160a01b0381166000908152600460208181526040928390209251606093926104c492600185019260028601926003870192908701916005880191600689019101611491565b604051602081830303815290604052915050919050565b6001600160a01b0382166000908152600460205260408120600a0154821061054a5760405162461bcd60e51b815260206004820152601260248201527f52657175657374206e6f7420666f756e6421000000000000000000000000000060448201526064015b60405180910390fd5b506001600160a01b0391909116600090815260046020908152604080832093835260099093019052205490565b3360009081526001602052604090205460ff16156105d75760405162461bcd60e51b815260206004820152601960248201527f596f7527726520616c72656164792072656769737465726421000000000000006044820152606401610541565b336000908152600160208181526040909220805460ff19168217815585519092610607928401919087019061109f565b50825161061d906002830190602086019061109f565b508151610633906003830190602085019061109f565b5060038054600090815260026020526040812080546001600160a01b0319163317905581549190610663836115fb565b91905055507fc7ce3fb6fc45f140ade3c39c738b15b325a6682e6862a6f0cb720b08bfc922cc8433604051610699929190611513565b60405180910390a150505050565b6106af610ff5565b6106b9600061104f565b565b6007546001600160a01b031633146107155760405162461bcd60e51b815260206004820152601060248201527f4e6f7420636f6e7472616374204a4f42000000000000000000000000000000006044820152606401610541565b6001600160a01b038216600090815260016020908152604080832060058101805485526004820190935290832084905581549092909190610755836115fb565b9190505550505050565b6000818152600260208181526040808420546001600160a01b03168452600191829052909220918201805460609384938493919290830190600384019083906107a7906115c0565b80601f01602080910402602001604051908101604052809291908181526020018280546107d3906115c0565b80156108205780601f106107f557610100808354040283529160200191610820565b820191906000526020600020905b81548152906001019060200180831161080357829003601f168201915b50505050509250818054610833906115c0565b80601f016020809104026020016040519081016040528092919081815260200182805461085f906115c0565b80156108ac5780601f10610881576101008083540402835291602001916108ac565b820191906000526020600020905b81548152906001019060200180831161088f57829003601f168201915b505050505091508080546108bf906115c0565b80601f01602080910402602001604051908101604052809291908181526020018280546108eb906115c0565b80156109385780601f1061090d57610100808354040283529160200191610938565b820191906000526020600020905b81548152906001019060200180831161091b57829003601f168201915b50505050509050935093509350509193909250565b610955610ff5565b600880546001600160a01b0319166001600160a01b0392909216919091179055565b6007546001600160a01b031633146109d15760405162461bcd60e51b815260206004820152601060248201527f4e6f7420636f6e7472616374204a4f42000000000000000000000000000000006044820152606401610541565b6001600160a01b038216600090815260046020908152604080832060088101805485526007820190935290832084905581549092909190610755836115fb565b6008546001600160a01b03163314610a6b5760405162461bcd60e51b815260206004820152601460248201527f4e6f7420636f6e747261637420524551554553540000000000000000000000006044820152606401610541565b6001600160a01b0382166000908152600460209081526040808320600a8101805485526009820190935290832084905581549092909190610755836115fb565b6008546001600160a01b03163314610b055760405162461bcd60e51b815260206004820152601460248201527f4e6f7420636f6e747261637420524551554553540000000000000000000000006044820152606401610541565b6001600160a01b038216600090815260016020908152604080832060078101805485526006820190935290832084905581549092909190610755836115fb565b610b4d610ff5565b600780546001600160a01b0319166001600160a01b0392909216919091179055565b3360009081526004602052604090205460ff1615610bcf5760405162461bcd60e51b815260206004820152601960248201527f596f7527726520616c72656164792072656769737465726421000000000000006044820152606401610541565b600086604051602001610be2919061147e565b6040516020818303038152906040529050600086604051602001610c06919061147e565b60408051601f19818403018152828252602083018990529250600091016040516020818303038152906040529050600086604051602001610c47919061147e565b6040516020818303038152906040529050600086604051602001610c6b919061147e565b6040516020818303038152906040529050600086604051602001610c8f919061147e565b60408051601f1981840301815291815233600090815260046020908152919020805460ff19166001908117825589519394509092610cd392918401918a019061109f565b508551610ce9906002830190602089019061109f565b508451610cff906003830190602088019061109f565b508351610d15906004830190602087019061109f565b508251610d2b906005830190602086019061109f565b508151610d41906006830190602085019061109f565b5060068054600090815260056020526040812080546001600160a01b0319163317905581549190610d71836115fb565b91905055507f0eeb057e74cdc4b0baf2f21550ca34bce6c87cbfd56af98a4e3b95940f1456158d8d33604051610da99392919061153e565b60405180910390a150505050505050505050505050565b6001600160a01b0382166000908152600160205260408120600701548210610e2a5760405162461bcd60e51b815260206004820152601260248201527f52657175657374206e6f7420666f756e642100000000000000000000000000006044820152606401610541565b506001600160a01b0391909116600090815260016020908152604080832093835260069093019052205490565b6001600160a01b0382166000908152600460205260408120600801548210610eb15760405162461bcd60e51b815260206004820152600d60248201526c129bd8881b9bdd08199bdd5b99609a1b6044820152606401610541565b506001600160a01b0391909116600090815260046020908152604080832093835260079093019052205490565b6001600160a01b0382166000908152600160205260408120600501548210610f385760405162461bcd60e51b815260206004820152600d60248201526c129bd8881b9bdd08199bdd5b99609a1b6044820152606401610541565b506001600160a01b0391909116600090815260016020908152604080832093835260049093019052205490565b610f6d610ff5565b6001600160a01b038116610fe95760405162461bcd60e51b815260206004820152602660248201527f4f776e61626c653a206e6577206f776e657220697320746865207a65726f206160448201527f64647265737300000000000000000000000000000000000000000000000000006064820152608401610541565b610ff28161104f565b50565b6000546001600160a01b031633146106b95760405162461bcd60e51b815260206004820181905260248201527f4f776e61626c653a2063616c6c6572206973206e6f7420746865206f776e65726044820152606401610541565b600080546001600160a01b038381166001600160a01b0319831681178455604051919092169283917f8be0079c531659141344cd1fd0a4f28419497f9722a3daafe3b4186f6b6457e09190a35050565b8280546110ab906115c0565b90600052602060002090601f0160209004810192826110cd5760008555611113565b82601f106110e657805160ff1916838001178555611113565b82800160010185558215611113579182015b828111156111135782518255916020019190600101906110f8565b5061111f929150611123565b5090565b5b8082111561111f5760008155600101611124565b80356001600160a01b038116811461114f57600080fd5b919050565b600082601f830112611164578081fd5b813567ffffffffffffffff8082111561117f5761117f611622565b604051601f8301601f19908116603f011681019082821181831017156111a7576111a7611622565b816040528381528660208588010111156111bf578485fd5b8360208701602083013792830160200193909352509392505050565b6000602082840312156111ec578081fd5b6111f582611138565b9392505050565b6000806040838503121561120e578081fd5b61121783611138565b946020939093013593505050565b600080600060608486031215611239578081fd5b833567ffffffffffffffff80821115611250578283fd5b61125c87838801611154565b94506020860135915080821115611271578283fd5b61127d87838801611154565b93506040860135915080821115611292578283fd5b5061129f86828701611154565b9150509250925092565b60008060008060008060c087890312156112c1578182fd5b863567ffffffffffffffff808211156112d8578384fd5b6112e48a838b01611154565b975060208901359150808211156112f9578384fd5b6113058a838b01611154565b9650604089013595506060890135915080821115611321578384fd5b61132d8a838b01611154565b94506080890135915080821115611342578384fd5b61134e8a838b01611154565b935060a0890135915080821115611363578283fd5b5061137089828a01611154565b9150509295509295509295565b60006020828403121561138e578081fd5b5035919050565b60008151808452815b818110156113ba5760208185018101518683018201520161139e565b818111156113cb5782602083870101525b50601f01601f19169290920160200192915050565b8054600090600181811c90808316806113fa57607f831692505b602080841082141561141a57634e487b7160e01b86526022600452602486fd5b83885260208801828015611435576001811461144657611471565b60ff19871682528282019750611471565b60008981526020902060005b8781101561146b57815484820152908601908401611452565b83019850505b5050505050505092915050565b6020815260006111f56020830184611395565b60c0815260006114a460c08301896113e0565b82810360208401526114b681896113e0565b905082810360408401526114ca81886113e0565b905082810360608401526114de81876113e0565b905082810360808401526114f281866113e0565b905082810360a084015261150681856113e0565b9998505050505050505050565b6040815260006115266040830185611395565b90506001600160a01b03831660208301529392505050565b6060815260006115516060830186611395565b82810360208401526115638186611395565b9150506001600160a01b0383166040830152949350505050565b6060815260006115906060830186611395565b82810360208401526115a28186611395565b905082810360408401526115b68185611395565b9695505050505050565b600181811c908216806115d457607f821691505b602082108114156115f557634e487b7160e01b600052602260045260246000fd5b50919050565b600060001982141561161b57634e487b7160e01b81526011600452602481fd5b5060010190565b634e487b7160e01b600052604160045260246000fdfea2646970667358221220dd40e27f0e6f201fcae614a81a15e59261feeace0995393d55275d71bc27411a64736f6c63430008040033",
  "linkReferences": {},
  "deployedLinkReferences": {}
}