{
  "_format": "hh-sol-artifact-1",
  "contractName": "HUB",
  "sourceName": "contracts/HUB.sol",
  "abi": [
    {
      "anonymous": false,
      "inputs": [
        {
          "indexed": true,
          "internalType": "address",
          "name": "previousOwner",
          "type": "address"
        },
        {
          "indexed": true,
          "internalType": "address",
          "name": "newOwner",
          "type": "address"
        }
      ],
      "name": "OwnershipTransferred",
      "type": "event"
    },
    {
      "anonymous": false,
      "inputs": [
        {
          "indexed": false,
          "internalType": "string",
          "name": "",
          "type": "string"
        },
        {
          "indexed": false,
          "internalType": "address",
          "name": "",
          "type": "address"
        }
      ],
      "name": "ev_RegisterAsCompany",
      "type": "event"
    },
    {
      "anonymous": false,
      "inputs": [
        {
          "indexed": false,
          "internalType": "bytes32",
          "name": "",
          "type": "bytes32"
        },
        {
          "indexed": false,
          "internalType": "bytes32",
          "name": "",
          "type": "bytes32"
        },
        {
          "indexed": false,
          "internalType": "address",
          "name": "",
          "type": "address"
        }
      ],
      "name": "ev_RegisterAsPerson",
      "type": "event"
    },
    {
      "inputs": [
        {
          "internalType": "address",
          "name": "sender",
          "type": "address"
        },
        {
          "internalType": "uint256",
          "name": "_jobID",
          "type": "uint256"
        }
      ],
      "name": "AddCompanyJob",
      "outputs": [],
      "stateMutability": "nonpayable",
      "type": "function"
    },
    {
      "inputs": [
        {
          "internalType": "address",
          "name": "sender",
          "type": "address"
        },
        {
          "internalType": "uint256",
          "name": "_jobID",
          "type": "uint256"
        }
      ],
      "name": "AddCompanyRequest",
      "outputs": [],
      "stateMutability": "nonpayable",
      "type": "function"
    },
    {
      "inputs": [
        {
          "internalType": "address",
          "name": "sender",
          "type": "address"
        },
        {
          "internalType": "uint256",
          "name": "_jobID",
          "type": "uint256"
        }
      ],
      "name": "AddWorkerJobApplied",
      "outputs": [],
      "stateMutability": "nonpayable",
      "type": "function"
    },
    {
      "inputs": [
        {
          "internalType": "address",
          "name": "_destination",
          "type": "address"
        },
        {
          "internalType": "uint256",
          "name": "_jobID",
          "type": "uint256"
        }
      ],
      "name": "AddWorkerRequest",
      "outputs": [],
      "stateMutability": "nonpayable",
      "type": "function"
    },
    {
      "inputs": [
        {
          "internalType": "address",
          "name": "sender",
          "type": "address"
        }
      ],
      "name": "CheckCompany",
      "outputs": [
        {
          "internalType": "bool",
          "name": "",
          "type": "bool"
        }
      ],
      "stateMutability": "view",
      "type": "function"
    },
    {
      "inputs": [
        {
          "internalType": "address",
          "name": "sender",
          "type": "address"
        }
      ],
      "name": "CheckWorker",
      "outputs": [
        {
          "internalType": "bool",
          "name": "",
          "type": "bool"
        }
      ],
      "stateMutability": "view",
      "type": "function"
    },
    {
      "inputs": [
        {
          "internalType": "string",
          "name": "_name",
          "type": "string"
        },
        {
          "internalType": "string",
          "name": "_description",
          "type": "string"
        },
        {
          "internalType": "string",
          "name": "_address",
          "type": "string"
        }
      ],
      "name": "CreateCompany",
      "outputs": [],
      "stateMutability": "nonpayable",
      "type": "function"
    },
    {
      "inputs": [
        {
          "internalType": "bytes32",
          "name": "_name",
          "type": "bytes32"
        },
        {
          "internalType": "bytes32",
          "name": "_surname",
          "type": "bytes32"
        },
        {
          "internalType": "bytes32",
          "name": "_age",
          "type": "bytes32"
        },
        {
          "internalType": "bytes32",
          "name": "_mobilePhone",
          "type": "bytes32"
        },
        {
          "internalType": "bytes32",
          "name": "_CV",
          "type": "bytes32"
        },
        {
          "internalType": "bytes32",
          "name": "_coverLetter",
          "type": "bytes32"
        }
      ],
      "name": "CreateWorker",
      "outputs": [],
      "stateMutability": "nonpayable",
      "type": "function"
    },
    {
      "inputs": [],
      "name": "GetCompaniesCounter",
      "outputs": [
        {
          "internalType": "uint256",
          "name": "",
          "type": "uint256"
        }
      ],
      "stateMutability": "view",
      "type": "function"
    },
    {
      "inputs": [],
      "name": "GetWorkersCounter",
      "outputs": [
        {
          "internalType": "uint256",
          "name": "",
          "type": "uint256"
        }
      ],
      "stateMutability": "view",
      "type": "function"
    },
    {
      "inputs": [
        {
          "internalType": "address",
          "name": "_contractJOB",
          "type": "address"
        }
      ],
      "name": "SetContractJobAddress",
      "outputs": [],
      "stateMutability": "nonpayable",
      "type": "function"
    },
    {
      "inputs": [
        {
          "internalType": "address",
          "name": "_contractREQUEST",
          "type": "address"
        }
      ],
      "name": "SetContractRequestAddress",
      "outputs": [],
      "stateMutability": "nonpayable",
      "type": "function"
    },
    {
      "inputs": [
        {
          "internalType": "uint256",
          "name": "_nrCompany",
          "type": "uint256"
        }
      ],
      "name": "ShowCompany",
      "outputs": [
        {
          "internalType": "string",
          "name": "",
          "type": "string"
        },
        {
          "internalType": "string",
          "name": "",
          "type": "string"
        },
        {
          "internalType": "string",
          "name": "",
          "type": "string"
        }
      ],
      "stateMutability": "view",
      "type": "function"
    },
    {
      "inputs": [
        {
          "internalType": "address",
          "name": "sender",
          "type": "address"
        }
      ],
      "name": "ShowCompanyCounterRequests",
      "outputs": [
        {
          "internalType": "uint256",
          "name": "",
          "type": "uint256"
        }
      ],
      "stateMutability": "view",
      "type": "function"
    },
    {
      "inputs": [
        {
          "internalType": "address",
          "name": "sender",
          "type": "address"
        }
      ],
      "name": "ShowCompanyJobsCounter",
      "outputs": [
        {
          "internalType": "uint256",
          "name": "",
          "type": "uint256"
        }
      ],
      "stateMutability": "view",
      "type": "function"
    },
    {
      "inputs": [
        {
          "internalType": "address",
          "name": "sender",
          "type": "address"
        },
        {
          "internalType": "uint256",
          "name": "_nrJobCreated",
          "type": "uint256"
        }
      ],
      "name": "ShowJobIDCompany",
      "outputs": [
        {
          "internalType": "uint256",
          "name": "",
          "type": "uint256"
        }
      ],
      "stateMutability": "view",
      "type": "function"
    },
    {
      "inputs": [
        {
          "internalType": "address",
          "name": "sender",
          "type": "address"
        },
        {
          "internalType": "uint256",
          "name": "_nrJobApplied",
          "type": "uint256"
        }
      ],
      "name": "ShowJobIDWorker",
      "outputs": [
        {
          "internalType": "uint256",
          "name": "",
          "type": "uint256"
        }
      ],
      "stateMutability": "view",
      "type": "function"
    },
    {
      "inputs": [
        {
          "internalType": "address",
          "name": "sender",
          "type": "address"
        },
        {
          "internalType": "uint256",
          "name": "_nrCompanyRequest",
          "type": "uint256"
        }
      ],
      "name": "ShowRequestIDCompany",
      "outputs": [
        {
          "internalType": "uint256",
          "name": "",
          "type": "uint256"
        }
      ],
      "stateMutability": "view",
      "type": "function"
    },
    {
      "inputs": [
        {
          "internalType": "address",
          "name": "sender",
          "type": "address"
        },
        {
          "internalType": "uint256",
          "name": "_nrPersonRequest",
          "type": "uint256"
        }
      ],
      "name": "ShowRequestIDWorker",
      "outputs": [
        {
          "internalType": "uint256",
          "name": "",
          "type": "uint256"
        }
      ],
      "stateMutability": "view",
      "type": "function"
    },
    {
      "inputs": [
        {
          "internalType": "address",
          "name": "_address",
          "type": "address"
        }
      ],
      "name": "ShowWorker",
      "outputs": [
        {
          "internalType": "bytes32",
          "name": "",
          "type": "bytes32"
        },
        {
          "internalType": "bytes32",
          "name": "",
          "type": "bytes32"
        },
        {
          "internalType": "bytes32",
          "name": "",
          "type": "bytes32"
        },
        {
          "internalType": "bytes32",
          "name": "",
          "type": "bytes32"
        },
        {
          "internalType": "bytes32",
          "name": "",
          "type": "bytes32"
        },
        {
          "internalType": "bytes32",
          "name": "",
          "type": "bytes32"
        }
      ],
      "stateMutability": "view",
      "type": "function"
    },
    {
      "inputs": [
        {
          "internalType": "address",
          "name": "sender",
          "type": "address"
        }
      ],
      "name": "ShowWorkerAppliedJobsCounter",
      "outputs": [
        {
          "internalType": "uint256",
          "name": "",
          "type": "uint256"
        }
      ],
      "stateMutability": "view",
      "type": "function"
    },
    {
      "inputs": [
        {
          "internalType": "address",
          "name": "sender",
          "type": "address"
        }
      ],
      "name": "ShowWorkerCounterRequests",
      "outputs": [
        {
          "internalType": "uint256",
          "name": "",
          "type": "uint256"
        }
      ],
      "stateMutability": "view",
      "type": "function"
    },
    {
      "inputs": [
        {
          "internalType": "uint256",
          "name": "_nrWorker",
          "type": "uint256"
        }
      ],
      "name": "ShowWorkerID",
      "outputs": [
        {
          "internalType": "address",
          "name": "",
          "type": "address"
        }
      ],
      "stateMutability": "view",
      "type": "function"
    },
    {
      "inputs": [],
      "name": "owner",
      "outputs": [
        {
          "internalType": "address",
          "name": "",
          "type": "address"
        }
      ],
      "stateMutability": "view",
      "type": "function"
    },
    {
      "inputs": [],
      "name": "renounceOwnership",
      "outputs": [],
      "stateMutability": "nonpayable",
      "type": "function"
    },
    {
      "inputs": [
        {
          "internalType": "address",
          "name": "newOwner",
          "type": "address"
        }
      ],
      "name": "transferOwnership",
      "outputs": [],
      "stateMutability": "nonpayable",
      "type": "function"
    }
  ],
  "bytecode": "0x608060405234801561001057600080fd5b5061001a3361001f565b61006f565b600080546001600160a01b038381166001600160a01b0319831681178455604051919092169283917f8be0079c531659141344cd1fd0a4f28419497f9722a3daafe3b4186f6b6457e09190a35050565b6113358061007e6000396000f3fe608060405234801561001057600080fd5b50600436106101ae5760003560e01c8063879716da116100ee578063b832eab111610097578063c23e8eff11610071578063c23e8eff1461045b578063c25b24d01461046e578063e1fc78a91461049a578063f2fde38b146104c657600080fd5b8063b832eab114610409578063b83eafae1461041c578063b87c5cfc1461042f57600080fd5b80638da5cb5b116100c85780638da5cb5b146103a85780638fa0ae34146103cd578063b63a132a146103e057600080fd5b8063879716da1461036f57806389c609c0146103825780638caa12dc1461039557600080fd5b8063441ad2ca1161015b57806371f7d4981161013557806371f7d49814610314578063791facd8146103275780637bd989f5146103495780638554a2601461035c57600080fd5b8063441ad2ca146102cb57806346c790d8146102e0578063715018a61461030c57600080fd5b80631e3402fa1161018c5780631e3402fa146102505780632f050e371461027c57806330b1937a1461028f57600080fd5b80630f9efc0a146101b35780631b161115146101ca5780631dcd8a50146101d2575b600080fd5b6006545b6040519081526020015b60405180910390f35b6003546101b7565b6102236101e03660046110a6565b6001600160a01b03166000908152600460208190526040909120600181015460028201546003830154938301546005840154600690940154929591949390929091565b604080519687526020870195909552938501929092526060840152608083015260a082015260c0016101c1565b6101b761025e3660046110a6565b6001600160a01b031660009081526001602052604090206007015490565b6101b761028a3660046110c7565b6104d9565b6102bb61029d3660046110a6565b6001600160a01b031660009081526001602052604090205460ff1690565b60405190151581526020016101c1565b6102de6102d9366004611132565b610575565b005b6101b76102ee3660046110a6565b6001600160a01b03166000908152600460205260409020600a015490565b6102de6106a5565b6102de6103223660046110c7565b6106b9565b61033a6103353660046111b6565b61075d565b6040516101c193929190611244565b6102de6103573660046110a6565b61094b565b6102de61036a3660046110c7565b610975565b6102de61037d3660046110c7565b610a0f565b6102de6103903660046110c7565b610aa9565b6102de6103a33660046110a6565b610b43565b6000546001600160a01b03165b6040516001600160a01b0390911681526020016101c1565b6102de6103db3660046110f0565b610b6d565b6103b56103ee3660046111b6565b6000908152600560205260409020546001600160a01b031690565b6101b76104173660046110c7565b610c8b565b6101b761042a3660046110c7565b610d22565b6102bb61043d3660046110a6565b6001600160a01b031660009081526004602052604090205460ff1690565b6101b76104693660046110c7565b610da9565b6101b761047c3660046110a6565b6001600160a01b031660009081526004602052604090206008015490565b6101b76104a83660046110a6565b6001600160a01b031660009081526001602052604090206005015490565b6102de6104d43660046110a6565b610e30565b6001600160a01b0382166000908152600460205260408120600a015482106105485760405162461bcd60e51b815260206004820152601260248201527f52657175657374206e6f7420666f756e6421000000000000000000000000000060448201526064015b60405180910390fd5b506001600160a01b0391909116600090815260046020908152604080832093835260099093019052205490565b3360009081526001602052604090205460ff16156105d55760405162461bcd60e51b815260206004820152601960248201527f596f7527726520616c7265616479207265676973746572642100000000000000604482015260640161053f565b336000908152600160208181526040909220805460ff191682178155855190926106059284019190870190610f6a565b50825161061b9060028301906020860190610f6a565b5081516106319060038301906020850190610f6a565b5060038054600090815260026020526040812080546001600160a01b0319163317905581549190610661836112c2565b91905055507fc7ce3fb6fc45f140ade3c39c738b15b325a6682e6862a6f0cb720b08bfc922cc8433604051610697929190611219565b60405180910390a150505050565b6106ad610ec0565b6106b76000610f1a565b565b6007546001600160a01b031633146107135760405162461bcd60e51b815260206004820152601060248201527f4e6f7420636f6e7472616374204a4f4200000000000000000000000000000000604482015260640161053f565b6001600160a01b038216600090815260016020908152604080832060058101805485526004820190935290832084905581549092909190610753836112c2565b9190505550505050565b6000818152600260208181526040808420546001600160a01b03168452600191829052909220918201805460609384938493919290830190600384019083906107a590611287565b80601f01602080910402602001604051908101604052809291908181526020018280546107d190611287565b801561081e5780601f106107f35761010080835404028352916020019161081e565b820191906000526020600020905b81548152906001019060200180831161080157829003601f168201915b5050505050925081805461083190611287565b80601f016020809104026020016040519081016040528092919081815260200182805461085d90611287565b80156108aa5780601f1061087f576101008083540402835291602001916108aa565b820191906000526020600020905b81548152906001019060200180831161088d57829003601f168201915b505050505091508080546108bd90611287565b80601f01602080910402602001604051908101604052809291908181526020018280546108e990611287565b80156109365780601f1061090b57610100808354040283529160200191610936565b820191906000526020600020905b81548152906001019060200180831161091957829003601f168201915b50505050509050935093509350509193909250565b610953610ec0565b600880546001600160a01b0319166001600160a01b0392909216919091179055565b6007546001600160a01b031633146109cf5760405162461bcd60e51b815260206004820152601060248201527f4e6f7420636f6e7472616374204a4f4200000000000000000000000000000000604482015260640161053f565b6001600160a01b038216600090815260046020908152604080832060088101805485526007820190935290832084905581549092909190610753836112c2565b6008546001600160a01b03163314610a695760405162461bcd60e51b815260206004820152601460248201527f4e6f7420636f6e74726163742052455155455354000000000000000000000000604482015260640161053f565b6001600160a01b0382166000908152600460209081526040808320600a8101805485526009820190935290832084905581549092909190610753836112c2565b6008546001600160a01b03163314610b035760405162461bcd60e51b815260206004820152601460248201527f4e6f7420636f6e74726163742052455155455354000000000000000000000000604482015260640161053f565b6001600160a01b038216600090815260016020908152604080832060078101805485526006820190935290832084905581549092909190610753836112c2565b610b4b610ec0565b600780546001600160a01b0319166001600160a01b0392909216919091179055565b3360009081526004602052604090205460ff1615610bcd5760405162461bcd60e51b815260206004820152601960248201527f596f7527726520616c7265616479207265676973746572642100000000000000604482015260640161053f565b336000818152600460208181526040808420805460ff19166001908117825581018c9055600281018b9055600381018a905592830188905560058084018890556006808501889055805486529252832080546001600160a01b031916909417909355825490929091610c3e836112c2565b90915550506040805188815260208101889052338183015290517ff6468a07efa6f1528207ba7ad0aaa595a6a5a94ea7a2b117e7f1195a2e4404509181900360600190a150505050505050565b6001600160a01b0382166000908152600160205260408120600701548210610cf55760405162461bcd60e51b815260206004820152601260248201527f52657175657374206e6f7420666f756e64210000000000000000000000000000604482015260640161053f565b506001600160a01b0391909116600090815260016020908152604080832093835260069093019052205490565b6001600160a01b0382166000908152600460205260408120600801548210610d7c5760405162461bcd60e51b815260206004820152600d60248201526c129bd8881b9bdd08199bdd5b99609a1b604482015260640161053f565b506001600160a01b0391909116600090815260046020908152604080832093835260079093019052205490565b6001600160a01b0382166000908152600160205260408120600501548210610e035760405162461bcd60e51b815260206004820152600d60248201526c129bd8881b9bdd08199bdd5b99609a1b604482015260640161053f565b506001600160a01b0391909116600090815260016020908152604080832093835260049093019052205490565b610e38610ec0565b6001600160a01b038116610eb45760405162461bcd60e51b815260206004820152602660248201527f4f776e61626c653a206e6577206f776e657220697320746865207a65726f206160448201527f6464726573730000000000000000000000000000000000000000000000000000606482015260840161053f565b610ebd81610f1a565b50565b6000546001600160a01b031633146106b75760405162461bcd60e51b815260206004820181905260248201527f4f776e61626c653a2063616c6c6572206973206e6f7420746865206f776e6572604482015260640161053f565b600080546001600160a01b038381166001600160a01b0319831681178455604051919092169283917f8be0079c531659141344cd1fd0a4f28419497f9722a3daafe3b4186f6b6457e09190a35050565b828054610f7690611287565b90600052602060002090601f016020900481019282610f985760008555610fde565b82601f10610fb157805160ff1916838001178555610fde565b82800160010185558215610fde579182015b82811115610fde578251825591602001919060010190610fc3565b50610fea929150610fee565b5090565b5b80821115610fea5760008155600101610fef565b80356001600160a01b038116811461101a57600080fd5b919050565b600082601f83011261102f578081fd5b813567ffffffffffffffff8082111561104a5761104a6112e9565b604051601f8301601f19908116603f01168101908282118183101715611072576110726112e9565b8160405283815286602085880101111561108a578485fd5b8360208701602083013792830160200193909352509392505050565b6000602082840312156110b7578081fd5b6110c082611003565b9392505050565b600080604083850312156110d9578081fd5b6110e283611003565b946020939093013593505050565b60008060008060008060c08789031215611108578182fd5b505084359660208601359650604086013595606081013595506080810135945060a0013592509050565b600080600060608486031215611146578283fd5b833567ffffffffffffffff8082111561115d578485fd5b6111698783880161101f565b9450602086013591508082111561117e578384fd5b61118a8783880161101f565b9350604086013591508082111561119f578283fd5b506111ac8682870161101f565b9150509250925092565b6000602082840312156111c7578081fd5b5035919050565b60008151808452815b818110156111f3576020818501810151868301820152016111d7565b818111156112045782602083870101525b50601f01601f19169290920160200192915050565b60408152600061122c60408301856111ce565b90506001600160a01b03831660208301529392505050565b60608152600061125760608301866111ce565b828103602084015261126981866111ce565b9050828103604084015261127d81856111ce565b9695505050505050565b600181811c9082168061129b57607f821691505b602082108114156112bc57634e487b7160e01b600052602260045260246000fd5b50919050565b60006000198214156112e257634e487b7160e01b81526011600452602481fd5b5060010190565b634e487b7160e01b600052604160045260246000fdfea2646970667358221220bf9593b4e60c0c3d16986a104b054a2d06b86f9bf583e4e0180673ceba78b51064736f6c63430008040033",
  "linkReferences": {},
  "deployedLinkReferences": {}
}