{
  "_format": "hh-sol-artifact-1",
  "contractName": "HUB",
  "sourceName": "contracts/HUB.sol",
  "abi": [
    {
      "anonymous": false,
      "inputs": [
        {
          "indexed": true,
          "internalType": "address",
          "name": "previousOwner",
          "type": "address"
        },
        {
          "indexed": true,
          "internalType": "address",
          "name": "newOwner",
          "type": "address"
        }
      ],
      "name": "OwnershipTransferred",
      "type": "event"
    },
    {
      "anonymous": false,
      "inputs": [
        {
          "indexed": false,
          "internalType": "string",
          "name": "",
          "type": "string"
        },
        {
          "indexed": false,
          "internalType": "address",
          "name": "",
          "type": "address"
        }
      ],
      "name": "ev_RegisterAsCompany",
      "type": "event"
    },
    {
      "anonymous": false,
      "inputs": [
        {
          "indexed": false,
          "internalType": "string",
          "name": "",
          "type": "string"
        },
        {
          "indexed": false,
          "internalType": "string",
          "name": "",
          "type": "string"
        },
        {
          "indexed": false,
          "internalType": "address",
          "name": "",
          "type": "address"
        }
      ],
      "name": "ev_RegisterAsPerson",
      "type": "event"
    },
    {
      "inputs": [
        {
          "internalType": "address",
          "name": "sender",
          "type": "address"
        },
        {
          "internalType": "uint256",
          "name": "_jobID",
          "type": "uint256"
        }
      ],
      "name": "AddCompanyJob",
      "outputs": [],
      "stateMutability": "nonpayable",
      "type": "function"
    },
    {
      "inputs": [
        {
          "internalType": "address",
          "name": "sender",
          "type": "address"
        },
        {
          "internalType": "uint256",
          "name": "_jobID",
          "type": "uint256"
        }
      ],
      "name": "AddCompanyRequest",
      "outputs": [],
      "stateMutability": "nonpayable",
      "type": "function"
    },
    {
      "inputs": [
        {
          "internalType": "address",
          "name": "sender",
          "type": "address"
        },
        {
          "internalType": "uint256",
          "name": "_jobID",
          "type": "uint256"
        }
      ],
      "name": "AddWorkerJobApplied",
      "outputs": [],
      "stateMutability": "nonpayable",
      "type": "function"
    },
    {
      "inputs": [
        {
          "internalType": "address",
          "name": "_destination",
          "type": "address"
        },
        {
          "internalType": "uint256",
          "name": "_jobID",
          "type": "uint256"
        }
      ],
      "name": "AddWorkerRequest",
      "outputs": [],
      "stateMutability": "nonpayable",
      "type": "function"
    },
    {
      "inputs": [
        {
          "internalType": "address",
          "name": "sender",
          "type": "address"
        }
      ],
      "name": "CheckCompany",
      "outputs": [
        {
          "internalType": "bool",
          "name": "",
          "type": "bool"
        }
      ],
      "stateMutability": "view",
      "type": "function"
    },
    {
      "inputs": [
        {
          "internalType": "address",
          "name": "sender",
          "type": "address"
        }
      ],
      "name": "CheckWorker",
      "outputs": [
        {
          "internalType": "bool",
          "name": "",
          "type": "bool"
        }
      ],
      "stateMutability": "view",
      "type": "function"
    },
    {
      "inputs": [
        {
          "internalType": "string",
          "name": "_name",
          "type": "string"
        },
        {
          "internalType": "string",
          "name": "_description",
          "type": "string"
        },
        {
          "internalType": "string",
          "name": "_address",
          "type": "string"
        }
      ],
      "name": "CreateCompany",
      "outputs": [],
      "stateMutability": "nonpayable",
      "type": "function"
    },
    {
      "inputs": [
        {
          "internalType": "string",
          "name": "_name",
          "type": "string"
        },
        {
          "internalType": "string",
          "name": "_surname",
          "type": "string"
        },
        {
          "internalType": "uint256",
          "name": "_age",
          "type": "uint256"
        },
        {
          "internalType": "string",
          "name": "_mobilePhone",
          "type": "string"
        },
        {
          "internalType": "string",
          "name": "_CV",
          "type": "string"
        },
        {
          "internalType": "string",
          "name": "_coverLetter",
          "type": "string"
        }
      ],
      "name": "CreateWorker",
      "outputs": [],
      "stateMutability": "nonpayable",
      "type": "function"
    },
    {
      "inputs": [],
      "name": "GetCompaniesCounter",
      "outputs": [
        {
          "internalType": "uint256",
          "name": "",
          "type": "uint256"
        }
      ],
      "stateMutability": "view",
      "type": "function"
    },
    {
      "inputs": [],
      "name": "GetWorkersCounter",
      "outputs": [
        {
          "internalType": "uint256",
          "name": "",
          "type": "uint256"
        }
      ],
      "stateMutability": "view",
      "type": "function"
    },
    {
      "inputs": [
        {
          "internalType": "address",
          "name": "_contractJOB",
          "type": "address"
        }
      ],
      "name": "SetContractJobAddress",
      "outputs": [],
      "stateMutability": "nonpayable",
      "type": "function"
    },
    {
      "inputs": [
        {
          "internalType": "address",
          "name": "_contractREQUEST",
          "type": "address"
        }
      ],
      "name": "SetContractRequestAddress",
      "outputs": [],
      "stateMutability": "nonpayable",
      "type": "function"
    },
    {
      "inputs": [
        {
          "internalType": "uint256",
          "name": "_nrCompany",
          "type": "uint256"
        }
      ],
      "name": "ShowCompany",
      "outputs": [
        {
          "internalType": "string",
          "name": "",
          "type": "string"
        },
        {
          "internalType": "string",
          "name": "",
          "type": "string"
        },
        {
          "internalType": "string",
          "name": "",
          "type": "string"
        }
      ],
      "stateMutability": "view",
      "type": "function"
    },
    {
      "inputs": [],
      "name": "ShowCompanyCounterRequests",
      "outputs": [
        {
          "internalType": "uint256",
          "name": "",
          "type": "uint256"
        }
      ],
      "stateMutability": "view",
      "type": "function"
    },
    {
      "inputs": [
        {
          "internalType": "address",
          "name": "sender",
          "type": "address"
        }
      ],
      "name": "ShowCompanyJobsCounter",
      "outputs": [
        {
          "internalType": "uint256",
          "name": "",
          "type": "uint256"
        }
      ],
      "stateMutability": "view",
      "type": "function"
    },
    {
      "inputs": [],
      "name": "ShowContractJobAddress",
      "outputs": [
        {
          "internalType": "address",
          "name": "",
          "type": "address"
        }
      ],
      "stateMutability": "view",
      "type": "function"
    },
    {
      "inputs": [],
      "name": "ShowContractRequestAddress",
      "outputs": [
        {
          "internalType": "address",
          "name": "",
          "type": "address"
        }
      ],
      "stateMutability": "view",
      "type": "function"
    },
    {
      "inputs": [
        {
          "internalType": "address",
          "name": "sender",
          "type": "address"
        },
        {
          "internalType": "uint256",
          "name": "_nrJobCreated",
          "type": "uint256"
        }
      ],
      "name": "ShowJobIDCompany",
      "outputs": [
        {
          "internalType": "uint256",
          "name": "",
          "type": "uint256"
        }
      ],
      "stateMutability": "view",
      "type": "function"
    },
    {
      "inputs": [
        {
          "internalType": "uint256",
          "name": "_nrJobApplied",
          "type": "uint256"
        }
      ],
      "name": "ShowJobIDWorker",
      "outputs": [
        {
          "internalType": "uint256",
          "name": "",
          "type": "uint256"
        }
      ],
      "stateMutability": "view",
      "type": "function"
    },
    {
      "inputs": [
        {
          "internalType": "address",
          "name": "sender",
          "type": "address"
        },
        {
          "internalType": "uint256",
          "name": "_nrCompanyRequest",
          "type": "uint256"
        }
      ],
      "name": "ShowRequestIDCompany",
      "outputs": [
        {
          "internalType": "uint256",
          "name": "",
          "type": "uint256"
        }
      ],
      "stateMutability": "view",
      "type": "function"
    },
    {
      "inputs": [
        {
          "internalType": "address",
          "name": "sender",
          "type": "address"
        },
        {
          "internalType": "uint256",
          "name": "_nrPersonRequest",
          "type": "uint256"
        }
      ],
      "name": "ShowRequestIDWorker",
      "outputs": [
        {
          "internalType": "uint256",
          "name": "",
          "type": "uint256"
        }
      ],
      "stateMutability": "view",
      "type": "function"
    },
    {
      "inputs": [
        {
          "internalType": "address",
          "name": "_address",
          "type": "address"
        }
      ],
      "name": "ShowWorker",
      "outputs": [
        {
          "internalType": "bytes",
          "name": "",
          "type": "bytes"
        }
      ],
      "stateMutability": "view",
      "type": "function"
    },
    {
      "inputs": [],
      "name": "ShowWorkerAppliedJobsCounter",
      "outputs": [
        {
          "internalType": "uint256",
          "name": "",
          "type": "uint256"
        }
      ],
      "stateMutability": "view",
      "type": "function"
    },
    {
      "inputs": [],
      "name": "ShowWorkerCounterRequests",
      "outputs": [
        {
          "internalType": "uint256",
          "name": "",
          "type": "uint256"
        }
      ],
      "stateMutability": "view",
      "type": "function"
    },
    {
      "inputs": [
        {
          "internalType": "address",
          "name": "_address",
          "type": "address"
        }
      ],
      "name": "ShowWorkerHuman",
      "outputs": [
        {
          "internalType": "string",
          "name": "",
          "type": "string"
        },
        {
          "internalType": "string",
          "name": "",
          "type": "string"
        },
        {
          "internalType": "uint256",
          "name": "",
          "type": "uint256"
        },
        {
          "internalType": "string",
          "name": "",
          "type": "string"
        },
        {
          "internalType": "string",
          "name": "",
          "type": "string"
        },
        {
          "internalType": "string",
          "name": "",
          "type": "string"
        }
      ],
      "stateMutability": "view",
      "type": "function"
    },
    {
      "inputs": [
        {
          "internalType": "uint256",
          "name": "_nrWorker",
          "type": "uint256"
        }
      ],
      "name": "ShowWorkerID",
      "outputs": [
        {
          "internalType": "address",
          "name": "",
          "type": "address"
        }
      ],
      "stateMutability": "view",
      "type": "function"
    },
    {
      "inputs": [],
      "name": "owner",
      "outputs": [
        {
          "internalType": "address",
          "name": "",
          "type": "address"
        }
      ],
      "stateMutability": "view",
      "type": "function"
    },
    {
      "inputs": [],
      "name": "renounceOwnership",
      "outputs": [],
      "stateMutability": "nonpayable",
      "type": "function"
    },
    {
      "inputs": [
        {
          "internalType": "address",
          "name": "newOwner",
          "type": "address"
        }
      ],
      "name": "transferOwnership",
      "outputs": [],
      "stateMutability": "nonpayable",
      "type": "function"
    }
  ],
  "bytecode": "0x608060405234801561001057600080fd5b5061001a3361001f565b61006f565b600080546001600160a01b038381166001600160a01b0319831681178455604051919092169283917f8be0079c531659141344cd1fd0a4f28419497f9722a3daafe3b4186f6b6457e09190a35050565b611a468061007e6000396000f3fe608060405234801561001057600080fd5b50600436106101cf5760003560e01c80638762189611610104578063b63a132a116100a2578063c23e8eff11610071578063c23e8eff14610416578063d81a9c6d14610429578063e1fc78a91461043a578063f2fde38b1461046657600080fd5b8063b63a132a146103b4578063b73cf8b8146103dd578063b832eab1146103f0578063b87c5cfc1461040357600080fd5b80638caa12dc116100de5780638caa12dc146103605780638da5cb5b14610373578063a38e1a9c14610384578063ada2c5131461039c57600080fd5b80638762189614610315578063879716da1461033a57806389c609c01461034d57600080fd5b806362f51df01161017157806378b01ded1161014b57806378b01ded146102b5578063791facd8146102cd5780637bd989f5146102ef5780638554a2601461030257600080fd5b806362f51df014610287578063715018a61461029a57806371f7d498146102a257600080fd5b80631dcd8a50116101ad5780631dcd8a501461021c5780632f050e371461023c57806330b1937a1461024f578063441ad2ca1461027257600080fd5b8063025d9875146101d45780630f9efc0a146102025780631b16111514610214575b600080fd5b6101e76101e236600461155a565b610479565b6040516101f9969594939291906118bd565b60405180910390f35b6006545b6040519081526020016101f9565b600354610206565b61022f61022a36600461155a565b610797565b6040516101f991906117fd565b61020661024a36600461157b565b6107f9565b61026261025d36600461155a565b610895565b60405190151581526020016101f9565b6102856102803660046115a4565b6108e4565b005b6102066102953660046116fc565b610a63565b610285610af9565b6102856102b036600461157b565b610b0d565b33600090815260046020526040902060080154610206565b6102e06102db3660046116fc565b610bb1565b6040516101f99392919061187a565b6102856102fd36600461155a565b610d9f565b61028561031036600461157b565b610dc9565b6007546001600160a01b03165b6040516001600160a01b0390911681526020016101f9565b61028561034836600461157b565b610e63565b61028561035b36600461157b565b610efd565b61028561036e36600461155a565b610f97565b6000546001600160a01b0316610322565b336000908152600460205260409020600a0154610206565b33600090815260016020526040902060070154610206565b6103226103c23660046116fc565b6000908152600560205260409020546001600160a01b031690565b6102856103eb366004611628565b610fc1565b6102066103fe36600461157b565b61117a565b61026261041136600461155a565b611211565b61020661042436600461157b565b61125d565b6008546001600160a01b0316610322565b61020661044836600461155a565b6001600160a01b031660009081526001602052604090206005015490565b61028561047436600461155a565b6112e4565b60608060006060806060600060046000896001600160a01b03166001600160a01b031681526020019081526020016000209050806001018160020182600301548360040184600501856006018580546104d190611998565b80601f01602080910402602001604051908101604052809291908181526020018280546104fd90611998565b801561054a5780601f1061051f5761010080835404028352916020019161054a565b820191906000526020600020905b81548152906001019060200180831161052d57829003601f168201915b5050505050955084805461055d90611998565b80601f016020809104026020016040519081016040528092919081815260200182805461058990611998565b80156105d65780601f106105ab576101008083540402835291602001916105d6565b820191906000526020600020905b8154815290600101906020018083116105b957829003601f168201915b505050505094508280546105e990611998565b80601f016020809104026020016040519081016040528092919081815260200182805461061590611998565b80156106625780601f1061063757610100808354040283529160200191610662565b820191906000526020600020905b81548152906001019060200180831161064557829003601f168201915b5050505050925081805461067590611998565b80601f01602080910402602001604051908101604052809291908181526020018280546106a190611998565b80156106ee5780601f106106c3576101008083540402835291602001916106ee565b820191906000526020600020905b8154815290600101906020018083116106d157829003601f168201915b5050505050915080805461070190611998565b80601f016020809104026020016040519081016040528092919081815260200182805461072d90611998565b801561077a5780601f1061074f5761010080835404028352916020019161077a565b820191906000526020600020905b81548152906001019060200180831161075d57829003601f168201915b505050505090509650965096509650965096505091939550919395565b6001600160a01b0381166000908152600460208181526040928390206003810154935160609491936107e2936001860193600287019390928701916005880191600689019101611931565b604051602081830303815290604052915050919050565b6001600160a01b0382166000908152600460205260408120600a015482106108685760405162461bcd60e51b815260206004820152601260248201527f52657175657374206e6f7420666f756e6421000000000000000000000000000060448201526064015b60405180910390fd5b506001600160a01b0391909116600090815260046020908152604080832093835260099093019052205490565b6001600160a01b038116600090815260016020526040812054600160a01b900460ff1680156108de57506001600160a01b03808316600081815260016020526040902054909116145b92915050565b33600090815260016020526040902054600160a01b900460ff161580156109225750336000818152600160205260409020546001600160a01b031614155b61096e5760405162461bcd60e51b815260206004820152601960248201527f596f7527726520616c7265616479207265676973746572642100000000000000604482015260640161085f565b336000818152600160208181526040909220805460ff60a01b1990941674ffffffffffffffffffffffffffffffffffffffffff1990941693909317600160a01b17835585516109c3929184019187019061141e565b5082516109d9906002830190602086019061141e565b5081516109ef906003830190602085019061141e565b5060038054600090815260026020526040812080546001600160a01b0319163317905581549190610a1f836119d3565b91905055507fc7ce3fb6fc45f140ade3c39c738b15b325a6682e6862a6f0cb720b08bfc922cc8433604051610a55929190611810565b60405180910390a150505050565b336000908152600460205260408120600801548210610ab45760405162461bcd60e51b815260206004820152600d60248201526c129bd8881b9bdd08199bdd5b99609a1b604482015260640161085f565b336000818152600460205260409020546001600160a01b031614610ad757600080fd5b5033600090815260046020908152604080832093835260079093019052205490565b610b01611374565b610b0b60006113ce565b565b6007546001600160a01b03163314610b675760405162461bcd60e51b815260206004820152601060248201527f4e6f7420636f6e7472616374204a4f4200000000000000000000000000000000604482015260640161085f565b6001600160a01b038216600090815260016020908152604080832060058101805485526004820190935290832084905581549092909190610ba7836119d3565b9190505550505050565b6000818152600260208181526040808420546001600160a01b0316845260019182905290922091820180546060938493849391929083019060038401908390610bf990611998565b80601f0160208091040260200160405190810160405280929190818152602001828054610c2590611998565b8015610c725780601f10610c4757610100808354040283529160200191610c72565b820191906000526020600020905b815481529060010190602001808311610c5557829003601f168201915b50505050509250818054610c8590611998565b80601f0160208091040260200160405190810160405280929190818152602001828054610cb190611998565b8015610cfe5780601f10610cd357610100808354040283529160200191610cfe565b820191906000526020600020905b815481529060010190602001808311610ce157829003601f168201915b50505050509150808054610d1190611998565b80601f0160208091040260200160405190810160405280929190818152602001828054610d3d90611998565b8015610d8a5780601f10610d5f57610100808354040283529160200191610d8a565b820191906000526020600020905b815481529060010190602001808311610d6d57829003601f168201915b50505050509050935093509350509193909250565b610da7611374565b600880546001600160a01b0319166001600160a01b0392909216919091179055565b6007546001600160a01b03163314610e235760405162461bcd60e51b815260206004820152601060248201527f4e6f7420636f6e7472616374204a4f4200000000000000000000000000000000604482015260640161085f565b6001600160a01b038216600090815260046020908152604080832060088101805485526007820190935290832084905581549092909190610ba7836119d3565b6008546001600160a01b03163314610ebd5760405162461bcd60e51b815260206004820152601460248201527f4e6f7420636f6e74726163742052455155455354000000000000000000000000604482015260640161085f565b6001600160a01b0382166000908152600460209081526040808320600a8101805485526009820190935290832084905581549092909190610ba7836119d3565b6008546001600160a01b03163314610f575760405162461bcd60e51b815260206004820152601460248201527f4e6f7420636f6e74726163742052455155455354000000000000000000000000604482015260640161085f565b6001600160a01b038216600090815260016020908152604080832060078101805485526006820190935290832084905581549092909190610ba7836119d3565b610f9f611374565b600780546001600160a01b0319166001600160a01b0392909216919091179055565b33600090815260046020526040902054600160a01b900460ff16158015610fff5750336000818152600460205260409020546001600160a01b031614155b61104b5760405162461bcd60e51b815260206004820152601960248201527f596f7527726520616c7265616479207265676973746572642100000000000000604482015260640161085f565b336000818152600460209081526040909120805460ff60a01b1990931674ffffffffffffffffffffffffffffffffffffffffff1990931692909217600160a01b17825587516110a2916001840191908a019061141e565b5085516110b8906002830190602089019061141e565b506003810185905583516110d5906004830190602087019061141e565b5082516110eb906005830190602086019061141e565b508151611101906006830190602085019061141e565b5060068054600090815260056020526040812080546001600160a01b0319163317905581549190611131836119d3565b91905055507f0eeb057e74cdc4b0baf2f21550ca34bce6c87cbfd56af98a4e3b95940f1456158787336040516111699392919061183b565b60405180910390a150505050505050565b6001600160a01b03821660009081526001602052604081206007015482106111e45760405162461bcd60e51b815260206004820152601260248201527f52657175657374206e6f7420666f756e64210000000000000000000000000000604482015260640161085f565b506001600160a01b0391909116600090815260016020908152604080832093835260069093019052205490565b6001600160a01b038116600090815260046020526040812054600160a01b900460ff1680156108de5750506001600160a01b039081166000818152600460205260409020549091161490565b6001600160a01b03821660009081526001602052604081206005015482106112b75760405162461bcd60e51b815260206004820152600d60248201526c129bd8881b9bdd08199bdd5b99609a1b604482015260640161085f565b506001600160a01b0391909116600090815260016020908152604080832093835260049093019052205490565b6112ec611374565b6001600160a01b0381166113685760405162461bcd60e51b815260206004820152602660248201527f4f776e61626c653a206e6577206f776e657220697320746865207a65726f206160448201527f6464726573730000000000000000000000000000000000000000000000000000606482015260840161085f565b611371816113ce565b50565b6000546001600160a01b03163314610b0b5760405162461bcd60e51b815260206004820181905260248201527f4f776e61626c653a2063616c6c6572206973206e6f7420746865206f776e6572604482015260640161085f565b600080546001600160a01b038381166001600160a01b0319831681178455604051919092169283917f8be0079c531659141344cd1fd0a4f28419497f9722a3daafe3b4186f6b6457e09190a35050565b82805461142a90611998565b90600052602060002090601f01602090048101928261144c5760008555611492565b82601f1061146557805160ff1916838001178555611492565b82800160010185558215611492579182015b82811115611492578251825591602001919060010190611477565b5061149e9291506114a2565b5090565b5b8082111561149e57600081556001016114a3565b80356001600160a01b03811681146114ce57600080fd5b919050565b600082601f8301126114e3578081fd5b813567ffffffffffffffff808211156114fe576114fe6119fa565b604051601f8301601f19908116603f01168101908282118183101715611526576115266119fa565b8160405283815286602085880101111561153e578485fd5b8360208701602083013792830160200193909352509392505050565b60006020828403121561156b578081fd5b611574826114b7565b9392505050565b6000806040838503121561158d578081fd5b611596836114b7565b946020939093013593505050565b6000806000606084860312156115b8578081fd5b833567ffffffffffffffff808211156115cf578283fd5b6115db878388016114d3565b945060208601359150808211156115f0578283fd5b6115fc878388016114d3565b93506040860135915080821115611611578283fd5b5061161e868287016114d3565b9150509250925092565b60008060008060008060c08789031215611640578182fd5b863567ffffffffffffffff80821115611657578384fd5b6116638a838b016114d3565b97506020890135915080821115611678578384fd5b6116848a838b016114d3565b96506040890135955060608901359150808211156116a0578384fd5b6116ac8a838b016114d3565b945060808901359150808211156116c1578384fd5b6116cd8a838b016114d3565b935060a08901359150808211156116e2578283fd5b506116ef89828a016114d3565b9150509295509295509295565b60006020828403121561170d578081fd5b5035919050565b60008151808452815b818110156117395760208185018101518683018201520161171d565b8181111561174a5782602083870101525b50601f01601f19169290920160200192915050565b8054600090600181811c908083168061177957607f831692505b602080841082141561179957634e487b7160e01b86526022600452602486fd5b838852602088018280156117b457600181146117c5576117f0565b60ff198716825282820197506117f0565b60008981526020902060005b878110156117ea578154848201529086019084016117d1565b83019850505b5050505050505092915050565b6020815260006115746020830184611714565b6040815260006118236040830185611714565b90506001600160a01b03831660208301529392505050565b60608152600061184e6060830186611714565b82810360208401526118608186611714565b9150506001600160a01b0383166040830152949350505050565b60608152600061188d6060830186611714565b828103602084015261189f8186611714565b905082810360408401526118b38185611714565b9695505050505050565b60c0815260006118d060c0830189611714565b82810360208401526118e28189611714565b905086604084015282810360608401526118fc8187611714565b905082810360808401526119108186611714565b905082810360a08401526119248185611714565b9998505050505050505050565b60c08152600061194460c083018961175f565b8281036020840152611956818961175f565b90508660408401528281036060840152611970818761175f565b90508281036080840152611984818661175f565b905082810360a0840152611924818561175f565b600181811c908216806119ac57607f821691505b602082108114156119cd57634e487b7160e01b600052602260045260246000fd5b50919050565b60006000198214156119f357634e487b7160e01b81526011600452602481fd5b5060010190565b634e487b7160e01b600052604160045260246000fdfea26469706673582212204fde019a15650716ce447a7d5cd30c9beb11513aa4d1f49d6973542aceeadbc064736f6c63430008040033",
  "linkReferences": {},
  "deployedLinkReferences": {}
}