{
  "_format": "hh-sol-artifact-1",
  "contractName": "RequestContract",
  "sourceName": "contracts/RequestContract.sol",
  "abi": [
    {
      "inputs": [
        {
          "internalType": "address",
          "name": "_interfaceHUB",
          "type": "address"
        },
        {
          "internalType": "address",
          "name": "_interfaceJOB",
          "type": "address"
        }
      ],
      "stateMutability": "nonpayable",
      "type": "constructor"
    },
    {
      "anonymous": false,
      "inputs": [
        {
          "indexed": false,
          "internalType": "uint256",
          "name": "",
          "type": "uint256"
        },
        {
          "indexed": false,
          "internalType": "uint256",
          "name": "",
          "type": "uint256"
        }
      ],
      "name": "ev_CloseRequest",
      "type": "event"
    },
    {
      "anonymous": false,
      "inputs": [
        {
          "indexed": false,
          "internalType": "address",
          "name": "",
          "type": "address"
        },
        {
          "indexed": false,
          "internalType": "address",
          "name": "",
          "type": "address"
        }
      ],
      "name": "ev_CreateRequest",
      "type": "event"
    },
    {
      "anonymous": false,
      "inputs": [
        {
          "indexed": false,
          "internalType": "address",
          "name": "",
          "type": "address"
        },
        {
          "indexed": false,
          "internalType": "address",
          "name": "",
          "type": "address"
        }
      ],
      "name": "ev_SendMessage",
      "type": "event"
    },
    {
      "inputs": [
        {
          "internalType": "uint256",
          "name": "_nrRequest",
          "type": "uint256"
        }
      ],
      "name": "CloseRequest",
      "outputs": [],
      "stateMutability": "nonpayable",
      "type": "function"
    },
    {
      "inputs": [
        {
          "internalType": "address",
          "name": "_destination",
          "type": "address"
        },
        {
          "internalType": "string",
          "name": "_title",
          "type": "string"
        },
        {
          "internalType": "string",
          "name": "_description",
          "type": "string"
        },
        {
          "internalType": "string",
          "name": "_workingAddress",
          "type": "string"
        },
        {
          "internalType": "uint256",
          "name": "_hourInit",
          "type": "uint256"
        },
        {
          "internalType": "uint256",
          "name": "_hourFinish",
          "type": "uint256"
        },
        {
          "internalType": "uint256",
          "name": "_dateFrom",
          "type": "uint256"
        },
        {
          "internalType": "uint256",
          "name": "_dateTo",
          "type": "uint256"
        },
        {
          "internalType": "string",
          "name": "_message",
          "type": "string"
        }
      ],
      "name": "CreateRequest",
      "outputs": [],
      "stateMutability": "payable",
      "type": "function"
    },
    {
      "inputs": [
        {
          "internalType": "uint256",
          "name": "_nrRequest",
          "type": "uint256"
        },
        {
          "internalType": "string",
          "name": "_message",
          "type": "string"
        }
      ],
      "name": "SendMessage",
      "outputs": [],
      "stateMutability": "nonpayable",
      "type": "function"
    },
    {
      "inputs": [
        {
          "internalType": "uint256",
          "name": "_nrRequest",
          "type": "uint256"
        },
        {
          "internalType": "uint8",
          "name": "_status",
          "type": "uint8"
        }
      ],
      "name": "SetAnswer",
      "outputs": [],
      "stateMutability": "nonpayable",
      "type": "function"
    },
    {
      "inputs": [],
      "name": "ShowCounterRequests",
      "outputs": [
        {
          "internalType": "uint256",
          "name": "",
          "type": "uint256"
        }
      ],
      "stateMutability": "view",
      "type": "function"
    },
    {
      "inputs": [
        {
          "internalType": "uint256",
          "name": "_nrRequest",
          "type": "uint256"
        }
      ],
      "name": "ShowMessages",
      "outputs": [
        {
          "components": [
            {
              "internalType": "address",
              "name": "owner",
              "type": "address"
            },
            {
              "internalType": "address",
              "name": "destination",
              "type": "address"
            },
            {
              "internalType": "string",
              "name": "message",
              "type": "string"
            },
            {
              "internalType": "uint256",
              "name": "datetime",
              "type": "uint256"
            }
          ],
          "internalType": "struct RequestContract.Message[]",
          "name": "",
          "type": "tuple[]"
        }
      ],
      "stateMutability": "view",
      "type": "function"
    },
    {
      "inputs": [
        {
          "internalType": "uint256",
          "name": "_nrRequest",
          "type": "uint256"
        }
      ],
      "name": "ShowRequest",
      "outputs": [
        {
          "internalType": "address",
          "name": "",
          "type": "address"
        },
        {
          "internalType": "address",
          "name": "",
          "type": "address"
        },
        {
          "internalType": "uint256",
          "name": "",
          "type": "uint256"
        },
        {
          "internalType": "uint256",
          "name": "",
          "type": "uint256"
        },
        {
          "internalType": "uint256",
          "name": "",
          "type": "uint256"
        },
        {
          "internalType": "uint256",
          "name": "",
          "type": "uint256"
        },
        {
          "internalType": "uint256",
          "name": "",
          "type": "uint256"
        },
        {
          "internalType": "uint8",
          "name": "",
          "type": "uint8"
        },
        {
          "internalType": "bool",
          "name": "",
          "type": "bool"
        }
      ],
      "stateMutability": "view",
      "type": "function"
    }
  ],
  "bytecode": "0x60806040523480156200001157600080fd5b5060405162001f2b38038062001f2b833981016040819052620000349162000088565b6001600055600380546001600160a01b039384166001600160a01b03199182161790915560048054929093169116179055620000bf565b80516001600160a01b03811681146200008357600080fd5b919050565b600080604083850312156200009b578182fd5b620000a6836200006b565b9150620000b6602084016200006b565b90509250929050565b611e5c80620000cf6000396000f3fe6080604052600436106100705760003560e01c80637c1a24331161004e5780637c1a2433146101305780638a0b61531461015d578063a8404e3f1461017b578063b7a45a7b1461019b57600080fd5b806324c12f5614610075578063783485fc146100975780637a41bdc5146100b7575b600080fd5b34801561008157600080fd5b50610095610090366004611a80565b6101ae565b005b3480156100a357600080fd5b506100956100b2366004611ab0565b6107a3565b3480156100c357600080fd5b506100d76100d2366004611a80565b61096b565b604080516001600160a01b039a8b1681529990981660208a0152968801959095526060870193909352608086019190915260a085015260c084015260ff1660e08301521515610100820152610120015b60405180910390f35b34801561013c57600080fd5b5061015061014b366004611a80565b610aba565b6040516101279190611c72565b34801561016957600080fd5b50600254604051908152602001610127565b34801561018757600080fd5b50610095610196366004611af5565b610c7f565b6100956101a936600461185e565b610d47565b8060025481106101bd57600080fd5b600260005414156102155760405162461bcd60e51b815260206004820152601f60248201527f5265656e7472616e637947756172643a207265656e7472616e742063616c6c0060448201526064015b60405180910390fd5b600260009081558281526001602052604090208054600c909101546001600160a01b0390911690610100900460ff1661024d57600080fd5b6001600160a01b038116331461026257600080fd5b6000838152600160208190526040909120600c81015491015460ff909116906001600160a01b0316600282141561070d576004546003546001600160a01b0391821691166102b087336111fa565b60405163e1fc78a960e01b815233600482018190526000916001600160a01b0384169163c23e8eff91600190849063e1fc78a99060240160206040518083038186803b1580156102ff57600080fd5b505afa158015610313573d6000803e3d6000fd5b505050506040513d601f19601f820116820180604052508101906103379190611a98565b6103419190611d63565b6040517fffffffff0000000000000000000000000000000000000000000000000000000060e085901b1681526001600160a01b039092166004830152602482015260440160206040518083038186803b15801561039d57600080fd5b505afa1580156103b1573d6000803e3d6000fd5b505050506040513d601f19601f820116820180604052508101906103d59190611a98565b6040517f1dcd8a500000000000000000000000000000000000000000000000000000000081526001600160a01b038681166004830152919250600091841690631dcd8a509060240160006040518083038186803b15801561043557600080fd5b505afa158015610449573d6000803e3d6000fd5b505050506040513d6000823e601f3d908101601f19168201604052610471919081019061195e565b90506000806000806000808680602001905181019061049091906119ac565b955095509550955095509550896001600160a01b03166378c271428c8a8989888a89896040518963ffffffff1660e01b81526004016104d6989796959493929190611be4565b600060405180830381600087803b1580156104f057600080fd5b505af1158015610504573d6000803e3d6000fd5b505060405163e1fc78a960e01b81523360048201526001600160a01b03808e16935063130176699250600191908d169063e1fc78a99060240160206040518083038186803b15801561055557600080fd5b505afa158015610569573d6000803e3d6000fd5b505050506040513d601f19601f8201168201806040525081019061058d9190611a98565b6105979190611d63565b6040517fffffffff0000000000000000000000000000000000000000000000000000000060e084901b168152600481019190915260006024820152604401600060405180830381600087803b1580156105ef57600080fd5b505af1158015610603573d6000803e3d6000fd5b50506040517f2665ca3c0000000000000000000000000000000000000000000000000000000081526001600160a01b038e81166004830152602482018c90528d169250632665ca3c9150604401600060405180830381600087803b15801561066a57600080fd5b505af115801561067e573d6000803e3d6000fd5b50506040517f0b216438000000000000000000000000000000000000000000000000000000008152600481018b90526001600160a01b038d169250630b2164389150602401600060405180830381600087803b1580156106dd57600080fd5b505af11580156106f1573d6000803e3d6000fd5b505050506106fe8f6116bf565b5050505050505050505061075e565b610716856116bf565b600085815260016020526040808220600a015490516001600160a01b0386169282156108fc02929190818181858888f1935050505015801561075c573d6000803e3d6000fd5b505b60408051868152602081018490527f5b35f771d9f644c0f2050975bea8e2fbc8b54a867818d17d83983f4538dcaeb3910160405180910390a150506001600055505050565b6000828152600160205260409020600c810154610100900460ff166107c757600080fd5b60018101546001600160a01b03163314806107eb575080546001600160a01b031633145b6108485760405162461bcd60e51b815260206004820152602860248201527f596f75277265206e6f74207468652064657374696e6174696f6e206f7220746860448201526765206f776e65722160c01b606482015260840161020c565b60018101546000906001600160a01b0316331415610871575080546001600160a01b0316610881565b5060018101546001600160a01b03165b604080516080810182523381526001600160a01b038381166020808401918252938301878152426060850152600b87018054600181810183556000928352918790208651600490920201805491861673ffffffffffffffffffffffffffffffffffffffff19928316178155935191840180549290951691161790925590518051929384936109159260028501920190611702565b5060609190910151600390910155604080513381526001600160a01b03841660208201527fd8b299e59f769a419bee2384c79e5dc491a05f9533388b3376d9848981da81b6910160405180910390a15050505050565b600080600080600080600080600089600254811061098857600080fd5b60008b815260016020526040902080546001600160a01b03163314806109ba575060018101546001600160a01b031633145b610a2c5760405162461bcd60e51b815260206004820152602660248201527f596f75277265206e6f7420616c6c6f77656420746f207265616420746865207260448201527f6571756573740000000000000000000000000000000000000000000000000000606482015260840161020c565b8060000160009054906101000a90046001600160a01b03168160010160009054906101000a90046001600160a01b03168260080154836009015484600a01548560060154866007015487600c0160009054906101000a900460ff1688600c0160019054906101000a900460ff169a509a509a509a509a509a509a509a509a5050509193959799909294969850565b6060816002548110610acb57600080fd5b6000838152600160208190526040909120908101546001600160a01b0316331480610aff575080546001600160a01b031633145b610b5c5760405162461bcd60e51b815260206004820152602860248201527f596f75277265206e6f74207468652064657374696e6174696f6e206f7220746860448201526765206f776e65722160c01b606482015260840161020c565b80600b01805480602002602001604051908101604052809291908181526020016000905b82821015610c71576000848152602090819020604080516080810182526004860290920180546001600160a01b0390811684526001820154169383019390935260028301805492939291840191610bd690611daa565b80601f0160208091040260200160405190810160405280929190818152602001828054610c0290611daa565b8015610c4f5780601f10610c2457610100808354040283529160200191610c4f565b820191906000526020600020905b815481529060010190602001808311610c3257829003601f168201915b5050505050815260200160038201548152505081526020019060010190610b80565b505050509250505b50919050565b816002548110610c8e57600080fd5b6000838152600160205260409020600c810154610100900460ff16610cf55760405162461bcd60e51b815260206004820152601a60248201527f5468652072657175657374206973206e6f742061637469766521000000000000604482015260640161020c565b60018101546001600160a01b03163314610d0e57600080fd5b60008360ff16118015610d24575060038360ff16105b610d2d57600080fd5b600c01805460ff191660ff93909316929092179091555050565b6003546040517f30b1937a0000000000000000000000000000000000000000000000000000000081523360048201526001600160a01b039091169081906330b1937a9060240160206040518083038186803b158015610da557600080fd5b505afa158015610db9573d6000803e3d6000fd5b505050506040513d601f19601f82011682018060405250810190610ddd919061193e565b610e295760405162461bcd60e51b815260206004820152600d60248201527f4e6f74206120636f6d70616e7900000000000000000000000000000000000000604482015260640161020c565b60003411610e9e5760405162461bcd60e51b8152602060048201526024808201527f596f75206d75737420637265617465206120726571756573742077697468207660448201527f616c756500000000000000000000000000000000000000000000000000000000606482015260840161020c565b600086118015610ead57508585115b8015610eb95750600084115b8015610ec457508383115b610f105760405162461bcd60e51b815260206004820152601960248201527f54686520696e707574732061726520696e636f72726563747300000000000000604482015260640161020c565b60006001600060025481526020019081526020016000209050338160000160006101000a8154816001600160a01b0302191690836001600160a01b031602179055508a8160010160006101000a8154816001600160a01b0302191690836001600160a01b0316021790555089816002019080519060200190610f93929190611702565b508851610fa990600383019060208c0190611702565b508751610fbf90600483019060208b0190611702565b50600881018590556009810184905534600a8201556006810187905560078101869055600c8101805461ffff1916610100179055604080516080810182523381526001600160a01b038d81166020808401918252938301878152426060850152600b8601805460018181018355600092835291879020865160049290920201805491861673ffffffffffffffffffffffffffffffffffffffff19928316178155935191840180549290951691161790925590518051929391926110889260028501920190611702565b5060609190910151600391820155546002546040517f879716da0000000000000000000000000000000000000000000000000000000081526001600160a01b038e811660048301526024820192909252911690819063879716da90604401600060405180830381600087803b15801561110057600080fd5b505af1158015611114573d6000803e3d6000fd5b50506002546040517f89c609c000000000000000000000000000000000000000000000000000000000815233600482015260248101919091526001600160a01b03841692506389c609c09150604401600060405180830381600087803b15801561117d57600080fd5b505af1158015611191573d6000803e3d6000fd5b5050600280549250905060006111a683611ddf565b9091555050604080513381526001600160a01b038e1660208201527fe574516642c19610bea5fc1607d78a7cd18f285d643c3f76da84f4bf50daff10910160405180910390a1505050505050505050505050565b600082815260016020818152604080842081516101c08101835281546001600160a01b03908116825294820154909416928401929092526002820180549184019161124490611daa565b80601f016020809104026020016040519081016040528092919081815260200182805461127090611daa565b80156112bd5780601f10611292576101008083540402835291602001916112bd565b820191906000526020600020905b8154815290600101906020018083116112a057829003601f168201915b505050505081526020016003820180546112d690611daa565b80601f016020809104026020016040519081016040528092919081815260200182805461130290611daa565b801561134f5780601f106113245761010080835404028352916020019161134f565b820191906000526020600020905b81548152906001019060200180831161133257829003601f168201915b5050505050815260200160048201805461136890611daa565b80601f016020809104026020016040519081016040528092919081815260200182805461139490611daa565b80156113e15780601f106113b6576101008083540402835291602001916113e1565b820191906000526020600020905b8154815290600101906020018083116113c457829003601f168201915b505050505081526020016005820180546113fa90611daa565b80601f016020809104026020016040519081016040528092919081815260200182805461142690611daa565b80156114735780601f1061144857610100808354040283529160200191611473565b820191906000526020600020905b81548152906001019060200180831161145657829003601f168201915b5050505050815260200160068201548152602001600782015481526020016008820154815260200160098201548152602001600a8201548152602001600b8201805480602002602001604051908101604052809291908181526020016000905b828210156115c4576000848152602090819020604080516080810182526004860290920180546001600160a01b039081168452600182015416938301939093526002830180549293929184019161152990611daa565b80601f016020809104026020016040519081016040528092919081815260200182805461155590611daa565b80156115a25780601f10611577576101008083540402835291602001916115a2565b820191906000526020600020905b81548152906001019060200180831161158557829003601f168201915b50505050508152602001600382015481525050815260200190600101906114d3565b505050508152602001600c820160009054906101000a900460ff1660ff1660ff168152602001600c820160019054906101000a900460ff16151515158152505090506000600460009054906101000a90046001600160a01b03169050806001600160a01b031663ce0e6d74836101400151858560400151866060015187608001518860a001518960c001518a60e0015160018c61010001518d61012001516040518c63ffffffff1660e01b81526004016116879a99989796959493929190611b55565b6000604051808303818588803b1580156116a057600080fd5b505af11580156116b4573d6000803e3d6000fd5b505050505050505050565b8060025481106116ce57600080fd5b600082815260016020526040902080546001600160a01b031633146116f257600080fd5b600c01805461ff00191690555050565b82805461170e90611daa565b90600052602060002090601f0160209004810192826117305760008555611776565b82601f1061174957805160ff1916838001178555611776565b82800160010185558215611776579182015b8281111561177657825182559160200191906001019061175b565b50611782929150611786565b5090565b5b808211156117825760008155600101611787565b60006117ae6117a984611d3b565b611d0a565b90508281528383830111156117c257600080fd5b6117d0836020830184611d7a565b9392505050565b80356001600160a01b03811681146117ee57600080fd5b919050565b600082601f830112611803578081fd5b81356118116117a982611d3b565b818152846020838601011115611825578283fd5b816020850160208301379081016020019190915292915050565b600082601f83011261184f578081fd5b6117d08383516020850161179b565b60008060008060008060008060006101208a8c03121561187c578485fd5b6118858a6117d7565b985060208a013567ffffffffffffffff808211156118a1578687fd5b6118ad8d838e016117f3565b995060408c01359150808211156118c2578687fd5b6118ce8d838e016117f3565b985060608c01359150808211156118e3578687fd5b6118ef8d838e016117f3565b975060808c0135965060a08c0135955060c08c0135945060e08c013593506101008c0135915080821115611921578283fd5b5061192e8c828d016117f3565b9150509295985092959850929598565b60006020828403121561194f578081fd5b815180151581146117d0578182fd5b60006020828403121561196f578081fd5b815167ffffffffffffffff811115611985578182fd5b8201601f81018413611995578182fd5b6119a48482516020840161179b565b949350505050565b60008060008060008060c087890312156119c4578182fd5b865167ffffffffffffffff808211156119db578384fd5b6119e78a838b0161183f565b975060208901519150808211156119fc578384fd5b611a088a838b0161183f565b9650604089015195506060890151915080821115611a24578384fd5b611a308a838b0161183f565b94506080890151915080821115611a45578384fd5b611a518a838b0161183f565b935060a0890151915080821115611a66578283fd5b50611a7389828a0161183f565b9150509295509295509295565b600060208284031215611a91578081fd5b5035919050565b600060208284031215611aa9578081fd5b5051919050565b60008060408385031215611ac2578182fd5b82359150602083013567ffffffffffffffff811115611adf578182fd5b611aeb858286016117f3565b9150509250929050565b60008060408385031215611b07578182fd5b82359150602083013560ff81168114611b1e578182fd5b809150509250929050565b60008151808452611b41816020860160208601611d7a565b601f01601f19169290920160200192915050565b60006101406001600160a01b038d168352806020840152611b788184018d611b29565b90508281036040840152611b8c818c611b29565b90508281036060840152611ba0818b611b29565b90508281036080840152611bb4818a611b29565b60a0840198909852505060c081019490945260e08401929092526101008301526101209091015295945050505050565b60006101006001600160a01b038b168352896020840152806040840152611c0d8184018a611b29565b90508281036060840152611c218189611b29565b90508281036080840152611c358188611b29565b90508560a084015282810360c0840152611c4f8186611b29565b905082810360e0840152611c638185611b29565b9b9a5050505050505050505050565b60006020808301818452808551808352604092508286019150828160051b870101848801865b83811015611cfc57603f19898403018552815160806001600160a01b03808351168652808a840151168a87015250878201518189870152611cdb82870182611b29565b60609384015196909301959095525094870194925090860190600101611c98565b509098975050505050505050565b604051601f8201601f1916810167ffffffffffffffff81118282101715611d3357611d33611e10565b604052919050565b600067ffffffffffffffff821115611d5557611d55611e10565b50601f01601f191660200190565b600082821015611d7557611d75611dfa565b500390565b60005b83811015611d95578181015183820152602001611d7d565b83811115611da4576000848401525b50505050565b600181811c90821680611dbe57607f821691505b60208210811415610c7957634e487b7160e01b600052602260045260246000fd5b6000600019821415611df357611df3611dfa565b5060010190565b634e487b7160e01b600052601160045260246000fd5b634e487b7160e01b600052604160045260246000fdfea264697066735822122063bbdad82441b1a3c9b1b08084d563257b66aff7d1d1df18c3d781792568876464736f6c63430008040033",
  "linkReferences": {},
  "deployedLinkReferences": {}
}