{
  "_format": "hh-sol-artifact-1",
  "contractName": "RequestContract",
  "sourceName": "contracts/RequestContract.sol",
  "abi": [
    {
      "inputs": [
        {
          "internalType": "address",
          "name": "_interfaceHUB",
          "type": "address"
        },
        {
          "internalType": "address",
          "name": "_interfaceJOB",
          "type": "address"
        }
      ],
      "stateMutability": "nonpayable",
      "type": "constructor"
    },
    {
      "anonymous": false,
      "inputs": [
        {
          "indexed": false,
          "internalType": "uint256",
          "name": "",
          "type": "uint256"
        },
        {
          "indexed": false,
          "internalType": "uint256",
          "name": "",
          "type": "uint256"
        }
      ],
      "name": "ev_CloseRequest",
      "type": "event"
    },
    {
      "anonymous": false,
      "inputs": [
        {
          "indexed": false,
          "internalType": "address",
          "name": "",
          "type": "address"
        },
        {
          "indexed": false,
          "internalType": "address",
          "name": "",
          "type": "address"
        }
      ],
      "name": "ev_CreateRequest",
      "type": "event"
    },
    {
      "anonymous": false,
      "inputs": [
        {
          "indexed": false,
          "internalType": "address",
          "name": "",
          "type": "address"
        },
        {
          "indexed": false,
          "internalType": "address",
          "name": "",
          "type": "address"
        }
      ],
      "name": "ev_SendMessage",
      "type": "event"
    },
    {
      "inputs": [
        {
          "internalType": "uint256",
          "name": "_nrRequest",
          "type": "uint256"
        }
      ],
      "name": "CloseRequest",
      "outputs": [],
      "stateMutability": "nonpayable",
      "type": "function"
    },
    {
      "inputs": [
        {
          "internalType": "address",
          "name": "_destination",
          "type": "address"
        },
        {
          "internalType": "string",
          "name": "_title",
          "type": "string"
        },
        {
          "internalType": "string",
          "name": "_description",
          "type": "string"
        },
        {
          "internalType": "string",
          "name": "_workingAddress",
          "type": "string"
        },
        {
          "internalType": "uint256",
          "name": "_hourInit",
          "type": "uint256"
        },
        {
          "internalType": "uint256",
          "name": "_hourFinish",
          "type": "uint256"
        },
        {
          "internalType": "uint256",
          "name": "_dateFrom",
          "type": "uint256"
        },
        {
          "internalType": "uint256",
          "name": "_dateTo",
          "type": "uint256"
        },
        {
          "internalType": "string",
          "name": "_message",
          "type": "string"
        }
      ],
      "name": "CreateRequest",
      "outputs": [],
      "stateMutability": "payable",
      "type": "function"
    },
    {
      "inputs": [
        {
          "internalType": "uint256",
          "name": "_nrRequest",
          "type": "uint256"
        },
        {
          "internalType": "string",
          "name": "_message",
          "type": "string"
        }
      ],
      "name": "SendMessage",
      "outputs": [],
      "stateMutability": "nonpayable",
      "type": "function"
    },
    {
      "inputs": [
        {
          "internalType": "uint256",
          "name": "_nrRequest",
          "type": "uint256"
        },
        {
          "internalType": "uint8",
          "name": "_status",
          "type": "uint8"
        }
      ],
      "name": "SetAnswer",
      "outputs": [],
      "stateMutability": "nonpayable",
      "type": "function"
    },
    {
      "inputs": [],
      "name": "ShowCounterRequests",
      "outputs": [
        {
          "internalType": "uint256",
          "name": "",
          "type": "uint256"
        }
      ],
      "stateMutability": "view",
      "type": "function"
    },
    {
      "inputs": [
        {
          "internalType": "uint256",
          "name": "_nrRequest",
          "type": "uint256"
        }
      ],
      "name": "ShowMessages",
      "outputs": [
        {
          "components": [
            {
              "internalType": "address",
              "name": "owner",
              "type": "address"
            },
            {
              "internalType": "address",
              "name": "destination",
              "type": "address"
            },
            {
              "internalType": "string",
              "name": "message",
              "type": "string"
            },
            {
              "internalType": "uint256",
              "name": "datetime",
              "type": "uint256"
            }
          ],
          "internalType": "struct RequestContract.Message[]",
          "name": "",
          "type": "tuple[]"
        }
      ],
      "stateMutability": "view",
      "type": "function"
    },
    {
      "inputs": [
        {
          "internalType": "uint256",
          "name": "_nrRequest",
          "type": "uint256"
        }
      ],
      "name": "ShowRequest",
      "outputs": [
        {
          "internalType": "address",
          "name": "",
          "type": "address"
        },
        {
          "internalType": "address",
          "name": "",
          "type": "address"
        },
        {
          "internalType": "uint256",
          "name": "",
          "type": "uint256"
        },
        {
          "internalType": "uint256",
          "name": "",
          "type": "uint256"
        },
        {
          "internalType": "uint256",
          "name": "",
          "type": "uint256"
        },
        {
          "internalType": "uint256",
          "name": "",
          "type": "uint256"
        },
        {
          "internalType": "uint256",
          "name": "",
          "type": "uint256"
        },
        {
          "internalType": "uint8",
          "name": "",
          "type": "uint8"
        },
        {
          "internalType": "bool",
          "name": "",
          "type": "bool"
        }
      ],
      "stateMutability": "view",
      "type": "function"
    }
  ],
  "bytecode": "0x60806040523480156200001157600080fd5b5060405162001faf38038062001faf833981016040819052620000349162000088565b6001600055600380546001600160a01b039384166001600160a01b03199182161790915560048054929093169116179055620000bf565b80516001600160a01b03811681146200008357600080fd5b919050565b600080604083850312156200009b578182fd5b620000a6836200006b565b9150620000b6602084016200006b565b90509250929050565b611ee080620000cf6000396000f3fe6080604052600436106100705760003560e01c80637c1a24331161004e5780637c1a2433146101305780638a0b61531461015d578063a8404e3f1461017b578063b7a45a7b1461019b57600080fd5b806324c12f5614610075578063783485fc146100975780637a41bdc5146100b7575b600080fd5b34801561008157600080fd5b50610095610090366004611b4e565b6101ae565b005b3480156100a357600080fd5b506100956100b2366004611b7e565b6107a5565b3480156100c357600080fd5b506100d76100d2366004611b4e565b61096d565b604080516001600160a01b039a8b1681529990981660208a0152968801959095526060870193909352608086019190915260a085015260c084015260ff1660e08301521515610100820152610120015b60405180910390f35b34801561013c57600080fd5b5061015061014b366004611b4e565b610abc565b6040516101279190611d5f565b34801561016957600080fd5b50600254604051908152602001610127565b34801561018757600080fd5b50610095610196366004611bc3565b610c81565b6100956101a9366004611a05565b610d49565b8060025481106101bd57600080fd5b600260005414156102155760405162461bcd60e51b815260206004820152601f60248201527f5265656e7472616e637947756172643a207265656e7472616e742063616c6c0060448201526064015b60405180910390fd5b600260009081558281526001602052604090208054600c909101546001600160a01b0390911690610100900460ff1661024d57600080fd5b6001600160a01b038116331461026257600080fd5b6000838152600160208190526040909120600c81015491015460ff909116906001600160a01b0316600282141561070f576004546003546001600160a01b0391821691166102b087336111fc565b60405163e1fc78a960e01b815233600482018190526000916001600160a01b0384169163c23e8eff91600190849063e1fc78a99060240160206040518083038186803b1580156102ff57600080fd5b505afa158015610313573d6000803e3d6000fd5b505050506040513d601f19601f820116820180604052508101906103379190611b66565b6103419190611df7565b6040517fffffffff0000000000000000000000000000000000000000000000000000000060e085901b1681526001600160a01b039092166004830152602482015260440160206040518083038186803b15801561039d57600080fd5b505afa1580156103b1573d6000803e3d6000fd5b505050506040513d601f19601f820116820180604052508101906103d59190611b66565b9050600080600080600080876001600160a01b0316631dcd8a508b6040518263ffffffff1660e01b815260040161041b91906001600160a01b0391909116815260200190565b60c06040518083038186803b15801561043357600080fd5b505afa158015610447573d6000803e3d6000fd5b505050506040513d601f19601f8201168201806040525081019061046b9190611b05565b955095509550955095509550886001600160a01b03166378c271428b896104918a6116c1565b61049a8a6116c1565b6104a3896116c1565b8a6104ad8a6116c1565b6104b68a6116c1565b6040518963ffffffff1660e01b81526004016104d9989796959493929190611cd1565b600060405180830381600087803b1580156104f357600080fd5b505af1158015610507573d6000803e3d6000fd5b505060405163e1fc78a960e01b81523360048201526001600160a01b03808d16935063130176699250600191908c169063e1fc78a99060240160206040518083038186803b15801561055857600080fd5b505afa15801561056c573d6000803e3d6000fd5b505050506040513d601f19601f820116820180604052508101906105909190611b66565b61059a9190611df7565b6040517fffffffff0000000000000000000000000000000000000000000000000000000060e084901b168152600481019190915260006024820152604401600060405180830381600087803b1580156105f257600080fd5b505af1158015610606573d6000803e3d6000fd5b50506040517f2665ca3c0000000000000000000000000000000000000000000000000000000081526001600160a01b038d81166004830152602482018b90528c169250632665ca3c9150604401600060405180830381600087803b15801561066d57600080fd5b505af1158015610681573d6000803e3d6000fd5b50506040517f0b216438000000000000000000000000000000000000000000000000000000008152600481018a90526001600160a01b038c169250630b2164389150602401600060405180830381600087803b1580156106e057600080fd5b505af11580156106f4573d6000803e3d6000fd5b505050506107018e611886565b505050505050505050610760565b61071885611886565b600085815260016020526040808220600a015490516001600160a01b0386169282156108fc02929190818181858888f1935050505015801561075e573d6000803e3d6000fd5b505b60408051868152602081018490527f5b35f771d9f644c0f2050975bea8e2fbc8b54a867818d17d83983f4538dcaeb3910160405180910390a150506001600055505050565b6000828152600160205260409020600c810154610100900460ff166107c957600080fd5b60018101546001600160a01b03163314806107ed575080546001600160a01b031633145b61084a5760405162461bcd60e51b815260206004820152602860248201527f596f75277265206e6f74207468652064657374696e6174696f6e206f7220746860448201526765206f776e65722160c01b606482015260840161020c565b60018101546000906001600160a01b0316331415610873575080546001600160a01b0316610883565b5060018101546001600160a01b03165b604080516080810182523381526001600160a01b038381166020808401918252938301878152426060850152600b87018054600181810183556000928352918790208651600490920201805491861673ffffffffffffffffffffffffffffffffffffffff199283161781559351918401805492909516911617909255905180519293849361091792600285019201906118c9565b5060609190910151600390910155604080513381526001600160a01b03841660208201527fd8b299e59f769a419bee2384c79e5dc491a05f9533388b3376d9848981da81b6910160405180910390a15050505050565b600080600080600080600080600089600254811061098a57600080fd5b60008b815260016020526040902080546001600160a01b03163314806109bc575060018101546001600160a01b031633145b610a2e5760405162461bcd60e51b815260206004820152602660248201527f596f75277265206e6f7420616c6c6f77656420746f207265616420746865207260448201527f6571756573740000000000000000000000000000000000000000000000000000606482015260840161020c565b8060000160009054906101000a90046001600160a01b03168160010160009054906101000a90046001600160a01b03168260080154836009015484600a01548560060154866007015487600c0160009054906101000a900460ff1688600c0160019054906101000a900460ff169a509a509a509a509a509a509a509a509a5050509193959799909294969850565b6060816002548110610acd57600080fd5b6000838152600160208190526040909120908101546001600160a01b0316331480610b01575080546001600160a01b031633145b610b5e5760405162461bcd60e51b815260206004820152602860248201527f596f75277265206e6f74207468652064657374696e6174696f6e206f7220746860448201526765206f776e65722160c01b606482015260840161020c565b80600b01805480602002602001604051908101604052809291908181526020016000905b82821015610c73576000848152602090819020604080516080810182526004860290920180546001600160a01b0390811684526001820154169383019390935260028301805492939291840191610bd890611e0e565b80601f0160208091040260200160405190810160405280929190818152602001828054610c0490611e0e565b8015610c515780601f10610c2657610100808354040283529160200191610c51565b820191906000526020600020905b815481529060010190602001808311610c3457829003601f168201915b5050505050815260200160038201548152505081526020019060010190610b82565b505050509250505b50919050565b816002548110610c9057600080fd5b6000838152600160205260409020600c810154610100900460ff16610cf75760405162461bcd60e51b815260206004820152601a60248201527f5468652072657175657374206973206e6f742061637469766521000000000000604482015260640161020c565b60018101546001600160a01b03163314610d1057600080fd5b60008360ff16118015610d26575060038360ff16105b610d2f57600080fd5b600c01805460ff191660ff93909316929092179091555050565b6003546040517f30b1937a0000000000000000000000000000000000000000000000000000000081523360048201526001600160a01b039091169081906330b1937a9060240160206040518083038186803b158015610da757600080fd5b505afa158015610dbb573d6000803e3d6000fd5b505050506040513d601f19601f82011682018060405250810190610ddf9190611ae5565b610e2b5760405162461bcd60e51b815260206004820152600d60248201527f4e6f74206120636f6d70616e7900000000000000000000000000000000000000604482015260640161020c565b60003411610ea05760405162461bcd60e51b8152602060048201526024808201527f596f75206d75737420637265617465206120726571756573742077697468207660448201527f616c756500000000000000000000000000000000000000000000000000000000606482015260840161020c565b600086118015610eaf57508585115b8015610ebb5750600084115b8015610ec657508383115b610f125760405162461bcd60e51b815260206004820152601960248201527f54686520696e707574732061726520696e636f72726563747300000000000000604482015260640161020c565b60006001600060025481526020019081526020016000209050338160000160006101000a8154816001600160a01b0302191690836001600160a01b031602179055508a8160010160006101000a8154816001600160a01b0302191690836001600160a01b0316021790555089816002019080519060200190610f959291906118c9565b508851610fab90600383019060208c01906118c9565b508751610fc190600483019060208b01906118c9565b50600881018590556009810184905534600a8201556006810187905560078101869055600c8101805461ffff1916610100179055604080516080810182523381526001600160a01b038d81166020808401918252938301878152426060850152600b8601805460018181018355600092835291879020865160049290920201805491861673ffffffffffffffffffffffffffffffffffffffff199283161781559351918401805492909516911617909255905180519293919261108a92600285019201906118c9565b5060609190910151600391820155546002546040517f879716da0000000000000000000000000000000000000000000000000000000081526001600160a01b038e811660048301526024820192909252911690819063879716da90604401600060405180830381600087803b15801561110257600080fd5b505af1158015611116573d6000803e3d6000fd5b50506002546040517f89c609c000000000000000000000000000000000000000000000000000000000815233600482015260248101919091526001600160a01b03841692506389c609c09150604401600060405180830381600087803b15801561117f57600080fd5b505af1158015611193573d6000803e3d6000fd5b5050600280549250905060006111a883611e43565b9091555050604080513381526001600160a01b038e1660208201527fe574516642c19610bea5fc1607d78a7cd18f285d643c3f76da84f4bf50daff10910160405180910390a1505050505050505050505050565b600082815260016020818152604080842081516101c08101835281546001600160a01b03908116825294820154909416928401929092526002820180549184019161124690611e0e565b80601f016020809104026020016040519081016040528092919081815260200182805461127290611e0e565b80156112bf5780601f10611294576101008083540402835291602001916112bf565b820191906000526020600020905b8154815290600101906020018083116112a257829003601f168201915b505050505081526020016003820180546112d890611e0e565b80601f016020809104026020016040519081016040528092919081815260200182805461130490611e0e565b80156113515780601f1061132657610100808354040283529160200191611351565b820191906000526020600020905b81548152906001019060200180831161133457829003601f168201915b5050505050815260200160048201805461136a90611e0e565b80601f016020809104026020016040519081016040528092919081815260200182805461139690611e0e565b80156113e35780601f106113b8576101008083540402835291602001916113e3565b820191906000526020600020905b8154815290600101906020018083116113c657829003601f168201915b505050505081526020016005820180546113fc90611e0e565b80601f016020809104026020016040519081016040528092919081815260200182805461142890611e0e565b80156114755780601f1061144a57610100808354040283529160200191611475565b820191906000526020600020905b81548152906001019060200180831161145857829003601f168201915b5050505050815260200160068201548152602001600782015481526020016008820154815260200160098201548152602001600a8201548152602001600b8201805480602002602001604051908101604052809291908181526020016000905b828210156115c6576000848152602090819020604080516080810182526004860290920180546001600160a01b039081168452600182015416938301939093526002830180549293929184019161152b90611e0e565b80601f016020809104026020016040519081016040528092919081815260200182805461155790611e0e565b80156115a45780601f10611579576101008083540402835291602001916115a4565b820191906000526020600020905b81548152906001019060200180831161158757829003601f168201915b50505050508152602001600382015481525050815260200190600101906114d5565b505050508152602001600c820160009054906101000a900460ff1660ff1660ff168152602001600c820160019054906101000a900460ff16151515158152505090506000600460009054906101000a90046001600160a01b03169050806001600160a01b031663ce0e6d74836101400151858560400151866060015187608001518860a001518960c001518a60e0015160018c61010001518d61012001516040518c63ffffffff1660e01b81526004016116899a99989796959493929190611c42565b6000604051808303818588803b1580156116a257600080fd5b505af11580156116b6573d6000803e3d6000fd5b505050505050505050565b606060005b60208160ff161080156117205750828160ff16602081106116f757634e487b7160e01b600052603260045260246000fd5b1a60f81b7fff000000000000000000000000000000000000000000000000000000000000001615155b15611737578061172f81611e5e565b9150506116c6565b60008160ff1667ffffffffffffffff81111561176357634e487b7160e01b600052604160045260246000fd5b6040519080825280601f01601f19166020018201604052801561178d576020820181803683370190505b509050600091505b60208260ff161080156117ef5750838260ff16602081106117c657634e487b7160e01b600052603260045260246000fd5b1a60f81b7fff000000000000000000000000000000000000000000000000000000000000001615155b1561187f57838260ff166020811061181757634e487b7160e01b600052603260045260246000fd5b1a60f81b818360ff168151811061183e57634e487b7160e01b600052603260045260246000fd5b60200101907effffffffffffffffffffffffffffffffffffffffffffffffffffffffffffff1916908160001a9053508161187781611e5e565b925050611795565b9392505050565b80600254811061189557600080fd5b600082815260016020526040902080546001600160a01b031633146118b957600080fd5b600c01805461ff00191690555050565b8280546118d590611e0e565b90600052602060002090601f0160209004810192826118f7576000855561193d565b82601f1061191057805160ff191683800117855561193d565b8280016001018555821561193d579182015b8281111561193d578251825591602001919060010190611922565b5061194992915061194d565b5090565b5b80821115611949576000815560010161194e565b80356001600160a01b038116811461197957600080fd5b919050565b600082601f83011261198e578081fd5b813567ffffffffffffffff808211156119a9576119a9611e94565b604051601f8301601f19908116603f011681019082821181831017156119d1576119d1611e94565b816040528381528660208588010111156119e9578485fd5b8360208701602083013792830160200193909352509392505050565b60008060008060008060008060006101208a8c031215611a23578485fd5b611a2c8a611962565b985060208a013567ffffffffffffffff80821115611a48578687fd5b611a548d838e0161197e565b995060408c0135915080821115611a69578687fd5b611a758d838e0161197e565b985060608c0135915080821115611a8a578687fd5b611a968d838e0161197e565b975060808c0135965060a08c0135955060c08c0135945060e08c013593506101008c0135915080821115611ac8578283fd5b50611ad58c828d0161197e565b9150509295985092959850929598565b600060208284031215611af6578081fd5b8151801515811461187f578182fd5b60008060008060008060c08789031215611b1d578182fd5b865195506020870151945060408701519350606087015192506080870151915060a087015190509295509295509295565b600060208284031215611b5f578081fd5b5035919050565b600060208284031215611b77578081fd5b5051919050565b60008060408385031215611b90578182fd5b82359150602083013567ffffffffffffffff811115611bad578182fd5b611bb98582860161197e565b9150509250929050565b60008060408385031215611bd5578182fd5b82359150602083013560ff81168114611bec578182fd5b809150509250929050565b60008151808452815b81811015611c1c57602081850181015186830182015201611c00565b81811115611c2d5782602083870101525b50601f01601f19169290920160200192915050565b60006101406001600160a01b038d168352806020840152611c658184018d611bf7565b90508281036040840152611c79818c611bf7565b90508281036060840152611c8d818b611bf7565b90508281036080840152611ca1818a611bf7565b60a0840198909852505060c081019490945260e08401929092526101008301526101209091015295945050505050565b60006101006001600160a01b038b168352896020840152806040840152611cfa8184018a611bf7565b90508281036060840152611d0e8189611bf7565b90508281036080840152611d228188611bf7565b90508560a084015282810360c0840152611d3c8186611bf7565b905082810360e0840152611d508185611bf7565b9b9a5050505050505050505050565b60006020808301818452808551808352604092508286019150828160051b870101848801865b83811015611de957603f19898403018552815160806001600160a01b03808351168652808a840151168a87015250878201518189870152611dc882870182611bf7565b60609384015196909301959095525094870194925090860190600101611d85565b509098975050505050505050565b600082821015611e0957611e09611e7e565b500390565b600181811c90821680611e2257607f821691505b60208210811415610c7b57634e487b7160e01b600052602260045260246000fd5b6000600019821415611e5757611e57611e7e565b5060010190565b600060ff821660ff811415611e7557611e75611e7e565b60010192915050565b634e487b7160e01b600052601160045260246000fd5b634e487b7160e01b600052604160045260246000fdfea2646970667358221220015ab1fe55775779a40cd26b793aa293ff50fa77585b999ccf7e94388c84524d64736f6c63430008040033",
  "linkReferences": {},
  "deployedLinkReferences": {}
}