{
  "_format": "hh-sol-artifact-1",
  "contractName": "RequestContract",
  "sourceName": "contracts/RequestContract.sol",
  "abi": [
    {
      "inputs": [
        {
          "internalType": "address",
          "name": "_interfaceHUB",
          "type": "address"
        },
        {
          "internalType": "address",
          "name": "_interfaceJOB",
          "type": "address"
        }
      ],
      "stateMutability": "nonpayable",
      "type": "constructor"
    },
    {
      "anonymous": false,
      "inputs": [
        {
          "indexed": false,
          "internalType": "uint256",
          "name": "",
          "type": "uint256"
        },
        {
          "indexed": false,
          "internalType": "uint256",
          "name": "",
          "type": "uint256"
        }
      ],
      "name": "ev_CloseRequest",
      "type": "event"
    },
    {
      "anonymous": false,
      "inputs": [
        {
          "indexed": false,
          "internalType": "address",
          "name": "",
          "type": "address"
        },
        {
          "indexed": false,
          "internalType": "address",
          "name": "",
          "type": "address"
        }
      ],
      "name": "ev_CreateRequest",
      "type": "event"
    },
    {
      "anonymous": false,
      "inputs": [
        {
          "indexed": false,
          "internalType": "address",
          "name": "",
          "type": "address"
        },
        {
          "indexed": false,
          "internalType": "address",
          "name": "",
          "type": "address"
        }
      ],
      "name": "ev_SendMessage",
      "type": "event"
    },
    {
      "inputs": [
        {
          "internalType": "uint256",
          "name": "_nrRequest",
          "type": "uint256"
        }
      ],
      "name": "CloseRequest",
      "outputs": [],
      "stateMutability": "nonpayable",
      "type": "function"
    },
    {
      "inputs": [
        {
          "internalType": "address",
          "name": "_destination",
          "type": "address"
        },
        {
          "internalType": "string",
          "name": "_title",
          "type": "string"
        },
        {
          "internalType": "string",
          "name": "_description",
          "type": "string"
        },
        {
          "internalType": "string",
          "name": "_workingAddress",
          "type": "string"
        },
        {
          "internalType": "uint256",
          "name": "_hourInit",
          "type": "uint256"
        },
        {
          "internalType": "uint256",
          "name": "_hourFinish",
          "type": "uint256"
        },
        {
          "internalType": "uint256",
          "name": "_dateFrom",
          "type": "uint256"
        },
        {
          "internalType": "uint256",
          "name": "_dateTo",
          "type": "uint256"
        },
        {
          "internalType": "string",
          "name": "_message",
          "type": "string"
        }
      ],
      "name": "CreateRequest",
      "outputs": [],
      "stateMutability": "payable",
      "type": "function"
    },
    {
      "inputs": [
        {
          "internalType": "uint256",
          "name": "_nrRequest",
          "type": "uint256"
        },
        {
          "internalType": "string",
          "name": "_message",
          "type": "string"
        }
      ],
      "name": "SendMessage",
      "outputs": [],
      "stateMutability": "nonpayable",
      "type": "function"
    },
    {
      "inputs": [
        {
          "internalType": "uint256",
          "name": "_nrRequest",
          "type": "uint256"
        },
        {
          "internalType": "uint8",
          "name": "_status",
          "type": "uint8"
        }
      ],
      "name": "SetAnswer",
      "outputs": [],
      "stateMutability": "nonpayable",
      "type": "function"
    },
    {
      "inputs": [],
      "name": "ShowCounterRequests",
      "outputs": [
        {
          "internalType": "uint256",
          "name": "",
          "type": "uint256"
        }
      ],
      "stateMutability": "view",
      "type": "function"
    },
    {
      "inputs": [
        {
          "internalType": "uint256",
          "name": "_nrRequest",
          "type": "uint256"
        }
      ],
      "name": "ShowMessages",
      "outputs": [
        {
          "components": [
            {
              "internalType": "address",
              "name": "owner",
              "type": "address"
            },
            {
              "internalType": "address",
              "name": "destination",
              "type": "address"
            },
            {
              "internalType": "string",
              "name": "message",
              "type": "string"
            },
            {
              "internalType": "uint256",
              "name": "datetime",
              "type": "uint256"
            }
          ],
          "internalType": "struct RequestContract.Message[]",
          "name": "",
          "type": "tuple[]"
        }
      ],
      "stateMutability": "view",
      "type": "function"
    },
    {
      "inputs": [
        {
          "internalType": "uint256",
          "name": "_nrRequest",
          "type": "uint256"
        }
      ],
      "name": "ShowRequest",
      "outputs": [
        {
          "internalType": "address",
          "name": "",
          "type": "address"
        },
        {
          "internalType": "address",
          "name": "",
          "type": "address"
        },
        {
          "internalType": "string",
          "name": "",
          "type": "string"
        },
        {
          "internalType": "string",
          "name": "",
          "type": "string"
        },
        {
          "internalType": "string",
          "name": "",
          "type": "string"
        },
        {
          "internalType": "uint256",
          "name": "",
          "type": "uint256"
        },
        {
          "internalType": "uint256",
          "name": "",
          "type": "uint256"
        },
        {
          "internalType": "uint256",
          "name": "",
          "type": "uint256"
        },
        {
          "internalType": "uint256",
          "name": "",
          "type": "uint256"
        },
        {
          "internalType": "uint256",
          "name": "",
          "type": "uint256"
        }
      ],
      "stateMutability": "view",
      "type": "function"
    },
    {
      "inputs": [
        {
          "internalType": "uint256",
          "name": "_nrRequest",
          "type": "uint256"
        }
      ],
      "name": "ShowRequestStatus",
      "outputs": [
        {
          "internalType": "uint8",
          "name": "",
          "type": "uint8"
        },
        {
          "internalType": "bool",
          "name": "",
          "type": "bool"
        }
      ],
      "stateMutability": "view",
      "type": "function"
    }
  ],
  "bytecode": "0x60806040523480156200001157600080fd5b506040516200221538038062002215833981016040819052620000349162000088565b6001600055600380546001600160a01b039384166001600160a01b03199182161790915560048054929093169116179055620000bf565b80516001600160a01b03811681146200008357600080fd5b919050565b600080604083850312156200009b578182fd5b620000a6836200006b565b9150620000b6602084016200006b565b90509250929050565b61214680620000cf6000396000f3fe60806040526004361061007b5760003560e01c80637c1a24331161004e5780637c1a2433146101365780638a0b615314610163578063a8404e3f14610181578063b7a45a7b146101a157600080fd5b806324c12f56146100805780635838123e146100a2578063783485fc146100e05780637a41bdc514610100575b600080fd5b34801561008c57600080fd5b506100a061009b366004611d3d565b6101b4565b005b3480156100ae57600080fd5b506100c26100bd366004611d3d565b61082f565b6040805160ff90931683529015156020830152015b60405180910390f35b3480156100ec57600080fd5b506100a06100fb366004611d6d565b6108e7565b34801561010c57600080fd5b5061012061011b366004611d3d565b610aaf565b6040516100d79a99989796959493929190611ea1565b34801561014257600080fd5b50610156610151366004611d3d565b610d77565b6040516100d79190611f5c565b34801561016f57600080fd5b506002546040519081526020016100d7565b34801561018d57600080fd5b506100a061019c366004611db2565b610f3c565b6100a06101af366004611b1b565b611004565b8060025481106101c357600080fd5b6002600054141561021b5760405162461bcd60e51b815260206004820152601f60248201527f5265656e7472616e637947756172643a207265656e7472616e742063616c6c0060448201526064015b60405180910390fd5b600260009081558281526001602052604090208054600c909101546001600160a01b0390911690610100900460ff166102965760405162461bcd60e51b815260206004820152600a60248201527f4e6f7420616374697665000000000000000000000000000000000000000000006044820152606401610212565b6001600160a01b03811633146102ee5760405162461bcd60e51b815260206004820152600960248201527f4e6f74206f776e657200000000000000000000000000000000000000000000006044820152606401610212565b6000838152600160208190526040909120600c81015491015460ff909116906001600160a01b03166002821415610799576004546003546001600160a01b03918216911661033c87336114b7565b60405163e1fc78a960e01b815233600482018190526000916001600160a01b0384169163c23e8eff91600190849063e1fc78a99060240160206040518083038186803b15801561038b57600080fd5b505afa15801561039f573d6000803e3d6000fd5b505050506040513d601f19601f820116820180604052508101906103c39190611d55565b6103cd919061204d565b6040517fffffffff0000000000000000000000000000000000000000000000000000000060e085901b1681526001600160a01b039092166004830152602482015260440160206040518083038186803b15801561042957600080fd5b505afa15801561043d573d6000803e3d6000fd5b505050506040513d601f19601f820116820180604052508101906104619190611d55565b6040517f1dcd8a500000000000000000000000000000000000000000000000000000000081526001600160a01b038681166004830152919250600091841690631dcd8a509060240160006040518083038186803b1580156104c157600080fd5b505afa1580156104d5573d6000803e3d6000fd5b505050506040513d6000823e601f3d908101601f191682016040526104fd9190810190611c1b565b90506000806000806000808680602001905181019061051c9190611c69565b955095509550955095509550896001600160a01b03166378c271428c8a8989888a89896040518963ffffffff1660e01b8152600401610562989796959493929190611ece565b600060405180830381600087803b15801561057c57600080fd5b505af1158015610590573d6000803e3d6000fd5b505060405163e1fc78a960e01b81523360048201526001600160a01b03808e16935063130176699250600191908d169063e1fc78a99060240160206040518083038186803b1580156105e157600080fd5b505afa1580156105f5573d6000803e3d6000fd5b505050506040513d601f19601f820116820180604052508101906106199190611d55565b610623919061204d565b6040517fffffffff0000000000000000000000000000000000000000000000000000000060e084901b168152600481019190915260006024820152604401600060405180830381600087803b15801561067b57600080fd5b505af115801561068f573d6000803e3d6000fd5b50506040517f2665ca3c0000000000000000000000000000000000000000000000000000000081526001600160a01b038e81166004830152602482018c90528d169250632665ca3c9150604401600060405180830381600087803b1580156106f657600080fd5b505af115801561070a573d6000803e3d6000fd5b50506040517f0b216438000000000000000000000000000000000000000000000000000000008152600481018b90526001600160a01b038d169250630b2164389150602401600060405180830381600087803b15801561076957600080fd5b505af115801561077d573d6000803e3d6000fd5b5050505061078a8f61197c565b505050505050505050506107ea565b6107a28561197c565b600085815260016020526040808220600a015490516001600160a01b0386169282156108fc02929190818181858888f193505050501580156107e8573d6000803e3d6000fd5b505b60408051868152602081018490527f5b35f771d9f644c0f2050975bea8e2fbc8b54a867818d17d83983f4538dcaeb3910160405180910390a150506001600055505050565b60008082600254811061084157600080fd5b600084815260016020526040902080546001600160a01b0316331480610873575060018101546001600160a01b031633145b6108ce5760405162461bcd60e51b815260206004820152602660248201527f596f75277265206e6f7420616c6c6f77656420746f2072656164207468652072604482015265195c5d595cdd60d21b6064820152608401610212565b600c015460ff8082169661010090920416945092505050565b6000828152600160205260409020600c810154610100900460ff1661090b57600080fd5b60018101546001600160a01b031633148061092f575080546001600160a01b031633145b61098c5760405162461bcd60e51b815260206004820152602860248201527f596f75277265206e6f74207468652064657374696e6174696f6e206f7220746860448201526765206f776e65722160c01b6064820152608401610212565b60018101546000906001600160a01b03163314156109b5575080546001600160a01b03166109c5565b5060018101546001600160a01b03165b604080516080810182523381526001600160a01b038381166020808401918252938301878152426060850152600b87018054600181810183556000928352918790208651600490920201805491861673ffffffffffffffffffffffffffffffffffffffff1992831617815593519184018054929095169116179092559051805192938493610a5992600285019201906119bf565b5060609190910151600390910155604080513381526001600160a01b03841660208201527fd8b299e59f769a419bee2384c79e5dc491a05f9533388b3376d9848981da81b6910160405180910390a15050505050565b600080606080606060008060008060008a6002548110610ace57600080fd5b60008c815260016020526040902080546001600160a01b0316331480610b00575060018101546001600160a01b031633145b610b5b5760405162461bcd60e51b815260206004820152602660248201527f596f75277265206e6f7420616c6c6f77656420746f2072656164207468652072604482015265195c5d595cdd60d21b6064820152608401610212565b8060000160009054906101000a90046001600160a01b03168160010160009054906101000a90046001600160a01b0316826002018360030184600401856006015486600701548760080154886009015489600a0154878054610bbc90612094565b80601f0160208091040260200160405190810160405280929190818152602001828054610be890612094565b8015610c355780601f10610c0a57610100808354040283529160200191610c35565b820191906000526020600020905b815481529060010190602001808311610c1857829003601f168201915b50505050509750868054610c4890612094565b80601f0160208091040260200160405190810160405280929190818152602001828054610c7490612094565b8015610cc15780601f10610c9657610100808354040283529160200191610cc1565b820191906000526020600020905b815481529060010190602001808311610ca457829003601f168201915b50505050509650858054610cd490612094565b80601f0160208091040260200160405190810160405280929190818152602001828054610d0090612094565b8015610d4d5780601f10610d2257610100808354040283529160200191610d4d565b820191906000526020600020905b815481529060010190602001808311610d3057829003601f168201915b505050505095509b509b509b509b509b509b509b509b509b509b5050509193959799509193959799565b6060816002548110610d8857600080fd5b6000838152600160208190526040909120908101546001600160a01b0316331480610dbc575080546001600160a01b031633145b610e195760405162461bcd60e51b815260206004820152602860248201527f596f75277265206e6f74207468652064657374696e6174696f6e206f7220746860448201526765206f776e65722160c01b6064820152608401610212565b80600b01805480602002602001604051908101604052809291908181526020016000905b82821015610f2e576000848152602090819020604080516080810182526004860290920180546001600160a01b0390811684526001820154169383019390935260028301805492939291840191610e9390612094565b80601f0160208091040260200160405190810160405280929190818152602001828054610ebf90612094565b8015610f0c5780601f10610ee157610100808354040283529160200191610f0c565b820191906000526020600020905b815481529060010190602001808311610eef57829003601f168201915b5050505050815260200160038201548152505081526020019060010190610e3d565b505050509250505b50919050565b816002548110610f4b57600080fd5b6000838152600160205260409020600c810154610100900460ff16610fb25760405162461bcd60e51b815260206004820152601a60248201527f5468652072657175657374206973206e6f7420616374697665210000000000006044820152606401610212565b60018101546001600160a01b03163314610fcb57600080fd5b60008360ff16118015610fe1575060038360ff16105b610fea57600080fd5b600c01805460ff191660ff93909316929092179091555050565b6003546040517f30b1937a0000000000000000000000000000000000000000000000000000000081523360048201526001600160a01b039091169081906330b1937a9060240160206040518083038186803b15801561106257600080fd5b505afa158015611076573d6000803e3d6000fd5b505050506040513d601f19601f8201168201806040525081019061109a9190611bfb565b6110e65760405162461bcd60e51b815260206004820152600d60248201527f4e6f74206120636f6d70616e79000000000000000000000000000000000000006044820152606401610212565b6000341161115b5760405162461bcd60e51b8152602060048201526024808201527f596f75206d75737420637265617465206120726571756573742077697468207660448201527f616c7565000000000000000000000000000000000000000000000000000000006064820152608401610212565b60008611801561116a57508585115b80156111765750600084115b801561118157508383115b6111cd5760405162461bcd60e51b815260206004820152601960248201527f54686520696e707574732061726520696e636f727265637473000000000000006044820152606401610212565b60006001600060025481526020019081526020016000209050338160000160006101000a8154816001600160a01b0302191690836001600160a01b031602179055508a8160010160006101000a8154816001600160a01b0302191690836001600160a01b03160217905550898160020190805190602001906112509291906119bf565b50885161126690600383019060208c01906119bf565b50875161127c90600483019060208b01906119bf565b50600881018590556009810184905534600a8201556006810187905560078101869055600c8101805461ffff1916610100179055604080516080810182523381526001600160a01b038d81166020808401918252938301878152426060850152600b8601805460018181018355600092835291879020865160049290920201805491861673ffffffffffffffffffffffffffffffffffffffff199283161781559351918401805492909516911617909255905180519293919261134592600285019201906119bf565b5060609190910151600391820155546002546040517f879716da0000000000000000000000000000000000000000000000000000000081526001600160a01b038e811660048301526024820192909252911690819063879716da90604401600060405180830381600087803b1580156113bd57600080fd5b505af11580156113d1573d6000803e3d6000fd5b50506002546040517f89c609c000000000000000000000000000000000000000000000000000000000815233600482015260248101919091526001600160a01b03841692506389c609c09150604401600060405180830381600087803b15801561143a57600080fd5b505af115801561144e573d6000803e3d6000fd5b505060028054925090506000611463836120c9565b9091555050604080513381526001600160a01b038e1660208201527fe574516642c19610bea5fc1607d78a7cd18f285d643c3f76da84f4bf50daff10910160405180910390a1505050505050505050505050565b600082815260016020818152604080842081516101c08101835281546001600160a01b03908116825294820154909416928401929092526002820180549184019161150190612094565b80601f016020809104026020016040519081016040528092919081815260200182805461152d90612094565b801561157a5780601f1061154f5761010080835404028352916020019161157a565b820191906000526020600020905b81548152906001019060200180831161155d57829003601f168201915b5050505050815260200160038201805461159390612094565b80601f01602080910402602001604051908101604052809291908181526020018280546115bf90612094565b801561160c5780601f106115e15761010080835404028352916020019161160c565b820191906000526020600020905b8154815290600101906020018083116115ef57829003601f168201915b5050505050815260200160048201805461162590612094565b80601f016020809104026020016040519081016040528092919081815260200182805461165190612094565b801561169e5780601f106116735761010080835404028352916020019161169e565b820191906000526020600020905b81548152906001019060200180831161168157829003601f168201915b505050505081526020016005820180546116b790612094565b80601f01602080910402602001604051908101604052809291908181526020018280546116e390612094565b80156117305780601f1061170557610100808354040283529160200191611730565b820191906000526020600020905b81548152906001019060200180831161171357829003601f168201915b5050505050815260200160068201548152602001600782015481526020016008820154815260200160098201548152602001600a8201548152602001600b8201805480602002602001604051908101604052809291908181526020016000905b82821015611881576000848152602090819020604080516080810182526004860290920180546001600160a01b03908116845260018201541693830193909352600283018054929392918401916117e690612094565b80601f016020809104026020016040519081016040528092919081815260200182805461181290612094565b801561185f5780601f106118345761010080835404028352916020019161185f565b820191906000526020600020905b81548152906001019060200180831161184257829003601f168201915b5050505050815260200160038201548152505081526020019060010190611790565b505050508152602001600c820160009054906101000a900460ff1660ff1660ff168152602001600c820160019054906101000a900460ff16151515158152505090506000600460009054906101000a90046001600160a01b03169050806001600160a01b031663ce0e6d74836101400151858560400151866060015187608001518860a001518960c001518a60e0015160018c61010001518d61012001516040518c63ffffffff1660e01b81526004016119449a99989796959493929190611e12565b6000604051808303818588803b15801561195d57600080fd5b505af1158015611971573d6000803e3d6000fd5b505050505050505050565b80600254811061198b57600080fd5b600082815260016020526040902080546001600160a01b031633146119af57600080fd5b600c01805461ff00191690555050565b8280546119cb90612094565b90600052602060002090601f0160209004810192826119ed5760008555611a33565b82601f10611a0657805160ff1916838001178555611a33565b82800160010185558215611a33579182015b82811115611a33578251825591602001919060010190611a18565b50611a3f929150611a43565b5090565b5b80821115611a3f5760008155600101611a44565b6000611a6b611a6684612025565b611ff4565b9050828152838383011115611a7f57600080fd5b611a8d836020830184612064565b9392505050565b80356001600160a01b0381168114611aab57600080fd5b919050565b600082601f830112611ac0578081fd5b8135611ace611a6682612025565b818152846020838601011115611ae2578283fd5b816020850160208301379081016020019190915292915050565b600082601f830112611b0c578081fd5b611a8d83835160208501611a58565b60008060008060008060008060006101208a8c031215611b39578485fd5b611b428a611a94565b985060208a013567ffffffffffffffff80821115611b5e578687fd5b611b6a8d838e01611ab0565b995060408c0135915080821115611b7f578687fd5b611b8b8d838e01611ab0565b985060608c0135915080821115611ba0578687fd5b611bac8d838e01611ab0565b975060808c0135965060a08c0135955060c08c0135945060e08c013593506101008c0135915080821115611bde578283fd5b50611beb8c828d01611ab0565b9150509295985092959850929598565b600060208284031215611c0c578081fd5b81518015158114611a8d578182fd5b600060208284031215611c2c578081fd5b815167ffffffffffffffff811115611c42578182fd5b8201601f81018413611c52578182fd5b611c6184825160208401611a58565b949350505050565b60008060008060008060c08789031215611c81578182fd5b865167ffffffffffffffff80821115611c98578384fd5b611ca48a838b01611afc565b97506020890151915080821115611cb9578384fd5b611cc58a838b01611afc565b9650604089015195506060890151915080821115611ce1578384fd5b611ced8a838b01611afc565b94506080890151915080821115611d02578384fd5b611d0e8a838b01611afc565b935060a0890151915080821115611d23578283fd5b50611d3089828a01611afc565b9150509295509295509295565b600060208284031215611d4e578081fd5b5035919050565b600060208284031215611d66578081fd5b5051919050565b60008060408385031215611d7f578182fd5b82359150602083013567ffffffffffffffff811115611d9c578182fd5b611da885828601611ab0565b9150509250929050565b60008060408385031215611dc4578182fd5b82359150602083013560ff81168114611ddb578182fd5b809150509250929050565b60008151808452611dfe816020860160208601612064565b601f01601f19169290920160200192915050565b60006101406001600160a01b038d168352806020840152611e358184018d611de6565b90508281036040840152611e49818c611de6565b90508281036060840152611e5d818b611de6565b90508281036080840152611e71818a611de6565b60a0840198909852505060c081019490945260e08401929092526101008301526101209091015295945050505050565b60006101406001600160a01b03808e168452808d16602085015250806040840152611e498184018c611de6565b60006101006001600160a01b038b168352896020840152806040840152611ef78184018a611de6565b90508281036060840152611f0b8189611de6565b90508281036080840152611f1f8188611de6565b90508560a084015282810360c0840152611f398186611de6565b905082810360e0840152611f4d8185611de6565b9b9a5050505050505050505050565b60006020808301818452808551808352604092508286019150828160051b870101848801865b83811015611fe657603f19898403018552815160806001600160a01b03808351168652808a840151168a87015250878201518189870152611fc582870182611de6565b60609384015196909301959095525094870194925090860190600101611f82565b509098975050505050505050565b604051601f8201601f1916810167ffffffffffffffff8111828210171561201d5761201d6120fa565b604052919050565b600067ffffffffffffffff82111561203f5761203f6120fa565b50601f01601f191660200190565b60008282101561205f5761205f6120e4565b500390565b60005b8381101561207f578181015183820152602001612067565b8381111561208e576000848401525b50505050565b600181811c908216806120a857607f821691505b60208210811415610f3657634e487b7160e01b600052602260045260246000fd5b60006000198214156120dd576120dd6120e4565b5060010190565b634e487b7160e01b600052601160045260246000fd5b634e487b7160e01b600052604160045260246000fdfea2646970667358221220a77387bbf10195f6e5ddede7ffc3290d6903b298d3c4827a02bc0997631d287a64736f6c63430008040033",
  "linkReferences": {},
  "deployedLinkReferences": {}
}